:100000000C944A040C9482040C9482040C94820490
:100010000C9482040C9482040C9482040C94820448
:100020000C9482040C9482040C9429180C94CA1C1D
:100030000C94E8270C9482040C9482040C9482049F
:100040000C9482040C9482040C9482040C94820418
:100050000C9482040C9402190C9482040C94820473
:100060000C9482040C9482040C9482040C948204F8
:100070000C9482040C9482040C9482040C948204E8
:100080000C9482040C9482040C9482040C948204D8
:100090000C9482040C9482040C9482040C948204C8
:1000A0000C9482040C9482040C94820405010902CD
:1000B000A10185020901A1000509190129081500FE
:1000C0002501950875018102050109300931158165
:1000D000257F95027508810609381581257F9501D0
:1000E00075088106050C0A38021581257F95017572
:1000F000088106C0C005010980A101850319012AF4
:10010000B700150126B700950175108100C0050CD8
:100110000901A101850419012AA002150126A002E6
:10012000950175108100C005010906A1018506052C
:100130000719E029E71500250195087501810205D9
:1001400007190029EF1500250195F07501810205B9
:10015000081901290595057501910295017503910D
:1001600001C00659FF0960A1010962150026FF00C0
:100170009540750881020963150026FF00954075BA
:10018000089102C00660FF0961A1010962150026FD
:10019000FF009520750881020963150026FF009570
:1001A0002075089102C005010906A101050719E0A3
:1001B00029E715002501950875018102950175084B
:1001C00081010507190029FF150026FF0095067516
:1001D0000881000508190129059505750191029509
:1001E0000175039101C00000000000000000000044
:1001F00000000000000000000000000000000000FF
:10020000000000000000000000007E0F00D4FFFF8F
:10021000FFC70000007800000000000000002A2B4B
:1002200028000000000000000000000000000000A6
:100230000029000000002C1E34202122243426270F
:10024000252E362D3738271E1F2021222324252630
:100250003333362E37381F0405060708090A0B0CFE
:100260000D0E0F101112131415161718191A1B1C46
:100270001D2F3130232D350405060708090A0B0C04
:100280000D0E0F101112131415161718191A1B1C26
:100290001D2F3130354C0001010101010101010127
:1002A0000202020202020202020303030303030327
:1002B00003040404040404040505050505060606F4
:1002C0000606070707070708080808090909090AB1
:1002D0000A0A0B0B0B0C0C0C0D0D0D0E0E0E0F0F56
:1002E0000F101011111112121313141415151616E4
:1002F0001717181819191A1A1B1B1C1D1D1E1E1F53
:100300002020212222232424252626272829292AA1
:100310002B2C2D2D2E2F30313232333435363738C9
:10032000393A3B3C3D3E3F404142434445464748C5
:10033000494A4C4D4E4F50515354555658595A5B9B
:100340005D5E5F616264656668696B6C6D6F70723B
:10035000737577787A7B7D7E8082838587888A8CA7
:100360008E8F91939596989A9C9EA0A2A3A5A7A9DB
:10037000ABADAFB1B3B5B7BABCBEC0C2C4C6C9CBD2
:10038000CDCFD1D4D6D8DBDDDFE2E4E7E9EBEEF088
:10039000F3F5F8FAFDFF2070800198500209103142
:1003A00084108811061800F2871F78D20927F0B24E
:1003B0008B2E68930D36E0738F3D68900106E070D8
:1003C000830D58510515D031871C48120924C0F2FD
:1003D0008A2B2CA04002A480C2091C6144119441C4
:1003E000C6180C2248208402CA27FCE24B2F74C393
:1003F000CD36ECA34F3E38D30C33B0B38E3A2894AD
:10040000104274C0C106ECA0430E6481C515DC61C6
:10041000471D5442C92438D00003B0B0820A289145
:100420000412A07186191852082190328A280813E4
:100430000C3080F38D37F8D30F3FCC224B2C440384
:10044000CD33BCE34E3B34C4D04240F4904364848B
:10045000D1454400C103BCE0420B34C1C412ACA17D
:10046000461A2482C8219C624A291443CC308C232A
:100470004E380404D03F88141248ACA4524AD034F9
:10048000934CF4C4D34E185514513CE5545350309A
:100490008104C810030C40F18413B8D1061B30B29C
:1004A0008822A8920A2A20738C3198530E3910346E
:1004B0009040607595554C24514470B491469444D5
:1004C000D248B8D4124BDC64534D00F5934F2485C9
:1004D000D4515C604105D440C30C4C214514C40187
:1004E000C71B3CE24823B4C2CA2A2CA34C32A483C3
:1004F000CE391C645041481515546CA555565854B6
:10050000114529003A003B003C003D003E003F0001
:1005100040004100420043004400450046004700BF
:1005200035001E001F0020002100220023002400AF
:100530002500260027002D002E002A0049002B0050
:1005400014001A000800150017001C0018000C0009
:10055000120013002F00300031004C00390004005D
:100560001600070009000A000B000D000E000F0026
:1005700033003400280000000000E1001D001B00D3
:100580000600190005001100100036003700380081
:10059000E500000052000000E000E300E20000007F
:1005A00000002C00000000000000E6000151E40003
:1005B000500051004F0002520100010001000100F3
:1005C0000100010001000100010001000100010023
:1005D0000100C25C010001000100010001000100F6
:1005E000010001000100010001004C0001004D006C
:1005F0000100805F01000100C55CC65CC75CC85C8F
:10060000C95CCA5CC35C0100010001004900010033
:1006100001000100010001000100010001000100D2
:1006200001000100010001000100000000000100C4
:1006300001000100010001000100145C0100010043
:100640000100010001000000A900000001000100FC
:100650000100000000000100000000000000010097
:1006600001000100AC00AA00AB002900BE00BD00E3
:10067000815F825FCA5CC95CAC00AE00AB00A800C1
:10068000AA00A9004600470035001E001F002000F8
:1006900021002200230024002500260027002D0031
:1006A0002E002A0049002B0014001A000800150033
:1006B00017001C0018000C00120013002F0030005F
:1006C00031004C00390004001600070009000A0040
:1006D0000B000D000E000F00330034002800000056
:1006E0000000E1001D001B000600190005001100BC
:1006F0001000360037003800E5000000520000000E
:10070000E000E300E200000000002C000000000018
:100710000000E6000351E400500051004F00005279
:100720003A003B003C003D003E003F0040004100DD
:1007300042004300440045000100C25C010001008A
:1007400001000100010001000100010001000100A1
:1007500001004C0001004D000100805F010001001C
:10076000C55CC65CC75CC85CC95CCA5CC35C010094
:100770000100010049000100010001000100010029
:100780000100010001000100010001000100010061
:100790000100000000000100010001000100010053
:1007A0000100145C010001000100010001000000D3
:1007B000A90000000100010001000000000001008C
:1007C000000000000000010001000100AC00AA00D0
:1007D000AB0009027B00040100A0FA09040000013B
:1007E00003010100092111010001224000070581D8
:1007F000030800010904010002030000000921119F
:1008000001000122220007058203200001070503E1
:100810000320000109040200020300000009211165
:10082000010001222200070584034000010705059D
:100830000340000109040300010300000009211125
:1008400001000122B6000705860320000112010005
:100850000200000008EDED81000100010200011C12
:1008600003540065006700690063002000460072C1
:100870000061006D00690073006D00000010034D01
:100880000065006C004700650065006B0000000417
:100890000309040011241FBECFEFDAE0DEBFCDBF95
:1008A00004B603FE18C08091F8089091F908A09151
:1008B000FA08B091FB088730904BA740B04B59F431
:1008C0001092F8081092F9081092FA081092FB089A
:1008D000E0E0F8E3099528E0A0E5B4E001C01D924E
:1008E000A83FB207E1F714E0A0E0B1E0E4E6F8E6E3
:1008F00002C005900D92A035B107D9F70E940F28CC
:100900000C94E4330C940000E8EDF0E080818E7FDD
:1009100080831092E2001092DA001092E100A0EEC3
:10092000B0E08C9181608C9380818F77808319BC3B
:10093000A7EDB0E08C918E7F8C9380818F7E808339
:100940001092920808952091E4003091E50095E618
:10095000A9012091EC00822F817020FF06C08091B8
:10096000E80080FF06C080E008952091E80022FDA5
:100970001AC08091B708882389F0853089F080916A
:10098000EB0085FD0FC02091E4003091E500421797
:100990005307F9F29150E1F684E0089582E008955A
:1009A00083E0089581E00895EF92FF920F931F93E3
:1009B000CF937C018B010E94A304C82F811117C023
:1009C0008091E80085FD0BC08091E8008E778093D0
:1009D000E8000E94A304882399F3C82F08C0F701F8
:1009E00081917F018093F1000150110949F78C2F0B
:1009F000CF911F910F91FF90EF900895EF92FF928A
:100A00000F931F93CF937C018B010E94A304C82FE7
:100A1000811117C08091E80085FD0BC08091E8002E
:100A20008B778093E8000E94A304882399F3C82F52
:100A300008C08091F100F70181937F0101501109F5
:100A400049F78C2FCF911F910F91FF90EF90089550
:100A50008091B90887FF13C08091E80082FF06C02B
:100A60008091E8008B778093E80004C08091B708FC
:100A70008111F2CF08958091B7088823D9F380912E
:100A8000E80080FFF8CF8091E8008E77ECCF982FB8
:100A90009093E900242F762F50E0891731F0709160
:100AA000EC002091ED005091F00021FD07C09F5F08
:100AB000973071F78093E90081E008953091EB0061
:100AC0003E7F3093EB003091ED003D7F3093ED00A1
:100AD0003091EB0031603093EB007093EC00209389
:100AE000ED005093F0002091EE0027FDE0CF80E074
:100AF0000895B0E0A0E0EFE7F5E00C94CA30C8ED4F
:100B0000D0E088818F7E8883E7EDF0E0808181608E
:100B1000808384E082BF81E08093920888818E7F09
:100B2000888302EE10E0F80110821092DA0081EE64
:100B3000C82ED12CF601108288818F778883888116
:100B40008068888388818F7D888319BC1092B7085C
:100B50001092B8081092B6081092B50890EEE92EDF
:100B6000F12CF70180818B7F80838881816088836D
:100B700042E060E080E00E944705F60180818E7FC0
:100B80008083F80180818160808380818860808398
:100B9000F70180818E7F8083888180618883CDB7D3
:100BA000DEB7E8E00C94E630FC018091BF0890913C
:100BB000C00886179707A0F06115710529F4909178
:100BC000E8009E779093E80090E06115710551F47C
:100BD000911108C08091E80082FF34C080E0089540
:100BE000BC01F2CF8091B7088823C1F18530C1F1F3
:100BF0008091E80083FD30C08091E80082FDEACF5B
:100C00008091E80080FFE1CF8091F3002091F20015
:100C1000382F6115710519F02830310558F091E031
:100C20002830310509F090E02091E8002E772093DC
:100C3000E800CBCF81918093F100615071092F5F63
:100C40003F4FE7CF8091B708882341F0853041F0CE
:100C50008091E80083FFBECF81E0089582E008958F
:100C600083E0089508958091940808952FB7F8942B
:100C70006091890870918A0880918B0890918C0806
:100C80002FBF0895209125022223C9F020918D08BD
:100C900027FF15C0E62FE695E695E695EE31D8F4E8
:100CA000E80FF92FF11D677021E030E001C0220F3D
:100CB0006A95EAF720958281282322830895FC0112
:100CC000329608962191621303C0DF0111971C929E
:100CD000E817F907B9F70895209125022223C1F0FA
:100CE00020918D0827FF14C0E62FE695E695E6953E
:100CF000EE31F8F4E80FF92FF11D677021E030E0D4
:100D000001C0220F6A95EAF78281822B82830895BF
:100D1000FC0132962FEF30E04191641751F02F3FE4
:100D200019F4411101C0232F3F5F3630A9F72F3F3F
:100D300009F40895820F911D27FD9A95FC016283A5
:100D4000089520918608309187082817390771F097
:100D50009093870880938608E0918408F091850835
:100D6000309721F00084F185E02D099508952091B8
:100D70008208309183082817390771F0909383080F
:100D800080938208E0918408F0918508309721F0E3
:100D90000680F781E02D09950895E0918408F0918F
:100DA0008508309729F00190F081E02D099508958C
:100DB00080E00895FA01811101C0FB0109950895B1
:100DC000E5ECF8E0248130E1231B08F420E02483E3
:100DD0008091BE0581608093BE050895E5ECF8E042
:100DE000248130E1230F08F42FEF24838091BE0586
:100DF00081608093BE0508959091C508937059F065
:100E00008093C6086093C7084093C8088091BE05C8
:100E1000822B8093BE050895E5ECF8E0438120E144
:100E2000421B08F440E0818121E0628190E00E9451
:100E3000FC060895E5ECF8E0438120E1420F08F458
:100E40004FEF818121E0628190E00E94FC060895CD
:100E5000E5ECF8E0628120E1621B08F460E081814A
:100E600021E0438190E00E94FC060895E5ECF8E063
:100E7000628120E1620F08F46FEF818121E04381FC
:100E800090E00E94FC060895E5ECF8E0818121E005
:100E9000438162818850990B0E94FC060895E5EC1D
:100EA000F8E0818190E021E04381628108960E9410
:100EB000FC0608959091C508937061F081110BC0F4
:100EC00094609093C508109212018091BE05862B04
:100ED0008093BE050895843110F09C64F2CF880F92
:100EE000880F982BEECF8091C50886958695815006
:100EF00009F483E161E00E945A0708958091C508D2
:100F0000869586958F5F843108F081E061E00E94CC
:100F10005A070895EF92FF920F939701201B310912
:100F20002F3F310519F010F02FEF30E02095382FCA
:100F3000320F08F43FEF832F0F91FF90EF90089549
:100F4000EF92FF920F939701201B31092F3F31053C
:100F500019F010F02FEF30E0322F3095482F430F6B
:100F600008F44FEF842F620F0F91FF90EF900895D8
:100F7000EF92FF920F93972F093438F4B701601B5B
:100F800071096F3F710519F010F06FEF70E0485F65
:100F90005F4F4131510540F0A901485F5F4F41313A
:100FA000510510F06FEF70E06095482F460F08F480
:100FB0004FEF842F37FF02C02D5F3F4F35952795A8
:100FC000359527956091C608620F792F0F91FF9094
:100FD000EF900895EF92FF920F93970195E0099F8C
:100FE000200D311D11242F3F310519F010F02FEF86
:100FF00030E02095382F320F08F43FEF832F0F9108
:10100000FF90EF9008950F931F93522F10E0F80177
:10101000EE0FFF1FE15CFC4FA081A851BB0B9D01AF
:101020005203F001539FF00D1124000F111FD8013E
:10103000A25CBC4F0C910455110B40039001419FE1
:10104000300D11242E0F3F1F37FF02C0215C3F4F90
:1010500096E0359527959A95E1F7620F1F910F91CC
:1010600008950F931F93522F10E0F801EE0FFF1F0A
:10107000E15CFC4FA081A851BB0B9D015203F00124
:10108000539FF00D1124000F111FD801A25CBC4F1B
:101090000C910455110B40039001419F300D112418
:1010A0002E0F3F1F37FF02C021583F4F220F232F23
:1010B000221F330B620F1F910F910895EF920F9330
:1010C000972F23E0029FB0011124759567956E0D4F
:1010D000792F0F91EF900895322F50E0FA01EE0F23
:1010E000FF1FE15CFC4F9081985197FD9195440F53
:1010F000551FFA01E25CFC4F2081231B330B290FA3
:10110000311D97FD3A95620F0895E42FF0E0EE0F40
:10111000FF1FE15CFC4F6081621B0895E42FF0E04B
:10112000EE0FFF1FE25CFC4F6081621B0895622F8F
:1011300008950E945412089580918108811104C07D
:101140001092800810927F0840E060E080E00E94EA
:10115000990808950E94EA110895B0E0A0E0E3EB39
:10116000F8E00C94C9308C01C62FD42FB22E809198
:10117000C50886958695833171F48091130181307D
:1011800079F4F801EE0FFF1FE00FF11FEC5EFE4F48
:10119000618340832283CDB7DEB7E9E00C94E5306C
:1011A0006091C80870E090E080E00E94E93220E0A1
:1011B00030E04FE753E40E9448326B017C016B2D15
:1011C00070E090E080E00E94EB32A70196010E945F
:1011D00077330E94BA32B62E6D2F70E090E080E037
:1011E0000E94EB32A70196010E9477330E94BA3227
:1011F000D62F6C2F70E090E080E00E94EB32A701C8
:1012000096010E9477330E94BA322B2D4D2FC801D0
:101210000E94AA08C0CF4095282F429F412D11243B
:10122000842F0895FC019B01009729F480E077FF4B
:101230002BC080E80895AC0197FF04C044275527D0
:10124000481B590BB901640F751F37FD10C0241BD3
:10125000350BC901A5E0880F991FAA95E1F70E94F7
:10126000F73080E2861BF7FF0FC081950895CB0110
:1012700065E0880F991F6A95E1F7BA01621B730B4D
:101280000E94F73080E6EECF0895EF920F93CF9350
:10129000DF93D72FC82FC9010E19BA010E94120976
:1012A000602F681B7D2F8C2FDF91CF910F91EF90D6
:1012B0000895EF920F931F93CF93DF93D62FC72FED
:1012C000182FC9010E19010FBA010E941209081B3B
:1012D000202F219F212D1124822F6D2F7C2FDF9114
:1012E000CF911F910F91EF9008950F93CF93DF93BC
:1012F000D72FC82FC901BA010E941209682F600FA9
:101300007D2F8C2FDF91CF910F910895E82F86FDCF
:10131000E0952E2F2F7086FD2F5FE695E695E695DA
:10132000E670F0E0E853FD4F9181929F902D212DC2
:10133000112492959F702295207F922B2081920FED
:1013400087FD919580E8890F0895AC018230910561
:1013500008F408959FEF413E8EE1580740F49A014A
:1013600095E0369527959A95E1F798E0920F61E020
:10137000E62FE90FFF27FF1F9F0135952795822F45
:10138000229FF001239FF00DF00D11244E175F07EF
:1013900038F49FEF920F961758F78FEF860F089546
:1013A0002F3FE9F361E0620FF6CF30E020E0869F47
:1013B000212D969F200D311D1124C9010895AF9252
:1013C000BF92CF92DF92FF920F931F93CF93DF9341
:1013D000362F472FE82FF0E0EA56FD4F71110FC06E
:1013E000E4918E2F2E2F6E2F722FDF91CF911F91B0
:1013F0000F91FF90DF90CF90BF90AF900895C72FCF
:10140000D0E02491F22E022F10E056E0659FC0013B
:101410001124EFEFF0E0BF010E94AC30832F90E089
:10142000880F991F35E5369FD001379FB00D1124E5
:101430008A1B9B0B982F990F980F6F01CC1ADD0A0E
:10144000C09ED001C19EB00DD09EB00D11248B2F37
:10145000499FA0011124452F55276F01C41AD50AB1
:10146000C09EA001C19E500DD09E500D11245F0161
:10147000A91AB108AC9E6001AD9ED00CBC9ED00CE8
:101480001124CD2CDD24EC19FD09E09FE001E19F42
:10149000D00DF09FD00D1124ED2F62307105A1F019
:1014A00050F46115710509F49ECF6130710581F02A
:1014B000EB2F852F98CF6430710569F080F066308E
:1014C000710509F490CFF4CFE22F2B2F8D2F8BCF06
:1014D000E22F252F88CFEB2F822F2D2F84CF2B2F7C
:1014E0008F2DE52F80CF2F923F925F926F927F9248
:1014F0008F929F92AF92BF92CF92DF92EF92FF9224
:101500000F931F93CF93DF93CDB7DEB72A970FB614
:10151000F894DEBF0FBECDBF8B837E836D83209199
:101520003A02220F220F2F832C5F29832A832C3526
:1015300010F03BE53A838091CB088C83FF81EF2F3D
:10154000F0E0FA87E987CF01880F991F9C01225CA0
:101550003C4F69013B81832F90E0FC013196F88775
:10156000EF838A8199859817E8F081E0E981EB356E
:1015700008F080E02A960FB6F894DEBF0FBECDBF0C
:10158000DF91CF911F910F91FF90EF90DF90CF905F
:10159000BF90AF909F908F907F906F905F903F90A3
:1015A0002F900895E985FA85EC50FC4F8081909149
:1015B0003B028923F1F02090C6083090C7082F81A4
:1015C00038852553374F39015B8010E0FC815F1669
:1015D000D0F02091C808129F112D1124B101812F44
:1015E0000E94DF09462F282F672F89859A850E9440
:1015F000AA0829853A852F5F3F4F3A87298732E02D
:10160000C30ED11CAECFF30181913F01F601A08042
:10161000A81ABB088180F3018781881A9908AA9CBF
:101620009001AB9C300D300D1124889CC001899C29
:10163000900D900D1124820F931F0E94A509082F71
:101640006091C90821E0620F08F46FEFF301EE0F1B
:10165000FF1FEB5CF840858996890E94D5097C01C3
:101660009401A501B101812FED81FE8109951B0136
:101670005394182FABCFB0E0A0E0E1E4FBE00C9472
:10168000C7306C01C0913A02CC0FCC0F14E01C0F94
:10169000B12E1C3510F03BE5B32E6091C90866955C
:1016A00066958091C1089091C2080E94D509F82ED4
:1016B00080E48F0D0E94860990E8A92EA80E8F2D38
:1016C0000E94860920E8922E980ED0E0CB1548F0B3
:1016D00081E01B3508F080E0CDB7DEB7EBE00C947D
:1016E000E330FE01EC50FC4F808190913B02892356
:1016F000A1F06091C6087091C7088091C808EF2CCE
:101700000C2F292D4A2DF60109950E94DF09462F3D
:10171000282F672FCE010E94AA082196D7CFB0E0CC
:10172000A0E0E5E9FBE00C94C5305C01C0913A0211
:10173000CC0FCC0F14E01C0FF12E1C3510F03BE544
:10174000F32E6091C90866958091C1089091C208F6
:101750000E94D509782ED0E0CF1548F081E01B35E6
:1017600008F080E0CDB7DEB7EDE00C94E130FE018B
:10177000EC50FC4F808190913B028923C9F1CE014E
:10178000880F991F8C519D4FFC01E65AFF4F208115
:10179000422F4455550B6A01855A9F4FFC018081A9
:1017A000282F2851330B4901449F9001459F300D4C
:1017B000300D1124889CC001899C900D900D11243E
:1017C000820F931F0E94A509082F6091C60870918F
:1017D000C7088091C808E72C9401A601F501099576
:1017E0000E94DF09462F282F672FCE010E94AA08EA
:1017F0002196B2CFB0E0A0E0E0E0FCE00C94CB306A
:101800007C01C0913A02CC0FCC0F14E01C0F012FC9
:101810001C3508F00BE56091C9086695669521E0D6
:10182000620F08F46FEF8091C1089091C2080E9486
:10183000D509D82ED0E0C01748F081E01B3508F05C
:1018400080E0CDB7DEB7E7E00C94E730FE01EC5066
:10185000FC4F808190913B02892391F06091C608F2
:101860007091C7088091C8082D2D4C2FF70109955C
:101870000E94DF09462F282F672FCE010E94AA0859
:101880002196D9CF40918805803F59F480918905F0
:1018900087FF0DC01092890541110BC01092800581
:1018A00008C0813F81F48091890518169CF3442378
:1018B00081F080918A0590918B05892B09F05AC09F
:1018C00010927F050895823F49F447FFF0CF1092B0
:1018D0008805809189058111ECCFE0CF833F19F411
:1018E0001416ACF3E4CF90918A05893F29F41916B8
:1018F000F4F610928A05DBCF8A3F19F497FFD7CF11
:10190000F8CF90918B058B3F29F497FFD0CF1092A1
:101910008B05CDCF8C3F19F41916CCF3C8CF9CE0C2
:10192000980F953090F4845F990B21E030E0B90175
:1019300002C0660F771F8A95E2F7CB0180959091E0
:101940008705892380938705B2CF8D3F31F480913D
:1019500081058E7F80938105AACF8E3F21F48091EF
:1019600081058D7FF7CF8F3F09F0A1CF8091810551
:101970008B7FF0CF08958091810580FD16C081FD99
:1019800016C082FD16C080917F058823A1F08832A1
:1019900080F428E0829FC001112468E270E00E9478
:1019A000F730862F672B39F0089582E0089584E0A0
:1019B000089588E0089581E008958091810580FD73
:1019C00014C081FD14C082FD16C08091800588235B
:1019D00081F08E3180F420E5829FC00111246EE1F8
:1019E00070E00E94F730862F089584E1089588E220
:1019F000089588E0089580E50895803F31F40E94BD
:101A0000DD0C8195809389050895813F19F40E942A
:101A1000DD0CF8CF823F31F40E94DD0C819580937C
:101A200088050895833F19F40E94DD0CF8CF893FA3
:101A300029F40E94BB0C80938A0508958A3F21F403
:101A40000E94BB0C8195F7CF8B3F31F40E94BB0CF9
:101A5000819580938B0508958C3F19F40E94BB0CEF
:101A6000F8CF9CE0980F953070F4845F990B21E0DB
:101A700030E001C0220F8A95EAF780918705822B1A
:101A80008093870508958D3F31F4809181058160B1
:101A90008093810508958E3F21F4809181058260B5
:101AA000F7CF8F3FB9F7809181058460F1CF80E057
:101AB0000895F894E82FE295EF70F0E031A1282F17
:101AC0002F7081E090E001C0880F2A95EAF7982FE7
:101AD0009095932391A392A1892B82A37894089542
:101AE00090918D0892FF06C0282F28712830F9F4B4
:101AF000877F846093FF06C0282F28712831F1F476
:101B0000877E846120918E0820FF06C0382F3871AF
:101B10003830D9F4877F816021FF06C0282F2871D3
:101B20002831D1F4877E816194FD877E0895282F26
:101B300024712430F9F68B7F8860DCCF282F247144
:101B4000243101F78B7E8861DDCF382F3171313040
:101B500019F78E7F8860E0CF282F2171213121F77E
:101B60008E7E8861E1CFCF93DF93EC0182389105BF
:101B7000B1F108F040C08133910509F49DC048F5EA
:101B80008932910509F48DC08A9709F49CC0C1156A
:101B900021E5D20708F0C3C0C11530E5D30708F02E
:101BA0001EC1C83ED10508F0A3C0C13ED10588F5CD
:101BB000C83AD10508F08EC0C53AD10508F007C172
:101BC000C130D10531F1209721F1C430D10508F59C
:101BD00045C08533910509F45FC0C997C1F680916E
:101BE0008D08837009F043C180918E0883FF11C076
:101BF000C9E2D0E00EC0833E910599F170F4803EB9
:101C0000910501F1823E910511F680918D0882FDCA
:101C100021C0CE01DF91CF910895863E910561F1FB
:101C2000873E910571F1843E910509F0B0CF809116
:101C30008E0881FFEECF80918D08C7EED0E084FD45
:101C40000DC0E7CF80918D0880FD33C090918E0844
:101C500090FFDFCFC3EED0E084FFDBCFD0E0C0E069
:101C6000D8CF80918D0882FDFFC090918E0890FDA5
:101C7000FEC084FFCECFF2CF80918D0883FDDDCFF3
:101C8000C8CF80918D0883FDF5C090918E0891FF9B
:101C9000F0CFC4EED0E0BDCF80918D0885FFB9CFE5
:101CA000A7CF80918D0885FDE8C080918E0883FFC5
:101CB000B0CFC9E3D0E0ADCF80918D0886FFA9CF2A
:101CC000CAE2D0E0A6CF80918D0886FFA2CFC1E303
:101CD000D0E09FCFCF3BD10508F6C85AD0E0CC0F5B
:101CE000DD1FC259DD4F0990D881C02DD46491CF3A
:101CF000C11540E2D40758F4C11581E0D80708F0B7
:101D000088CFC03FD10508F4A9CFD06582CFC115D7
:101D100020E4D20708F4A2CFDF70D06A7ACFC115D1
:101D200035E5D30718F5C11544E5D40708F084C09C
:101D3000C11583E5D80708F06BC0C11522E5D207AD
:101D400008F461C0CE018370992721E030E002C021
:101D5000220F331F8A95E2F7C695C69580E2C89F89
:101D6000E0011124C22BD32BDC6853CFC11539E518
:101D7000D307A8F4C11548E5D40708F062C0C1151F
:101D800086E5D80708F06ACF8C2F0E94700DC82F07
:101D9000D0E0DC2FCC27CC27DF71D0623ACFC11541
:101DA0002AE5D20708F452C0CE0190568115904220
:101DB00008F054CF8D2F8F710E94700D90E0982FF6
:101DC000882788279F719C012C2BE901E6CFC55AF3
:101DD000D0E0C559DD4FC881D0E0D0641ACFCE0124
:101DE0008370992721E030E002C0220F331F8A95CB
:101DF000E2F7C695C69540E2C49FE0011124C22BCC
:101E0000D32BDD6806CFDC2FCC27C16FD06A01CF82
:101E1000CE018370992721E030E002C0220F331FEA
:101E20008A95E2F7C695C69540E2C49FE001112469
:101E3000C22BD32BDA68EDCEDC2FCC27C46FD06A4F
:101E4000E8CEDC2FCC27C06FD06AE3CE8C2F8F700A
:101E50000E94700D34E0D695C7953A95E1F7CF70A2
:101E60009C2FEC01D069D5CEC2EED0E0D2CEC0EE30
:101E7000D0E0CFCEC6EED0E0CCCEC5E3D0E0C9CE28
:101E80008091F20481111092F2040895809590914E
:101E9000F10498239093F10408958091CE049091D9
:101EA0009D04981301C008958F5F8770FACF292F82
:101EB000963078F58F3068F590E03FE0239F800DF5
:101EC000911D1124682F677023E0969587952A95B8
:101ED000E1F7FC01EE0FFF1FE80FF91FED58FB4F74
:101EE00050E040E080E0219130E0062E02C03695BF
:101EF00027950A94E2F721703327042E01C0220FA0
:101F00000A94EAF7822B4F5F5F4F4330510559F730
:101F1000089580E00895292F963098F58F3088F540
:101F200090E03FE0239F800D911D1124282F277002
:101F300041E001C0440F2A95EAF723E09695879582
:101F40002A95E1F7FC01EE0FFF1FE80FF91FED588E
:101F5000FB4F30E020E070E05191DF011197CB01A1
:101F6000022E02C0969587950A94E2F781708195BA
:101F70008527842385278C932F5F3F4F233031059E
:101F800059F70895E6E2F2E08083618324E630E0C9
:101F900042E050E0BF0180E60E948B3008958093BC
:101FA0008F0870939108609390088091B7088430EF
:101FB00001F586E08093E9008FEF9091E800815071
:101FC00095FD06C095ED9A95F1F700008111F5CFCA
:101FD0008091E80085FF0DC050E040E063E070E0D4
:101FE0008FE898E00E94D4048091E8008E77809377
:101FF000E8000895BC0184E00E94CF0F0895BC0161
:1020000083E00E94CF0F08959C0186E08093E90051
:102010009FEF8091E800915085FD06C085ED8A957F
:10202000F1F700009111F5CF8091E80085FF0CC019
:1020300050E040E066E070E0C9010E94D404809165
:10204000E8008E778093E8000895CF93DF93EC014A
:10205000809125028823B1F180918D0887FF32C0DD
:1020600060E286E08093E9008FEF9091E800815074
:1020700095FD06C095ED9A95F1F700008111F5CF19
:102080008091E80085FF1BC08091250270E050E040
:1020900040E0811104C050E040E068E070E0CE0113
:1020A0000E94D4048091E8008E778093E80080E25B
:1020B000FE01A5E9B8E001900D928A95E1F7DF9164
:1020C000CF91089568E081E0CDCF81E08093E0007A
:1020D00080E28093D8001092C9008FE19EE40197BE
:1020E000F1F700C0000087E090EBDC018093F80876
:1020F0009093F908A093FA08B093FB0888E19CE05C
:102100000FB6F894A895809360000FBE909360007E
:10211000FFCFCF93DF93C7EFD2E060E0CE010E9404
:10212000C1312196C11584E0D807B9F7DF91CF916D
:1021300008951F93CF93DF93122F8430E0F466301D
:10214000D0F44F30C0F4C42FD0E0CC0FDD1F9EE19F
:10215000699FC00DD11D112494EB899FC00DD11D25
:102160001124632FCE0187960E94C131612FCE01C9
:1021700088960E94C131DF91CF911F910895AF924F
:10218000BF92CF92DF92EF92FF921F93CF93DF9394
:1021900082E0C82E85E0D82ED0E07601C0E014C0E1
:1021A000F50125913491412F6C2F8D2F0E949910AC
:1021B00082E0A80EB11C1F5F1F3091F78EE1E80E80
:1021C000F11CCF5FC63019F0570110E0E9CFDF5F97
:1021D00084EBC80ED11CD43001F7DF91CF911F9151
:1021E000FF90EF90DF90CF90BF90AF900895CF9386
:1021F000C82F6FEF811162E283E290E00E94C1314B
:102200006FEFC11162E184E290E00E94C1316FEF93
:10221000C11166E285E290E00E94C131CF9108953C
:1022200080E00E94F71060E086E290E00E94C131F9
:102230000E94BF100E94891081E00E94F71008954B
:102240000F931F93CF93DF93843030F5663020F5E2
:102250004F3010F5C42FD0E0CC0FDD1F2EE1629F70
:10226000C00DD11D112434EB839FC00DD11D11244D
:10227000CE0187960E94A331082F10E0102F00276F
:10228000CE0188960E94A3319801282BC901DF91C5
:10229000CF911F910F91089590E080E0F8CF462FE5
:1022A000763040F46F3030F4843020F4672F0E9491
:1022B0002011089590E080E00895CF92DF92FF9280
:1022C0000F931F93CF93DF936C010091F7088091D8
:1022D000F304082BC7E0D0E010E0FC2EC8010C2E60
:1022E00002C0959587950A94E2F780FD0CC021976E
:1022F000A0F7F12C8F2DDF91CF911F910F91FF90BF
:10230000DF90CF900895B6018C2F0E944F110E944C
:10231000B30D019761F3EECFCF93DF93EC010E94F1
:102320005D11BE010E944F110E94B30DDF91CF914C
:102330000895FC0183819481892B29F0808191810A
:1023400089238F3F51F480E00895843FE1F717C05F
:10235000883EA8F0813FB9F712C0808191810E9428
:102360008C1192959F70963099F358F4925F9F70FC
:10237000923048F7803F19F040F7883E20F781E01F
:1023800008959A5FF4CF83E290E00E94A3318232F5
:1023900089F484E290E00E94A331823159F485E20D
:1023A00090E00E94A33191E0863209F090E0892FFD
:1023B0008170089580E0FCCFCF9384E090E00E948C
:1023C000A331C82F82E290E00E94A331982F8C2F76
:1023D000CF910895A4E0B0E0E0EFF1E10C94CD30AE
:1023E000F62E042F122F8B35910508F059C0880F57
:1023F000991F880F991FBC016A567C4F44E050E03A
:10240000CE0101960E9474318981282F237030E01B
:10241000869586954A81942F9295990F990F907C75
:10242000692F682B842F86958695782F7370EFE53A
:10243000F1E02E9FC0012F9F900D3E9F900D112423
:10244000805E984F680F791FFB01F082542F5295E0
:102450005F704B81E42FE295E07F6E2F652B542F48
:1024600052955F70752F7370680F791FFB010083A1
:1024700042954695469543705C81E52FEE0FEE0F31
:102480006E2F642B752F7295769576957370860FE7
:10249000971FFC011083215E384F81E0F901808392
:1024A0002496E5E00C94E930FF920F931F93CF93AD
:1024B000DF93182F062FF42ED0E0C0E02F2D402FF1
:1024C000612FCE010E94EA112196CB35D105B1F7DB
:1024D000CDB7DEB7E5E00C94E9300F931F93CF93AF
:1024E000DF9380911F07882309F441C065EC8EEFCC
:1024F0000E94C20F60E08DEF0E94C20FD0E0C0E0EA
:1025000004EB10E0CE01B8010E94F7308093260260
:1025100082E1FE01E05EF84FA7E2B2E001900D9289
:102520008A95E1F724E630E043E150E066E272E0AC
:1025300080E60E948B30892BD1F46296C63581E00B
:10254000D807E1F482EA8093260289E0E6E7F8E022
:10255000A7E2B2E001900D928A95E1F724E630E01F
:102560004AE050E066E272E080E60E948B30109212
:102570001F07DF91CF911F910F910895C43BD105A3
:1025800009F665EC8EEF0E94C20F61E08DEF0E94AC
:10259000C20FB8CFA4E0B0E0E0EDF2E10C94C83097
:1025A0000E94EB2F65EC8EEF0E94C20F64E08DEF6E
:1025B0000E94C20F61E080E00E94C20F6FEF81E0D5
:1025C0000E94C20F67E782E00E94C20F8FE39CE97E
:1025D0000197F1F700C0000006E913E022E0E22EC7
:1025E00025E0F22E3FE5C32EDD24D394BB24BA941C
:1025F000AA24A39444E050E0B801CE0101960E94C1
:1026000074318981282F237030E0869586954A8120
:10261000942F9295990F990F907C692F682B842F96
:1026200086958695782F73702C9DC0012D9D900DF9
:102630003C9D900D112481549A4F680F791FFB0126
:10264000B082542F52955F704B81E42FE295E07F6A
:102650006E2F652B542F52955F70752F7370680F16
:10266000791FFB01B08242954695469543705C8187
:10267000E52FEE0FEE0F6E2F642B752F729576956A
:1026800076957370860F971FFC01B082225E384FDB
:10269000F901A0820C5F1F4FE016F10609F0AACFE6
:1026A00065EC8EEF0E94C20F62E08DEF0E94C20FB8
:1026B0009FEBE92E95E0F92E10E0F70161917F0183
:1026C000812F0E94C20F1F5F143BB9F765EC8EEF9C
:1026D0000E94C20F63E08DEF0E94C20F83E7E82ED5
:1026E00086E0F82E10E0F70161917F01812F0E94B2
:1026F000C20F1F5F1B3AB9F710921E072496EAE03B
:102700000C94E4301F93CF93DF93EC01FC01EC5069
:10271000FC4F80816823B1F00E946431182F0E9421
:1027200064318F77782F20E8720F08F47FEF612FE4
:102730008091C8080E94DF09462F282F672FCE01FD
:102740000E94AA08DF91CF911F91089546E050E0C2
:102750006CE170E085EC98E00E94B1311092BE050A
:102760000895E5ECF8E08DE4808380913D0290913E
:102770003E02A0913F0281839283A38388E28483F7
:102780008FEF85830E94A6130895B0E0A0E0EBECE4
:10279000F3E10C94C230182F80911101811323C0F2
:1027A0009091C50893702091100130E081E092175C
:1027B000130609F480E0817080933C028091CA087E
:1027C00090913B02981739F080933B0240E060E023
:1027D00080E00E949908143160F4E12FF0E0EA51A2
:1027E000FC4C0C940B3181E0E6CF80913C028111CE
:1027F00002C0C0E0ADC040E060E080E00E94990807
:10280000F8CFC0913A02CC0FCC0F04E00C0FF02EA1
:102810000C3510F0FBE5FF2E6091C6087091C708DB
:102820008091C8080E94DF09E62ED72EC82ED0E07E
:10283000CF1528F0C1E00B3508F48AC0DACFFE01CD
:10284000EC50FC4F808190913B02892331F02C2D7C
:102850004E2D6D2DCE010E94AA082196E9CFC09180
:102860003A02CC0FCC0F04E00C0FF02E0C3510F018
:10287000EBE5FE2EE090C608D091C708D090C808BE
:102880006091C9086695669566958091C10890919A
:10289000C2080E94D5090E948609805887FD81954B
:1028A000880F382F4D2D349F312D1124832F6E2DFD
:1028B0007D2F0E94DF09E62ED72EC82ED0E0CF153F
:1028C00008F0B8CFFE01EC50FC4F808190913B02A4
:1028D000892331F02C2D4E2D6D2DCE010E94AA089A
:1028E0002196EDCF89E599E00E948F0B04C087E91E
:1028F00098E00E94FA0BC82F2BC08EE898E0F9CF21
:1029000085E898E0F6CF8CE698E0F3CF8EE598E086
:10291000EBCFC0913A02CC0FCC0F74E0F72EFC0E37
:10292000EF2CEBE5EF1510F46BE5E62E6091C9088E
:1029300066958091C1089091C2080E94D509D82E51
:10294000D0E0CE15E8F0C1E02AE52F1508F451CF0C
:1029500080913A028F5F80933A02C1110CC082E0ED
:102960008093120180913C02811105C0111103C0B6
:1029700083E080931201CDB7DEB7E0E10C94DE3046
:10298000FE01EC50FC4F808190913B02892311F1B4
:10299000CE01880F991F8C519D4FFC01E55AFF4FC6
:1029A00020812851330B865A9F4FFC0140814455AA
:1029B000550B6091C6087091C7088091C8080D2D0D
:1029C0000E9475090E94DF09462F282F672FCE012C
:1029D0000E94AA082196B5CF85E499E085CF81E3CE
:1029E00098E00E943B0B87CF83E098E0FACFC0913C
:1029F0003C02C1111EC06091C90820E1620F08F4B9
:102A00006FEF8091C1089091C2080E94D50965E0DE
:102A100070E00E94AC30892B09F0EBCE0E9464314B
:102A20006BE570E00E94F73060913B020E948213D8
:102A30008FCFC0913A02CC0FCC0F04E00C0F802F47
:102A40000C3508F08BE5D0E0E82EF12CCE15DF0533
:102A50000CF0F0CE60913B02CE010E9482132196D1
:102A6000F5CFC0913A02CC0FCC0F04E00C0FD02E62
:102A70000C3510F04BE5D42E2091C90831E0230F1E
:102A800008F42FEF30E050E040E06FEF7FEF80E0A0
:102A900090E00E94E5317901D0E0CC24C3942C2F42
:102AA000CD1508F0C7CEFE01EC50FC4F808190910F
:102AB0003B02892311F14091CB084150042E000CB8
:102AC000550B47FF1CC0C7016091C9083C2D630F1F
:102AD00008F46FEF0E94D509AC016091C6087091AF
:102AE000C7088091C8080E940B090E94DF09462F81
:102AF000282F672FCE010E94AA082196D0CFFA0175
:102B0000E553F74F818982130AC0FA01EE0FFF1FC8
:102B1000E553F74F818D928D8E159F05A8F2415098
:102B20005109CFCF6AEE77E080E00E94730AE3CECE
:102B300068EB77E0F9CF8091CB0821E0482F421B6A
:102B400008F440E0842F60EA77E0EFCF8091CB0873
:102B500021E0382F321B08F430E0832F6AE877E059
:102B6000E4CFC0913A02CC0FCC0F04E00C0FB02E92
:102B70000C3510F09BE5B92E80911301813009F0DE
:102B800059CE6AEA80917F08909180080E94D50909
:102B90009090C80821E08F3F09F420E0209381083D
:102BA000D0E06C01DD24A12C90918108CB1568F058
:102BB000992309F43FCE80917F0890918008019677
:102BC0009093800880937F0835CEFE01EC50FC4F37
:102BD000808120913B02822309F475C07E01EE0CB6
:102BE000FF1C992379F1C7018C519D4FFC01E65AD6
:102BF000FF4F40814455550B855A9F4FFC01208162
:102C00002851330B449FB001459F700D700D112466
:102C1000229FC001239F900D900D1124860F971FB6
:102C20000E94A5099601281B310937FD20E04A2D95
:102C3000420F08F44FEF3091C808242F239F212D15
:102C40001124922EF701EC0FFD1FEC5EFE4FF08079
:102C50008180E280692D70E090E080E00E94E9329E
:102C600020E030E04FE753E40E9448322B013C0162
:102C70006E2D70E090E080E00E94EB32A3019201A3
:102C80000E9477330E94BA32E62E6F2D70E090E0FA
:102C900080E00E94EB32A30192010E9477330E94F0
:102CA000BA32F62E682D70E090E080E00E94EB32A0
:102CB000A30192010E9477330E94BA322E2D4F2D2C
:102CC000CE010E94AA0821966FCF4F925F926F9219
:102CD0007F928F929F92AF92BF92CF92DF92EF92AC
:102CE000FF921F93CF93DF93C090B505D090B605A8
:102CF000E090B705F090B8058FB7F8944090890838
:102D000050908A0860908B0870908C088FBF530198
:102D100042018C189D08AE08BF080E943606AB0120
:102D2000BC014093B5055093B6056093B705709309
:102D3000B8058091B9059091BA05A091BB05B091F5
:102D4000BC05880D991DAA1DBB1D8093B9059093E4
:102D5000BA05A093BB05B093BC0510918C05ECE8B7
:102D6000F5E0C12FD0E02FEFC20ED21EE11CF11C06
:102D7000C418D508E608F7081D1330C0C0938C05A9
:102D80002091BD0521113DC0813A9B4BAD40B1055D
:102D9000C0F59091C508892F837019F0892F869509
:102DA000869590911201913009F444C0992359F10C
:102DB000923009F442C0933009F44AC0DF91CF91B8
:102DC0001F91FF90EF90DF90CF90BF90AF909F90BA
:102DD0008F907F906F905F904F900895218D328DEE
:102DE0002901712C612CC414D504E604F70420F4E5
:102DF000C150DF5F3296C0CF280D391D328F218F31
:102E0000F8CF80E0CECF10923A024093C1085093A1
:102E1000C2086093C3087093C40889E2ECE8F5E047
:102E2000ABECB8E001900D928A95E1F781E08093D8
:102E30001201C4CF0E94C513C1CF809311018091AC
:102E4000C5088370809310010E946D1283E0EFCF5C
:102E50008091BE0581110E94A6134091C108509136
:102E6000C2086091C3087091C4082FB7F89480918C
:102E7000890890918A08A0918B08B0918C082FBF87
:102E8000841B950BA60BB70B4A97A105B10508F457
:102E900095CF1092120192CF8091F1049091F0049D
:102EA000892B809352049091F2049923A1F0892BED
:102EB00080935204809125028823E1F180918D084E
:102EC00087FF38C08EE1E4E5F4E090E08150A0F5A2
:102ED00091110E94400F40E250E060ED74E082E505
:102EE00094E00E947D31892B21F180E2E2E5F4E05B
:102EF000A0EDB4E001900D928A95E1F7E09184088D
:102F0000F09185083097A9F080912502882359F027
:102F100080918D0887FF07C08091520480935304ED
:102F200086E0809352040280F381E02D82E594E0F4
:102F30000995089586E0C7CF2191222339F29F5F3A
:102F4000C5CF882321F00E94460F0E944C17089598
:102F5000882339F09091F104982B9093F1040E940A
:102F60004C17089590E080E00E94AB31883E9E4F60
:102F700019F40E94C311089580E0089568EE7EEF71
:102F800090E080E00E94DF3160E082E090E00E940B
:102F9000C13160E083E090E00E94C1311092F304FF
:102FA00060E084E090E00E94C13164E182E290E060
:102FB0000E94C13160E085E090E00E94C13160E094
:102FC00086E090E00E94C1316FEF87E090E00E94C0
:102FD000C13140E050E0BA0188E090E00E94D33176
:102FE00060E08DE090E00E94C13140E050E0BA0125
:102FF00088E190E00E94D33160E087E190E00E9498
:10300000C13140E050E0BA018CE190E00E94D33140
:1030100070E060E080E290E00E94DF3140E050E04C
:10302000BA0188E190E00E94D33180E00E94F7105D
:103030000E94101140E050E0BA018FE090E00E9441
:10304000D33140E050E0BA0183E190E00E94D331F7
:1030500008951F920F920FB60F9211242F933F9352
:103060004F935F936F937F938F939F93AF93BF9390
:10307000EF93FF938091E10082FF09C08091E2000D
:1030800082FF05C08091E1008B7F8093E1008091F9
:10309000DA0080FF24C08091D80080FF20C080919A
:1030A000DA008E7F8093DA008091D90080FF9DC086
:1030B00080E189BD82E189BD09B400FEFDCF81E0D8
:1030C0008093B70880919208811109C00E948404FE
:1030D0000E9479058091E20084608093E2008091F3
:1030E000E10080FF17C08091E20080FF13C0809153
:1030F000E2008E7F8093E2008091E2008061809305
:10310000E2008091D80080628093D80019BC85E0ED
:103110008093B7088091E10084FF2BC08091E2008A
:1031200084FF27C080E189BD82E189BD89B5982FE0
:10313000917080FFFBCF8091D8008F7D8093D80065
:103140008091E1008F7E8093E1008091E2008F7E8C
:103150008093E2008091E20081608093E2008091A0
:10316000B808882309F447C084E08093B7088091A9
:10317000B7088091E10083FF27C08091E20083FFC0
:1031800023C08091E100877F8093E10082E08093FB
:10319000B7081092B8088091E1008E7F8093E1001B
:1031A0008091E2008E7F8093E2008091E200806156
:1031B0008093E20042E060E080E00E944705809159
:1031C000F00088608093F000FF91EF91BF91AF9184
:1031D0009F918F917F916F915F914F913F912F912F
:1031E0000F900FBE0F901F90189519BC1092B70842
:1031F0001092920874CF8091E30087FD93E0909342
:10320000B708B5CF78941F921FB61F9211248F93E1
:103210009F93AF93BF938091890890918A08A09162
:103220008B08B0918C080196A11DB11D809389086F
:1032300090938A08A0938B08B0938C08BF91AF91AC
:103240009F918F911F901FBE1F9018959C014FB7A3
:10325000F8948091890890918A08A0918B08B09188
:103260008C084FBF821B930B08952FB7F894809161
:10327000890890918A08A0918B08B0918C082FBF83
:1032800008950E9435199C019091880580918905C7
:10329000982B21F0309385052093840590918A0521
:1032A00080918B05982B21F0309383052093820524
:1032B000E0918408F0918508309749F082E080938E
:1032C00086050480F581E02D86E895E0099508954E
:1032D00090E080E00E94B70690E080E00E94A106A6
:1032E0001092F0040E944C1786E0E6E8F5E0DF015A
:1032F0001D928A95E9F71092800510927F05109231
:1033000081050E94411908958093F7080E94681969
:1033100008958091F708982F9670963021F4886070
:103320000E9484190895877FFBCF21E030E001C01F
:10333000220F8A95EAF720958091F70882230E9450
:10334000841908959091CF04809589238093CF04A8
:10335000282F277091F4282F082E000C330B92177A
:10336000130659F090918E0892FF07C085958595B8
:1033700085950E9495191092CF040895CF93C0911E
:103380008E08C2FB992790F9981791F080FBC2F93B
:10339000C0938E0860918D0884E090E00E94C13156
:1033A0006C2F82E290E00E94C13182E00E94A2195B
:1033B000CF91089521E030E001C0220F8A95EAF70D
:1033C0008091F708822B0E94841908958093F3045A
:1033D0000E94681908951092F10480912502E4E595
:1033E000F4E0882361F080918D0887FF08C08EE1AA
:1033F000DF011D928A95E9F70E946819089586E019
:10340000F7CFAAE2B0E0E7E0FAE10C94CF3089EB25
:1034100098E02091F100DC012D93CD01B8E0813CD2
:103420009B07B9F78091BA08833009F472C0B8F4E9
:10343000813009F449C0823009F4B3C08091E800BA
:1034400083FF96C28091B9089091BA089A3008F02B
:103450008FC2E92FF0E0E650FC4C0C940B318A301F
:1034600009F48EC08B3009F471C0893039F780912E
:10347000B908813219F78091BD089091BE08009774
:1034800011F00397D9F68091E800877F8093E800D8
:103490008091E80082FF38C09091F3008091F200A3
:1034A000029731F48091F100813011F0863021F4DF
:1034B0008091F100809394088091E8008B7780934D
:1034C000E8000E942805BACF8091B908813A09F036
:1034D000B5CF8091E800877F8093E8008091BD0898
:1034E0009091BE08892B61F460E285E998E070E074
:1034F0000E94D4058091E8008B778093E8009ECFEE
:1035000060E090E080E0F3CF8091B7088111C0CFF8
:1035100095CF8091B908813A09F090CF8091BD088C
:103520009091BE08892B09F089CF8091E800877FB0
:103530008093E8008091E80080FFFCCF8091250215
:103540008093F1008091E8008E77B9CF8091B9081F
:10355000813209F073CF8091BD089091BE08892B0C
:1035600009F06CCF8091E800877F8093E8000E948B
:1035700028058091BB08809325020E94EB195ECF3D
:103580008091B908813209F059CF8091E800877F96
:103590008093E8000E9428058091BC0880939308DE
:1035A0004DCF8091B908813A09F048CF8091E80069
:1035B000877F8093E8008091E80080FFFCCF8091B6
:1035C0009308BECF803899F0823809F0D1C180913C
:1035D000BD088F70873008F0CBC18093E9008091DF
:1035E000EB0085FB882780F91092E90006C08091E6
:1035F000B5089091B608911182609091E800977F8C
:103600009093E8008093F1001092F1008091E8001F
:103610008E77AAC1882309F498C1823009F0A8C125
:103620008091BB0881119BC18091BD088F702FEFE5
:10363000280F263008F09CC18093E9002091EB0010
:1036400020FF8DC1933031F48091EB008062809334
:10365000EB0085C19091EB0090619093EB0021E02D
:1036600030E001C0220F8A95EAF72093EA00109219
:10367000EA008091EB008860EACF811179C1109156
:10368000BB081F778091E3008078812B8093E30053
:103690008091E800877F8093E8000E942805809150
:1036A000E80080FFFCCF8091E30080688093E30016
:1036B00082E0111183E08093B7085AC180588230AC
:1036C00008F056C12091BB083091BC082C3DE3E0C6
:1036D0003E07A1F583E08A838AE289834FB7F89495
:1036E000DE01139620E03EE051E2E32FF0E050933C
:1036F0005700E49120FF03C0E295EF703F5FEF7049
:103700008E2F90E0EA30C0F0C7968D939D932F5F87
:10371000243159F74FBF8091E800877F8093E800FC
:103720006AE270E0CE0101960E94D4058091E80023
:103730008B778093E8001CC1C096E7CF8091BD08CD
:103740009091BE08432F55274330510509F44AC0D4
:1037500078F54130510509F47AC08BE790E0E2ED4D
:10376000F7E04230510509F003C12091E800277FBE
:103770002093E8002091BF083091C008821793077A
:1037800008F49C0140E02115310509F065C04111A4
:1037900063C08091E80082FDC9CF8091B70888237B
:1037A00029F2853019F28091E80083FFF2CFBECF75
:1037B0004132510509F43CC04232510509F0D8C0EC
:1037C0008430910508F0D4C0FC01EE0FFF1FEC52CD
:1037D000FD4F0190F081E02D80539D4FDC018C91D5
:1037E00090E01AC0332721303105D1F02115310581
:1037F00061F02230310509F0BBC0EFE5F8E0E4915B
:103800008E2F90E0EFE5F8E007C0EFE8F8E0E491F4
:103810008E2F90E0EFE8F8E0009709F4A9C0A5CF5B
:10382000EDE7F8E0E4918E2F90E0EDE7F8E0F4CFDB
:103830008430910508F09CC0880F991FFC01E45268
:10384000FD4F0190F081E02D89E090E08ECF82E184
:1038500090E0EDE4F8E089CF8091B708882309F47F
:1038600065CF853009F462CF8091E80083FD5ECF9B
:103870008091E80082FD8DCF8091E80080FF83CFAA
:103880009091F3008091F2002115310519F08830F4
:10389000910550F041E0089709F040E08091E80080
:1038A0008E778093E8006FCF44914093F10031967A
:1038B000215031090196E8CF803809F059C0809134
:1038C000E800877F8093E8008091B8088093F1003A
:1038D0009DCE81114DC01091BB08123008F048C038
:1038E0008091E800877F8093E8001093B8080E94D9
:1038F0002805112311F084E005C08091E30087FDC5
:10390000FACF81E08093B70842E061EC81E00E9449
:10391000470542E261EC86E00E94470542E261EC25
:1039200082E00E94470542E260EC83E00E94470586
:1039300042E361EC84E00E94470542E360EC85E0ED
:103940000E9447058091B70813C08091BB08813061
:1039500079F481E0933009F080E08093B60810920A
:10396000E9008091E800877F8093E8000E942805A5
:103970008091E80083FF0AC08091E800877F8093F0
:10398000E8008091EB0080628093EB00AA96E3E070
:103990000C94EB301F920F920FB60F9211242F93BD
:1039A0003F934F935F936F937F938F939F93AF93C7
:1039B000BF93CF93DF93EF93FF93D091E900DF7034
:1039C0008091EC00C82FC17080FDC0E81092E90022
:1039D0008091F000877F8093F00078940E94011A14
:1039E0001092E9008091F00088608093F000CD2B68
:1039F000CF70C093E900FF91EF91DF91CF91BF911C
:103A0000AF919F918F917F916F915F914F913F9176
:103A10002F910F900FBE0F901F9018950E94EB19D9
:103A20002FEF84E39CE0215080409040E1F700C0FC
:103A3000000088E19CE00FB6F894A89580936000A0
:103A40000FBE90936000FFCF882391F19CEF980FF9
:103A5000913A40F4682F82E594E00E9442060E9469
:103A60004C17089590E2980F983050F4877091E0C9
:103A700001C0990F8A95EAF7892F0E94460FEFCF70
:103A80009BE5980F933028F490E080E00E94B70601
:103A9000089598E5980F973128F490E080E00E940F
:103AA000A1060895803F20F00E94420C0E94411917
:103AB0000895CF93C82F8823D9F18CEF8C0F813ACA
:103AC000C8F580912502882311F180918D0887FF28
:103AD0001EC0EC2FE695E695E695F0E0EE5AFB4F1A
:103AE000828190E04C2F477021E030E002C0220F2D
:103AF000331F4A95E2F782239323892B91F06C2F91
:103B000082E594E00E9442060E944C170AC0E4E558
:103B1000F4E08AE594E02191C21789F38E179F079C
:103B2000D1F76C2F82E594E00E946C060E944C173E
:103B3000CF91089580E28C0F883068F4C77021E03F
:103B400030E001C0220FCA95EAF78091F104822B80
:103B50008093F104EBCFEBE5EC0FE33040F4F0E0C1
:103B6000E559FD4F808190E00E94B706E1CFE8E57E
:103B7000EC0FE73150F4F0E0EE0FFF1FE259FD4F7C
:103B8000808191810E94A106D3CFC03F88F28C2F03
:103B90000E94FD0C0E944119CBCF1F93CF93DF935E
:103BA000182FD0E0C0E0893311F4C0E5D0E0812FB8
:103BB0000E94591D209739F4812F0E94241DDF9106
:103BC000CF911F9108958FE99FE00197F1F700C011
:103BD00000002197EFCF0F931F93CF93DF93C62F52
:103BE000D42F022FFC0182818823A9F06093F6086C
:103BF0000E9435199093F5088093F408C77081E00E
:103C000001C0880FCA95EAF70E94A817DF91CF91EB
:103C10001F910F9108958091F608681332C080912A
:103C2000F4089091F5080E942619883C910548F502
:103C300010E21D0FCD17B9F080E28C0F883040F4F0
:103C4000C77081E001C0880FCA95EAF70E94A117EA
:103C5000183048F481E09D2F977001C0880F9A9525
:103C6000EAF70E94A817802F0E94CD1D183070F629
:103C7000D77081E001C0880FDA95EAF70E94A1179A
:103C8000C5CFC77081E001C0880FCA95EAF7F6CFAB
:103C9000A5E0B0E0EEE4FEE10C94C1308C01FC0143
:103CA00083819481892B31F08081918189238F3F99
:103CB00009F0E5C52596E1E10C94DD300E945D1127
:103CC000F82E682F89819A810E948B0F69817A81F1
:103CD0008F2D0E944F117C01F8018281882309F405
:103CE000C1C5970122513F452031310508F092C5E9
:103CF0008FEF93E00E94A331811128C0FEEEEF0EFA
:103D000057EF852E52E0952EE11032C01C821B82A7
:103D1000442443944AE0342E74018FEFE81AF80AE1
:103D2000C4010E94A33189831A82882379F09FEF0E
:103D3000980F933058F58A83498292E0890E911C3E
:103D4000C7010E94A3318B83811121C08091CF04D0
:103D5000877009F4AFCFF8018281882309F4AACFD4
:103D600080918E0882FFA6CF82E00E94A219A2CF86
:103D7000811424E0920651F3C4010E94A331811101
:103D800001C0EA943FEF831A930ABECF4701FE01B8
:103D900031967F01F7012081222309F4BDCF213024
:103DA00009F047C091818281913031F4F2E0EF0E49
:103DB000F11C0E94CD1D07C0923049F422E0E20EB2
:103DC000F11C0E94591D3FEFE31AF30AE3CF933031
:103DD00031F432E0E30EF11C0E94241DF4CF943044
:103DE00021F08FEFE81AF80AEECF92E0E90EF11C0D
:103DF00030E020E0B7016F5F7F4FF70141818053D2
:103E0000990B8A30910550F021503109E0F28FE989
:103E10009FE00197F1F700C00000F6CF329EF0015D
:103E2000339EF00D11249C012E0F3F1F842F7B0128
:103E3000E1CFE22FF0E0EA5EFD4F5490822F8695AD
:103E40008695869590E0FC01EA5FFD4F64902770AF
:103E5000712C022E02C0759467940A94E2F7E1E097
:103E60006E227724FC01EA50FE4FA490B12C022E62
:103E700002C0B594A7940A94E2F7F1E0AF22BB2404
:103E8000FC01EA51FE4FC490D12C02C0D594C794D6
:103E90002A95E2F721E0C222DD246114710419F0B1
:103EA00081EE0E94591DA114B10419F086EE0E9402
:103EB000591D852D0E94CD1DA114B10419F086EE67
:103EC0000E94241D6114710419F081EE0E94241DCA
:103ED000C114D10409F477CF8CE26BCF81E00E944A
:103EE000DA190E94891932CF81E00E949519F9CF21
:103EF00082E0F5CF882329F08FE992E00E94A106A5
:103F000025CF90E080E0FACF8823D9F380EA92E0D1
:103F1000F5CF23EFE2162CE5F20609F482C0C0F4D7
:103F200098EDE9169CE5F90609F477C0E9EDEE167F
:103F3000ECE5FE0609F481C0F7EDEF16FCE5FF069F
:103F4000B9F426E241EE61EEC8010E94EB1DFECEFF
:103F500025EFE2162CE5F20609F46BC008F465C003
:103F600027E245EE66EE96EFE9169CE5F90661F369
:103F7000882309F495C41092F608E3E0EE16EDE507
:103F8000FE0608F05DC0FAEFEF16FCE5FF0630F420
:103F9000C70182509C45449708F05FC00E94DC1125
:103FA00090938E0880938D0892E1E9169CE5F906BE
:103FB00009F476C108F0B8C0F9E0EF16FCE5FF0699
:103FC00009F44CC108F07BC035E0E3163CE5F3068C
:103FD00009F438C108F05FC093E0E9169CE5F906E2
:103FE00009F428C108F02AC180918D088160F2E0AF
:103FF000EF16FCE5FF0609F494C060918D08F0907F
:104000008E0884E090E00E94C1316F2D82E290E042
:104010000E94C1310E94EB1999CE27E245EE65EE70
:1040200093CF26E241EE60EE8FCF27E245EE64EEBD
:104030008BCF26E241EE62EE87CF28E241E0EFCF60
:1040400025EAE2162DE5F20609F4A8CFF0F481E6A0
:10405000E8168DE5F80609F4A1CF36E1E3163CE554
:10406000F30609F02CC48091F1048A7A91E009F4F6
:1040700090E09093720469E2811165E382E594E037
:104080000E946C060E944C1761CEC7018D5A9D4557
:10409000039718F783CF80918D08806227E0E2169E
:1040A0002CE5F206F1F180918D08806138E0E3168D
:1040B0003CE5F306B0F180918D08806432C08DE05C
:1040C000E8168CE5F80609F4D3C0A0F480918D08B9
:1040D0008E7FEBE0EE16ECE5FE0619F180918D087F
:1040E0008C60FCE0EF16FCE5FF06D8F080918D08AF
:1040F0008D7F17C02FE0E2162CE5F20609F4C8C048
:1041000008F4BAC080E1E8168CE5F80609F4C4C0EA
:1041100080918D088F7B91E1E9169CE5F90609F005
:104120006CCF80938D0869CFEFEFEE16ECE5FE06BD
:1041300009F4C0C0C8F52AEFE2162CE5F20609F42E
:1041400085C0D0F484E1E8168CE5F80609F4C0C017
:1041500008F4ACC0E5E1EE16ECE5FE0609F04DCF43
:1041600080918D0882FB992790F921E0922790FB9E
:1041700082F990FB83F9D5CFFCEFEF16FCE5FF0643
:1041800009F47EC008F466C03DEFE3163CE5F30693
:1041900009F47AC08EEFE8168CE5F80609F02DCF09
:1041A00080918E08836043C091E6E9169DE5F9068B
:1041B00009F499C0A0F4F1E0EF16FDE5FF0609F45B
:1041C00090C008F47BC060E032E0E3163DE5F30602
:1041D00009F013CF8EE090E00E94C1310ECF8DEA3E
:1041E000E8168DE5F80601F168F490918D08892FA5
:1041F0008E7F90FF8160E5EAEE16EDE5FE0609F49C
:1042000090CFFBCEFEEAEF16FDE5FF0669F12FEA3F
:10421000E2162DE5F20609F0F0CE90918E08892F76
:10422000877F93FF886003C080918E0888608093A9
:104230008E08E3CE80918D08826073CF80918D08C7
:1042400084606FCF80918D0888606BCF80918E08DD
:104250008160EDCF80918E088260E9CF0E94EB19DA
:1042600080918D0880685DCF80918E08877FDFCF39
:1042700080918D088B7F55CF80918D08877F51CF9E
:1042800080918E088E7FD3CF80918E088D7FCFCF87
:1042900080918D088F7E45CF80918D088F7D41CF95
:1042A0000E94EB1980918D088F773BCF80918D080C
:1042B000837F37CF80918E088C7FB9CF80918E0815
:1042C000982F909591708E7F892B90FB81F9AFCFBD
:1042D0000E94EB1990918D08892F97FB87F98058E0
:1042E00020CF61E077CF90918D08892F8F7E94FF4A
:1042F000806117CF43E757E06EE777E00E94DA0668
:1043000025CD4EE757E063E777E0F8CF44E457E088
:104310006FE477E0F3CF4FE457E064E477E0EECF6B
:1043200048E257E066E377E0E9CF46E357E068E22A
:1043300077E0E4CF4AE157E06CE077E0DFCF40EE92
:1043400056E06EEE76E0DACF4EEE56E060EE76E0C6
:10435000D5CF61E081E00E945A07F8CC61E085E0AA
:10436000FACF0E94EB198FEF94E3ECE0815090407C
:10437000E040E1F700C000000E94651080918E08C7
:1043800082FB882780F991E089270E94BE19F801F5
:104390008281E080F180882309F445C0C7010E9432
:1043A0005D11D82E682FC7010E948B0FB7018D2D8C
:1043B0000E944F110E94B30D7C01882EF801D2801B
:1043C000B580B2943FE0B3228091CF048770C1F0F2
:1043D000AD2CDD20B1F08F2D807F803421F080E284
:1043E0008E0D883068F080918E0882FF09C082E0CF
:1043F0000E94A2198091CF048770AA24A3948111EE
:10440000A12C9F2C92942FE09222FBE0F91508F446
:1044100079C0E92DF0E0EC5FFB4C0C940B3181E0AE
:10442000B4CF80E0B2CFC7010E94570FD82EBECFC5
:104430002F2D2F70C22E8F2D807F19F0C29490EFF8
:10444000C922DD20B9F0CC2069F080E28E0D8830E1
:1044500010F0811009C08091F104C82AC092F104C3
:104460000E944C178E2D4CC08091F004C82AC09237
:10447000F004F6CF8E2D0E94241DCC2009F442C0FA
:1044800080E28E0D883010F0811004C08C2D0E94C7
:10449000460F06C0C0948091F004C822C092F00478
:1044A0000E944C172FC03F2D3F70C32E8F2D807F51
:1044B000803219F0C29480EFC822882089F081E010
:1044C000881609F468C0DD2009F472C0BB2009F425
:1044D00068C0F801858180FFC5CF8F70858361C07A
:1044E00020918E0822FD35C0DD2069F1CC2039F005
:1044F0008091F104C82AC092F1040E944C1780E018
:104500000E94591D292D2850330B2430310510F4F9
:104510000E94CD06AA2009F4CDCB8091CF0480FD66
:10452000C9CBF80112828595859585950E94DA1987
:10453000C8010E94481E8091CF0485958595859578
:104540000E949519B7CB80E00E94241DCC20D1F2A7
:104550009DCFDD2099F09091F2048C2D892BB11024
:1045600003C00E94A817CECFE1E0BE12FACF22FF0F
:10457000C9CF981739F28093F204C4CFB11006C0A6
:104580000E94400F8C2D0E94A117BCCFF1E0BF16F6
:1045900009F4B8CFF5CFDD2031F025E02B1508F474
:1045A000B1CF8C2DDECF34E03B1508F4ABCFEACF92
:1045B000BB2041F3F9E38F1209C02FEF37EE83E000
:1045C000215030408040E1F700C000008E2D0E9455
:1045D000241D98CF8F2D86958695837061F081304C
:1045E00009F090CFC7019370D11002C090E080E035
:1045F0000E94A10687CFC7019370D11002C090E03E
:1046000080E00E94B7067ECF8E2DDD2029F00E942B
:10461000FD0C0E94411976CF0E94420CFACF8F2DDB
:10462000837091F5D1106ECF4E2D4295469547700F
:10463000440F440F8E2D8F70042E01C0880F0A94F2
:10464000EAF72E2D2071E4FE07C02FE030E001C014
:10465000220F4A95EAF720953F2D3695369533700F
:10466000323069F050F44091F304313029F0822B5C
:1046700084230E94E61946CF842B822BFACF282B65
:104680008091F3048227F5CF8695DD2011F08F2DE0
:104690008170882309F436CF4E2D42954695477098
:1046A000440F440F8E2D8F70042E01C0880F0A9482
:1046B000EAF72E2D2071E4FE07C02FE030E001C0A4
:1046C000220F4A95EAF720953F2D3695369533709F
:1046D000323069F050F44091F708313029F0822BE4
:1046E00084230E9484190ECF842B822BFACF282B8F
:1046F0008091F7088227F5CF9F2D9F70F92EDD203E
:1047000029F0892F0E94DA198E2D2BCF8E2D0E9431
:10471000A1178F2D0E949519F5CE8E2DE2EF8E16E2
:10472000B1F1E81570F0F0EF8F16D1F021EF82169D
:1047300091F0DD2009F45EC0B11094CE8F2D8F7101
:104740002AC033EF831651F194EF8912F2CF809192
:104750008E0882FD2FC08F2D8F71DD20D9F21BC0F6
:10476000DD2081F0E4E0EB1508F4CCCE2F2D2F7185
:1047700081E090E001C0880F2A95EAF79091F70850
:104780008927AFCFF5E0FB1508F4BCCEEFCF8F2D16
:104790008F71D110BFCF0E94DA19B4CE80E0DD2036
:1047A00009F49FCF9F2D9F7181E001C0880F9A95DA
:1047B000EAF797CFDD2099F02F2D2F71F22E822F5F
:1047C0000E94DA1980918E0882FF07C038E0F39EBC
:1047D000C001112483608093CF048F2DDCCF81E052
:1047E0000E94A21981E08B1508F08CCE82E00E9415
:1047F000A21988CEBB2059F0893309F0E7CE9FEF8C
:10480000E7EEF3E09150E040F040E1F7DDCE8F2D90
:104810008F7180CFF0E1EF16FFE5FF0609F45ECB64
:1048200021E1E2162FE5F20609F462CB91E8E916E0
:104830009FE5F90609F45ECBE2E8EE16EFE5FE0629
:1048400009F462CBF0E8EF16FFE5FF0609F061CB53
:10485000882309F47BCA61E083E10E945A070E9421
:104860009C0874CA30E1E3163FE5F30609F43CCB3B
:1048700091E1E9169FE5F906C9F682E036CB85E0BD
:10488000DE01119601900D928A95E1F7F8012281DF
:1048900089819A81211112CA0E94570FF82E16CAD7
:1048A000F6E1EF16FCE5FF0671F58091720469E20E
:1048B000811165E382E594E00E944206E3CB2AE59C
:1048C000E2162DE5F20609F4AACD78F4E1148CE5A0
:1048D000F80609F446CD9EEDE9169CE5F90609F0C7
:1048E00056CD0E94BE170E940E1DECE5EE16EDE5BA
:1048F000FE0609F443CD08F494CD27EAE2162DE52F
:10490000F20689F344CD8091F10482723AECE31609
:104910003CE5F30609F40ECDE0F5E5ECEE16ECE52A
:10492000FE0609F4F3CCE0F423ECE2162CE5F206E3
:1049300009F4E0CC08F0E5CC82ECE8168CE5F8064A
:1049400009F025CD8091C50891E089278093C5089D
:10495000109212018091BE0581608093BE05F6C958
:1049600097ECE9169CE5F90609F4DACC08F4D3CC07
:10497000F8ECEF16FCE5FF0609F4D7CC4CE057E065
:104980006AE177E029ECE2162CE5F20609F4B6CCF0
:10499000FECC3FECE3163CE5F30609F4DFCCB8F4BB
:1049A000ECECEE16ECE5FE0609F4CECC08F4C7CC30
:1049B0002DECE2162CE5F20609F4CBCC61E082E0A6
:1049C0003EECE3163CE5F30609F4C5CCE0CC86EDFD
:1049D000E8168CE5F80648F461E089E091EDE91607
:1049E0009CE5F90608F4B7CCB1C9EDE5EE16FE0674
:1049F00009F4ACC9CCCC1F93CF93DF9380919C0476
:104A0000807F09F049C080919904882309F444C04B
:104A10008091CE04D0919D04609197047091980488
:104A2000A0919A04B0919B04C62FC72316E0D81713
:104A300099F190E0109711F0CF3F19F4019687702B
:104A4000F6CF189F9001199F300D1124F901E256FD
:104A5000FB4F41814713F2CF40814613EFCF428194
:104A60004111ECCF438154814A1B5B0B483C5105FB
:104A700028F780919C048F70806180939C04F901D9
:104A8000ED55FB4F80818F708061808387E994E0D2
:104A90000E94481E0E944D0FDF91CF911F910895F3
:104AA000A1E1B0E0E6E5F5E20C94C8308C0185E0C8
:104AB000F801DE011D9601900D928A95E1F7F8014B
:104AC000E28087E9A82E84E0B82E60919A04709164
:104AD0009B046115710509F426C1909197044091DA
:104AE0009804892F84238F3F09F41DC120813181CF
:104AF000C380D480F0909904F601E61BF70BFF20E9
:104B000009F4DCC080919C04582F507FE83CF105EB
:104B100008F09FC051116BC0FE2C431314C09213B8
:104B200012C0E11010C08F70806180939C04C50199
:104B30000E94481E80919C04F80185838F2D619608
:104B4000EAE00C94E430C114D10429F0822F8323CD
:104B50008F3F09F003C180E0F82FF170DF2E80FF56
:104B60003CC08091CE0440919D0456E0841315C052
:104B70002D873E878D859E850E948C11292F229539
:104B80002F702230F0F0243018F59F70F1F0F8010A
:104B90009581907FD1F4D12C1EC090E0589FF001F8
:104BA000599FF00D1124E256FB4F6181361306C068
:104BB0006081261303C06281E6120FC001968770E0
:104BC000D5CF9F7011F0882331F3805E883018F3C1
:104BD000C8010E94481EFD2CB1CFEE2009F4AECFD3
:104BE00080919C04816080939C04F12CA7CF431397
:104BF00006C0921304C0F801EE2009F479C0C80180
:104C00000E949911882309F1EE20F9F080919C040B
:104C1000803270F0209197043091980438872F8368
:104C20001986DB86CA868C87CE0107960E94481EAD
:104C300086E0F801A7E9B4E001900D928A95E1F7CA
:104C40000E94FB24FF24F39479CFC8010E94481EE0
:104C5000F9CF51110AC087E994E00E94481E86E00E
:104C6000F50111928A95E9F7C0CF43130FC0921353
:104C70000DC0E1100BC0F8018583C8010E94481ED9
:104C800086E0F50111928A95E9F758CFC8010E9494
:104C900099118823D1F2EE20C1F280919C048032D8
:104CA00038F220919704309198043A8329831B822B
:104CB000DD82CC828E83CE010196B8CFE83CF1052F
:104CC000F8F6FE2CEE2009F243131FC092131DC00C
:104CD00080919C0480FD10C0982F907F69F0F801AE
:104CE0008583903F31F0982F907F905F8F70892B54
:104CF0008583C8010E94481E86E0F801A7E9B4E058
:104D000001900D928A95E1F719CFC8010E9499117F
:104D100081118ECF80919C04816080939C04C80196
:104D20000E94481E0BCFEE2009F48FCFC8010E94CD
:104D30009911F82E882309F488CF86E0F801A7E9B5
:104D4000B4E001900D928A95E1F7809197049091DB
:104D500098040E948C110E94FB24F0CE81E08E25E5
:104D6000FBCEA7E1B0E0E7EBF6E20C94CF304B8B43
:104D70005C8B6D8B7E8B8F8B61111092F0041A8A85
:104D8000198A85E0FE017396DE011D9601900D9251
:104D90008A95E1F786E0FE013D96DE0117960190C7
:104DA0000D928A95E1F7CE0107960E94502588233F
:104DB00059F016E08091CE0490919D04891343C070
:104DC0006796E3E00C94EB3086E0FE013796DE0157
:104DD000119601900D928A95E1F78A859B85892B22
:104DE00041F38F81988589238F3F19F320919D048A
:104DF00030E0C9010196877099274091CE04481789
:104E0000190671F40E94EB1910929D041092CE04C1
:104E100086E0E7E9F4E0DF011D928A95E9F7C9CF62
:104E200096E0929FD001939FB00D1124A256BB4FE4
:104E3000FE01319601900D929A95E1F780939D04C1
:104E40000E944D0FB6CF819FC001112482569B4F07
:104E50000E945025882309F4B3CF8091CE0490E0BE
:104E60000196877099278093CE04A4CFACE0B0E080
:104E7000ECE3F7E20C94C6308E010F5F1F4F8CE01D
:104E8000F80111928A95E9F79CE9E92E92E0F92E52
:104E90006801AA24A394B12CF70181917F018F3F6F
:104EA00009F446C0F894E82FE295EF70F0E021A1F4
:104EB0008F70A50102C0440F551F8A95E2F7CA0101
:104EC000922F982B91A392A18095892382A3789405
:104ED00000C0E2EAF2E021E030E0912C812C419127
:104EE0004F3F09F467C0A42FA295AF70B0E0909631
:104EF0008C9190E04F7002C0959587954A95E2F7A6
:104F000080FD58C0C901882A992A220F331F52E018
:104F1000E13BF50721F7F701319780818F3F11F0D1
:104F20000E94590D80EA8A95F1F7F60191828082FC
:104F3000F2E0CF0ED11C42EAE41642E0F40609F09A
:104F4000ABCF4CE050E0B80187EF94E00E947D3198
:104F5000892B99F18CE0F801A7EFB4E001900D9254
:104F60008A95E1F781E08093F6040E9435199093C9
:104F7000F5048093F4048091F4049091F5040E9468
:104F800026190397F0F04CE050E067EF74E083E1FE
:104F900095E00E947D31892BC9F08CE0E7EFF4E0C9
:104FA000A3E1B5E001900D928A95E1F781E01092BE
:104FB000F60408C090E080E0A6CF8091F60481114D
:104FC000DACF80E02C96ECE00C94E23080E0EFCF7A
:104FD0001F921FB61F9211248F939F93AF93BF937D
:104FE00080918808811113C08091890890918A0866
:104FF000A0918B08B0918C084196A11DB11D8093A2
:10500000890890938A08A0938B08B0938C08BF916D
:10501000AF919F918F911F901FBE1F901895CDB794
:10502000DEB7C255D1090FB6F894DEBF0FBECDBFB3
:1050300085B7806885BF85B7806885BF84B7877F5F
:1050400084BF0FB6F894A895809160008861809322
:105050006000109260000FBE80E890E00FB6F894F8
:1050600080936100909361000FBE87E59DE090936F
:10507000510480935004279A2F9A0E9484040E941E
:1050800079058091E20084608093E20078948091B9
:10509000B7088823A1F01091E9001F709091EC00EF
:1050A000892F817090FD80E8182B1092E900809183
:1050B000E80083FD0E94011A1F701093E90082E04E
:1050C00084BD93E095BD9AEF97BD80936E000E94DA
:1050D000C311811102C00E9410110CE912E0D80125
:1050E0008D918D018F3F11F00E94590DB2E0023A6F
:1050F0001B07A9F702EA12E0F80181918F018F3FA7
:1051000011F00E94590DF2E0013B1F07A9F78CE056
:10511000E3E1F5E0DF01282F1D922A95E9F7E7EF9B
:10512000F4E0DF011D928A95E9F70E94B217811120
:1051300002C00E94BE1782E090E00E94A3318093DB
:1051400005050E94DC1190938E0880938D080E94C3
:105150003627EFEBFDE53197F1F700C000000E9424
:1051600036278091130580FF08C06FEF7FEF90E036
:1051700080E00E94DF310E94651083E090E00E9491
:10518000A3310E94E6190E94CA121092CB088FEF39
:105190009FEF9093E5088093E4089093E70880934D
:1051A000E6089093E9088093E8089093EB088093D1
:1051B000EA089093ED088093EC089093EF088093B1
:1051C000EE089093F1088093F0089093F308809391
:1051D000F20810928C059093A6058093A5059093F4
:1051E000A8058093A7059093AA058093A90590939D
:1051F000AC058093AB059093AE058093AD0590937D
:10520000B0058093AF059093B2058093B10590935C
:10521000B4058093B3050E94B217811104C00E94A7
:10522000BE170E94B11346E050E06CE170E085ECDF
:1052300098E00E9493311092BE058091C5088C7F42
:1052400011F40E94B11384E091E09093850880935B
:1052500084088091B708853099F480E4F82EEE2414
:10526000E39493E0D92E00E112E18091B7088530F4
:1052700009F401C10E94EB190E94CD061092BD05F0
:105280000E94362746E055E02F965FAF4EAF2F972E
:1052900003E1E02E05E0F02ED701FA0121913191D2
:1052A0008D919D9155E0E231F50709F434C128173D
:1052B0003907A1F314EE212E12E0312E83E195E09F
:1052C00061969FAF8EAF6197712C6196AEADBFAD09
:1052D0006197CD90DD906196BFAFAEAF61972F968D
:1052E000EEADFFAD2F97819191912F96FFAFEEAF6D
:1052F0002F978C159D0509F4B4C09C012C253D25E4
:1053000063963FAF2EAF63972D963FAE2EAE2D978F
:10531000612CAA24A394B12C63968EAD9FAD6397A4
:105320008A219B21892B09F486C086010A211B2131
:1053300027966FAE279728967FAE289781E00115B4
:10534000110509F480E029968FAF29970E9435193D
:105350008160782F2B969FAF8EAF2B9727964FADFE
:10536000279728965FAD289729966FAD29972B969A
:105370008FAD2B970E94B1261092B9051092BA05F5
:105380001092BB051092BC05012B41F02D96AEADDD
:10539000BFAD2D978C918F3F09F008C2412C042D91
:1053A00010E080918C05800F912F911D09976CF171
:1053B000E8E08E2E912C801A910AB80163577A4F3B
:1053C000A4018DE895E00E948A31B8016B567A4FAE
:1053D000A40185E995E00E948A31A401440F551F7C
:1053E000B801660F771F6B557A4F85EA95E00E94EA
:1053F0008A31B80163567A4FA4018DE995E00E9485
:105400008A3188E0841980938C0580918C0590E026
:10541000A52DB0E09D01220F331F225C3C4FAA0F47
:10542000BB1FBD01615C7C4F41E0480F941508F43F
:10543000C1C180938C056394AA0CBB1C2D96EEAD64
:10544000FFAD2D9731962D96FFAFEEAF2D97FFE074
:105450006F1262CF2F96EEADFFAD2F973297D182AC
:10546000C08273942FE0220E311C36E073122DCFD0
:105470000E94360682C08091B708843009F438C093
:105480000E9465168091BD0581110DC00E94C51353
:10549000109211018091C5088370809310010E94C1
:1054A0006D12D0921201E092BD051092880828E199
:1054B00030E00FB6F894A895209360000FBEF092EC
:1054C000600083B7817F846083BF83B7816083BFBF
:1054D0007894889583B78E7F83BF0FB6F894A8958C
:1054E00080916000886180936000109260000FBE20
:1054F0008091B608882309F4B8CE0E943627E3E1EC
:10550000F5E081919191892B09F02AC535E0EF31C1
:10551000F307B9F7AACE2817390709F0CBCE0E94B6
:1055200035198C018091030590910405081719071E
:1055300021F18FEF22968FAF229723968FAF23977B
:1055400024961FAE24970E9435198160782F2696E5
:105550009FAF8EAF269722964FAD229723965FADD1
:10556000239724966FAD249726968FAD26970E9499
:10557000B12610930405009303050E94651686E08A
:10558000E6E8F5E0DE01119601900D928A95E1F7CB
:10559000109288051092890510928A0510928B0549
:1055A0008B819C81892B09F44AC08091840590915C
:1055B00085050E9426199C0190918005992309F484
:1055C00005C525313105D8F19F3F19F09F5F9093B4
:1055D00080051B81112359F00E94DD0C9FEF1116ED
:1055E0000CF491E0899F802D1124809388051C8103
:1055F000112359F00E94DD0C9FEF11160CF491E07D
:10560000899F802D1124809389053091880533234B
:10561000B1F020918905222391F045EB3403C001BC
:105620001124992309F4DBC09093880555EB2503D9
:1056300090011124332309F4D6C0309389058D815C
:105640009E81892B09F44AC080918205909183053F
:105650000E9426199C0190917F05992309F4B1C4F9
:1056600021353105D8F19F3F19F09F5F90937F0559
:105670001D81112359F00E94BB0C9FEF11160CF4F1
:1056800091E0899F802D112480938A051E8111232A
:1056900059F00E94BB0C9FEF11160CF491E0899F0A
:1056A000802D112480938B0530918A053323B1F02E
:1056B00020918B05222391F045EB3403C001112486
:1056C000992309F494C090938A0555EB2503900122
:1056D0001124332309F48FC030938B0546E050E04A
:1056E000BE016F5F7F4F86E895E00E947D31892B78
:1056F00061F48091880590918905892B90918A05A4
:10570000892B90918B05892B11F00E94411986E01D
:10571000FE013196A6E8B5E001900D928A95E1F779
:105720000E94CD0690911205891721F080931205F1
:105730000E9436068091B708843009F460C08091D9
:10574000B708843009F085CD85E08093E900809129
:10575000E80082FF7ECD8091E80090E085FF09C0DF
:1057600050E040E060E470E0CE0101960E94FE044B
:1057700091E08091E8008B778093E800992309F409
:1057800068CDE981EE2309F464CDEA3008F4EFC175
:105790008FED8E0F883008F05CCDE252E73008F0D4
:1057A00078C3F0E0E05FFB4C0C940B31582E44249E
:1057B0004394F5CD90E0FC01E457FA4FD9015C9198
:1057C0005183DB015C915187518A880F991FFC013D
:1057D000E457FA4F128E118E91E0842F25CE81E08E
:1057E0008093880523CF81E08093890528CF81E0CD
:1057F00080938A056ACF81E080938B056FCF83E029
:105800008093E9008091E80082FF99CF8091E800C1
:1058100090E085FF09C050E040E060E270E0CE011A
:1058200001960E94FE0491E08091E8008B778093BE
:10583000E800992309F483CFE981E150E33108F0CE
:1058400061C0F0E0E95EFB4C0C940B311A828AE0F7
:105850008B8311C08A81823009F4AAC3833091F10D
:10586000813009F04FC00E9436060E9411316B83CF
:105870007C838D839E838091B708843009F05FCF4D
:105880001091E9001F709091EC00892F817090FDBC
:1058900080E8182B82E08093E9008091E80080FF87
:1058A0000DC050E040E060E270E0CE0101960E9441
:1058B000D4048091E8008E778093E8001F701093E5
:1058C000E9003DCFFE0131968FE195E0D7012C91A3
:1058D00011963C91B2E0EB0EF11C32832383329699
:1058E0008E159F0599F7C7CF8A81823059F46B8155
:1058F0007C818D819E810E94113186E290E00E9420
:10590000C131B9CF8FEF8983B6CF4C816B818A814A
:105910000E9420119827892798279E838D83ABCFDB
:105920002D813E813227232732274C816B818A814A
:105930000E949910A0CF0E94BF109DCF8A8181380C
:10594000E9F088F4803809F096CF4B812FEF429F21
:10595000412D11248091C60820E06091C70890E095
:105960000E94FC0688CF823819F1833809F083CF72
:105970008B8120E04091C8086C81F1CF60E08B8181
:105980000E945A079B818091C508911109C0982FE8
:10599000937011F0109212018C7F8093C5086BCF29
:1059A000982F937011F4109212018C7F8160F5CFC3
:1059B000EB818FE7E43020F4F0E0EF54FD4F80817D
:1059C0008093C90858CF8A818138E1F078F4803813
:1059D00009F051CF8091C808EFEF8E9FC0011124CC
:1059E0006FEF70E00E94AC306B8345CF823879F066
:1059F000833809F040CF8091C6088B838091C70817
:105A00008C8339CF8091C5088695869521CF80916A
:105A1000C908873230F08F3530F08E3930F083E0AE
:105A200017CF80E015CF81E013CF82E011CF0E9425
:105A3000A61321CF80E18A831ECF81E08A8389E08B
:105A400007CF0A811B811027012710279E012F5F96
:105A50003F4F6901EC80A9014E0D511D7A01C8012B
:105A600089509D4FEC14FD0409F405CF093051E035
:105A7000150758F40E94A331D60114968C930F5F3A
:105A80001F4FFFEFCF1ADF0AEACFF6011482F7CFDC
:105A90000A811B811027012710279E012F5F3F4F8E
:105AA0006901EC80E00EF12EF11CC80189509D4F78
:105AB0000E151F0509F4DFCE093031E0130728F475
:105AC000D60114966C910E94C131BFEFCB1ADB0A4C
:105AD0000F5F1F4FEACF0E948910CDCE84E0ABCF7D
