:100000000C9442040C947A040C947A040C947A04B0
:100010000C947A040C947A040C947A040C947A0468
:100020000C947A040C947A040C9430180C94D11C1F
:100030000C94C9270C947A040C947A040C947A04D6
:100040000C947A040C947A040C947A040C947A0438
:100050000C947A040C9409190C947A040C947A0484
:100060000C947A040C947A040C947A040C947A0418
:100070000C947A040C947A040C947A040C947A0408
:100080000C947A040C947A040C947A040C947A04F8
:100090000C947A040C947A040C947A040C947A04E8
:1000A0000C947A040C947A040C947A0405010902E5
:1000B000A10185020901A1000509190129081500FE
:1000C0002501950875018102050109300931158165
:1000D000257F95027508810609381581257F9501D0
:1000E00075088106050C0A38021581257F95017572
:1000F000088106C0C005010980A101850319012AF4
:10010000B700150126B700950175108100C0050CD8
:100110000901A101850419012AA002150126A002E6
:10012000950175108100C005010906A1018506052C
:100130000719E029E71500250195087501810205D9
:1001400007190029EF1500250195F07501810205B9
:10015000081901290595057501910295017503910D
:1001600001C00659FF0960A1010962150026FF00C0
:100170009540750881020963150026FF00954075BA
:10018000089102C00660FF0961A1010962150026FD
:10019000FF009520750881020963150026FF009570
:1001A0002075089102C005010906A101050719E0A3
:1001B00029E715002501950875018102950175084B
:1001C00081010507190029FF150026FF0095067516
:1001D0000881000508190129059505750191029509
:1001E0000175039101C00000000000000000000044
:1001F00000000000000000000000000000000000FF
:10020000000000000000000000007E0F00D4FFFF8F
:10021000FFC70000007800000000000000002A2B4B
:1002200028000000000000000000000000000000A6
:100230000029000000002C1E34202122243426270F
:10024000252E362D3738271E1F2021222324252630
:100250003333362E37381F0405060708090A0B0CFE
:100260000D0E0F101112131415161718191A1B1C46
:100270001D2F3130232D350405060708090A0B0C04
:100280000D0E0F101112131415161718191A1B1C26
:100290001D2F3130354C0001010101010101010127
:1002A0000202020202020202020303030303030327
:1002B00003040404040404040505050505060606F4
:1002C0000606070707070708080808090909090AB1
:1002D0000A0A0B0B0B0C0C0C0D0D0D0E0E0E0F0F56
:1002E0000F101011111112121313141415151616E4
:1002F0001717181819191A1A1B1B1C1D1D1E1E1F53
:100300002020212222232424252626272829292AA1
:100310002B2C2D2D2E2F30313232333435363738C9
:10032000393A3B3C3D3E3F404142434445464748C5
:10033000494A4C4D4E4F50515354555658595A5B9B
:100340005D5E5F616264656668696B6C6D6F70723B
:10035000737577787A7B7D7E8082838587888A8CA7
:100360008E8F91939596989A9C9EA0A2A3A5A7A9DB
:10037000ABADAFB1B3B5B7BABCBEC0C2C4C6C9CBD2
:10038000CDCFD1D4D6D8DBDDDFE2E4E7E9EBEEF088
:10039000F3F5F8FAFDFF2070800198500209103142
:1003A00084108811061800F2871F78D20927F0B24E
:1003B0008B2E68930D36E0738F3D68900106E070D8
:1003C000830D58510515D031871C48120924C0F2FD
:1003D0008A2B2CA04002A480C2091C6144119441C4
:1003E000C6180C2248208402CA27FCE24B2F74C393
:1003F000CD36ECA34F3E38D30C33B0B38E3A2894AD
:10040000104274C0C106ECA0430E6481C515DC61C6
:10041000471D5442C92438D00003B0B0820A289145
:100420000412A07186191852082190328A280813E4
:100430000C3080F38D37F8D30F3FCC224B2C440384
:10044000CD33BCE34E3B34C4D04240F4904364848B
:10045000D1454400C103BCE0420B34C1C412ACA17D
:10046000461A2482C8219C624A291443CC308C232A
:100470004E380404D03F88141248ACA4524AD034F9
:10048000934CF4C4D34E185514513CE5545350309A
:100490008104C810030C40F18413B8D1061B30B29C
:1004A0008822A8920A2A20738C3198530E3910346E
:1004B0009040607595554C24514470B491469444D5
:1004C000D248B8D4124BDC64534D00F5934F2485C9
:1004D000D4515C604105D440C30C4C214514C40187
:1004E000C71B3CE24823B4C2CA2A2CA34C32A483C3
:1004F000CE391C645041481515546CA555565854B6
:10050000114529003A003B003C003D003E003F0001
:1005100040004100420043004400450046004700BF
:1005200035001E001F0020002100220023002400AF
:100530002500260027002D002E002A0049002B0050
:1005400014001A000800150017001C0018000C0009
:10055000120013002F00300031004C00390004005D
:100560001600070009000A000B000D000E000F0026
:1005700033003400280000000000E1001D001B00D3
:100580000600190005001100100036003700380081
:10059000E500000052000000E000E300E20000007F
:1005A00000002C00000000000000E6000151E40003
:1005B000500051004F000100010001000100010046
:1005C0000100010001000100010001000100010023
:1005D0000100C25C010001000100010001000100F6
:1005E000010001000100010001004C0001004D006C
:1005F0000100010001000100C55CC65CC75CC85C6D
:10060000C95CCA5CC35C0100010001004900010033
:1006100001000100010001000100010001000100D2
:1006200001000100010001000100000000000100C4
:1006300001000100010001000100145C0100010043
:100640000100010001000000A900000001000100FC
:100650000100000000000100000000000000010097
:1006600001000100AC00AA00AB0001000100010084
:100670000100010001000100010001000100010072
:100680000100010001000100010001000100010062
:100690000100010001000100010001000100010052
:1006A0000100010001000100010001000100010042
:1006B0000100010001000100010001000100010032
:1006C0000100010001000100010001000100010022
:1006D0000100010001000100010001000100000013
:1006E0000000010001000100010001000100010003
:1006F00001000100010001000100000001000000F4
:1007000001000100010000000000010000000000E5
:1007100000000100010001000100010001000100D2
:1007200001000100010001000100010001000100C1
:1007300001000100010001000100010001000100B1
:1007400001000100010001000100010001000100A1
:100750000100010001000100010001000100010091
:100760000100010001000100010001000100010081
:100770000100010001000100010001000100010071
:100780000100010001000100010001000100010061
:100790000100000000000100010001000100010053
:1007A0000100010001000100010001000100000042
:1007B0000100000001000100010000000000010034
:1007C0000000000000000100010001000100010024
:1007D000010009027B00040100A0FA0904000001E5
:1007E00003010100092111010001224000070581D8
:1007F000030800010904010002030000000921119F
:1008000001000122220007058203200001070503E1
:100810000320000109040200020300000009211165
:10082000010001222200070584034000010705059D
:100830000340000109040300010300000009211125
:1008400001000122B6000705860320000112010005
:100850000200000008EDED81000100010200010C22
:100860000374006500670069006300000010034D19
:100870000065006C004700650065006B0000000427
:100880000309040011241FBECFEFDAE0DEBFCDBFA5
:1008900004B603FE18C08091FF099091000AA09150
:1008A000010AB091020A8730904BA740B04B59F42F
:1008B0001092FF091092000A1092010A1092020A87
:1008C000E0E0F8E3099529E0AAE4B4E001C01D9254
:1008D000AF3FB207E1F714E0A0E0B1E0E8EDF7E6E2
:1008E00002C005900D92AA34B107D9F70E94F027F3
:1008F0000C949B330C940000E8EDF0E080818E7F37
:1009000080831092E2001092DA001092E100A0EED3
:10091000B0E08C9181608C9380818F77808319BC4B
:10092000A7EDB0E08C918E7F8C9380818F7E808349
:100930001092990908952091E4003091E50095E620
:10094000A9012091EC00822F817020FF06C08091C8
:10095000E80080FF06C080E008952091E80022FDB5
:100960001AC08091BE09882389F0853089F0809172
:10097000EB0085FD0FC02091E4003091E5004217A7
:100980005307F9F29150E1F684E0089582E008956A
:1009900083E0089581E00895EF92FF920F931F93F3
:1009A000CF937C018B010E949B04C82F811117C03B
:1009B0008091E80085FD0BC08091E8008E778093E0
:1009C000E8000E949B04882399F3C82F08C0F70110
:1009D00081917F018093F1000150110949F78C2F1B
:1009E000CF911F910F91FF90EF900895EF92FF929A
:1009F0000F931F93CF937C018B010E949B04C82F00
:100A0000811117C08091E80085FD0BC08091E8003E
:100A10008B778093E8000E949B04882399F3C82F6A
:100A200008C08091F100F70181937F010150110905
:100A300049F78C2FCF911F910F91FF90EF90089560
:100A40008091C00987FF13C08091E80082FF06C033
:100A50008091E8008B778093E80004C08091BE0904
:100A60008111F2CF08958091BE098823D9F3809136
:100A7000E80080FFF8CF8091E8008E77ECCF982FC8
:100A80009093E900242F762F50E0891731F0709170
:100A9000EC002091ED005091F00021FD07C09F5F18
:100AA000973071F78093E90081E008953091EB0071
:100AB0003E7F3093EB003091ED003D7F3093ED00B1
:100AC0003091EB0031603093EB007093EC00209399
:100AD000ED005093F0002091EE0027FDE0CF80E084
:100AE0000895B0E0A0E0E7E7F5E00C948130C8EDB0
:100AF000D0E088818F7E8883E7EDF0E0808181609F
:100B0000808384E082BF81E08093990988818E7F11
:100B1000888302EE10E0F80110821092DA0081EE74
:100B2000C82ED12CF601108288818F778883888126
:100B30008068888388818F7D888319BC1092BE0964
:100B40001092BF091092BD091092BC0990EEE92ED7
:100B5000F12CF70180818B7F80838881816088837D
:100B600042E060E080E00E943F05F60180818E7FD8
:100B70008083F801808181608083808188608083A8
:100B8000F70180818E7F8083888180618883CDB7E3
:100B9000DEB7E8E00C949D30FC018091C60990918D
:100BA000C70986179707A0F06115710529F4909180
:100BB000E8009E779093E80090E06115710551F48C
:100BC000911108C08091E80082FF34C080E0089550
:100BD000BC01F2CF8091BE098823C1F18530C1F1FB
:100BE0008091E80083FD30C08091E80082FDEACF6B
:100BF0008091E80080FFE1CF8091F3002091F20026
:100C0000382F6115710519F02830310558F091E041
:100C10002830310509F090E02091E8002E772093EC
:100C2000E800CBCF81918093F100615071092F5F73
:100C30003F4FE7CF8091BE09882341F0853041F0D6
:100C40008091E80083FFBECF81E0089582E008959F
:100C500083E00895089580919B0908952FB7F89433
:100C600060919009709191098091920990919309F6
:100C70002FBF0895209126022223C9F020919409C4
:100C800027FF15C0E62FE695E695E695EE31D8F4F8
:100C9000E80FF92FF11D677021E030E001C0220F4D
:100CA0006A95EAF720958281282322830895FC0122
:100CB000329608962191621303C0DF0111971C92AE
:100CC000E817F907B9F70895209126022223C1F009
:100CD0002091940927FF14C0E62FE695E695E69546
:100CE000EE31F8F4E80FF92FF11D677021E030E0E4
:100CF00001C0220F6A95EAF78281822B82830895D0
:100D0000FC0132962FEF30E04191641751F02F3FF4
:100D100019F4411101C0232F3F5F3630A9F72F3F4F
:100D200009F40895820F911D27FD9A95FC016283B5
:100D3000089520918D0930918E092817390771F097
:100D400090938E0980938D09E0918B09F0918C0925
:100D5000309721F00084F185E02D099508952091C8
:100D6000890930918A092817390771F090938A0907
:100D700080938909E0918B09F0918C09309721F0DB
:100D80000680F781E02D09950895E0918B09F09197
:100D90008C09309729F00190F081E02D0995089594
:100DA00080E00895FA01811101C0FB0109950895C1
:100DB000ECECF9E0248130E1231B08F420E02483EB
:100DC0008091C80681608093C8060895ECECF9E034
:100DD000248130E1230F08F42FEF24838091C8068B
:100DE00081608093C80608959091CC09937059F062
:100DF0008093CD096093CE094093CF098091C806B6
:100E0000822B8093C8060895ECECF9E0438120E141
:100E1000421B08F440E0818121E0628190E00E9461
:100E2000F4060895ECECF9E0438120E1420F08F468
:100E30004FEF818121E0628190E00E94F4060895E5
:100E4000ECECF9E0628120E1621B08F460E0818152
:100E500021E0438190E00E94F4060895ECECF9E073
:100E6000628120E1620F08F46FEF818121E043810C
:100E700090E00E94F4060895ECECF9E0818121E015
:100E8000438162818850990B0E94F4060895ECEC2E
:100E9000F9E0818190E021E04381628108960E941F
:100EA000F40608959091CC09937061F081110BC004
:100EB00094609093CC09109225028091C806862BED
:100EC0008093C8060895873110F09865F2CF880F97
:100ED000880F982BEECF8091CC098695869581500E
:100EE00009F486E161E00E94520708958091CC09DF
:100EF000869586958F5F873108F081E061E00E94DA
:100F0000520708958091CC09837011F01092250248
:100F10008091CC098C7F8093CC090895EF92FF9249
:100F20000F939701201B31092F3F310519F010F065
:100F30002FEF30E02095382F320F08F43FEF832F4A
:100F40000F91FF90EF900895EF92FF920F9397010A
:100F5000201B31092F3F310519F010F02FEF30E041
:100F6000322F3095482F430F08F44FEF842F620F34
:100F70000F91FF90EF900895EF92FF920F93972FAC
:100F8000093438F4B701601B71096F3F710519F01E
:100F900010F06FEF70E0485F5F4F4131510540F056
:100FA000A901485F5F4F4131510510F06FEF70E0CC
:100FB0006095482F460F08F44FEF842F37FF02C08B
:100FC0002D5F3F4F35952795359527956091CD0934
:100FD000620F792F0F91FF90EF900895EF92FF929B
:100FE0000F93970195E0099F200D311D11242F3F8C
:100FF000310519F010F02FEF30E02095382F320F27
:1010000008F43FEF832F0F91FF90EF9008950F9317
:101010001F93522F10E0F801EE0FFF1FE75CFC4F0B
:10102000A081A851BB0B9D015203F001539FF00D0D
:101030001124000F111FD801A85CBC4F0C9104555E
:10104000110B40039001419F300D11242E0F3F1FC3
:1010500037FF02C0215C3F4F96E0359527959A9562
:10106000E1F7620F1F910F9108950F931F93522F75
:1010700010E0F801EE0FFF1FE75CFC4FA081A851C4
:10108000BB0B9D015203F001539FF00D1124000F83
:10109000111FD801A85CBC4F0C910455110B4003E3
:1010A0009001419F300D11242E0F3F1F37FF02C0CA
:1010B00021583F4F220F232F221F330B620F1F9106
:1010C0000F910895EF920F93972F23E0029FB001A5
:1010D0001124759567956E0D792F0F91EF900895F6
:1010E000322F50E0FA01EE0FFF1FE75CFC4F9081BA
:1010F000985197FD9195440F551FFA01E85CFC4FFC
:101100002081231B330B290F311D97FD3A95620F68
:101110000895E42FF0E0EE0FFF1FE75CFC4F6081C5
:10112000621B0895E42FF0E0EE0FFF1FE85CFC4F18
:101130006081621B0895622F08950E947E120895B7
:101140000E94141208954095282F429F412D11248A
:10115000842F0895FC019B01009729F480E077FF1C
:101160002BC080E80895AC0197FF04C044275527A1
:10117000481B590BB901640F751F37FD10C0241BA4
:10118000350BC901A5E0880F991FAA95E1F70E94C8
:10119000AE3080E2861BF7FF0FC081950895CB012A
:1011A00065E0880F991F6A95E1F7BA01621B730B1E
:1011B0000E94AE3080E6EECF0895EF920F93CF936A
:1011C000DF93D72FC82FC9010E19BA010E94AA08B0
:1011D000602F681B7D2F8C2FDF91CF910F91EF90A7
:1011E00008950F93CF93DF93D72FC82FC901BA016A
:1011F0000E94AA08682F600F7D2F8C2FDF91CF915E
:101200000F910895EF920F931F93CF93DF93D62FF3
:10121000C72F182FC9010E19010FBA010E94AA0881
:10122000081B202F219F212D1124822F6D2F7C2F11
:10123000DF91CF911F910F91EF900895E82F86FDD8
:10124000E0952E2F2F7086FD2F5FE695E695E695AB
:10125000E670F0E0EE53FD4F9181929F902D212D8D
:10126000112492959F702295207F922B2081920FBE
:1012700087FD919580E8890F089540911001509164
:10128000110125E038E0429FC001439F900D529F1D
:10129000900D1124875E994C909311018093100159
:1012A000890F0895AC018230910508F408959FEFED
:1012B000413E8EE1580740F49A0195E03695279516
:1012C0009A95E1F798E0920F61E0E62FE90FFF278A
:1012D000FF1F9F0135952795822F229FF001239FA5
:1012E000F00DF00D11244E175F0738F49FEF920FA9
:1012F000961758F78FEF860F08952F3FE9F361E0B7
:10130000620FF6CF0F93CF93DF93D72FC82F47FDF0
:1013100041958AE290E0841B910947FD9395889F4F
:10132000B001899F700D700D1124229FC001239F71
:10133000900D900D1124860F971F0E945209982F2F
:10134000990F890F682F600F7D2F8C2FDF91CF9120
:101350000F91089530E020E0869F212D969F200D6B
:10136000311D1124C9010895AF92BF92CF92DF922F
:10137000FF920F931F93CF93DF93362F472FE82FC2
:10138000F0E0EA56FD4F71110FC0E4918E2F2E2F21
:101390006E2F722FDF91CF911F910F91FF90DF90F1
:1013A000CF90BF90AF900895C72FD0E02491F22E38
:1013B000022F10E056E0659FC0011124EFEFF0E02E
:1013C000BF010E946330832F90E0880F991F35E59D
:1013D000369FD001379FB00D11248A1B9B0B982F8D
:1013E000990F980F6F01CC1ADD0AC09ED001C19EE3
:1013F000B00DD09EB00D11248B2F499FA001112458
:10140000452F55276F01C41AD50AC09EA001C19E61
:10141000500DD09E500D11245F01A91AB108AC9E49
:101420006001AD9ED00CBC9ED00C1124CD2CDD24CF
:10143000EC19FD09E09FE001E19FD00DF09FD00D78
:101440001124ED2F62307105A1F050F46115710582
:1014500009F49ECF6130710581F0EB2F852F98CF75
:101460006430710569F080F06630710509F490CF41
:10147000F4CFE22F2B2F8D2F8BCFE22F252F88CF6C
:10148000EB2F822F2D2F84CF2B2F8F2DE52F80CF69
:101490002F923F925F926F927F928F929F92AF9224
:1014A000BF92CF92DF92EF92FF920F931F93CF9351
:1014B000DF93CDB7DEB72A970FB6F894DEBF0FBE25
:1014C000CDBF8B837E836D8320913B02220F220F41
:1014D0002F832C5F29832A832C3510F03BE53A8338
:1014E0008091D2098C83FF81EF2FF0E0FA87E987A2
:1014F000CF01880F991F9C01285C3C4F69013B81FB
:10150000832F90E0FC013196F887EF838A819985DB
:101510009817E8F081E0E981EB3508F080E02A9641
:101520000FB6F894DEBF0FBECDBFDF91CF911F91F4
:101530000F91FF90EF90DF90CF90BF90AF909F9072
:101540008F907F906F905F903F902F900895E985E6
:10155000FA85E251FC4F808190913C028923F1F0A1
:101560002090CD093090CE092F8138852E52364FEC
:1015700039015B8010E0FC815F16D0F02091CF092B
:10158000129F112D1124B101812F0E94B409462F01
:10159000282F672F89859A850E94A00829853A857A
:1015A0002F5F3F4F3A87298732E0C30ED11CAECF61
:1015B000F30181913F01F601A080A81ABB08818048
:1015C000F3018781881A9908AA9C9001AB9C300D81
:1015D000300D1124889CC001899C900D900D112420
:1015E000820F931F0E945209082F6091D00921E0B9
:1015F000620F08F46FEFF301EE0FFF1FE25DF94099
:10160000858996890E94AA097C019401A501B101EE
:10161000812FED81FE8109951B015394182FABCFCB
:10162000B0E0A0E0E6E1FBE00C947E306C01C091FC
:101630003B02CC0FCC0F14E01C0FB12E1C3510F068
:101640003BE5B32E6091D009669566958091C809F7
:101650009091C9090E94AA09F82E80E48F0D0E947A
:101660001E0990E8A92EA80E8F2D0E941E0920E8C1
:10167000922E980ED0E0CB1548F081E01B3508F093
:1016800080E0CDB7DEB7EBE00C949A30FE01E2517A
:10169000FC4F808190913C028923A1F06091CD099B
:1016A0007091CE098091CF09EF2C0C2F292D4A2D56
:1016B000F60109950E94B409462F282F672FCE0105
:1016C0000E94A0082196D7CFB0E0A0E0EAE6FBE0B8
:1016D0000C947C305C01C0913B02CC0FCC0F14E029
:1016E0001C0FF12E1C3510F03BE5F32E6091D00954
:1016F00066958091C8099091C9090E94AA09782E1F
:10170000D0E0CF1548F081E01B3508F080E0CDB780
:10171000DEB7EDE00C949830FE01E251FC4F808181
:1017200090913C028923C9F1CE01880F991F825202
:101730009D4FFC01E65AFF4F2081422F4455550B27
:101740006A01855A9F4FFC018081282F2851330B55
:101750004901449F9001459F300D300D1124889C14
:10176000C001899C900D900D1124820F931F0E943F
:101770005209082F6091CD097091CE098091CF094F
:10178000E72C9401A601F50109950E94B409462FA2
:10179000282F672FCE010E94A0082196B2CFB0E07B
:1017A000A0E0E5EDFBE00C9481307C01C0913B02B0
:1017B000CC0FCC0F14E01C0FD12E1C3510F03BE5E4
:1017C000D32E6091D00966958091C8099091C9097E
:1017D0000E94AA09C82ED0E0CD1548F081E01B3543
:1017E00008F080E0CDB7DEB7E8E00C949D30FE0154
:1017F000E251FC4F808190913C02892311F1CE018E
:10180000880F991F82529D4FFC01E55AFF4F20819E
:101810002851330B865A9F4FFC0140814455550B8C
:101820006091CD097091CE098091CF090C2DF701FF
:1018300009950E94B409462F282F672FCE010E94D8
:10184000A0082196C9CFB0E0A0E0E9E2FCE00C944A
:1018500082307C01C0913B02CC0FCC0F14E01C0FF6
:10186000012F1C3508F00BE56091D009669566954F
:1018700021E0620F08F46FEF8091C8099091C909C7
:101880000E94AA09D82ED0E0C01748F081E01B358D
:1018900008F080E0CDB7DEB7E7E00C949E30FE01A3
:1018A000E251FC4F808190913C02892391F060913C
:1018B000CD097091CE098091CF092D2D4C2FF701C4
:1018C00009950E94B409462F282F672FCE010E9448
:1018D000A0082196D9CF40918205803F59F480918C
:1018E000830587FF0DC01092830541110BC0109234
:1018F0007A0508C0813F81F48091830518169CF316
:10190000442381F08091840590918505892B09F00D
:101910005AC0109279050895823F49F447FFF0CFED
:1019200010928205809183058111ECCFE0CF833F37
:1019300019F41416ACF3E4CF90918405893F29F48F
:101940001916F4F610928405DBCF8A3F19F497FF3D
:10195000D7CFF8CF909185058B3F29F497FFD0CF53
:1019600010928505CDCF8C3F19F41916CCF3C8CF52
:101970009CE0980F953090F4845F990B21E030E063
:10198000B90102C0660F771F8A95E2F7CB018095F7
:1019900090918105892380938105B2CF8D3F31F4E9
:1019A00080917B058E7F80937B05AACF8E3F21F4AB
:1019B00080917B058D7FF7CF8F3F09F0A1CF80917C
:1019C0007B058B7FF0CF089580917B0580FD16C04D
:1019D00081FD16C082FD16C0809179058823A1F093
:1019E000883280F428E0829FC001112468E270E010
:1019F0000E94AE30862F672B39F0089582E008955B
:101A000084E0089588E0089581E0089580917B0541
:101A100080FD14C081FD14C082FD16C080917A053E
:101A2000882381F08E3180F420E5829FC00111244B
:101A30006EE170E00E94AE30862F089584E1089533
:101A400088E2089588E0089580E50895803F31F4A4
:101A50000E94060D8195809383050895813F19F4B6
:101A60000E94060DF8CF823F31F40E94060D819549
:101A7000809382050895833F19F40E94060DF8CFE4
:101A8000893F29F40E94E40C8093840508958A3FDD
:101A900021F40E94E40C8195F7CF8B3F31F40E9432
:101AA000E40C81958093850508958C3F19F40E947C
:101AB000E40CF8CF9CE0980F953070F4845F990B9C
:101AC00021E030E001C0220F8A95EAF7809181057C
:101AD000822B8093810508958D3F31F480917B05A1
:101AE000816080937B0508958E3F21F480917B0572
:101AF0008260F7CF8F3FB9F780917B058460F1CF8B
:101B000080E00895F894E82FE295EF70F0E031A1BD
:101B1000282F2F7081E090E001C0880F2A95EAF706
:101B2000982F9095932391A392A1892B82A37894C7
:101B300008959091940992FF06C0282F28712830AB
:101B4000F9F4877F846093FF06C0282F287128311D
:101B5000F1F4877E84612091950920FF06C0382F1B
:101B600038713830D9F4877F816021FF06C0282F73
:101B700028712831D1F4877E816194FD877E089594
:101B8000282F24712430F9F68B7F8860DCCF282F32
:101B90002471243101F78B7E8861DDCF382F3171BC
:101BA000313019F78E7F8860E0CF282F21712131E5
:101BB00021F78E7E8861E1CFCF93DF93EC018238ED
:101BC0009105B1F108F040C08133910509F49DC041
:101BD00048F58932910509F48DC08A9709F49CC0B3
:101BE000C11521E5D20708F0C3C0C11530E5D30700
:101BF00008F01EC1C83ED10508F0A3C0C13ED10502
:101C000088F5C83AD10508F08EC0C53AD10508F06C
:101C100007C1C130D10531F1209721F1C430D10580
:101C200008F545C08533910509F45FC0C997C1F631
:101C300080919409837009F043C18091950983FFD5
:101C400011C0C9E2D0E00EC0833E910599F170F455
:101C5000803E910501F1823E910511F68091940933
:101C600082FD21C0CE01DF91CF910895863E91057E
:101C700061F1873E910571F1843E910509F0B0CF85
:101C80008091950981FFEECF80919409C7EED0E055
:101C900084FD0DC0E7CF8091940980FD33C0909101
:101CA000950990FFDFCFC3EED0E084FFDBCFD0E01B
:101CB000C0E0D8CF8091940982FDFFC09091950932
:101CC00090FDFEC084FFCECFF2CF8091940983FDBA
:101CD000DDCFC8CF8091940983FDF5C0909195091F
:101CE00091FFF0CFC4EED0E0BDCF8091940985FF85
:101CF000B9CFA7CF8091940985FDE8C0809195095F
:101D000083FFB0CFC9E3D0E0ADCF8091940986FFC7
:101D1000A9CFCAE2D0E0A6CF8091940986FFA2CFD6
:101D2000C1E3D0E09FCFCF3BD10508F6C85AD0E041
:101D3000CC0FDD1FCA59DD4F0990D881C02DD46466
:101D400091CFC11540E2D40758F4C11581E0D807FE
:101D500008F088CFC03FD10508F4A9CFD06582CF65
:101D6000C11520E4D20708F4A2CFDF70D06A7ACF81
:101D7000C11535E5D30718F5C11544E5D40708F0BA
:101D800084C0C11583E5D80708F06BC0C11522E5F2
:101D9000D20708F461C0CE018370992721E030E0BA
:101DA00002C0220F331F8A95E2F7C695C69580E2DE
:101DB000C89FE0011124C22BD32BDC6853CFC1157F
:101DC00039E5D307A8F4C11548E5D40708F062C087
:101DD000C11586E5D80708F06ACF8C2F0E94990DAF
:101DE000C82FD0E0DC2FCC27CC27DF71D0623ACFD0
:101DF000C1152AE5D20708F452C0CE0190568115CC
:101E0000904208F054CF8D2F8F710E94990D90E071
:101E1000982F882788279F719C012C2BE901E6CFFA
:101E2000C55AD0E0CD59DD4FC881D0E0D0641ACF7B
:101E3000CE018370992721E030E002C0220F331FCA
:101E40008A95E2F7C695C69540E2C49FE001112449
:101E5000C22BD32BDD6806CFDC2FCC27C16FD06A15
:101E600001CFCE018370992721E030E002C0220F1C
:101E7000331F8A95E2F7C695C69540E2C49FE001FC
:101E80001124C22BD32BDA68EDCEDC2FCC27C46F04
:101E9000D06AE8CEDC2FCC27C06FD06AE3CE8C2F7F
:101EA0008F700E94990D34E0D695C7953A95E1F769
:101EB000CF709C2FEC01D069D5CEC2EED0E0D2CE4F
:101EC000C0EED0E0CFCEC6EED0E0CCCEC5E3D0E0C1
:101ED000C9CE8091EC0481111092EC040895809594
:101EE0009091EB0498239093EB0408958091C8049B
:101EF00090919704981301C008958F5F8770FACF6F
:101F0000292F963078F58F3068F590E03FE0239FD9
:101F1000800D911D1124682F677023E09695879599
:101F20002A95E1F7FC01EE0FFF1FE80FF91FE359B7
:101F3000FB4F50E040E080E0219130E0062E02C0EF
:101F4000369527950A94E2F721703327042E01C0B5
:101F5000220F0A94EAF7822B4F5F5F4F43305105FF
:101F600059F7089580E00895292F963098F58F301D
:101F700088F590E03FE0239F800D911D1124282FCC
:101F8000277041E001C0440F2A95EAF723E09695B7
:101F900087952A95E1F7FC01EE0FFF1FE80FF91F67
:101FA000E359FB4F30E020E070E05191DF011197E1
:101FB000CB01022E02C0969587950A94E2F78170B4
:101FC00081958527842385278C932F5F3F4F23306E
:101FD000310559F70895E7E2F2E08083618324E652
:101FE00030E042E050E0BF0180E60E9442300895B8
:101FF0008093960970939809609397098091BE0920
:10200000843001F586E08093E9008FEF9091E8003D
:10201000815095FD06C095ED9A95F1F7000081116C
:10202000F5CF8091E80085FF0DC050E040E063E00F
:1020300070E086E999E00E94CC048091E8008E77F8
:102040008093E8000895BC0184E00E94F80F089591
:10205000BC0183E00E94F80F08959C0186E0809304
:10206000E9009FEF8091E800915085FD06C085ED65
:102070008A95F1F700009111F5CF8091E80085FF76
:102080000CC050E040E066E070E0C9010E94CC0462
:102090008091E8008E778093E8000895CF93DF93D6
:1020A000EC01809126028823B1F18091940987FF89
:1020B00032C060E286E08093E9008FEF9091E80003
:1020C000815095FD06C095ED9A95F1F700008111BC
:1020D000F5CF8091E80085FF1BC08091260270E05B
:1020E00050E040E0811104C050E040E068E070E062
:1020F000CE010E94CC048091E8008E778093E800A6
:1021000080E2FE01ACE9B9E001900D928A95E1F719
:10211000DF91CF91089568E081E0CDCF81E0809399
:10212000E00080E28093D8001092C9008FE19EE425
:102130000197F1F700C0000087E090EBDC0180938D
:10214000FF099093000AA093010AB093020A88E164
:102150009CE00FB6F894A895809360000FBE909312
:102160006000FFCFCF93DF93C7EFD2E060E0CE01F6
:102170000E9478312196C11584E0D807B9F7DF9124
:10218000CF9108951F93CF93DF93122F8430E0F403
:102190006630D0F44F30C0F4C42FD0E0CC0FDD1F38
:1021A0009EE1699FC00DD11D112494EB899FC00D44
:1021B000D11D1124632FCE0187960E947831612FA3
:1021C000CE0188960E947831DF91CF911F910895BA
:1021D000AF92BF92CF92DF92EF92FF921F93CF9375
:1021E000DF9382E0C82E85E0D82ED0E07601C0E0F3
:1021F00014C0F50125913491412F6C2F8D2F0E9431
:10220000C21082E0A80EB11C1F5F1F3091F78EE153
:10221000E80EF11CCF5FC63019F0570110E0E9CF8E
:10222000DF5F84EBC80ED11CD43001F7DF91CF9172
:102230001F91FF90EF90DF90CF90BF90AF900895E7
:10224000CF93C82F6FEF811162E283E290E00E948A
:102250007831C1110DC0CFEF6C2F84E290E00E9465
:1022600078316C2F85E290E00E947831CF9108950B
:10227000C2E1F2CF80E00E94201160E086E290E0AF
:102280000E9478310E94E8100E94B21081E00E9402
:10229000201108950F931F93CF93DF93843030F56F
:1022A000663020F54F3010F5C42FD0E0CC0FDD1F85
:1022B0002EE1629FC00DD11D112434EB839FC00D10
:1022C000D11D1124CE0187960E945A31082F10E0AB
:1022D000102F0027CE0188960E945A319801282B92
:1022E000C901DF91CF911F910F91089590E080E097
:1022F000F8CF462F843040F4763030F46F3020F43D
:10230000672F0E944A11089590E080E00895CF92CF
:10231000DF92FF920F931F93CF93DF936C01009195
:10232000FE098091ED04082BC7E0D0E010E0FC2E00
:10233000C8010C2E02C0959587950A94E2F780FD9E
:102340000CC02197A0F7F12C8F2DDF91CF911F9119
:102350000F91FF90DF90CF900895B6018C2F0E94CF
:1023600079110E94DC0D019761F3EECFCF93DF93DB
:10237000EC010E948711BE010E9479110E94DC0DC0
:10238000DF91CF910895FC0183819481892B29F0FD
:102390008081918189238F3F51F480E00895843FAB
:1023A000E1F717C0883EA8F0813FB9F712C08081DD
:1023B00091810E94B61192959F70963099F358F4CE
:1023C000925F9F70923048F7803F19F040F7883E47
:1023D00020F781E008959A5FF4CF83E290E00E94B5
:1023E0005A31823289F484E290E00E945A3182317B
:1023F00059F485E290E00E945A3191E0823109F06F
:1024000090E0892F8170089580E0FCCFCF9384E025
:1024100090E00E945A31C82F82E290E00E945A3127
:10242000982F8C2FCF910895A4E0B0E0EAE1F2E17B
:102430000C948430F62E042F122F8B35910508F062
:1024400059C0880F991F880F991FBC016A567C4F8D
:1024500044E050E0CE0101960E942B318981282F63
:10246000237030E0869586954A81942F9295990F36
:10247000990F907C692F682B842F86958695782FED
:102480007370EFE5F1E02E9FC0012F9F900D3E9FEE
:10249000900D1124865D974F680F791FFB01F08224
:1024A000542F52955F704B81E42FE295E07F6E2FA1
:1024B000652B542F52955F70752F7370680F791FBD
:1024C000FB01008342954695469543705C81E52F5C
:1024D000EE0FEE0F6E2F642B752F72957695769515
:1024E0007370860F971FFC011083275D374F81E0C3
:1024F000F90180832496E5E00C94A030FF920F93BD
:102500001F93CF93DF93182F062FF42ED0E0C0E057
:102510002F2D402F612FCE010E9414122196CB3512
:10252000D105B1F7CDB7DEB7E5E00C94A0300F933D
:102530001F93CF93DF9380912908882309F441C02A
:1025400065EC8EEF0E94EB0F60E08DEF0E94EB0FC9
:10255000D0E0C0E004EB10E0CE01B8010E94AE3044
:102560008093270282E1FE01E65DF74FA8E2B2E028
:1025700001900D928A95E1F724E630E043E150E0C6
:1025800067E272E080E60E944230892BD1F46296C5
:10259000C63581E0D807E1F482EA8093270289E01A
:1025A000E0E8F9E0A8E2B2E001900D928A95E1F747
:1025B00024E630E04AE050E067E272E080E60E9404
:1025C000423010922908DF91CF911F910F91089509
:1025D000C43BD10509F665EC8EEF0E94EB0F61E07C
:1025E0008DEF0E94EB0FB8CFA4E0B0E0EAEFF2E18C
:1025F0000C947F300E94A22F65EC8EEF0E94EB0FAF
:1026000064E08DEF0E94EB0F61E080E00E94EB0F31
:102610006FEF81E00E94EB0F67E782E00E94EB0F13
:102620008FE39CE90197F1F700C0000006E913E091
:1026300022E0E22E25E0F22E3FE5C32EDD24D394E6
:10264000BB24BA94AA24A39444E050E0B801CE017C
:1026500001960E942B318981282F237030E08695C6
:1026600086954A81942F9295990F990F907C692FA6
:10267000682B842F86958695782F73702C9DC001CA
:102680002D9D900D3C9D900D11248753994F680FFF
:10269000791FFB01B082542F52955F704B81E42F5C
:1026A000E295E07F6E2F652B542F52955F70752F4A
:1026B0007370680F791FFB01B0824295469546956D
:1026C00043705C81E52FEE0FEE0F6E2F642B752F9C
:1026D0007295769576957370860F971FFC01B08280
:1026E000285D374FF901A0820C5F1F4FE016F106FD
:1026F00009F0AACF65EC8EEF0E94EB0F62E08DEF40
:102700000E94EB0F99ECE92E96E0F92E10E0F7010C
:1027100061917F01812F0E94EB0F1F5F143BB9F77E
:1027200065EC8EEF0E94EB0F63E08DEF0E94EB0FE4
:102730008DE7E82E87E0F82E10E0F70161917F0128
:10274000812F0E94EB0F1F5F1B3AB9F710922808E8
:102750002496EAE00C949B301F93CF93DF93EC0117
:10276000FC01E251FC4F80816823B1F00E941B31D3
:10277000182F0E941B318F77782F20E8720F08F4F2
:102780007FEF612F8091CF090E94B409462F282F37
:10279000672FCE010E94A008DF91CF911F9108956D
:1027A00046E050E06CE170E08CEC99E00E9468310A
:1027B0001092C8060895B0E0A0E0E1EEF3E10C94B9
:1027C0007930C090AF05D090B005E090B105F090A1
:1027D000B2058FB7F894409090095090910960909D
:1027E0009209709093098FBF530142018C189D0884
:1027F000AE08BF080E942E066093AF057093B00527
:102800008093B1059093B205A0918605E6E8F5E0C6
:102810002A2F30E04FEFC40ED41EE11CF11CC41867
:10282000D508E608F708A3131BC02093860530914E
:10283000CC09132F137019F0132F169516952091AC
:1028400025022130B9F12223F1F0223009F4EAC245
:10285000233009F4F0C2CDB7DEB7E0E10C94953037
:10286000418D528D2A01712C612CC414D504E604CB
:10287000F70420F421503F5F3296D5CF480D591D03
:10288000528F418FF8CF10923B026093C80970932A
:10289000C9098093CA099093CB0989E2E6E8F5E07B
:1028A000A2EDB9E001900D928A95E1F781E0809365
:1028B0002502D1CF9091240281E019130BC0832F00
:1028C00083702091230230E091E08217130609F40F
:1028D00090E0892F817080933D028091D109909181
:1028E0003C02981739F080933C0240E060E080E0C1
:1028F0000E949D08173150F4E12FF0E0E356FC4CA4
:102900000C94C23080913D02811102C0C0E081C0B0
:1029100040E060E080E00E949D08F8CFC0913B025B
:10292000CC0FCC0F04E00C0FF02E0C3510F06BE543
:10293000F62E6091CD097091CE098091CF090E9449
:10294000B409E62ED72EC82ED0E0CF1528F0C1E06E
:102950000B3508F45EC0DACFFE01E251FC4F8081F6
:1029600090913C02892331F02C2D4E2D6D2DCE01FE
:102970000E94A0082196E9CFC0913B02CC0FCC0F5A
:1029800004E00C0FF02E0C3510F05BE5F52EE09016
:10299000CD09D091CE09D090CF096091D00966952C
:1029A000669566958091C8099091C9090E94AA0907
:1029B0000E941E09805887FD8195880F282F3D2D84
:1029C000239F212D1124822F6E2D7D2F0E94B4096B
:1029D000E62ED72EC82ED0E0CF1508F0B8CFFE01D6
:1029E000E251FC4F808190913C02892331F02C2DE3
:1029F0004E2D6D2DCE010E94A0082196EDCF82E0D4
:102A000099E00E94640B04C08BE998E00E94230CBB
:102A1000C82F80913B028F5F80933B02C1111BCF77
:102A200082E08093250280913D02811114CF111123
:102A300012CF83E03CCF82E998E0E8CF89E898E0C4
:102A4000E5CF80E798E0E2CF82E698E0DACF82E84F
:102A500099E00E94CF0BDCCF81EF98E0FACF8DEDAB
:102A600098E0CFCF85E398E00E94100BD1CF87E0AC
:102A700098E0FACFC0913D02C1111EC06091D0090B
:102A800020E1620F08F46FEF8091C8099091C909A5
:102A90000E94AA0965E070E00E946330892B09F06A
:102AA00035CF0E941B316BE570E00E94AE30609123
:102AB0003C020E94AC13ADCFC0913B02CC0FCC0FB7
:102AC00004E00C0F802F0C3508F08BE5D0E0E82EE9
:102AD000F12CCE15DF050CF03ACF60913C02CE010F
:102AE0000E94AC132196F5CFC0913B02CC0FCC0FC6
:102AF00004E00C0FD02E0C3510F04BE5D42E2091B5
:102B0000D00931E0230F08F42FEF30E050E040E02F
:102B10006FEF7FEF80E090E00E949C317901D0E080
:102B2000CC24C3942C2FCD1508F011CFFE01E25117
:102B3000FC4F808190913C02892311F14091D20990
:102B40004150042E000C550B47FF1CC0C70160917B
:102B5000D0092C2D620F08F46FEF0E94AA09AC0176
:102B60006091CD097091CE098091CF090E94A30890
:102B70000E94B409462F282F672FCE010E94A0087B
:102B80002196D0CFFA01EE52F64F818928130AC060
:102B9000FA01EE0FFF1FEE52F64F818D928D8E15CA
:102BA0009F05A8F241505109CFCF6EEE77E080E04B
:102BB0000E94480A2DCF6CEB77E0F9CF8091D209C3
:102BC00021E0382F321B08F430E0832F64EA77E0ED
:102BD000EFCF8091D20921E0482F421B08F440E05A
:102BE000842F6EE877E0E4CF80913B028F5FD82F8F
:102BF000DD0FDD0F4091C8095091C9096091CA09E4
:102C00007091CB098091B3059091B405A091B50561
:102C1000B091B60584179507A607B70708F053C00B
:102C20000E943D09C82F0E943D099BE5891BF0F7D2
:102C3000890FE82EF12CF701E251FC4F90913C02F4
:102C40008081982309F43FC020E040E060E0C1FDAE
:102C500013C00E943D09C82F0E943D09782F769528
:102C60002FE7720F08F47FEF6C2F8091CF090E943D
:102C7000B409462F282F672FC7010E94A008209172
:102C8000D00930E1230F08F42FEF60E1822F90E0AC
:102C90000E94AA09BC0184EF91E00E9463308091F8
:102CA000C8099091C909A091CA09B091CB09860FB2
:102CB000971FA11DB11D8093B3059093B405A093F8
:102CC000B505B093B605C1E0DB3508F4A2CE1ECE43
:102CD000C0913B02CC0FCC0F04E00C0FD02E0C3572
:102CE00010F09BE5D92EEC2EF12C83E0C89FE0017B
:102CF0001124CE5EDE4FED1408F029CE6091CF098D
:102D000070E090E080E00E94A03220E030E04FE7E9
:102D100053E40E94FF314B015C016A8170E090E056
:102D200080E00E94A232A50194010E942E330E94ED
:102D30007132C62E688170E090E080E00E94A2327D
:102D4000A50194010E942E330E947132762E698172
:102D500070E090E080E00E94A232A50194010E9400
:102D60002E330E9471322C2D472DC7010E94A008DE
:102D700023962FEFE21AF20ABECFC0913B02CC0F8E
:102D8000CC0F04E00C0FD02E0C3510F08BE5D82EB4
:102D9000EC2EF12C33E0C39FE0011124C954DA4F2B
:102DA000ED1408F0D4CD6091CF0970E090E080E0A0
:102DB0000E94A03220E030E04FE753E40E94FF3150
:102DC0004B015C016A8170E090E080E00E94A232D9
:102DD000A50194010E942E330E947132C62E688193
:102DE00070E090E080E00E94A232A50194010E9470
:102DF0002E330E947132762E698170E090E080E07F
:102E00000E94A232A50194010E942E330E947132C9
:102E10002C2D472DC7010E94A00823964FEFE41ADE
:102E2000F40ABECF10932402832F83708093230271
:102E30000E949712FECD8091C80681110E94D01386
:102E40004091C8095091C9096091CA097091CB0994
:102E50002FB7F8948091900990919109A0919209CF
:102E6000B09193092FBF841B950BA60BB70B4A9704
:102E7000A105B10508F4EFCC10922502ECCCECECE6
:102E8000F9E081E1808380913E0290913F02A09120
:102E9000400281839283A38388E284838FEF8583BA
:102EA0000E94D01308958091EB049091EA04892B3D
:102EB00080934C049091EC049923A1F0892B80938A
:102EC0004C04809126028823E1F18091940987FFC8
:102ED00038C08EE1EEE4F4E090E08150A0F591116D
:102EE0000E94690F40E250E06AEC74E08CE494E0E8
:102EF0000E943431892B21F180E2ECE4F4E0AAEC69
:102F0000B4E001900D928A95E1F7E0918B09F09180
:102F10008C093097A9F080912602882359F080917E
:102F2000940987FF07C080914C0480934D0486E08C
:102F300080934C040280F381E02D8CE494E00995A9
:102F4000089586E0C7CF2191222339F29F5FC5CF34
:102F5000882321F00E946F0F0E9453170895882341
:102F600039F09091EB04982B9093EB040E94531747
:102F7000089590E080E00E946231883E9E4F19F4EF
:102F80000E94ED11089580E0089568EE7EEF90E0D4
:102F900080E00E94963160E082E090E00E9478310B
:102FA00060E083E090E00E9478311092ED0460E0F0
:102FB00084E090E00E94783164E082E290E00E9438
:102FC000783160E085E090E00E94783160E086E052
:102FD00090E00E9478316FEF87E090E00E947831B6
:102FE00040E050E0BA0188E090E00E948A3160E061
:102FF0008DE090E00E94783140E050E0BA0188E135
:1030000090E00E948A3160E087E190E00E94783190
:1030100040E050E0BA018CE190E00E948A3170E01B
:1030200060E080E290E00E94963140E050E0BA011A
:1030300088E190E00E948A3180E00E9420110E9485
:103040003A1140E050E0BA018FE090E00E948A31EE
:1030500040E050E0BA0183E190E00E948A31089597
:103060001F920F920FB60F9211242F933F934F93FD
:103070005F936F937F938F939F93AF93BF93EF93E0
:10308000FF938091E10082FF09C08091E20082FFFE
:1030900005C08091E1008B7F8093E1008091DA0090
:1030A00080FF24C08091D80080FF20C08091DA008A
:1030B0008E7F8093DA008091D90080FF9DC080E1EF
:1030C00089BD82E189BD09B400FEFDCF81E0809316
:1030D000BE0980919909811109C00E947C040E9457
:1030E00071058091E20084608093E2008091E100AC
:1030F00080FF17C08091E20080FF13C08091E20042
:103100008E7F8093E2008091E20080618093E200F4
:103110008091D80080628093D80019BC85E08093AC
:10312000BE098091E10084FF2BC08091E20084FF02
:1031300027C080E189BD82E189BD89B5982F917052
:1031400080FFFBCF8091D8008F7D8093D800809145
:10315000E1008F7E8093E1008091E2008F7E80937A
:10316000E2008091E20081608093E2008091BF09DB
:10317000882309F447C084E08093BE098091BE098A
:103180008091E10083FF27C08091E20083FF23C08C
:103190008091E100877F8093E10082E08093BE0907
:1031A0001092BF098091E1008E7F8093E1008091B1
:1031B000E2008E7F8093E2008091E2008061809344
:1031C000E20042E060E080E00E943F058091F00074
:1031D00088608093F000FF91EF91BF91AF919F9134
:1031E0008F917F916F915F914F913F912F910F90B0
:1031F0000FBE0F901F90189519BC1092BE09109227
:10320000990974CF8091E30087FD93E09093BE0904
:10321000B5CF78941F921FB61F9211248F939F935E
:10322000AF93BF938091900990919109A0919209D9
:10323000B09193090196A11DB11D809390099093BF
:103240009109A0939209B0939309BF91AF919F9177
:103250008F911F901FBE1F9018959C014FB7F89437
:103260008091900990919109A0919209B091930950
:103270004FBF821B930B08952FB7F894809190094C
:1032800090919109A0919209B09193092FBF08954F
:103290000E943C199C019091820580918305982B96
:1032A00021F030937F0520937E05909184058091D5
:1032B0008505982B21F030937D0520937C05E091C6
:1032C0008B09F0918C09309749F082E0809380055A
:1032D0000480F581E02D80E895E00995089590E05F
:1032E00080E00E94AF0690E080E00E949906109274
:1032F000EA040E94531786E0E0E8F5E0DF011D9242
:103300008A95E9F710927A051092790510927B055B
:103310000E94481908958093FE090E946F1908952C
:103320008091FE09982F9670963021F488600E9453
:103330008B190895877FFBCF21E030E001C0220F79
:103340008A95EAF720958091FE0982230E948B19C5
:1033500008959091C904809589238093C904282FEA
:10336000277091F4282F082E000C330B92171306A8
:1033700059F09091950992FF07C08595859585959F
:103380000E949C191092C9040895CF93C091950989
:10339000C2FB992790F9981791F080FBC2F9C0936E
:1033A00095096091940984E090E00E9478316C2F37
:1033B00082E290E00E94783182E00E94A919CF91C8
:1033C000089521E030E001C0220F8A95EAF780914C
:1033D000FE09822B0E948B1908958093ED040E94B0
:1033E0006F1908951092EB0480912602EEE4F4E048
:1033F000882361F08091940987FF08C08EE1DF0186
:103400001D928A95E9F70E946F19089586E0F7CF1B
:10341000AAE2B0E0EEE0FAE10C94863080EC99E0AC
:103420002091F100DC012D93CD01B9E0883C9B0790
:10343000B9F78091C109833009F472C0B8F48130C2
:1034400009F449C0823009F4B3C08091E80083FFD9
:1034500096C28091C0099091C1099A3008F08FC23C
:10346000E92FF0E0EC54FC4C0C94C2308A3009F4A3
:103470008EC08B3009F471C0893039F78091C00952
:10348000813219F78091C4099091C509009711F014
:103490000397D9F68091E800877F8093E8008091B8
:1034A000E80082FF38C09091F3008091F20002970B
:1034B00031F48091F100813011F0863021F4809157
:1034C000F10080939B098091E8008B778093E8005E
:1034D0000E942005BACF8091C009813A09F0B5CF8A
:1034E0008091E800877F8093E8008091C4099091E3
:1034F000C509892B61F460E28CE999E070E00E94D3
:10350000CC058091E8008B778093E8009ECF60E047
:1035100090E080E0F3CF8091BE098111C0CF95CFBC
:103520008091C009813A09F090CF8091C4099091AF
:10353000C509892B09F089CF8091E800877F8093A6
:10354000E8008091E80080FFFCCF80912602809304
:10355000F1008091E8008E77B9CF8091C009813267
:1035600009F073CF8091C4099091C509892B09F0A6
:103570006CCF8091E800877F8093E8000E9420054F
:103580008091C209809326020E94F2195ECF809139
:10359000C009813209F059CF8091E800877F80937C
:1035A000E8000E9420058091C30980939A094DCFBD
:1035B0008091C009813A09F048CF8091E800877F67
:1035C0008093E8008091E80080FFFCCF80919A0909
:1035D000BECF803899F0823809F0D1C18091C409FA
:1035E0008F70873008F0CBC18093E9008091EB00A9
:1035F00085FB882780F91092E90006C08091BC09FC
:103600009091BD09911182609091E800977F90930D
:10361000E8008093F1001092F1008091E8008E772D
:10362000AAC1882309F498C1823009F0A8C1809109
:10363000C20981119BC18091C4098F702FEF280F9F
:10364000263008F09CC18093E9002091EB0020FF18
:103650008DC1933031F48091EB0080628093EB0058
:1036600085C19091EB0090619093EB0021E030E0F8
:1036700001C0220F8A95EAF72093EA001092EA002F
:103680008091EB008860EACF811179C11091C20965
:103690001F778091E3008078812B8093E3008091F5
:1036A000E800877F8093E8000E9420058091E80071
:1036B00080FFFCCF8091E30080688093E30082E08C
:1036C000111183E08093BE095AC18058823008F0FE
:1036D00056C12091C2093091C3092C3DE3E03E0759
:1036E000A1F583E08A838AE289834FB7F894DE01EB
:1036F000139620E03EE051E2E32FF0E050935700B4
:10370000E49120FF03C0E295EF703F5FEF708E2FD2
:1037100090E0EA30C0F0C7968D939D932F5F2431DF
:1037200059F74FBF8091E800877F8093E8006AE2F5
:1037300070E0CE0101960E94CC058091E8008B7765
:103740008093E8001CC1C096E7CF8091C409909196
:10375000C509432F55274330510509F44AC078F570
:103760004130510509F47AC08BE790E0E2EDF7E0D3
:103770004230510509F003C12091E800277F2093D2
:10378000E8002091C6093091C7098217930708F411
:103790009C0140E02115310509F065C0411163C06D
:1037A0008091E80082FDC9CF8091BE09882329F26B
:1037B000853019F28091E80083FFF2CFBECF41320D
:1037C000510509F43CC04232510509F0D8C084309B
:1037D000910508F0D4C0FC01EE0FFF1FE253FD4F2E
:1037E0000190F081E02D86539D4FDC018C9190E09B
:1037F0001AC0332721303105D1F02115310561F090
:103800002230310509F0BBC0EFE5F8E0E4918E2FDE
:1038100090E0EFE5F8E007C0EFE7F8E0E4918E2FE5
:1038200090E0EFE7F8E0009709F4A9C0A5CFEDE636
:10383000F8E0E4918E2F90E0EDE6F8E0F4CF8430EC
:10384000910508F09CC0880F991FFC01EA52FD4FBA
:103850000190F081E02D89E090E08ECF82E190E050
:10386000EDE4F8E089CF8091BE09882309F465CFA3
:10387000853009F462CF8091E80083FD5ECF8091AE
:10388000E80082FD8DCF8091E80080FF83CF90918A
:10389000F3008091F2002115310519F0883091056F
:1038A00050F041E0089709F040E08091E8008E7701
:1038B0008093E8006FCF44914093F10031962150FE
:1038C00031090196E8CF803809F059C08091E800AD
:1038D000877F8093E8008091BF098093F1009DCE9F
:1038E00081114DC01091C209123008F048C080917A
:1038F000E800877F8093E8001093BF090E942005AD
:10390000112311F084E005C08091E30087FDFACF18
:1039100081E08093BE0942E061EC81E00E943F05B6
:1039200042E261EC86E00E943F0542E261EC82E007
:103930000E943F0542E260EC83E00E943F0542E3C3
:1039400061EC84E00E943F0542E360EC85E00E9468
:103950003F058091BE0913C08091C209813079F47E
:1039600081E0933009F080E08093BD091092E90076
:103970008091E800877F8093E8000E942005809175
:10398000E80083FF0AC08091E800877F8093E80009
:103990008091EB0080628093EB00AA96E3E00C94A8
:1039A000A2301F920F920FB60F9211242F933F93C4
:1039B0004F935F936F937F938F939F93AF93BF9337
:1039C000CF93DF93EF93FF93D091E900DF70809165
:1039D000EC00C82FC17080FDC0E81092E900809112
:1039E000F000877F8093F00078940E94081A10926C
:1039F000E9008091F00088608093F000CD2BCF70BB
:103A0000C093E900FF91EF91DF91CF91BF91AF910A
:103A10009F918F917F916F915F914F913F912F91E6
:103A20000F900FBE0F901F9018950E94F2192FEF64
:103A300084E39CE0215080409040E1F700C000000A
:103A400088E19CE00FB6F894A895809360000FBEC3
:103A500090936000FFCF882391F19CEF980F913AEB
:103A600040F4682F8CE494E00E943A060E945317B9
:103A7000089590E2980F983050F4877091E001C05B
:103A8000990F8A95EAF7892F0E946F0FEFCF9BE578
:103A9000980F933028F490E080E00E94AF060895DC
:103AA00098E5980F973128F490E080E00E949906FD
:103AB0000895803F20F00E946B0C0E9448190895E1
:103AC000CF93C82F8823D9F18CEF8C0F813AC8F59A
:103AD00080912602882311F18091940987FF1EC0EE
:103AE000EC2FE695E695E695F0E0E45BFB4F8281EE
:103AF00090E04C2F477021E030E002C0220F331FCE
:103B00004A95E2F782239323892B91F06C2F8CE462
:103B100094E00E943A060E9453170AC0EEE4F4E0D3
:103B200084E594E02191C21789F38E179F07D1F79E
:103B30006C2F8CE494E00E9464060E945317CF918E
:103B4000089580E28C0F883068F4C77021E030E07F
:103B500001C0220FCA95EAF78091EB04822B809373
:103B6000EB04EBCFEBE5EC0FE33040F4F0E0ED5984
:103B7000FD4F808190E00E94AF06E1CFE8E5EC0FB9
:103B8000E73150F4F0E0EE0FFF1FEA59FD4F80815E
:103B900091810E949906D3CFC03F88F28C2F0E945A
:103BA000260D0E944819CBCF1F93CF93DF93182F78
:103BB000D0E0C0E0893311F4C0E5D0E0812F0E944D
:103BC000601D209739F4812F0E942B1DDF91CF912A
:103BD0001F9108958FE99FE00197F1F700C0000061
:103BE0002197EFCF0F931F93CF93DF93C62FD42F3F
:103BF000022FFC0182818823A9F06093FD090E94B5
:103C00003C199093FC098093FB09C77081E001C0C7
:103C1000880FCA95EAF70E94AF17DF91CF911F91E5
:103C20000F9108958091FD09681332C08091FB09BE
:103C30009091FC090E942D19883C910548F510E2ED
:103C40001D0FCD17B9F080E28C0F883040F4C7709B
:103C500081E001C0880FCA95EAF70E94A8171830C2
:103C600048F481E09D2F977001C0880F9A95EAF77C
:103C70000E94AF17802F0E94D41D183070F6D770A5
:103C800081E001C0880FDA95EAF70E94A817C5CF36
:103C9000C77081E001C0880FCA95EAF7F6CFA5E0AA
:103CA000B0E0E5E5FEE10C9478308C01FC01838105
:103CB0009481892B31F08081918189238F3F09F094
:103CC000BFC52596E1E10C9494300E948711F82E2F
:103CD000682F89819A810E94B40F69817A818F2D22
:103CE0000E9479117C01F8018281882309F49BC527
:103CF000970122513F452031310508F067C58FEF0C
:103D000093E00E945A31811128C0FEEEEF0E57EF6A
:103D1000852E52E0952EE11032C01C821B82442475
:103D200043944AE0342E74018FEFE81AF80AC40174
:103D30000E945A3189831A82882379F09FEF980F65
:103D4000933058F58A83498292E0890E911CC7010D
:103D50000E945A318B83811121C08091C9048770E0
:103D600009F4AFCFF8018281882309F4AACF8091AA
:103D7000950982FFA6CF82E00E94A919A2CF8114E3
:103D800024E0920651F3C4010E945A31811101C00E
:103D9000EA943FEF831A930ABECF4701FE013196A2
:103DA0007F01F7012081222309F4BDCF213009F0E2
:103DB00047C091818281913031F4F2E0EF0EF11C25
:103DC0000E94D41D07C0923049F422E0E20EF11C9B
:103DD0000E94601D3FEFE31AF30AE3CF933031F402
:103DE00032E0E30EF11C0E942B1DF4CF943021F041
:103DF0008FEFE81AF80AEECF92E0E90EF11C30E0FE
:103E000020E0B7016F5F7F4FF70141818053990B2D
:103E10008A30910550F021503109E0F28FE99FE09E
:103E20000197F1F700C00000F6CF329EF001339EFB
:103E3000F00D11249C012E0F3F1F842F7B01E1CF39
:103E4000E22FF0E0EA5EFD4F5490822F8695869532
:103E5000869590E0FC01EA5FFD4F64902770712C1D
:103E6000022E02C0759467940A94E2F7E1E06E2294
:103E70007724FC01EA50FE4FA490B12C022E02C020
:103E8000B594A7940A94E2F7F1E0AF22BB24FC01B9
:103E9000EA51FE4FC490D12C02C0D594C7942A9504
:103EA000E2F721E0C222DD246114710419F081EEF1
:103EB0000E94601DA114B10419F086EE0E94601DDD
:103EC000852D0E94D41DA114B10419F086EE0E9424
:103ED0002B1D6114710419F081EE0E942B1DC11479
:103EE000D10409F477CF8CE26BCF81E00E94E11915
:103EF0000E94901932CF81E00E949C19F9CF82E094
:103F0000F5CF95EFE9169CE5F90609F46CC008F4C5
:103F100066C027E245EE66EEF6EFEF16FCE5FF061B
:103F200009F47DC4882309F49CC41092FD0923E0A0
:103F3000E2162DE5F20608F05DC03AEFE3163CE527
:103F4000F30630F4C70182509C45449708F05FC0E7
:103F50000E9406129093950980939409F2E1EF165E
:103F6000FCE5FF0609F478C108F0B6C039E0E316B5
:103F70003CE5F30609F44EC108F079C095E0E91676
:103F80009CE5F90609F436C108F05FC0F3E0EF16CE
:103F9000FCE5FF0609F426C108F028C180919409C8
:103FA000816032E0E3163CE5F30609F492C06091CB
:103FB0009409F090950984E090E00E9478316F2D8B
:103FC00082E290E00E9478310E94F219C6CE27E288
:103FD00045EE65EE24C426E241EE60EE20C427E201
:103FE00045EE64EE1CC426E241EE62EE18C428E2FF
:103FF00041E0EFCF85EAE8168DE5F80609F4A8CF91
:10400000F0F4E1E6EE16EDE5FE0609F4A1CF96E147
:10401000E9169CE5F90609F033C48091EB048A7A2D
:1040200091E009F490E090936C0469E2811165E3FA
:104030008CE494E00E9464060E9453178ECEC70160
:104040008D5A9D45039718F783CF87E0E8168CE5D6
:10405000F80609F4DBC080919409806198E0E916C4
:104060009CE5F906B0F180919409806432C0EDE0DE
:10407000EE16ECE5FE0609F4D7C0A0F48091940991
:104080008E7F2BE0E2162CE5F20619F1809194095F
:104090008C603CE0E3163CE5F306D8F0809194098F
:1040A0008D7F17C08FE0E8168CE5F80609F4CCC0C8
:1040B00008F4BEC0E0E1EE16ECE5FE0609F4C8C067
:1040C000809194098F7BF1E1EF16FCE5FF0609F082
:1040D0006ECF809394096BCF2FEFE2162CE5F2069A
:1040E00009F4C4C0D8F58AEFE8168CE5F80609F49F
:1040F00085C0D0F4E4E1EE16ECE5FE0609F4C4C098
:1041000008F4B0C025E1E2162CE5F20609F04FCF25
:104110008091940982FB992790F921E0922790FBE6
:1041200082F990FB83F9D5CF3CEFE3163CE5F3062B
:1041300009F482C008F466C09DEFE9169CE5F90613
:1041400009F47EC0809195098360EEEFEE16ECE5F0
:10415000FE0609F02CCF8093950929CFF1E6EF16E2
:10416000FDE5FF0609F49BC0A0F431E0E3163DE550
:10417000F30609F492C008F47DC060E092E0E9160D
:104180009DE5F90609F013CF8EE090E00E947831AA
:104190000ECFEDEAEE16EDE5FE0601F168F4909122
:1041A0009409892F8E7F90FF816025EAE2162DE524
:1041B000F20609F48ECFFBCE3EEAE3163DE5F306A8
:1041C00079F18FEAE8168DE5F80609F0F0CE9091C6
:1041D0009509892F877F93FF8860BDCF80919509CE
:1041E0008860B9CF80919409826073CF80919409DF
:1041F00084606FCF8091940988606BCF809195091E
:104200008160A9CF809195098260A5CF80919409A2
:1042100080625FCF0E94F21980919409806859CF23
:1042200080919509877F97CF809194098B7F51CF9B
:1042300080919409877F4DCF809195098E7F8BCF98
:10424000809195098D7F87CF809194098F7E41CF92
:10425000809194098F7D3DCF0E94F219809194093D
:104260008F7737CF80919409837F33CF80919509E1
:104270008C7F71CF80919509982F909591708E7F4A
:10428000892B90FB81F967CF0E94F21990919409D4
:10429000892F97FB87F980581CCF61E075CF9091EB
:1042A0009409892F8F7E94FF806113CF4BE657E0EE
:1042B00066E777E00E94D20650CD46E757E06BE60E
:1042C00077E0F8CF4CE357E067E477E0F3CF47E4DB
:1042D00057E06CE377E0EECF40E257E06EE277E044
:1042E000E9CF4EE257E060E277E0E4CF42E157E009
:1042F00064E077E0DFCF48ED56E066EE76E0DACFB7
:1043000046EE56E068ED76E0D5CF61E081E00E94B0
:10431000520723CD61E085E0FACF0E94F219EFEF5A
:10432000F4E32CE0E150F0402040E1F700C0000051
:104330000E948E108091950982FB882780F991E078
:1043400089270E94C519F8018281E080F1808823C5
:1043500009F445C0C7010E948711D82E682FC701F4
:104360000E94B40FB7018D2D0E9479110E94DC0DBF
:104370007C01882EF801D280B580B2943FE0B32250
:104380008091C9048770C1F0AD2CDD20B1F08F2D74
:10439000807F803421F080E28E0D883068F080913B
:1043A000950982FF09C082E00E94A9198091C90481
:1043B0008770AA24A3948111A12C9F2C92942FE0A2
:1043C0009222FBE0F91508F479C0E92DF0E0E254FF
:1043D000FC4C0C94C23081E0B4CF80E0B2CFC70176
:1043E0000E94800FD82EBECF2F2D2F70C22E8F2D62
:1043F000807F19F0C29490EFC922DD20B9F0CC2063
:1044000069F080E28E0D883010F0811009C0809133
:10441000EB04C82AC092EB040E9453178E2D4CC0A7
:104420008091EA04C82AC092EA04F6CF8E2D0E9439
:104430002B1DCC2009F442C080E28E0D883010F094
:10444000811004C08C2D0E946F0F06C0C094809113
:10445000EA04C822C092EA040E9453172FC03F2DDD
:104460003F70C32E8F2D807F803219F0C29480EF71
:10447000C822882089F081E0881609F468C0DD2010
:1044800009F472C0BB2009F468C0F801858180FF7F
:10449000C5CF8F70858361C02091950922FD35C0FD
:1044A000DD2069F1CC2039F08091EB04C82AC0925C
:1044B000EB040E94531780E00E94601D292D2850B4
:1044C000330B2430310510F40E94C506AA2009F4EC
:1044D000F8CB8091C90480FDF4CBF8011282859558
:1044E000859585950E94E119C8010E944F1E809113
:1044F000C9048595859585950E949C19E2CB80E03D
:104500000E942B1DCC20D1F29DCFDD2099F09091FF
:10451000EC048C2D892BB11003C00E94AF17CECFB5
:10452000E1E0BE12FACF22FFC9CF981739F280938B
:10453000EC04C4CFB11006C00E94690F8C2D0E94FC
:10454000A817BCCFF1E0BF1609F4B8CFF5CFDD2036
:1045500031F025E02B1508F4B1CF8C2DDECF34E0FF
:104560003B1508F4ABCFEACFBB2041F3F9E38F1240
:1045700009C02FEF37EE83E0215030408040E1F753
:1045800000C000008E2D0E942B1D98CF8F2D869588
:104590008695837061F0813009F090CFC7019370E8
:1045A000D11002C090E080E00E94990687CFC70139
:1045B0009370D11002C090E080E00E94AF067ECFE1
:1045C0008E2DDD2029F00E94260D0E94481976CFFD
:1045D0000E946B0CFACF8F2D837091F5D1106ECFA6
:1045E0004E2D429546954770440F440F8E2D8F7087
:1045F000042E01C0880F0A94EAF72E2D2071E4FEE4
:1046000007C02FE030E001C0220F4A95EAF720955D
:104610003F2D369536953370323069F050F4409125
:10462000ED04313029F0822B84230E94ED1946CF0E
:10463000842B822BFACF282B8091ED048227F5CF93
:104640008695DD2011F08F2D8170882309F436CFF7
:104650004E2D429546954770440F440F8E2D8F7016
:10466000042E01C0880F0A94EAF72E2D2071E4FE73
:1046700007C02FE030E001C0220F4A95EAF72095ED
:104680003F2D369536953370323069F050F44091B5
:10469000FE09313029F0822B84230E948B190ECF22
:1046A000842B822BFACF282B8091FE098227F5CF0D
:1046B0009F2D9F70F92EDD2029F0892F0E94E1198E
:1046C0008E2D2BCF8E2D0E94A8178F2D0E949C1906
:1046D000F5CE8E2DE2EF8E16B1F1E81570F0F0EF09
:1046E0008F16D1F021EF821691F0DD2009F45EC023
:1046F000B11094CE8F2D8F712AC033EF831651F1F4
:1047000094EF8912F2CF8091950982FD2FC08F2DF1
:104710008F71DD20D9F21BC0DD2081F0E4E0EB15C4
:1047200008F4CCCE2F2D2F7181E090E001C0880FCE
:104730002A95EAF79091FE098927AFCFF5E0FB159E
:1047400008F4BCCEEFCF8F2D8F71D110BFCF0E9458
:10475000E119B4CE80E0DD2009F49FCF9F2D9F7139
:1047600081E001C0880F9A95EAF797CFDD2099F094
:104770002F2D2F71F22E822F0E94E1198091950921
:1047800082FF07C038E0F39EC0011124836080934C
:10479000C9048F2DDCCF81E00E94A91981E08B151F
:1047A00008F08CCE82E00E94A91988CEBB2059F077
:1047B000893309F0E7CE9FEFE7EEF3E09150E04058
:1047C000F040E1F7DDCE8F2D8F7180CFF0E1EF1655
:1047D000FFE5FF0609F489CB21E1E2162FE5F20699
:1047E00009F48DCB93EFE9169CE5F90609F4F3CBB8
:1047F00008F087CBF8EDEF16FCE5FF0609F4E7CBF0
:1048000029EDE2162CE5F20609F4F1CB37EDE316BB
:104810003CE5F30609F086CB26E241EE61EEC801E5
:104820000E94F21D9ACA30E1E3163FE5F30609F44F
:1048300062CB91E1E9169FE5F906A1F682E05CCB37
:1048400085E0DE01119601900D928A95E1F7F8015D
:10485000228189819A81211138CA0E94800FF82E05
:104860003CCAF6E1EF16FCE5FF0671F580916C0499
:1048700069E2811165E38CE494E00E943A06DCCBA6
:104880002AE5E2162DE5F20609F4A5CD78F4E11447
:104890008CE5F80609F441CD9EEDE9169CE5F90694
:1048A00009F051CD0E94C5170E94151DECE5EE16CA
:1048B000EDE5FE0609F43ECD08F48FCD27EAE216B9
:1048C0002DE5F20689F33FCD8091EB0482723AEC3C
:1048D000E3163CE5F30609F409CDE0F5E5ECEE1648
:1048E000ECE5FE0609F4EECCE0F423ECE2162CE550
:1048F000F20609F4DBCC08F0E0CC82ECE8168CE59B
:10490000F80609F020CD8091CC0991E089278093A9
:10491000CC09109225028091C80681608093C80658
:104920001CCA97ECE9169CE5F90609F4D5CC08F405
:10493000CECCF8ECEF16FCE5FF0609F4D2CC44E04F
:1049400057E062E177E029ECE2162CE5F20609F483
:10495000B1CCF9CC3FECE3163CE5F30609F4DACC34
:10496000B8F4ECECEE16ECE5FE0609F4C9CC08F45C
:10497000C2CC2DECE2162CE5F20609F4C6CC61E0BF
:1049800082E03EECE3163CE5F30609F4C0CCDBCC58
:1049900086EDE8168CE5F80648F461E08AE091EDD2
:1049A000E9169CE5F90608F4B2CCD7C9EDE5EE1698
:1049B000FE0609F4D2C9C7CC1F93CF93DF93809131
:1049C0009604807F09F049C080919304882309F4FC
:1049D00044C08091C804D091970460919104709173
:1049E0009204A0919404B0919504C62FC72316E0B9
:1049F000D81799F190E0109711F0CF3F19F4019674
:104A00008770F6CF189F9001199F300D1124F9017E
:104A1000E856FB4F41814713F2CF40814613EFCF59
:104A200042814111ECCF438154814A1B5B0B483CCE
:104A3000510528F7809196048F70806180939604C9
:104A4000F901E356FB4F80818F708061808381E99B
:104A500094E00E944F1E0E94760FDF91CF911F912C
:104A60000895A1E1B0E0E7E3F5E20C947F308C011A
:104A700085E0F801DE011D9601900D928A95E1F71F
:104A8000F801E28081E9A82E84E0B82E60919404B8
:104A9000709195046115710509F426C190919104F6
:104AA00040919204892F84238F3F09F41DC12081F6
:104AB0003181C380D480F0909304F601E61BF70B9C
:104AC000FF2009F4DCC080919604582F507FE83C09
:104AD000F10508F09FC051116BC0FE2C431314C0A8
:104AE000921312C0E11010C08F7080618093960401
:104AF000C5010E944F1E80919604F80185838F2D79
:104B00006196EAE00C949B30C114D10429F0822F05
:104B100083238F3F09F003C180E0F82FF170DF2E6F
:104B200080FF3CC08091C8044091970456E08413F4
:104B300015C02D873E878D859E850E94B611292F31
:104B400022952F702230F0F0243018F59F70F1F08C
:104B5000F8019581907FD1F4D12C1EC090E0589F30
:104B6000F001599FF00D1124E856FB4F6181361377
:104B700006C06081261303C06281E6120FC0019651
:104B80008770D5CF9F7011F0882331F3805E883015
:104B900018F3C8010E944F1EFD2CB1CFEE2009F47E
:104BA000AECF80919604816080939604F12CA7CFBC
:104BB000431306C0921304C0F801EE2009F479C033
:104BC000C8010E94C311882309F1EE20F9F08091F9
:104BD0009604803270F020919104309192043887CD
:104BE0002F831986DB86CA868C87CE0107960E94A2
:104BF0004F1E86E0F801A1E9B4E001900D928A957C
:104C0000E1F70E94DC24FF24F39479CFC8010E94CD
:104C10004F1EF9CF51110AC081E994E00E944F1E46
:104C200086E0F50111928A95E9F7C0CF43130FC0D2
:104C300092130DC0E1100BC0F8018583C8010E94DA
:104C40004F1E86E0F50111928A95E9F758CFC80109
:104C50000E94C3118823D1F2EE20C1F28091960404
:104C6000803238F220919104309192043A83298362
:104C70001B82DD82CC828E83CE010196B8CFE83CC8
:104C8000F105F8F6FE2CEE2009F243131FC0921333
:104C90001DC08091960480FD10C0982F907F69F010
:104CA000F8018583903F31F0982F907F905F8F704F
:104CB000892B8583C8010E944F1E86E0F801A1E977
:104CC000B4E001900D928A95E1F719CFC8010E94D6
:104CD000C31181118ECF80919604816080939604D8
:104CE000C8010E944F1E0BCFEE2009F48FCFC801E0
:104CF0000E94C311F82E882309F488CF86E0F801BA
:104D0000A1E9B4E001900D928A95E1F780919104B8
:104D1000909192040E94B6110E94DC24F0CE81E0B2
:104D20008E25FBCEA7E1B0E0E8E9F6E20C948630F0
:104D30004B8B5C8B6D8B7E8B8F8B61111092EA0499
:104D40001A8A198A85E0FE017396DE011D9601908C
:104D50000D928A95E1F786E0FE013D96DE011796F9
:104D600001900D928A95E1F7CE0107960E943125B8
:104D7000882359F016E08091C80490919704891314
:104D800043C06796E3E00C94A23086E0FE013796BC
:104D9000DE01119601900D928A95E1F78A859B8537
:104DA000892B41F38F81988589238F3F19F32091B7
:104DB000970430E0C9010196877099274091C80493
:104DC0004817190671F40E94F21910929704109274
:104DD000C80486E0E1E9F4E0DF011D928A95E9F775
:104DE000C9CF96E0929FD001939FB00D1124A85691
:104DF000BB4FFE01319601900D929A95E1F7809399
:104E000097040E94760FB6CF819FC0011124885667
:104E10009B4F0E943125882309F4B3CF8091C804A9
:104E200090E00196877099278093C804A4CFACE0E6
:104E3000B0E0EDE1F7E20C947D308E010F5F1F4F83
:104E40008CE0F80111928A95E9F794E9E92E92E055
:104E5000F92E6801AA24A394B12CF70181917F0156
:104E60008F3F09F446C0F894E82FE295EF70F0E028
:104E700021A18F70A50102C0440F551F8A95E2F74A
:104E8000CA01922F982B91A392A18095892382A386
:104E9000789400C0EAE9F2E021E030E0912C812C26
:104EA00041914F3F09F467C0A42FA295AF70B0E0C5
:104EB00090968C9190E04F7002C0959587954A9599
:104EC000E2F780FD58C0C901882A992A220F331FB2
:104ED00052E0E93AF50721F7F701319780818F3FDA
:104EE00011F00E94820D80EA8A95F1F7F601918215
:104EF0008082F2E0CF0ED11C4AE9E41642E0F406CB
:104F000009F0ABCF4CE050E0B80181EF94E00E9493
:104F10003431892B99F18CE0F801A1EFB4E00190D4
:104F20000D928A95E1F781E08093F0040E943C198C
:104F30009093EF048093EE048091EE049091EF043F
:104F40000E942D190397F0F04CE050E061EF74E0FF
:104F50008DE095E00E943431892BC9F08CE0E1EFBF
:104F6000F4E0ADE0B5E001900D928A95E1F781E0C3
:104F70001092F00408C090E080E0A6CF8091F00489
:104F80008111DACF80E02C96ECE00C94993080E02F
:104F9000EFCF1F921FB61F9211248F939F93AF9351
:104FA000BF9380918F09811113C0809190099091D6
:104FB0009109A0919209B09193094196A11DB11D4B
:104FC0008093900990939109A0939209B0939309CB
:104FD000BF91AF919F918F911F901FBE1F90189509
:104FE000CDB7DEB7C255D1090FB6F894DEBF0FBEFC
:104FF000CDBF85B7806885BF85B7806885BF84B71A
:10500000877F84BF0FB6F894A8958091600088616F
:1050100080936000109260000FBE80E890E00FB6B1
:10502000F89480936100909361000FBE80E89DE04A
:1050300090934B0480934A04279A2F9A0E947C04F1
:105040000E9471058091E20084608093E200789470
:105050008091BE098823A1F01091E9001F70909102
:10506000EC00892F817090FD80E8182B1092E900E8
:105070008091E80083FD0E94081A1F701093E900D8
:1050800082E084BD93E095BD9AEF97BD80936E005A
:105090000E94ED11811102C00E943A1104E912E050
:1050A000D8018D918D018F3F11F00E94820DB2E0E9
:1050B0000A391B07A9F70AE912E0F80181918F016B
:1050C0008F3F11F00E94820DF2E0093A1F07A9F705
:1050D0008CE0EDE0F5E0DF01282F1D922A95E9F73D
:1050E000E1EFF4E0DF011D928A95E9F70E94B9171C
:1050F000811102C00E94C51782E090E00E945A31DF
:105100008093FF040E94061290939509809394095E
:105110000E941727EFEBFDE53197F1F700C0000083
:105120000E94172780910D0580FF08C06FEF7FEF69
:1051300090E080E00E9496310E948E1083E090E023
:105140000E945A310E94ED190E94F4121092D20965
:105150008FEF9FEF9093EC098093EB099093EE090A
:105160008093ED099093F0098093EF099093F209F1
:105170008093F1099093F4098093F3099093F609D1
:105180008093F5099093F8098093F7099093FA09B1
:105190008093F909109286059093A00580939F054E
:1051A0009093A2058093A1059093A4058093A305F5
:1051B0009093A6058093A5059093A8058093A705D5
:1051C0009093AA058093A9059093AC058093AB05B5
:1051D0009093AE058093AD050E94B917811104C06C
:1051E0000E94C5170E943F1746E050E06CE170E056
:1051F0008CEC99E00E944A311092C8068091CC094B
:105200008C7F11F40E943F1784E091E090938C0909
:1052100080938B098091BE09853069F480E4F82E73
:1052200000E112E18091BE09853009F4F7C00E94C7
:10523000F2190E94C5060E94172780E095E02F967C
:105240009FAF8EAF2F970DE0E02E05E0F02ED70137
:10525000FC01219131918D919D9145E0EC30F40755
:1052600009F418C128173907A1F31EED212E12E009
:10527000312E8DE095E061969FAF8EAF6197712CD6
:105280006196AEADBFAD6197CD90DD906196BFAF39
:10529000AEAF61972F96EEADFFAD2F9781919191B3
:1052A0002F96FFAFEEAF2F978C159D0509F4ACC07C
:1052B0009C012C253D2563963FAF2EAF63972D961D
:1052C0003FAE2EAE2D97612CAA24A394B12C6396E9
:1052D0008EAD9FAD63978A219B21892B09F47EC0F7
:1052E00086010A211B2127966FAE279728967FAE4D
:1052F000289781E00115110509F480E029968FAF08
:1053000029970E943C198160782F2B969FAF8EAF12
:105310002B9727964FAD279728965FAD289729960C
:105320006FAD29972B968FAD2B970E949226012B5C
:1053300041F02D96AEADBFAD2D978C918F3F09F00A
:10534000F4C1412C042D10E080918605800F912F2F
:10535000911D09976CF1E8E08E2E912C801A910A2C
:10536000B80169577A4FA40187E895E00E9441315E
:10537000B80161577A4FA4018FE895E00E9441314E
:10538000A401440F551FB801660F771F61567A4F6D
:105390008FE995E00E944131B80169567A4FA40126
:1053A00087E995E00E94413188E084198093860561
:1053B0008091860590E0A52DB0E09D01220F331F5E
:1053C000285C3C4FAA0FBB1FBD01675C7C4F41E0CE
:1053D000480F941508F4ADC1809386056394AA0C18
:1053E000BB1C2D96EEADFFAD2D9731962D96FFAFE0
:1053F000EEAF2D97FFE06F126ACF2F96EEADFFADA7
:105400002F973297D182C08273942FE0220E311CE5
:1054100036E0731235CF0E942E066EC08091BE0911
:10542000843029F10E94DB1310928F0928E130E0CB
:105430000FB6F894A895209360000FBEF09260001C
:1054400083B7817F846083BF83B7816083BF789493
:10545000889583B78E7F83BF0FB6F894A895809107
:105460006000886180936000109260000FBE8091A0
:10547000BD09882309F4D6CE0E941727EDE0F5E098
:1054800081919191892B09F022C535E0E931F3072B
:10549000B9F7C8CE2817390709F0E7CE0E943C19A2
:1054A0008C018091FD049091FE040817190721F1E9
:1054B0008FEF22968FAF229723968FAF2397249654
:1054C0001FAE24970E943C198160782F26969FAFCB
:1054D0008EAF269722964FAD229723965FAD2397E6
:1054E00024966FAD249726968FAD26970E9492261C
:1054F0001093FE040093FD040E94DB1386E0E0E8B5
:10550000F5E0DE01119601900D928A95E1F7109277
:1055100082051092830510928405109285058B8177
:105520009C81892B09F44AC080917E0590917F056A
:105530000E942D199C0190917A05992309F4FDC4CC
:1055400025313105D8F19F3F19F09F5F90937A057F
:105550001B81112359F00E94060D9FEF11160CF4C8
:1055600091E0899F802D1124809382051C81112355
:1055700059F00E94060D9FEF11160CF491E0899FDF
:10558000802D112480938305309182053323B1F05F
:1055900020918305222391F045EB3403C0011124AF
:1055A000992309F4DBC09093820545EB2403900115
:1055B0001124332309F4D6C0309383058D819E8155
:1055C000892B09F44AC080917C0590917D050E9449
:1055D0002D199C0190917905992309F4A9C42135CD
:1055E0003105D8F19F3F19F09F5F909379051D8198
:1055F000112359F00E94E40C9FEF11160CF491E076
:10560000899F802D1124809384051E81112359F0D8
:105610000E94E40C9FEF11160CF491E0899F802DFD
:10562000112480938505309184053323B1F02091B6
:105630008505222391F045EB3403C0011124992301
:1056400009F494C09093840545EB24039001112440
:10565000332309F48FC03093850546E050E0BE0146
:105660006F5F7F4F80E895E00E943431892B61F4B1
:105670008091820590918305892B90918405892BD7
:1056800090918505892B11F00E94481986E0FE0152
:105690003196A0E8B5E001900D928A95E1F70E945D
:1056A000C50690910C05891721F080930C050E9486
:1056B0002E068091BE09843009F460C08091BE0935
:1056C000843009F0A7CD85E08093E9008091E8005F
:1056D00082FFA0CD8091E80090E085FF09C050E0F6
:1056E00040E060E470E0CE0101960E94F60491E093
:1056F0008091E8008B778093E800992309F48ACDA4
:10570000E981EE2309F486CDEA3008F4EBC18FED90
:105710008E0F883008F07ECDE252E73008F065C386
:10572000F0E0E653FC4C0C94C230582E44244394D1
:1057300009CE90E0FC01EA57FA4FD9015C91518300
:10574000DB015C915187518A880F991FFC01EA5750
:10575000FA4F128E118E91E0842F39CE81E0809322
:10576000820523CF81E08093830528CF81E0809359
:1057700084056ACF81E0809385056FCF83E08093B5
:10578000E9008091E80082FF99CF8091E80090E0E5
:1057900085FF09C050E040E060E270E0CE01019674
:1057A0000E94F60491E08091E8008B778093E800F6
:1057B000992309F483CFE981E150E33108F061C016
:1057C000F0E0EF52FC4C0C94C2301A828AE08B83DA
:1057D00011C08A81823009F4A2C3833091F18130F3
:1057E00009F04FC00E942E060E94C8306B837C8354
:1057F0008D839E838091BE09843009F05FCF109124
:10580000E9001F709091EC00892F817090FD80E875
:10581000182B82E08093E9008091E80080FF0DC0A2
:1058200050E040E060E270E0CE0101960E94CC04BE
:105830008091E8008E778093E8001F701093E90054
:105840003DCFFE01319689E195E0D7012C9111966B
:105850003C91B2E0EB0EF11C3283238332968E151D
:105860009F0599F7C7CF8A81823059F46B817C817B
:105870008D819E810E94C83086E290E00E9478313E
:10588000B9CF8FEF8983B6CF4C816B818A810E941B
:105890004A119827892798279E838D83ABCF2D8126
:1058A0003E813227232732274C816B818A810E94D7
:1058B000C210A0CF0E94E8109DCF8A818138E9F004
:1058C00088F4803809F096CF4B812FEF429F412D0D
:1058D00011248091CD0920E06091CE0990E00E94D2
:1058E000F40688CF823801F1833809F083CF8B81A9
:1058F00020E04091CF096C81F1CF60E08B810E9464
:1059000052078B81811103C00E94820773CF80915F
:10591000CC09837011F4109225028091CC098C7F00
:1059200081608093CC0966CFEB818FE7E43020F46F
:10593000F0E0E755FD4F80818093D0095BCF8A81ED
:105940008138E1F078F4803809F054CF8091CF09A4
:10595000EFEF8E9FC00111246FEF70E00E94633063
:105960006B8348CF823879F0833809F043CF809138
:10597000CD098B838091CE098C833CCF8091CC095B
:105980008695869524CF8091D009873230F08F3567
:1059900030F08E3930F083E01ACF80E018CF81E00C
:1059A00016CF82E014CF0E94D01324CF80E18A83E7
:1059B00021CF81E08A8389E00ACF0A811B811027E9
:1059C000012710279E012F5F3F4F6901EC80C9011D
:1059D0008E0D911D7C01C80189509D4FEC14FD0472
:1059E00009F408CF0930A1E01A0750F40E945A3197
:1059F000F60184830F5F1F4FBFEFCB1ADB0AEBCF9B
:105A0000D60114961C92F6CF0A811B81102701271C
:105A10001027FE0131966F01EC80E00EF12EF11C93
:105A2000C80189509D4FE016F10609F4E3CE093014
:105A3000F1E01F0728F4D60114966C910E9478318A
:105A4000BFEFCB1ADB0A0F5F1F4FEACF0E94B210E5
:105A5000D1CE84E0ACCF0A811B811027012710270B
:105A6000FE0131966F01EC809F012E0D311D7901F1
:105A7000C8018796EC14FD0409F4BCCE003D32E069
:105A8000130758F40E945A31D60114968C930F5F75
:105A90001F4FFFEFCF1ADF0AEBCFF6011482F7CFCB
:105AA0000A811B811027012710279E012F5F3F4F7E
:105AB0006901EC80E00EF12EF11CC80187960E15ED
:105AC0001F0509F497CE003D32E0130728F4D601F4
:105AD00014966C910E947831BFEFCB1ADB0A0F5FEE
