:100000000C9482040C94BA040C94BA040C94BA04B0
:100010000C94BA040C94BA040C94BA040C94BA0468
:100020000C94BA040C94BA040C9466260C94212502
:100030000C940C280C94BA040C94BA040C94BA04D2
:100040000C94BA040C94BA040C94BA040C94BA0438
:100050000C94BA040C94BF270C94BA040C94BA0400
:100060000C94BA040C94BA040C94BA040C94BA0418
:100070000C94BA040C94BA040C94BA040C94BA0408
:100080000C94BA040C94BA040C94BA040C94BA04F8
:100090000C94BA040C94BA040C94BA040C94BA04E8
:1000A0000C94BA040C94BA040C94BA048608890817
:1000B000AA08B708BE08C908CC0813094709ED0902
:1000C000ED095209540959097F09A209A509A8098E
:1000D000CC09550A670A980AB20A080B170B4D0B90
:1000E000640BC40BD00BDA0BFC0B040C0A0C0F0CCA
:1000F00062116211951195110812261234133413EE
:100100003112A512B612B6129522BC227024BC225E
:10011000702408232B2370242124312400000000A4
:1001200000000000000000000000000000000000CF
:1001300000000000000000000000000000000000BF
:100140007E0F00D4FFFFFFC7000000780000000012
:10015000000000002A2B2800000000000000000022
:100160000000000000000029000000002C1E3420C8
:10017000212224342627252E362D3738271E1F20EE
:100180002122232425263333362E37381F04050633
:100190000708090A0B0C0D0E0F1011121314151677
:1001A0001718191A1B1C1D2F3130232D3504050675
:1001B0000708090A0B0C0D0E0F1011121314151657
:1001C0001718191A1B1C1D2F3130354C0001010165
:1001D0000101010101010202020202020202020304
:1001E00003030303030303040404040404040505D4
:1001F0000505050606060606070707070708080897
:1002000008090909090A0A0A0B0B0B0C0C0C0D0D45
:100210000D0E0E0E0F0F0F101011111112121313DD
:100220001414151516161717181819191A1A1B1B56
:100230001C1D1D1E1E1F20202122222324242526B2
:1002400026272829292A2B2C2D2D2E2F30313232EA
:10025000333435363738393A3B3C3D3E3F404142F6
:10026000434445464748494A4C4D4E4F50515354DC
:10027000555658595A5B5D5E5F6162646566686990
:100280006B6C6D6F7072737577787A7B7D7E808210
:10029000838587888A8C8E8F91939596989A9C9E59
:1002A000A0A2A3A5A7A9ABADAFB1B3B5B7BABCBE69
:1002B000C0C2C4C6C9CBCDCFD1D4D6D8DBDDDFE236
:1002C000E4E7E9EBEEF0F3F5F8FAFDFF05010902CA
:1002D000A10185020901A1000509190129081500DC
:1002E0002501950875018102050109300931158143
:1002F000257F95027508810609381581257F9501AE
:1003000075088106050C0A38021581257F9501754F
:10031000088106C0C005010980A101850319012AD1
:10032000B700150126B700950175108100C0050CB6
:100330000901A101850419012AA002150126A002C4
:10034000950175108100C005010906A1018506050A
:100350000719E029E71500250195087501810205B7
:1003600007190029EF1500250195F0750181020597
:1003700008190129059505750191029501750391EB
:1003800001C00659FF0960A1010962150026FF009E
:100390009540750881020963150026FF0095407598
:1003A000089102C00660FF0961A1010962150026DB
:1003B000FF009520750881020963150026FF00954E
:1003C0002075089102C005010906A101050719E081
:1003D00029E7150025019508750181029501750829
:1003E00081010507190029FF150026FF00950675F4
:1003F00008810005081901290595057501910295E7
:100400000175039101C009027B00040100A0FA09F3
:100410000400000103010100092111010001224033
:100420000007058103080001090401000203000020
:10043000000921110100012222000705820320008A
:100440000107050303200001090402000203000064
:100450000009211101000122220007058403400048
:100460000107050503400001090403000103000022
:100470000009211101000122B600070586032000B2
:10048000011201000200000008EDED8100010001F1
:100490000200011C0354006500670069006300202E
:1004A000004600720061006D00690073006D00007D
:1004B0000010034D0065006C004700650065006B8F
:1004C0000000000403090429003A003B003C003D01
:1004D000003E003F00400041004200430044004510
:1004E000004600470035001E001F002000210022AA
:1004F00000230024002500260027002D002E002ABE
:100500000049002B0014001A000800150017001CF9
:100510000018000C00120013002F00300031004CB6
:1005200000390004001600070009000A000B000D46
:10053000000E000F0033003400280000000000E12E
:10054000001D001B000600190005001100100036F8
:100550000037003800E500000052000000E000E332
:1005600000E200000000002C00000000000000E697
:10057000000151E400500051004F000100BE00BDD9
:10058000002B080808CA5CC95CAC00AE00AB00A830
:1005900000AA00A9000100C25C01000100010001E5
:1005A0000001000100010001000100010001004CF8
:1005B0000001004D0001000252805F0100C55CC6D1
:1005C0005CC75CC85CC95CCA5CC35C01000100011B
:1005D00000490001000100010001000100010001CB
:1005E0000001000100010001000100010001000004
:1005F00000000001000100010001000100010014E1
:100600005C010001000100010001000000A90000E0
:1006100000010001000100000000000100000000D6
:10062000000000010001000100AC00AA00AB00299D
:1006300000BE00BD00815F825FCA5CC95CAC00AED9
:1006400000AB00A800AA00A9004600470035001E24
:10065000001F002000210022002300240025002686
:100660000027002D002E002A0049002B0014001A3C
:10067000000800150017001C0018000C00120013E1
:10068000002F00300031004C003900040016000734
:100690000009000A000B000D000E000F00330034AB
:1006A00000280000000000E1001D001B00060019EA
:1006B00000050011001000360037003800E500008A
:1006C0000052000000E000E200E300000000002C07
:1006D00000000000000000E6000351E4005000515B
:1006E000004F0001003A003B003C003D003E003F4F
:1006F000004000410042004300440045000100C2A8
:100700005C01000100010001000100010001000185
:10071000000100010001004C0001004D000100003B
:1007200052805F0100C55CC65CC75CC85CC95CCA1E
:100730005CC35C01000100010049000100010001EF
:1007400000010001000100010001000100010001A1
:100750000001000100010000000000010001000193
:1007600000010001000100145C0100010001000112
:100770000001000000A900000001000100010000CC
:100780000000000100000000000000010001000165
:1007900000AC00AA00AB0020708001985002091044
:1007A0003184108811061800F2871F78D20927F0CB
:1007B000B28B2E68930D36E0738F3D68900106E092
:1007C00070830D58510515D031871C48120924C07B
:1007D000F28A2B2CA04002A480C2091C614411940F
:1007E00041C6180C2248208402CA27FCE24B2F7411
:1007F000C3CD36ECA34F3E38D30C33B0B38E3A287A
:1008000094104274C0C106ECA0430E6481C515DC8F
:1008100061471D5442C92438D00003B0B0820A2871
:10082000910412A07186191852082190328A280862
:10083000130C3080F38D37F8D30F3FCC224B2C4470
:1008400003CD33BCE34E3B34C4D04240F490436408
:1008500084D1454400C103BCE0420B34C1C412AC96
:10086000A1461A2482C8219C624A291443CC308CA8
:10087000234E380404D03F88141248ACA4524AD006
:1008800034934CF4C4D34E185514513CE554535092
:10089000308104C810030C40F18413B8D1061B301A
:1008A000B28822A8920A2A20738C3198530E3910EC
:1008B000349040607595554C24514470B4914694E1
:1008C00044D248B8D4124BDC64534D00F5934F2406
:1008D00085D4515C604105D440C30C4C214514C4FF
:1008E00001C71B3CE24823B4C2CA2A2CA34C32A441
:1008F00083CE391C645041481515546CA555565883
:100900005411450011241FBECFEFDAE0DEBFCDBF8A
:1009100004B603FE18C08091F2089091F308A091EC
:10092000F408B091F5088730904BA740B04B59F4CC
:100930001092F2081092F3081092F4081092F50841
:10094000E0E0F8E3099514E0A0E0B1E0EAEEF9E6B2
:1009500002C005900D92AA34B107D9F728E0AAE4A5
:10096000B4E001C01D92A23FB207E1F70E94BC04AF
:100970000C94F3340C940000A1E5B0E0E2ECF4E058
:100980000C94CF3185B7806885BF85B7806885BFF7
:1009900084B7877F84BF0FB6F894A89580916000D4
:1009A000886180936000109260000FBE90E080E844
:1009B0000FB6F89480936100909361000FBE84EEAF
:1009C00093E190934B0480934A04279A2F9A0E94B4
:1009D00065250E940B268091E20084608093E200EE
:1009E0007894809183058823A1F01091E9001F700D
:1009F0009091EC00892F817090FD80E8182B109267
:100A0000E9008091E80083FD0E94B3211F701093DC
:100A1000E90082E084BD93E095BD9AEF97BD809395
:100A20006E000E94B62B811102C00E94A62B05E623
:100A300012E02BE6E22E22E0F22ED8018D918D01FC
:100A40008F3F11F00E942914E016F106B1F70BE672
:100A500012E0F80181918F018F3F11F00E9429145B
:100A6000F2E00A371F07A9F78CE0E8E6F4E0DF01BF
:100A7000282F1D922A95E9F7ECE4F4E0DF011D929E
:100A80008A95E9F70E94FB15811102C00E940716A2
:100A900082E090E00E947B3280935A040E94EA1523
:100AA0009093D0058093CF050E940719EFEBFDE5E9
:100AB0003197F1F700C000000E9407198091680487
:100AC00080FF08C06FEF7FEF80E090E00E94B732B8
:100AD0000E949B2783E090E00E947B320E94B02E10
:100AE0000E94742A10929705E0EBF5E08FEF9FEFDC
:100AF0008193919325E0E03CF207D1F71092D50560
:100B0000EEEEF5E08FEF9FEF8193919335E0EE3FAE
:100B1000F307D1F70E94FB15811104C00E9407164C
:100B20000E94511B46E050E06CE170E081E995E0E5
:100B30000E946B3210920706809191058C7F11F410
:100B40000E94511B84E091E09093C7058093C605F5
:100B500080918305853009F063C080E4F82EEE248F
:100B6000E39493E0D92E00E112E180918305853072
:100B700009F050C080918305843009F438C00E9488
:100B8000F62C8091060681110DC00E94521C109215
:100B90002901809191058370809328010E94172A72
:100BA000D0922A01E09206061092CA0548E150E070
:100BB0000FB6F894A895409360000FBEF0926000C5
:100BC00083B7817F846083BF83B7816083BF78945C
:100BD000889583B78E7F83BF0FB6F894A8958091D0
:100BE0006000886180936000109260000FBE809169
:100BF0008205882309F4B9CF0E940719E8E6F4E0DA
:100C000081919191892B09F047C654E0E437F507AB
:100C1000B9F7ABCF0E94EC2E0E94BE2810920606B8
:100C20000E9407191BE5612E14E0712E08E6202EA4
:100C300004E0302ED101F301219131918D919D91EC
:100C40008227932764E0E736F60719F0892BA1F392
:100C500032C0892B81F50E9400288C0180915804B4
:100C6000909159040817190709F426C18FEF2296AD
:100C70008FAF229723968FAF239724961FAE24978A
:100C80000E9400288160782F26969FAF8EAF26970E
:100C900022964FAD229723965FAD239724966FAD92
:100CA000249726968FAD26970E94AB0C109359047B
:100CB0000093580401C18EED92E02D969FAF8EAF48
:100CC0002D97A8E6B4E06196BFAFAEAF6197512C07
:100CD0006196EEADFFAD6197819091906196FFAF07
:100CE000EEAF6197D3018D919C91F401E827F9272C
:100CF0002F96FFAFEEAF2F97EF2B09F4CBC0E12C6F
:100D0000F12CCC24C394D12C2F968EAD9FAD2F9770
:100D10008C219D21892B09F4B0C08601082119215D
:100D20002796EFAE279728965FAE289781E00115AA
:100D3000110509F480E029968FAF29970E940028B9
:100D40008160782F2B969FAF8EAF2B9727964FAD54
:100D5000279728965FAD289729966FAD29972B96F0
:100D60008FAD2B970E94AB0C1092020610920306D7
:100D70001092040610920506012B79F02D96EEAD27
:100D8000FFAD2D97EE0DFF1D80818F3F31F06296F4
:100D90008FAF62974424439401C0412C042D10E08E
:100DA0008091D5059801280F311D29303105ACF10E
:100DB000E8E0AE2EB12CA01AB10AB8016F5F7F4FE8
:100DC0006B527A4FA50186ED95E00E94EA34B80196
:100DD000675F7F4F6B527A4FA5018EED95E00E94C1
:100DE000EA34A501440F551FB801660F771F675EEF
:100DF0007F4F6B527A4F8EEE95E00E94EA34B80135
:100E00006F5E7F4F6B527A4FA50186EE95E00E9490
:100E1000EA3488E084198093D5058091D50590E067
:100E200062963FAD6297A32FB0E09D01220F331F62
:100E3000285C3C4FAA0FBB1FBD01675C7C4F41E0A3
:100E4000480F9415C0F490E0FC01EB52FA4FD90121
:100E50005C915183DB015C9151876296BFAD6297D3
:100E6000B18B880F991FFC01EB52FA4F128E118E35
:100E700091E0842FE4CF8093D505CC0CDD1CEFEFFF
:100E8000EE1AFE0AFFE0EF16F10409F03DCFD301A0
:100E90008D929C925394B2E06B0E711C2D96EEAD28
:100EA000FFAD2D973F962D96FFAFEEAF2D97F6E055
:100EB0005F120ECF0E94F4270E94F62C86E0E9E52F
:100EC000F5E08E010F5F1F4FD80101900D928A95BA
:100ED000E1F710925B0510925C0510925D0510928F
:100EE0005E058B81811104C08C81882309F453C075
:100EF00080915705909158050E94E5279C0190919B
:100F0000F008992309F407C52531310508F443C0D9
:100F10009F3F19F09F5F9093F008FB80FF2061F0E6
:100F20000E9477301F1414F491E001C09FEF899F55
:100F3000802D112480935B05FC80FF2061F00E94CE
:100F400077301F1414F491E001C09FEF899F802D2A
:100F5000112480935C0530915B053323E1F02091EF
:100F60005C052223C1F045EB3403C0011124992311
:100F700019F090935B0503C081E080935B0555EB0E
:100F80002503C0011124992319F090935C0503C037
:100F900081E080935C058D81811104C08E8188235E
:100FA00009F453C080915505909156050E94E5279C
:100FB0009C019091EF08992309F4B2C421353105C1
:100FC00008F443C09F3F19F09F5F9093EF08FD80A6
:100FD000FF2061F00E9455301F1414F491E001C00D
:100FE0009FEF899F802D112480935D05FE80FF2057
:100FF00061F00E9455301F1414F491E001C09FEF7E
:10100000899F802D112480935E0530915D053323E7
:10101000E1F020915E052223C1F065EB3603C001AB
:101020001124992319F090935D0503C081E080930A
:101030005D0535EB2303C0011124992319F090932A
:101040005E0503C081E080935E0546E050E0B80194
:1010500089E595E00E94DD34892BA9F480915B0538
:1010600081110FC080915C0581110BC080915D05DD
:10107000811107C081E090915E05911103C080E06D
:1010800001C081E080FD0E946A1F86E0F801A9E5A9
:10109000B5E001900D928A95E1F70E94BE289091EB
:1010A0006704891721F0809367040E94F4278091D8
:1010B0008305843009F0B9C183E08093E900809111
:1010C000E80082FFB2C18091E80085FF09C040E0DE
:1010D00050E060E270E0C8010E947C2191E001C014
:1010E00090E08091E8008B778093E800992309F4E1
:1010F0009CC1E9818E2F90E0FC013197E331F1052D
:1011000008F06BC1EA5AFF4F0C94D0341A828AE07F
:10111000CEC08A81823009F4F5C3833051F081302A
:1011200009F05BC10E94F4279B838C837D836E83CF
:1011300056C1F801CE010D96D1012C9111963C912A
:10114000B2E02B0E311C328323833296E817F90765
:1011500099F745C18A81823009F03FC16B817C815A
:101160008D819E810E94D6340E94822B38C14C8191
:101170006B818A810E94542B9D83CBC32D813E813C
:101180003227232732274C816B818A810E942D2BA5
:1011900026C10E94442923C18A818138D1F070F48C
:1011A000803809F01CC14B812FEF429F412D112443
:1011B0008091920520E06091930531C0823819F149
:1011C000833809F00CC18B8120E0409194056C813B
:1011D00026C060E08B810E94C62C9B818091910586
:1011E000911107C0982F937011F010922A018C7FF3
:1011F00007C0982F937011F410922A018C7F8160A0
:1012000080939105ECC0EB81E43028F4F0E0E658DF
:10121000FD4F808101C08FE780939505E0C090E08D
:101220000E94682CDCC08A818138E1F078F4803833
:1012300009F0D5C080919405EFEF8E9FC001112475
:101240006FEF70E00E94BB316B83C9C0823879F0C8
:10125000833809F0C4C0809192058B8380919305F7
:101260008C83BDC0809191058695869520C0809124
:101270009505873230F08F3530F08E3930F482E0CA
:1012800016C080E014C081E012C083E010C046E0C8
:1012900050E06CE170E081E995E00E9489321092A3
:1012A00007069DC080E152C081E08A8389E08B837C
:1012B00096C0EA80FB80FE24EF24FE24CC80D12C53
:1012C0005801C70189509D4F9501201B310B2C15EA
:1012D0003D0508F084C0F9E0EF16F1E0FF0630F4B8
:1012E0000E947B32D50114968C9302C0F5011482C2
:1012F000FFEFEF1AFF0A2FEFA21AB20AE2CFEA803D
:10130000FB80FE24EF24FE24CC80D12C5801C701A1
:1013100089509D4F9501201B310B2C153D0508F080
:101320005EC039E0E31631E0F30628F4D5011496E7
:101330006C910E949932BFEFEB1AFB0AEFEFAE1AE5
:10134000BE0AE5CF0E9434294AC084E08A8347C0A0
:10135000EA80FB80FE24EF24FE24CC80D12C5801AF
:10136000C70187969501201B310B2C153D05B8F55B
:10137000F0EDEF16F2E0FF0630F40E947B32D5016B
:1013800014968C9302C0F5011482FFEFEF1AFF0A46
:101390002FEFA21AB20AE4CFEA80FB80FE24EF24EA
:1013A000FE24CC80D12C5801C70187969501201BC3
:1013B000310B2C153D0598F430EDE31632E0F306C1
:1013C00028F4D50114966C910E949932BFEFEB1A64
:1013D000FB0AEFEFAE1ABE0AE7CF8FEF8983809149
:1013E0008305843011F58091E9008F702091EC0025
:1013F000922F917020FD90E8F92EF82A82E08093D8
:10140000E9008091E80080FF0CC040E050E060E21D
:1014100070E0C8010E9452218091E8008E7780938D
:10142000E8008F2D8F708093E900809183058430D0
:1014300009F08ECB85E08093E9008091E80082FF7F
:1014400087CB8091E80085FF09C040E050E060E470
:1014500070E0C8010E947C2191E001C090E0809181
:10146000E8008B778093E800992309F471CBE98138
:10147000E13008F46DCBEA3030F08FED8E0F88301C
:1014800008F46DC165CB8E2F90E0FC013297E830F7
:10149000F10520F4E759FF4F0C94D03481E080939C
:1014A00094048EE08093950447C182E08093940475
:1014B000E0E4F2E0A5E9B4E02DE732E08191882391
:1014C00009F43EC18D932E173F07C1F739C183E060
:1014D000809394048BE5809395048AE58093960429
:1014E000EFE4F2E0A7E9B4E083E09191992321F0E1
:1014F0009D938F5F8F31C9F7E82FF0E0EC56FB4FDB
:1015000010828F5F90E0282F30E02E3331050CF0F1
:1015100017C1E92FF0E0E35AFD4F4081442309F45D
:101520000FC1F901EC56FB4F40838F5F9F5FEBCFFC
:1015300030919205209193059091940584E08093D9
:101540009404809191058695869580939504809169
:101550009505809396043093970420939804909374
:101560009904EAC02A81AB8185E080939404BA2E65
:10157000B20E30E0B9E1DB2E8FE0A82E93E0C92E49
:10158000B21609F4D9C0432F50E02B3528F0FA01E8
:10159000EC56FB4FD38229C0822F90E0FC01EE0F66
:1015A000FF1FE85CFC4F6081FA01EC56FB4F618342
:1015B000BC01660F771F675C7C4FDB016C91628317
:1015C00082519C4FDC018C918383B3E02B9FC0013F
:1015D0001124845D9E4FDC0111966C9111976483F8
:1015E0006C91658312968C918683EEEDF2E060E05B
:1015F00070E080E090E07F01E80EF91ED701FC90DA
:101600002F1509F46DC101968F309105A1F75AC1CC
:1016100086E080939404EEE7F2E0A5E9B4E081E986
:1016200092E021912D938E179F07D9F789C0EA8008
:10163000DB80CC808D81BE809F8127E02093940445
:10164000843110F089E126C021E020932B01F12C98
:10165000913061F461E00E94C62CB09295058091B2
:10166000070681608093070621E006C060E00E94C3
:10167000C62CB092950520E04C2D6D2DC7010E941F
:10168000682C8091910586958695833111F40E948E
:10169000CF2B82E38093D2044FC080912B01813005
:1016A00089F68091910586958695833159F68A81D0
:1016B0006B814C812D8198E0909394048B3510F6CA
:1016C00090E00E94DD2BE5CF80912B01813009F065
:1016D0003FCA8091910586958695833109F038CA75
:1016E000EA80F12CEF1441F18F2D880F880F90E0E4
:1016F00026E030E02C0F3D1F280F391FA5E0B0E099
:10170000AC0FBD1FA80FB91F64E070E06C0F7D1F08
:10171000680F791FE3E0F0E0EC0FFD1F8E0F9F1FB5
:10172000FC018081F90120814C91DB016C9190E0FA
:101730000E94DD2BF394D6CF8981893009F408CA41
:1017400084E68093D30480E4E4E9F4E0D8010190D6
:101750000D928A95E1F780E4E4E9F4E071C08E2F00
:1017600090E0FC01B297E730F10520F4EF58FF4F0D
:101770000C94D03481E2809374041092750481E15A
:101780008093760485E009C082E28093740481E04E
:10179000809375041092760484E08093770445C0AA
:1017A00083E2809374041092750410927604109270
:1017B00077043BC0AA809B8080912B018230A9F5E1
:1017C000B9E0B91528F07801C12CD12CB12C02C098
:1017D0008FEF29C023E0E20EF11CC91430F5F701A8
:1017E000228141816081C5018C0D9D1D0E94DD2BF0
:1017F000FFEFCF1ADF0AEECF82E080932B0160E08B
:1018000083E10E94C62C11C081E080932B010E94CD
:10181000CF2B0BC087E2809374048BE504C088E271
:101820008093740481E08093750480E2E4E7F4E03F
:10183000D80101900D928A95E1F780E2E4E7F4E0A7
:10184000DF011D928A95E9F780918305843009F0C4
:101850007FC98091E9008F702091EC00922F9170E8
:1018600020FD90E8F92EF82A84E08093E900809129
:10187000E80080FF0CC040E050E060E470E0C80188
:101880000E9452218091E8008E778093E8008F2D8E
:101890008F708093E9005CC909BD19BD09B400FED1
:1018A000FDCF8091D8008F7D8093D8008091E0009B
:1018B00082608093E0008091E00081FDFCCF0E9477
:1018C000EC2E53C96F5F7F4F3F966630710509F06C
:1018D00090CEFA01EC56FB4FC782395F2F5F50CE96
:1018E000A69EF001A79EF00D1124E80FF91FEE0F40
:1018F000FF1FE953FB4FE4914C565B4FDA011796FB
:10190000EC93EBCF86E290E00E947B321B821C823C
:101910001D828E8364CD2B30310508F0FBCA3BCB92
:101920002B30310508F050CB90CB0E94EC2E2FEFDE
:1019300084E39CE0215080409040E1F700C000002B
:101940009CE088E10FB6F894A895809360000FBEE4
:1019500090936000FFCFA7E1B0E0E1EBFCE00C94D6
:10196000DE314B8B5C8B6D8B7E8B8F8B611110927C
:101970004E0586E09E01235F3F4FD901E82F1D925F
:10198000EA95E9F795E0FE017396D90101900D9271
:101990009A95E1F79C894E895F897B897D879E872F
:1019A0006F87598B488BF901DE01179601900D92D4
:1019B0008A95E1F7CE0107960E94801781113EC0FB
:1019C00086E0FE013796DE01119601900D928A9510
:1019D000E1F7FF81E8856A857B856115710531F046
:1019E000EF3F31F481E0FF3F19F403C081E001C013
:1019F00080E080FD23C02091FB0430E0C901019606
:101A00008770992740912C0550E08417950779F14C
:101A1000F983EA837D836C8396E0929FD001939F44
:101A2000B00D1124A450BB4FFE01319601900D92D0
:101A30009A95E1F78093FB040E940D1716E08091C0
:101A40002C059091FB048917F9F0189FC00111240F
:101A500084509B4F0E9480178823B1F080912C0501
:101A600090E001968770992780932C05E8CF0E941B
:101A7000EC2E1092FB0410922C05E5EFF4E086E0CA
:101A8000DF011D928A95E9F76796E3E00C94FA313D
:101A9000A9E0B0E0EEE4FDE00C94D031FC018081DF
:101AA000918123813481232B31F09F3F31F491E0E8
:101AB0008F3F19F403C091E001C090E090FD80C613
:101AC0007F0185E0DE01119601900D928A95E1F784
:101AD000F701228189819A81222349F00E94ED2D0C
:101AE000182F682F89819A810E945D2E03C00E9461
:101AF000292E182F69817A81812F0E9440148C0130
:101B0000F7018281882309F4F5C0980122513F45ED
:101B10002031310508F00AC18FEF93E00E947B323B
:101B20008111F2C0025137EF832E32E0932E002351
:101B300079F08114F4E09F0609F4E6C0C4010E9424
:101B40007B32811101C001502FEF821A920AEFCF30
:101B50001E821F8218861986442443942AE0322E5E
:101B600084010F5F1F4FC4010E947B328E831F824E
:101B7000882309F4C9C09FEF980F933060F48F83D6
:101B80004E8232E0830E911CC8010E947B3288870E
:101B9000811102C0B9C048018E010A5F1F4FF801D0
:101BA00020812223E9F2213009F04CC0818181306B
:101BB00049F46801F2E0CF0ED11CF80182810E9445
:101BC000BF2F0AC0823051F46801F2E0CF0ED11C61
:101BD000F80182810E94482F860189C0833049F430
:101BE0006801F2E0CF0ED11CF80182810E94132F10
:101BF000F3CF843019F00F5F1F4F79C0F8012281B5
:101C00000E5F1F4F80E090E030E0205331092A3012
:101C1000310568F4389EA001399E500D1124C90188
:101C2000840F951F0F5F1F4FF8012081EDCF0097A4
:101C300009F45DC0EFE9FFE03197F1F700C0000063
:101C40000197F5CFE22FF0E0E45BFE4F5490822F36
:101C500086958695869590E0FC01E45CFE4F649045
:101C60002770712C022E02C0759467940A94E2F7D3
:101C7000F1E06F227724FC01E45DFE4FA490B12CCB
:101C8000022E02C0B594A7940A94E2F731E0A32291
:101C9000BB24FC01E45EFE4FC490D12C02C0D5945D
:101CA000C7942A95E2F781E0C822DD24611471040B
:101CB00019F081EE0E94482FA114B10419F086EEAC
:101CC0000E94482F852D0E94BF2FA114B10419F046
:101CD00086EE0E94132F6114710419F081EE0E94A8
:101CE000132FC114D10419F08CE20E94BF2F0F5F93
:101CF0001F4F55CF00313FE5130709F0D4C481E0F1
:101D00000E94972E0E94941F80912D05877009F4E0
:101D100057C5F7018281882309F452C58091D00507
:101D200082FF4EC582E00E94D4164AC50031FFE50D
:101D30001F0711F481E005C001312FE5120721F4DE
:101D400082E00E94A42EDECF0138FFE51F0751F488
:101D5000882319F08FE992E002C080E090E00E94B1
:101D60009228D2CF02382FE5120729F48823A9F34D
:101D700080EA92E0F4CF00383FE5130749F4882366
:101D800019F261E083E10E94C62C0E94CF2BBCCFE8
:101D9000033F9CE5190749F406E221EE40EE63EFAC
:101DA0007CE5C7010E94CB28AFCF043FECE51E07BE
:101DB00008F0A2C1083DFCE51F0731F407E225EE5B
:101DC00045EE68ED7CE5EDCF093D2CE5120731F4D9
:101DD00008E221E045EE69ED7CE5E3CF073D3CE517
:101DE000130731F406E221EE41EE67ED7CE5D9CF31
:101DF000882309F4B6C11092C30503309DE5190785
:101E000058F40A3FECE51E07C0F4C80182509C4517
:101E1000449708F090C111C0053AFDE51F0769F02D
:101E200030F401363DE5130709F085C106C0C8014D
:101E30008D5A9D45039708F07EC10E94EA15909344
:101E4000D0058093CF0502318CE5180709F40CC149
:101E500008F04DC00930ECE51E0709F4D9C008F5BB
:101E600005302CE5120709F4C0C080F403308CE57E
:101E7000180709F4B1C008F0B5C00230ECE51E0740
:101E800009F02AC18091CF058160A9C00730FCE527
:101E90001F0709F4B5C008F0B7C08091CF05806175
:101EA0009EC00D303CE5130709F4C8C058F40B3050
:101EB0009CE5190709F4B6C008F0BCC08091CF05B5
:101EC0008860ACC00F30FCE51F0709F4C5C008F4FA
:101ED000B8C000313CE5130709F4C2C001318CE5FC
:101EE000180709F0F9C08091CF058F7B78C00F3FAC
:101EF0009CE5190709F4C3C098F50A3FFCE51F07E4
:101F000009F477C0C0F404313CE5130709F4C6C0F6
:101F100008F4B0C005319CE5190709F0DDC08091D7
:101F2000CF0582FB222720F991E0922790FB82F9CE
:101F300090FB83F954C00C3FECE51E0709F485C003
:101F400008F45AC00D3F2CE5120709F481C00E3F7A
:101F50003CE5130709F0C0C08091D005826060C0E5
:101F600001368DE5180709F4ABC070F40130EDE5DA
:101F70001E0709F49FC008F487C002302DE5120740
:101F800009F0AAC060E097C00D3A3DE5130701F1E2
:101F900060F4053A9DE5190709F09EC08091CF05D0
:101FA000982F909590FB80F91AC00E3AEDE51E0728
:101FB000E9F10F3AFDE51F0709F08EC08091D005C9
:101FC00083FB222720F991E0922790FB83F982C0BE
:101FD0008091D00588607EC08091CF05826080931B
:101FE000CF057AC08091CF0519C08091CF05886058
:101FF000F6CF8091D00514C08091D00582606AC070
:102000008091CF058062EBCF8091CF058064E7CFD0
:102010000E94EC2E8091CF058068E1CF8460DFCFF5
:10202000816058C08091CF058E7FD9CF8091D00537
:10203000877F50C08091CF058D7FD1CF8091CF0514
:102040001CC08091CF05877FCACF8091D0051AC070
:102050008091D0058D7F3EC08091CF058F7EBFCF10
:102060008091CF058F7DBBCF0E94EC2E8091CF0554
:102070008F77B5CF8091CF05877F8B7FB0CF809151
:10208000D0058D7F8E7F26C08091D005982F9095AA
:1020900091708E7F892B90FB81F91CC00E94EC2EE1
:1020A0008091CF0587FB222720F991E0922790FBB2
:1020B00087F995CF61E08EE090E00E9499320CC0E4
:1020C0008091CF0584FB222720F991E0922790FB95
:1020D00084F985CF8093D0056091CF051091D0050C
:1020E00084E090E00E949932612F82E290E00E94A9
:1020F00099320E94EC2E08CE053F9CE5190731F479
:1021000006E221EE42EE65EF7CE54BCE053FECE5C5
:102110001E0730F407E225EE44EE64EF7CE541CE85
:10212000063FFCE51F0709F063CE07E225EE46EE09
:1021300066EF7CE536CE06312CE5120721F580915D
:102140004F058A7A91E009F490E09093D4048823B3
:1021500011F065E301C069E285ED94E00E945D281D
:102160000FC00631ECE51E0709F044C08091D4048D
:10217000882309F49FC265E385ED94E00E94352829
:102180000E947F16C1CD0A35FDE51F0769F158F49D
:1021900001153CE5130781F00E3D1C4509F045C0D3
:1021A0000E94071617C00C359DE51907A9F0F0F03D
:1021B000073A1D4579F039C00E94EC2E2FEF34E329
:1021C0008CE0215030408040E1F700C000000E94C8
:1021D0009B279ACD0E94950C8091D00582FB882781
:1021E00080F991E0892703C081E001C080E00E946E
:1021F000F1161BC080914F0582720A3C2CE5120734
:1022000009F4C5C208F458C20F3C3CE5130709F4B1
:10221000D2C208F484C2063D8CE5180708F491C2C6
:102220000D35EDE51E0709F46FCDF70182810081C0
:102230001181882349F0C8010E94ED2DD82E682F06
:10224000C8010E945D2E04C0C8010E94292ED82E0C
:10225000B8018D2D0E9440140E944E14B82E192FE3
:10226000982EF7010281A580A2949FE0A922809177
:102270002D058770B9F00023A9F0812F807F80346D
:1022800021F080E28B0D883068F08091D00582FFCC
:1022900009C082E00E94D41680912D058770DD244C
:1022A000D3948111D12CC12EC2948FE0C8228C2DE1
:1022B00090E08C30910508F0D7C1FC01E858FF4F41
:1022C0000C94D034812F807F1F70882311F01295D9
:1022D000107F0023B9F0112309F4B4C180E28B0D03
:1022E000883010F0911006C080914F05182B109384
:1022F0004F0505C080914E05182B10934E050E9486
:102300007F16A0C18B2D0E94132F112309F4ACC19D
:1023100080E28B0D883080F1992071F110958091C9
:102320004E05182310934E052AC0812F807F1F7001
:10233000803211F01295107F8B2D992021F0F1E061
:102340009F16D9F149C08091D00582FD1BC00023A2
:1023500069F0112339F080914F05182B10934F0528
:102360000E947F1680E00E94482F7EC180E00E947C
:10237000132F112309F478C1812F0E9478160E942F
:102380007F1672C1002381F080915005AA2051F080
:1023900021E0A21207C0182B181709F465C1109389
:1023A000500562C1812B10C0AA2021F031E0A31694
:1023B00009F45AC10E94721627C0002341F085E03B
:1023C0008A1508F451C1812F0E94092F4DC194E054
:1023D0009A1508F449C118C0002349F0AA2099F3BE
:1023E000F701858180FF2EC18F708583ECCFAA20F5
:1023F00059F0893309F035C1FFEF27EE33E0F15092
:1024000020403040E1F72BC1812F0E94022F2CC1C8
:10241000812F86958695837019F0813061F024C1F3
:10242000002321F08B2D912F937002C080E090E06B
:102430000E94A8281FC1002321F08B2D912F93709B
:1024400002C080E090E00E94922814C18B2D0023EE
:1024500019F00E94973002C00E94DE2F0E946A1F6E
:1024600009C1812F8370A9F5011102C14B2D42953D
:1024700046954770440F440F8B2D8F7090E09C0160
:10248000042E01C0220F0A94EAF7B4FE08C08FE0C0
:1024900090E001C0880F4A95EAF7809501C080E07E
:1024A000169516951370123069F088F490915105C5
:1024B000113019F0822B892302C0922B892B0E94A4
:1024C000B02ED6C0822B909151058927F8CF822B50
:1024D000F6CF002319F0812F817001C086958823E3
:1024E00009F4C6C04B2D429546954770440F440FE2
:1024F0008B2D8F7090E09C01042E01C0220F0A9456
:10250000EAF7B4FE08C08FE090E001C0880F4A955A
:10251000EAF7809501C080E0169516951370123089
:1025200059F078F49091C005113019F0822B89236D
:1025300009C0922B892B06C0822B9091C005892758
:1025400001C0822B0E94922E93C01F70002339F08D
:10255000812F0E94A42E8B2D0E94092F89C08B2DC4
:102560000E94022F812F0E94972E82C08B2D92EF06
:10257000991681F1991538F0E0EF9E1659F0F1EFB8
:102580009F1619F15BC023EF921659F134EF9316A1
:10259000C1F054C0002381F084E08A1508F464C0BF
:1025A0001F7181E090E0012E01C0880F0A94EAF7C4
:1025B0009091C005892720C095E09A1508F454C071
:1025C000EFCF8091D00582FD1AC0002329F0812F22
:1025D0008F7127C00023D9F3812F8F710E94972E0E
:1025E00043C0002341F01F7181E0012E01C0880F1C
:1025F0000A94EAF701C080E00E94922E35C00023C1
:1026000099F01F71812F0E94A42E8091D00582FF26
:1026100007C0E8E01E9FC0011124836080932D0550
:10262000812F0E94A42E20C081E00E94D416F1E0E8
:10263000FA15D0F482E00E94D41616C0002321F0CF
:10264000AA2029F28B2D8FCEAA2031F2893349F4AA
:102650002FEF37EE83E0215030408040E1F700C09B
:1026600000008B2D0E94132F88EF8C0D843010F406
:102670000E94BE28DD2009F4A3C080912D0580FDB5
:102680009FC0F70112828595859585950E94A42E9D
:10269000C7010E94480D80912D05859585958595EA
:1026A0000E94972E8DC001319FE5190709F04CCB90
:1026B00082E026CB69E260CD053C9CE5190709F470
:1026C00052C0D0F4033CFCE51F0709F442C008F0F7
:1026D00045C0023C3CE5130709F0A7CD9091910558
:1026E00081E089278093910510922A018091070645
:1026F00081608093070608CB073C9CE51907E9F148
:10270000B8F1083CFCE51F07E9F1093C2CE512078C
:1027100009F08BCD48E75CE266E87CE246C00C3C01
:10272000ECE51E07F1F1C0F10D3C2CE5120709F4B0
:102730003FC00E3C3CE5130709F077CD61E082E035
:102740003CC0013D9CE5190708F0DECA61E089E064
:1027500034C04FED5CE26AEE7CE227C04AEE5CE2F8
:102760006FED7CE222C040EB5CE26BEB7CE21DC0D3
:102770004BEB5CE260EB7CE218C044E95CE262EAAD
:102780007CE213C042EA5CE264E97CE20EC046E807
:102790005CE268E77CE209C049E759E267E879E270
:1027A00004C047E859E269E779E20E943D2CACCACF
:1027B00061E081E002C061E085E00E94C62CA4CA0D
:1027C0002996E1E10C94EC3180E008959091CF05D9
:1027D00092FF0DC0282F2871283019F4877F84605C
:1027E00006C0282F2471243011F48B7F886093FF5A
:1027F0000DC0282F2871283119F4877E846106C006
:10280000282F2471243111F48B7E88612091D0050A
:1028100020FF0DC0382F3871383019F4877F816060
:1028200006C0382F3171313011F48E7F886021FF5E
:102830000DC0282F2871283119F4877E816106C0C8
:10284000282F2171213111F48E7E886194FD877EBD
:102850000895F894E82FE295EF70F0E031A1282F69
:102860002F7081E090E001C0880F2A95EAF7982F39
:102870009095932391A392A1892B82A37894089594
:10288000763048F46F3038F4843028F4462F672FC0
:102890000E94542B089580E090E00895CF93DF9339
:1028A0008238910569F1B0F48133910509F477C05C
:1028B00048F48932910509F469C08A32910509F416
:1028C00073C092C08533910509F45BC089339105CB
:1028D000B9F08AC0833E910591F138F4803E9105AC
:1028E000D1F0823E910531F17FC0863E9105D9F14C
:1028F000873E9105E9F1843E910509F075C028C035
:102900002091CF0520FD5BC021FD59C02091D0054D
:1029100023FD61C069C08091CF0580FD4AC08091D0
:10292000D00580FF4CC08091CF0584FD4EC183EE61
:1029300090E04DC18091CF0582FF3EC0F4CF8091E1
:10294000CF0582FD39C08091D00580FD38C0EBCF26
:102950008091D00581FF39C08091CF0584FD35C1BC
:1029600087EE90E034C18091CF0583FF2BC0F4CF78
:102970008091CF0583FD26C08091D00581FD25C0C3
:10298000EBCF8091CF0585FD26C022C08091CF0579
:1029900085FD1EC08091D00583FF1DC00AC08091B7
:1029A000CF0586FD1BC01DC08091CF0586FD19C0D7
:1029B00015C089E390E00BC182EE90E008C180EE83
:1029C00090E005C186EE90E002C184EE90E0FFC089
:1029D00085E390E0FCC089E290E0F9C08AE290E0F3
:1029E000F6C081E390E0F3C0811531E5930708F06C
:1029F00061C0811520E59207B0F09C012370332758
:102A000041E050E002C0440F551F2A95E2F7282FFD
:102A10002695269580E2289F90011124CA01822BD9
:102A2000932B9D68D4C0883E910568F5803E910542
:102A300008F0CDC0883A9105B8F4853A910548F080
:102A4000855AE82FF0E0EF56FD4F808190E09064CA
:102A5000BEC08130910509F4B5C008F4B6C0843019
:102A6000910508F4B2C0B3C08F3B910508F0ADC02A
:102A7000885AE82FF0E0EE0FFF1FEC56FD4F8081E3
:102A800091819464A4C0811530E2930758F48115B4
:102A900021E0920708F09BC0803F910508F495C0A3
:102AA000906595C0811530E4930708F48EC09F703F
:102AB000906A8DC0811525E5920708F042C0811506
:102AC00034E5930728F0982F8827846F906A7FC099
:102AD000811523E59207B0F09C012370332741E074
:102AE00050E002C0440F551F2A95E2F7282F269583
:102AF000269580E2289F90011124CA01822B932BF6
:102B00009A6865C0811532E5930728F4982F8827C5
:102B1000816F906A5CC09C012370332741E050E0D4
:102B200002C0440F551F2A95E2F7282F26952695B7
:102B300080E2289F90011124CA01822B932B9C686C
:102B400046C0EC01C11589E5D807B0F4C11528E5E8
:102B5000D20728F09C2F8827806F906A38C0C11553
:102B600036E5D30790F58C2F0E94E6138F7190E025
:102B7000982F882790622BC0C1158AE5D80790F45A
:102B80008C2F8F700E94E61394E0D695C7959A9586
:102B9000E1F7CF70D0E0DC2FCC27D0699E01282B45
:102BA000C90115C0CE0190568115904270F48D2F49
:102BB0008F710E94E613282F2F71CE019927906202
:102BC000922B05C081E090E002C080E090E0DF91B0
:102BD000CF910895CF9384E090E00E947B32C82F7C
:102BE00082E290E00E947B322C2F30E0A901582B2A
:102BF000CA01CF91089580E090E00E948332883E20
:102C00009E4F19F40E94B62B089580E0089568EE57
:102C10007EEF80E090E00E94B73260E082E090E0DA
:102C20000E94993260E083E090E00E949932109215
:102C3000510560E084E090E00E94993264E182E214
:102C400090E00E94993260E085E090E00E94993225
:102C500060E086E090E00E9499326FEF87E090E0BC
:102C60000E94993240E050E0BA0188E090E00E9472
:102C7000AB3260E08DE090E00E94993240E050E09D
:102C8000BA0188E190E00E94AB3260E087E190E019
:102C90000E94993240E050E0BA018CE190E00E943D
:102CA000AB3260E070E080E290E00E94B73240E03A
:102CB00050E0BA0188E190E00E94AB3280E00E94CF
:102CC000872B0E94A62B40E050E0BA018FE090E0F5
:102CD0000E94AB3240E050E0BA0183E190E00E94F4
:102CE000AB320895809150058111109250050895DE
:102CF000809590914F05892380934F050895909179
:102D00004F0580914E05982B9093D50480915005E6
:102D10008823D9F0892B8093D504809110018823D2
:102D200031F08091CF0587FF02C08EE101C086E0BF
:102D3000E7EDF4E090E0815028F021912223D9F3CF
:102D40009F5FF9CF91110E94721640E250E06EE24F
:102D500075E085ED94E00E94DD34892B21F180E25D
:102D6000E5EDF4E0AEE2B5E001900D928A95E1F771
:102D7000E091C605F091C7053097A9F08091100148
:102D8000882359F08091CF0587FF07C08091D50433
:102D90008093D60486E08093D5040280F381E02DF1
:102DA00085ED94E00995089520912D058095822365
:102DB00080932D05982F977099F430E0482F082EB6
:102DC000000C550B2417350759F09091D00592FF50
:102DD00007C08595859585950E94972E10922D05A3
:102DE0000895CF93C091D005C2FB992790F9981709
:102DF00091F080FBC2F9C093D0056091CF0584E0CB
:102E000090E00E9499326C2F82E290E00E94993209
:102E100082E00E94D416CF91089580912C05909164
:102E2000FB04891719F08F5F8770FBCF08950F930C
:102E30001F93CF93DF938091FA0482958F7009F0EE
:102E40005AC08091F704882309F455C080912C055D
:102E50001091FB046091F5047091F604C091F804A0
:102E6000D091F90491E06F3F09F090E0292F06E03E
:102E7000811709F440C0209721F07F3F21F030E016
:102E800003C031E001C0322F90E030FD31C0089F17
:102E9000F001099FF00D1124DF01A450BB4F1196E2
:102EA0003C911197371324C03C91361321C01296E0
:102EB0003C91129731111CC013964D915C9114975F
:102EC0004C1B5D0B483C510598F48091FA048F70BF
:102ED00080618093FA04EF5FFA4F80818F70806188
:102EE000808385EF94E00E94480D0E940D1703C077
:102EF00001968770BDCFDF91CF911F910F910895FB
:102F0000A1E1B0E0E6E8F7E10C94D6318C0185E070
:102F1000F801DE011D9601900D928A95E1F7F80106
:102F2000E2809091F5046091F6044091F80450918C
:102F3000F9044115510531F06F3F31F481E09F3FB5
:102F400019F403C081E001C080E0F82FF1709F2EDA
:102F500080FD1BC1F80130812181C380D48085EFC1
:102F6000A82E84E0B82EF090F704F601E41BF50BD0
:102F7000FF2009F4C7C08091FA04E83CF10508F08D
:102F800092C0482F407F09F051C0621311C09313C3
:102F90000FC0FE2CE1100CC08F7080618093FA048A
:102FA000C5010E94480D8091FA04F80185832AC169
:102FB000C114D10431F02F3F31F481E03F3F19F4C7
:102FC00003C081E001C080E080FD03C081E08E2568
:102FD00002C080E090E0F82FF170FF2E80FF1CC04F
:102FE00080912C054091FB0456E0841709F4E8C059
:102FF00090E0589FF001599FF00D1124E450FB4FD1
:103000006181261306C06081631303C06281E612EA
:1030100003C001968770E9CFFE2CEE2009F4F2C0C0
:103020008091FA0481608093FA0449C0621306C05B
:10303000931304C0E11002C0F80186C0C8010E94C9
:10304000B52E882351F1EE2041F12091FA04822F10
:1030500082958F7090E0029774F08091F5049091C2
:10306000F60498878F831986DB86CA862C87CE0163
:1030700007960E94480D86E0F801A5EFB4E00190A4
:103080000D928A95E1F70E9417170AC06217C9F0DE
:10309000C8010E94B52E81111EC0C8010E94480DB2
:1030A000FF24F394AFC0482F407F81F785EF94E071
:1030B0000E94480D86E0F50111928A95E9F7F12CFE
:1030C000A1C09313E5CFE110E3CFF8018583C801D8
:1030D0000E94480D54C0EE2001F32091FA04822F83
:1030E00082958F7090E0029734F28091F504909170
:1030F000F6049A8389831B82DD82CC822E83CE01E3
:103100000196B7CFE83CF105D0F5FE2CEE2029F270
:10311000621327C0931325C02091FA0420FD18C024
:10312000822F82958F70482F50E04115510581F014
:10313000F80125834F30510541F08F5F982F92950C
:10314000907F822F8F70892B8583C8010E94480D44
:1031500086E0F801A5EFB4E001900D928A95E1F7C1
:1031600051C0C8010E94B52E811185CF8091FA040B
:1031700081608093FA04C8010E94480D43C086E034
:10318000F50111928A95E9F73DC0EE2009F485CF4B
:10319000C8010E94B52EF82E882309F47ECF86E060
:1031A000F801A5EFB4E001900D928A95E1F78091C6
:1031B000F5049091F6040E941C2E0E94171722C05D
:1031C0003D872E878D859E850E941C2E292F229556
:1031D0002F70223028F49F7039F0811105C00BC088
:1031E000243028F49F7049F4805E883020F0C801B4
:1031F0000E94480D9F2CF92C05C0F8019581907F05
:1032000099F7F9CF8F2D6196EBE00C94F231ACE099
:10321000B0E0EDE0F9E10C94D331AE014F5F5F4FC8
:103220007A018CE0FA0111928A95E9F705E612E03D
:103230006A019BE6692E92E0792E88248394912C72
:10324000F80180818F3F09F447C0F894E82FE29598
:10325000EF70F0E021A18F70A40102C0440F551F50
:103260008A95E2F7CA01922F982B91A392A180959B
:10327000892382A3789400C0EBE6F2E021E030E0FD
:10328000A12CB12C41914F3F89F0A42FA295AF7092
:10329000B0E090968C9190E04F7002C09595879524
:1032A0004A95E2F780FD02C0C90102C080E090E0CB
:1032B000A82AB92A220F331F52E0EA37F50711F77F
:1032C000F80180818F3F11F00E942914F0EAFA95ED
:1032D000F1F7F601B182A0820F5F1F4FF2E0CF0E2F
:1032E000D11C6016710609F0ABCF4CE050E0B7017D
:1032F0008CE494E00E94DD34892B89F08CE0F701A6
:10330000ACE4B4E001900D928A95E1F781E08093FE
:1033100054050E9400289093530580935205809194
:103320005405811102C080E020C080915205909127
:1033300053050E94E5270397B0F34CE050E06CE49E
:1033400074E088E694E00E94DD34892B59F08CE02B
:10335000ECE4F4E0A8E6B4E001900D928A95E1F780
:1033600081E001C080E0109254052C96EEE00C94B0
:10337000EF31EF92FF920F939701201B31092F3FFE
:10338000310519F010F02FEF30E02095382F320F73
:1033900008F43FEF832F0F91FF90EF900895EF9285
:1033A000FF920F939701201B31092F3F310519F030
:1033B00010F02FEF30E0322F3095482F430F08F4F4
:1033C0004FEF842F620F0F91FF90EF900895EF92CF
:1033D000FF920F93972F093438F4B701601B7109DE
:1033E0006F3F710519F010F06FEF70E0485F5F4FAD
:1033F0004131510540F0A901485F5F4F413151050E
:1034000010F06FEF70E06095482F460F08F44FEF13
:10341000842F37FF02C02D5F3F4F35952795359597
:10342000279560919205620F792F0F91FF90EF9091
:103430000895EF92FF920F93970195E0099F200D59
:10344000311D11242F3F310519F010F02FEF30E01E
:103450002095382F320F08F43FEF832F0F91FF9004
:10346000EF9008950F931F93522F10E0F801EE0F85
:10347000FF1FE75CFC4FE081F0E07897EE0FFF1F45
:103480009F015203D001539FB00D1124000F111F53
:10349000F801E85CFC4F008110E004551109000FB1
:1034A000111F40039001419F300D11242A0F3B1F33
:1034B00037FF02C021583F4F220F232F221F330B0B
:1034C000620F1F910F9108950F931F93522F10E0D9
:1034D000F801EE0FFF1FE75CFC4FE081F0E078970A
:1034E0009F015203D001539FB00D1124000F111FF3
:1034F000F801E85CFC4F008110E00455110940031D
:103500009001419F300D11242A0F3B1F37FF02C04D
:1035100021583F4F220F232F221F330B620F1F9181
:103520000F910895EF920F931F9393E0099F8001ED
:103530001124159507956E2D600F1F910F91EF9037
:103540000895A22F50E0FA01EE0FFF1FE75CFC4F39
:103550009081985197FD9195440F551FFA01E85CB1
:10356000FC4F3081232F30E02A1B3109290F311DF8
:1035700097FD3A95620F0895E42FF0E0EE0FFF1FDC
:10358000E75CFC4F6081621B0895E42FF0E0EE0FD2
:10359000FF1FE85CFC4F6081621B0895622F089555
:1035A0004095282F429F412D1124842F0895FC011E
:1035B0009B01009721F477FF2BC080E80895AC01B0
:1035C00097FF04C044275527481B590BB901640FC6
:1035D000751F37FD0CC0241B350BC901A5E0880FF2
:1035E000991FAA95E1F70E94BC3480E20CC0CB0180
:1035F00065E0880F991F6A95E1F7BA01621B730BAA
:103600000E94BC3480E6861BF7FF03C081950895B5
:1036100080E00895EF920F93CF93DF93D72FC82FB9
:10362000C9010E19BA010E94D71A602F681B7D2F9D
:103630008C2FDF91CF910F91EF900895EF920F9320
:103640001F93CF93DF93D62FC72F182FC9010E19C1
:10365000010FBA010E94D71A081B202F219F212D8C
:103660001124822F6D2F7C2FDF91CF911F910F910D
:10367000EF9008950F93CF93DF93D72FC82FC901F1
:10368000BA010E94D71A682F600F7D2F8C2FDF910F
:10369000CF910F9108950E94FE2908950E949529C7
:1036A0000895E1E9F5E08DE4808380913D029091F9
:1036B0003E02A0913F0281839283A38388E28483A8
:1036C0008FEF858346E050E06CE170E0CF010E940F
:1036D0008932109207060895482F982F46FD90953D
:1036E000E92FEF739F7046FD9F5FE295EF70EE0F3D
:1036F000F0E0EE53FD4F2181299F802D212D1124D3
:1037000082958F702295207F822B3081982F930F86
:10371000892F47FD819580580895BC01823091051D
:1037200008F40895613E8EE1780748F49B0195E026
:10373000369527959A95E1F748E0420F01C04FEF83
:1037400091E0242F30E0290F311D35952795229FD8
:10375000F001239FF00DF00D11246E177F0718F470
:103760004FEF420F04C02F3F39F091E0920F4917FD
:1037700040F78FEF890F08958FEF089520E030E034
:10378000869F212D969F200D311D1124C90108957A
:10379000A0E0B0E0EEECFBE10C94D931F62E472F1F
:1037A000E82FF0E0711106C0E453FE4F8491782FAA
:1037B000682F73C0272F30E0E453FE4FE491FE2FB3
:1037C0000E2F10E056E0659FC0011124CFEFD0E02E
:1037D000BE010E94BB315BEA5603C001579F900DAA
:1037E00011248F0D911D8F0D911D982F990F980FFA
:1037F0007E01E21AF30AE09ED001E19EB00DF09E38
:10380000B00D11248B2F499FA0011124452F55275E
:103810007E01E41AF50AE09EA001E19E500DF09EA3
:10382000500D11246E01C91AD108C29E7001C39EA9
:10383000F00CD29EF00C11242F2D3327C21BD30B7A
:10384000C09F9001C19F300DD09F300D1124932F48
:103850006230710591F048F461157105E1F0613055
:103860007105B9F49E2FE52F16C06430710569F01B
:1038700040F06630710579F00CC09E2FEB2F832F3E
:103880000AC0EB2F8F2F952F06C09B2F8E2FE32F73
:1038900002C09B2F852F7E2F692FCDB7DEB7E8E0C2
:1038A0000C94F531A0E0B0E0E8E5FCE10C94D131F6
:1038B000C82F809129018C130DC020919105237090
:1038C00030E04091280150E081E02417350719F4D9
:1038D00080E001C081E0817080932701809196058E
:1038E00090912601981739F08093260140E060E01E
:1038F00080E00E944B1BCA3029F48AE09BE10E94C1
:10390000902009C0CB3008F007C1C430C1F48EEC60
:103910009AE10E940A21909125019F5F90932501D1
:103920008111D3C282E080932A0180912701811105
:10393000CCC2C111CAC283E080932A01C6C2C5307D
:1039400008F08FC0C13049F5D0912501DD0FDD0FA2
:1039500014E01D0F1C3508F01BE560919205709175
:103960009305809194050E94C81B062FF72EE82E20
:10397000D11708F047C0ED2FF0E0DF01A251BC4F96
:103980008C9190912601982331F02E2D402F6F2D90
:10399000CF010E944E1BDF5FEBCFC13008F437C070
:1039A000C23009F051C0D0912501DD0FDD0F14E0C8
:1039B0001D0F1C3508F01BE5F09092050091930552
:1039C000E090940560919505669566956695809161
:1039D0008D0590918E050E94BE1B0E946C1B805825
:1039E00087FD8195880F282F3E2D239F212D11249F
:1039F000822F6F2D702F0E94C81B062FF72EE82EE6
:103A0000D11780F081E01B3508F485CF09C0809183
:103A10002701882329F040E060E080E00E944B1BF2
:103A200080E079CFED2FF0E0DF01A251BC4F8C9107
:103A300090912601982331F02E2D402F6F2DCF012C
:103A40000E944E1BDF5FDCCFC33029F48EE19BE187
:103A500056CFC930E1F0809125018F5F8093250119
:103A600061CFC73019F481EA9AE153CFC83050F4DE
:103A7000C53019F485EC9AE14CCFC63061F78CEB78
:103A80009AE147CFC83029F782E99AE138CFD0913F
:103A90002501DD0FDD0F14E01D0F1C3508F01BE5BF
:103AA00060919505669580918D0590918E050E9497
:103AB000BE1BD82ED11708F0A5CFED2EF12CF701A3
:103AC000E251FC4F908180912601892319F1F70181
:103AD000EE0FFF1FE75CFC4F208130E028513109D9
:103AE000F701EE0FFF1FE85CFC4F408150E04455AA
:103AF00051096091920570919305809194050D2D67
:103B00000E943A1B0E94C81B462F282F672FC7010F
:103B10000E944E1BDF5FCECFCF30E1F469E17AE146
:103B200007C0C33108F061C0C03121F467EE79E10C
:103B300080E00DC0C13109F08ECF8091970521E062
:103B4000382F321B08F430E0832F6FEC79E10E94AC
:103B5000A01FE1CEC03108F0BEC0CC3029F482E312
:103B60009AE10E943D20D7CECC3018F484E69AE149
:103B7000F8CFCD3009F04FC08091270181111EC0D0
:103B80006091950520E1620F08F46FEF80918D053B
:103B900090918E050E94BE1B65E070E00E94BB31D3
:103BA000892B09F03DCF0E9452326BE570E00E94F4
:103BB000BC34609126010E94442C32CF0091250133
:103BC000000F000FD4E0D00FDC3508F0DBE510E08B
:103BD000ED2EF12C0E151F05CCF460912601C801C5
:103BE0000E94442C0F5F1F4FF5CFC33109F039C13C
:103BF000B0902501BB0CBB0CD4E0DB0DDC3508F02C
:103C0000DBE580912B01813009F473C081E0DB3565
:103C100008F481CE05CFCE3009F01DCFD09125011B
:103C2000DD0FDD0F14E01D0F1C3508F01BE52091A2
:103C3000950531E0230F08F42FEF30E040E050E02D
:103C40006FEF7FEF80E090E00E94BD32790101E0EC
:103C5000D11708F0D7CECD2ED12CF601E251FC4F72
:103C60009081809126018923A1F19091970591502F
:103C700097FD15C0492F092E000C550BFA01E95686
:103C8000FA4F8189D813F3CF440F551FFA01E95633
:103C9000FA4F218D328D2E153F0548F701C097014F
:103CA00060919505600F08F46FEFC9010E94BE1B7B
:103CB000AC016091920570919305809194050E94EA
:103CC000D01A0E94C81B462F282F672FC6010E94BA
:103CD0004E1BDF5FBDCFC23109F023CF8091970526
:103CE00021E0382F321B08F430E0832F69EB79E1B3
:103CF0002ECF68EC8091C8089091C9080E94BE1B25
:103D00007C01A090940581E09EEFE91691E0F90610
:103D100008F080E08093CA08912CBD1608F092C08C
:103D20000B2D10E0F801E251FC4F908180912601AB
:103D3000892309F485C08091CA086801CC0CDD1C78
:103D4000882309F43CC0F601E85CFC4F408150E058
:103D500044555109F601E75CFC4F208130E02851C1
:103D60003109449FB001459F700D700D1124229FB1
:103D7000C001239F900D900D1124860F971F0E9464
:103D80008D1B23E0829FC001112496958795A70182
:103D9000481B590B57FD07C04F3F510531F02CF020
:103DA0004FEF50E002C040E050E0292D240F08F40E
:103DB0002FEF30919405239F212D1124A22EF6017F
:103DC000E00FF11FE45DFE4FD0808180C2806A2D3C
:103DD00070E080E090E00E94C13320E030E04FE7E7
:103DE00053E40E9420332B013C016C2D70E080E0F5
:103DF00090E00E94C333A30192010E944F340E94BD
:103E00009233C62E6D2D70E080E090E00E94C333A7
:103E1000A30192010E944F340E949233D62E682D46
:103E200070E080E090E00E94C333A30192010E9401
:103E30004F340E9492332C2D4D2DC8010E944E1BF1
:103E4000B3946BCF8091CA08882309F4DFCE8091A8
:103E5000C8089091C90801969093C9088093C80832
:103E6000D5CECF3F09F0F7CD80918D0590918E058D
:103E7000A0918F05B091900588279C70AA27BB2739
:103E80002AE0B695A795979587952A95D1F7823020
:103E90009105A105B10571F083309105A105B1052A
:103EA00069F040E00197A105B10511F060E008C09C
:103EB00064E102C044E160E080E003C044E164E109
:103EC00084E10E944B1B82E037CDCDB7DEB7E0E145
:103ED0000C94ED310E94002820915B05211104C053
:103EE00020915C05222321F090935805809357057B
:103EF00020915D05211104C020915E05222321F04F
:103F00009093560580935505E091C605F091C7053D
:103F1000309749F082E0809359050480F581E02DC7
:103F200089E595E0099508958091C005982F9670D0
:103F3000963011F4886001C0877F0E94922E089508
:103F4000A7E0B0E0E6EAFFE10C94CF31282E4B0168
:103F500020912501220F220F2E83122F1C5F1C356A
:103F600008F01BE5309197053983AE81A11708F061
:103F70007CC08E81682E712CF301E251FC4F908140
:103F800080912601892309F46CC0309092054090FD
:103F90009305522C1F82C301880F991FDC01A85C76
:103FA000BC4FBB83AA83C301880F991FFC01E75C48
:103FB000FC4FFD83EC83F9815F1608F040C0E52CCF
:103FC000F12CAA81BB81CC90D12CF701E956FA4F94
:103FD0008181C81AD108AC81BD81AC90B12C81859A
:103FE000A81AB108CC9C9001CD9C300D300D112445
:103FF000AA9CC001AB9C900D900D1124820F931FC1
:104000000E948D1B082F6091950521E0620F08F436
:104010006FEFF701EE0FFF1FE956FA4F818D928D7A
:104020000E94BE1B7C019501A601632D742D8F811A
:10403000F4010995362E472E8F835394BCCF2091DF
:1040400094058F81382F329F312D1124832F632DBA
:10405000742D0E94C81B462F282F672FC3010E9472
:104060004E1B8E818F5F8E8380CF81E01B3508F0E1
:1040700080E02796E2E10C94EB31A0E0B0E0E3E4CD
:10408000F0E20C94D6316C01C0912501CC0FCC0F1D
:10409000D4E0DC0FDC3508F0DBE560919505669532
:1040A000669580918D0590918E050E94BE1B182FFC
:1040B00080E4810F0E946C1B90E8F92EF80E812F8E
:1040C0000E946C1B20E8922E980ECD1700F5AC2EA6
:1040D000B12CF501E251FC4F90818091260189239A
:1040E000A1F0609192057091930580919405E12E65
:1040F0000C2F292D4F2DF60109950E94C81B462F24
:10410000282F672FC5010E944E1BCF5FDECF81E0B5
:10411000DB3508F080E0CDB7DEB7EBE00C94F23190
:104120006F927F928F929F92AF92BF92CF92DF92C7
:10413000EF920F931F93CF93DF933C01C091250122
:10414000CC0FCC0FD4E0DC0FDC3508F0DBE5609160
:104150009505669580918D0590918E050E94BE1BF8
:10416000182FCD1708F044C08C2E912CF401E25189
:10417000FC4F9081809126018923C1F1F401EE0F5B
:10418000FF1FE85CFC4FC080D12C84E5C81AD10821
:10419000F401EE0FFF1FE75CFC4FA080B12CE8E1BB
:1041A000AE1AB108CC9C9001CD9C300D300D11247D
:1041B000AA9CC001AB9C900D900D1124820F931FFF
:1041C0000E948D1B082F609192057091930580913C
:1041D0009405E12E9501A601F30109950E94C81BE3
:1041E000462F282F672FC4010E944E1BCF5FB9CFE7
:1041F00081E0DB3508F080E0DF91CF911F910F91D6
:10420000EF90DF90CF90BF90AF909F908F907F9076
:104210006F900895A0E0B0E0E0E1F1E20C94DA31B3
:104220008C01C0912501CC0FCC0FD4E0DC0FDC3524
:1042300008F0DBE5609195056695669521E0620FD3
:1042400008F46FEF80918D0590918E050E94BE1B42
:10425000D82ECD17F0F4EC2EF12CF701E251FC4FE3
:10426000908180912601892391F06091920570914F
:104270009305809194052D2D4C2FF80109950E94EE
:10428000C81B462F282F672FC7010E944E1BCF5FE8
:10429000E0CF81E0DB3508F080E0CDB7DEB7E7E0C6
:1042A0000C94F631EF92FF920F931F93CF93DF930D
:1042B0007C018B010E948425811119C0E701011541
:1042C0001105A1F08091E80085FD0AC08091E80009
:1042D0008E778093E8000E948425882381F307C0AD
:1042E00089918093F10001501109E9CF80E0CDB7A9
:1042F000DEB7E6E00C94F731EF92FF920F931F9335
:10430000CF93DF937C018B010E948425811119C01A
:10431000E70101151105A1F08091E80085FD0AC0B3
:104320008091E8008B778093E8000E9484258823A1
:1043300081F307C08091F100899301501109E9CF01
:1043400080E0CDB7DEB7E6E00C94F731E1E1F1E0D3
:104350008083618324E630E042E050E0BF0180E6E4
:104360000E949A310895AAE2B0E0E9EBF1E20C94E0
:10437000DE31E5E8F5E08091F100819345E0ED382C
:10438000F407C9F780918605833009F463C030F4DF
:10439000813071F0823009F49DC0B4C08A3009F4D4
:1043A00089C08B3009F46EC0893009F0ABC020C0E1
:1043B00080918505813A09F0A5C08091E800877F4A
:1043C0008093E8008091890590918A05892B21F4DA
:1043D00060E281E695E003C060E080E090E070E09C
:1043E0000E943D278091E8008B778093E8008AC087
:1043F00080918505813209F085C080918905909171
:104400008A05009719F0039709F07CC08091E800B5
:10441000877F8093E8008091E80082FD05C080914D
:1044200083058111F8CF6EC02091F3008091F200D6
:1044300090E0922B029731F48091F100813011F0DD
:10444000863021F48091F100809360058091E8002E
:104450008B7754C080918505813A09F053C08091D3
:10446000890590918A05892B09F04CC08091E8005C
:10447000877F8093E8008091E80080FFFCCF8091E7
:10448000100137C0809185058132E1F58091890561
:1044900090918A05892BB1F58091E800877F809300
:1044A000E8000E94B72580918705809310010E9443
:1044B000EC2E28C080918505813221F58091E8009D
:1044C000877F8093E8000E94B725809188058093BC
:1044D0005F0518C080918505813AA1F48091E800BC
:1044E000877F8093E8008091E80080FFFCCF809177
:1044F0005F058093F1008091E8008E778093E8005B
:104500000E94B7258091E80083FFEAC1809185056C
:1045100090918605492F50E04A30510508F0E0C1DE
:10452000FA01EC57FF4F0C94D034803821F08238D8
:1045300009F0D6C108C08091810590918205992328
:1045400089F082600FC0809189058F70873008F0F4
:10455000C7C18093E9008091EB0085FB882780F933
:104560001092E9009091E800977F9093E800809383
:10457000F1001092F10071C1282F2D7F09F0B0C118
:10458000882319F0823061F0ABC1809187058130BA
:1045900009F0A6C1933009F080E0809382052EC017
:1045A0008091870581112AC0809189058F702FEF36
:1045B000280F263008F094C18093E9002091EB0089
:1045C00020FF1CC0933021F48091EB00806214C066
:1045D0009091EB0090619093EB0021E030E0A90115
:1045E00002C0440F551F8A95E2F74093EA001092EB
:1045F000EA008091EB0088608093EB001092E90064
:104600008091E800877F8093E8000E94B72568C109
:10461000811166C1109187051F778091E300807832
:10462000812B8093E3008091E800877F8093E800EE
:104630000E94B7258091E80080FFFCCF8091E300C5
:1046400080688093E300111102C082E001C083E022
:104650008093830545C18058823008F041C1209184
:104660008705309188052C3D53E0350779F583E0C7
:104670008A838AE289834FB7F894DE01139620E09B
:104680003EE051E2E32FF0E050935700E49120FF29
:1046900003C0E295EF703F5FEF708E2F90E0EA303D
:1046A00010F0C79601C0C0968D939D932F5F243163
:1046B00049F74FBF8091E800877F8093E8006AE266
:1046C00070E0CE0101960E943D27B5C0809189051A
:1046D00090918A05432F552743305105A9F068F47E
:1046E0004130510509F40BC14230510509F0F8C0C1
:1046F0008BE790E0E6E0F4E04BC04132510529F150
:104700004232510589F1ECC0C901992781309105E8
:10471000A1F058F0029709F0E3C0E3E9F4E0E49176
:104720008E2F90E0E3E9F4E030C0E3ECF4E0E491B4
:104730008E2F90E0E3ECF4E028C0E1EBF4E0E491AC
:104740008E2F90E0E1EBF4E020C08430910508F07A
:10475000C7C0880F991FFC01EA52FD4F0190F081FC
:10476000E02D89E090E014C08430910508F0B8C0D5
:10477000FC01EE0FFF1FE253FD4F0190F081E02D91
:10478000DC01A653BD4F8C9190E0009709F4A8C0BE
:104790002091E800277F2093E80020918B0530913D
:1047A0008C058217930708F49C0140E02115310520
:1047B00089F180918305882309F43DC08530D9F1C2
:1047C0008091E80083FD37C08091E80082FD2FC012
:1047D0008091E80080FFEACF4091F3008091F200E1
:1047E00090E0942B2115310559F08830910540F463
:1047F00044914093F1003196215031090196F2CF56
:1048000041E0089709F040E08091E8008E778093BE
:10481000E800CCCF4111CDCF0AC080918305882319
:1048200051F0853041F08091E80083FD04C0809113
:10483000E80082FFF2CF8091E8008B778093E80058
:104840004FC0803809F04CC08091E800877F80938A
:10485000E800809184058093F1008091E8008E77D4
:10486000D2CE81113DC0809187059091880599270E
:104870000297B4F58091E800877F8093E80010915B
:104880008705109384050E94B725111106C08091F9
:10489000E30087FD02C081E001C084E080938305CE
:1048A00042E061EC81E00E94D62542E261EC86E0C4
:1048B0000E94D62542E261EC82E00E94D62542E2C7
:1048C00060EC83E00E94D62542E361EC84E00E9424
:1048D000D62542E360EC85E00E94D62580918305D1
:1048E0008091E80083FF10C08091E800877F80936B
:1048F000E8008091EB0080628093EB0005C082E1CC
:1049000090E0E1E8F4E044CFAA96E3E00C94FA31B9
:1049100008958091600508958093D1057093D30523
:104920006093D20580918305843001F586E0809301
:10493000E9008FEF9091E800815095FD06C095ED5C
:104940009A95F1F700008111F5CF8091E80085FF7D
:104950000DC040E050E063E070E081ED95E00E9422
:1049600052218091E8008E778093E8000895BC0181
:1049700084E00E948C240895BC0183E00E948C2472
:10498000089526E02093E9002FEF3091E8002150B0
:1049900035FD06C035ED3A95F1F700002111F5CF50
:1049A0002091E80025FF0BC040E050E066E070E099
:1049B0000E9452218091E8008E778093E80008954C
:1049C000CF93DF9320911001222339F02091CF055E
:1049D00027FF03C060E226E002C068E021E02093E8
:1049E000E9002FEF3091E800215035FD06C035ED8C
:1049F0003A95F1F700002111F5CF2091E80025FF4D
:104A00001DC0EC0180911001811105C040E050E013
:104A100068E070E003C070E040E050E0CE010E942A
:104A200052218091E8008E778093E80080E2FE01B9
:104A3000A1E6B5E001900D928A95E1F7DF91CF9163
:104A400008951F920F920FB60F9211242F933F9348
:104A50004F935F936F937F938F939F93AF93BF9386
:104A6000CF93DF93EF93FF93C091E900CF708091D4
:104A7000EC00D82FD17080FDD0E81092E900809131
:104A8000F000877F8093F00078940E94B321109209
:104A9000E9008091F00088608093F000CD2BCF700A
:104AA000C093E900FF91EF91DF91CF91BF91AF915A
:104AB0009F918F917F916F915F914F913F912F9136
:104AC0000F900FBE0F901F901895E8EDF0E08081D9
:104AD0008E7F80831092E2001092DA001092E10043
:104AE000A0EEB0E08C9181608C9380818F77808381
:104AF00019BCA7EDB0E08C918E7F8C9380818F7E66
:104B000080831092D40508952091E4003091E5004F
:104B100095E64091EC00842F817040FF23C0809186
:104B2000E80080FD1DC080918305882399F08530C1
:104B300099F08091EB0085FD11C04091E400509107
:104B4000E5002417350729F3915011F09A01E1CFC0
:104B500084E0089582E0089583E0089581E0089557
:104B600080E008954091E80042FFDDCF08958091F4
:104B7000850587FF11C08091E80082FD05C0809106
:104B800083058111F8CF11C08091E8008B770BC0AD
:104B900080918305882349F08091E80080FFF8CF59
:104BA0008091E8008E778093E8000895982F9730E1
:104BB00068F59093E900981739F07091EC00209116
:104BC000ED005091F00003C0242F762F50E021FD1E
:104BD00002C09F5FECCF3091EB003E7F3093EB0043
:104BE0003091ED003D7F3093ED003091EB0031606E
:104BF0003093EB007093EC002093ED005093F000A5
:104C00002091EE0027FDE5CF80E008958F7080931E
:104C1000E90081E00895A0E0B0E0E1E1F6E20C9463
:104C2000D931C8EDD0E088818F7E8883E7EDF0E050
:104C300080818160808384E082BF81E08093D4059D
:104C400088818E7F888302EE10E0F8011082109236
:104C5000DA0081EEC82ED12CF601108288818F7780
:104C6000888388818068888388818F7D888319BC48
:104C7000109283051092840510928205109281058E
:104C800090EEE92EF12CF70180818B7F8083888163
:104C90008160888342E060E080E00E94D625F601D2
:104CA00080818E7F8083F801808181608083808114
:104CB00088608083F70180818E7F80838881806116
:104CC0008883CDB7DEB7E8E00C94F5311F920F92E0
:104CD0000FB60F9211242F933F934F935F936F93CF
:104CE0007F938F939F93AF93BF93EF93FF938091A5
:104CF000E10082FF09C08091E20082FF05C080913F
:104D0000E1008B7F8093E1008091DA0080FF2AC070
:104D10008091D80080FF26C08091DA008E7F80933A
:104D2000DA008091D90080FF18C080E189BD82E15E
:104D300089BD09B400FEFDCF81E080938305809199
:104D4000D40581110FC00E9465250E940B26809119
:104D5000E20084608093E20005C019BC10928305D4
:104D60001092D4058091E10080FF17C08091E2008D
:104D700080FF13C08091E2008E7F8093E2008091DB
:104D8000E20080618093E2008091D800806280938D
:104D9000D80019BC85E0809383058091E10084FFF1
:104DA00030C08091E20084FF2CC080E189BD82E1A7
:104DB00089BD09B400FEFDCF8091D8008F7D80931E
:104DC000D8008091E1008F7E8093E1008091E20025
:104DD0008F7E8093E2008091E20081608093E20008
:104DE00080918405882311F084E007C08091E3005E
:104DF00087FD02C081E001C083E08093830580913C
:104E000083058091E10083FF27C08091E20083FF4A
:104E100023C08091E100877F8093E10082E080934E
:104E20008305109284058091E1008E7F8093E100DC
:104E30008091E2008E7F8093E2008091E2008061A9
:104E40008093E20042E060E080E00E94D6258091FD
:104E5000F00088608093F000FF91EF91BF91AF91D7
:104E60009F918F917F916F915F914F913F912F9182
:104E70000F900FBE0F901F90189520918B053091C9
:104E80008C052617370748F06115710539F4209114
:104E9000E8002E772093E80001C0B901FC0120E072
:104EA0006115710579F1809183058823F1F18530D1
:104EB000F1F18091E80083FD3CC08091E80082FD23
:104EC0002EC08091E80080FFEBCF2091F30080910D
:104ED000F20090E0922B6115710551F08830910538
:104EE00038F421912093F100615071090196F3CFBC
:104EF00021E0089709F020E08091E8008E77809308
:104F0000E800CECF2111CFCF0AC08091830588233E
:104F100061F0853061F08091E80083FD0AC08091E6
:104F2000E80082FFF2CF80E0089582E0089583E0F8
:104F3000089581E0089581E08093E00080E280930D
:104F4000D8001092C9008FE19EE40197F1F700C0EC
:104F5000000087E090EBDC018093F2089093F30867
:104F6000A093F408B093F5089CE088E10FB6F8949C
:104F7000A895809360000FBE90936000FFCF789457
:104F80001F920F920FB60F9211248F939F93AF939E
:104F9000BF938091CB059091CC05A091CD05B091A8
:104FA000CE050196A11DB11D8093CB059093CC0534
:104FB000A093CD05B093CE05BF91AF919F918F91F6
:104FC0000F900FBE0F901F9018959C014FB7F8944B
:104FD0008091CB059091CC05A091CD05B091CE05E7
:104FE0004FBF821B930B08952FB7F8946091CB05A8
:104FF0007091CC058091CD059091CE052FBF08957D
:105000002FB7F8948091CB059091CC05A091CD0558
:10501000B091CE052FBF08951F920F920FB60F9239
:1050200011248F939F93AF93BF938091CA058111F1
:1050300013C08091CB059091CC05A091CD05B09186
:10504000CE054196A11DB11D8093CB059093CC0553
:10505000A093CD05B093CE05BF91AF919F918F9155
:105060000F900FBE0F901F901895209110012223D2
:10507000C9F02091CF0527FF15C0262F269526952C
:1050800026952E31C8F4FC01E20FF11D677081E016
:1050900090E001C0880F6A95EAF780959281892394
:1050A00082830895FC0106962281621301C0128258
:1050B0003196E817F907C1F70895209110012223CE
:1050C000C1F02091CF0527FF14C0262F26952695E5
:1050D00026952E3130F5FC01E20FF11D677081E05D
:1050E00090E001C0880F6A95EAF79281892B82834C
:1050F0000895FC0132962FEF30E04191641789F05A
:105100002F3F19F4411101C0232F3F5F3630A9F71B
:105110002F3F39F0FC01E20FF11D27FDFA95628364
:10512000089508952091C8053091C90528173907B9
:1051300071F09093C9058093C805E091C605F09180
:10514000C705309721F00084F185E02D0995089579
:105150002091C4053091C5052817390771F0909347
:10516000C5058093C405E091C605F091C705309749
:1051700021F00680F781E02D09950895E091C6059C
:10518000F091C705309729F00190F081E02D099545
:10519000089580E008950F931F93CF93DF93C42F5A
:1051A000D22FFC0182818823B1F04093C3050E9475
:1051B00000289093C2058093C10580E28C0F88304F
:1051C00008F04DC0C77081E001C0880FCA95EAF7AA
:1051D0000E94092F44C08091C305481330C08091BC
:1051E000C1059091C2050E94E527883C910538F5DC
:1051F00010E21D0FCD17B9F080E28C0F883040F41B
:10520000C77081E001C0880FCA95EAF70E94022F9B
:10521000183010F581E09D2F977001C0880F9A9586
:10522000EAF70E94092F802F0E94BF2F1830B8F490
:10523000D77081E001C0880FDA95EAF70AC080E2F2
:105240008C0F883060F4C77081E001C0880FCA9568
:10525000EAF70E94022F03C0802F0E94BF2FDF9128
:10526000CF911F910F910895CF93DF93C7EFD2E0B5
:1052700060E0CE010E9499322196C11584E0D807E2
:10528000B9F7DF91CF910895A0E0B0E0EAE4F9E248
:105290000C94D731A12CE12CF12CB12C00E010E0C2
:1052A000C0E0D0E06701C00ED11EFE01EE0FFF1F6F
:1052B000EC0DFD1DE953FB4F259134914C2F6B2DC7
:1052C0008A2D0E942D2B2196CF30D10571F7025ED9
:1052D0001F4FB39486E0B812E3CF84EBE80EF11CC5
:1052E000A39484E0A812D9CFCDB7DEB7EAE00C943E
:1052F000F331E1E9F5E0248130E1231B08F420E0FB
:105300002483809107068160809307060895E1E970
:10531000F5E0248130E1230F08F42FEF24838091FE
:1053200007068160809307060895A4E0B0E0EBE9EA
:10533000F9E20C94DC318B35910508F05BC0122F3B
:10534000042FF62EBC01660F771F660F771F695674
:10535000784F44E050E0CE0101960E9462322981EC
:10536000822F837090E0269526957A81372F32958B
:10537000330F330F307CE32FE22B272F2695269512
:10538000F22FF3702FE531E0829FA001839F500D33
:10539000929F500D11249A012759384FE20FF31FA5
:1053A000F08272957F706B81E62FE295E07F4E2F41
:1053B000472B762F72957F70572F5370F901E40FAA
:1053C000F51F008362956695669563707C81E72F73
:1053D000EE0FEE0F4E2F462B572F529556955695A2
:1053E0005370F901E40FF51F1083FC01E859F84FE1
:1053F00021E020832496E5E00C94F831FF920F938E
:105400001F93CF93DF93182F062FF42EC0E0D0E028
:105410002F2D402F612FCE010E9495292196CB354B
:10542000D105B1F7CDB7DEB7E5E00C94F8310F93B5
:105430001F93CF93DF9380916807882309F44DC0B1
:1054400065EC8EEF0E94A62160E08DEF0E94A62100
:10545000C0E0D0E004EB10E0CE01B8010E94BC3403
:105460008093110182E1FE01E759F84FA2E1B1E01A
:1054700001900D928A95E1F724E630E043E150E097
:1054800061E171E080E60E949A31892B31F56296E4
:10549000C63581E0D80761F0C43BD105E9F665EC7B
:1054A0008EEF0E94A62161E08DEF0E94A621D4CF4D
:1054B00082EA8093110189E0EFEBF8E0A2E1B1E02C
:1054C00001900D928A95E1F724E630E04AE050E041
:1054D00061E171E080E60E949A3110926807DF91E5
:1054E000CF911F910F910895A4E0B0E0EAE7FAE2AE
:1054F0000C94D9310E94F23065EC8EEF0E94A62107
:1055000064E08DEF0E94A62161E080E00E94A62168
:105510006FEF81E00E94A62167E782E00E94A6214A
:105520008FE39CE90197F1F700C0000007E917E05D
:105530002FE5E22EFF24F394DD24DA94CC24C394E7
:1055400044E050E0B801CE0101960E946232298108
:10555000822F837090E0269526956A81362F3295AA
:10556000330F330F307CE32FE22B262F2695269521
:10557000F22FF3708E9D90018F9D300D9E9D300D0A
:105580001124A901485F594FE40FF51FD082762FEF
:1055900072957F706B81E62FE295E07F2E2F272B8F
:1055A000762F72957F70372F3370FA01E20FF31F59
:1055B000D08262956695669563707C81E72FEE0FC9
:1055C000EE0F2E2F262B372F3295369536953370CA
:1055D000FA01E20FF31FD082FC01E959F84FC082B3
:1055E0000C5F1F4F99E00330190709F0A9CF809194
:1055F0006707882371F165EC8EEF0E94A62162E0B7
:105600008DEF0E94A62198E0E92E96E0F92E10E099
:10561000F70161917F01812F0E94A6211F5F143B3A
:10562000B9F765EC8EEF0E94A62163E08DEF0E9432
:10563000A6218CEBE82E86E0F82E10E0F7016191B0
:105640007F01812F0E94A6211F5F1B3AB9F710929C
:1056500067072496E8E00C94F5311F93CF93DF930E
:10566000962F8430E8F46630D8F44F30C8F4632FB6
:10567000122FC42FD0E0CC0FDD1F2EE1929FC00D62
:10568000D11D112494EB899FC00DD11D1124CE0191
:1056900087960E949932612FCE0188960E94993296
:1056A000DF91CF911F9108950F931F93CF93DF93B5
:1056B000843008F56630F8F44F30E8F4C42FD0E0B9
:1056C000CC0FDD1F2EE1629FC00DD11D112434EBE4
:1056D000839FC00DD11D1124CE0187960E947B327D
:1056E00090E0182F0027CE0188960E947B32980107
:1056F000282BC90102C080E090E0DF91CF911F917B
:105700000F91089586E290E00E9499320895CF9318
:10571000C82F811102C06FEF01C063E283E290E005
:105720000E949932C11102C06FEF01C061E084E2B2
:1057300090E00E949932C11102C06FEF01C069E090
:1057400085E290E00E949932CF91089580E00E9416
:10575000872B60E070E0CB010E94822B0E944429DD
:105760000E94342981E00E94872B089583E290E013
:105770000E947B32833281F484E290E00E947B328B
:10578000813051F485E290E00E947B3291E08930D3
:1057900009F090E0892F01C080E081700895809128
:1057A000CA08811104C01092C9081092C80840E0CC
:1057B00060E080E00E944B1B0895A0E0B0E0E3EEC3
:1057C000FBE20C94D8313091910536953695333102
:1057D00009F04EC030912B01313061F4FC01EE0F25
:1057E000FF1F8E0F9F1FFC01E45DFE4F618340830E
:1057F00022833EC0B22E042F162FEC016091940537
:1058000070E080E090E00E94C13320E030E04FE79C
:1058100053E40E9420336B017C016B2D70E080E02B
:1058200090E00E94C333A70196010E944F340E946A
:105830009233B62E602F70E080E090E00E94C33378
:10584000A70196010E944F340E949233062F612FC8
:1058500070E080E090E00E94C333A70196010E94AF
:105860004F340E9492332B2D402FCE010E944E1BAD
:10587000CDB7DEB7E9E00C94F431882311F0FA01DA
:1058800001C0FB01099508951F93CF93DF93FC019D
:10589000E251FC4F20816223B9F0EC010E945232A8
:1058A000182F0E9452328F77782F20E8720F08F459
:1058B0007FEF612F809194050E94C81B462F282FEF
:1058C000672FCE010E944E1BDF91CF911F9108954B
:1058D00090919105937059F0809392056093930590
:1058E0004093940580910706282B2093070608957E
:1058F000E1E9F5E0438120E1421B08F440E08181C9
:1059000021E0628190E00E94682C0895E1E9F5E0D1
:10591000438120E1420F08F44FEF818121E0628151
:1059200090E00E94682C0895E1E9F5E0628120E1B1
:10593000621B08F460E0818121E0438190E00E94D5
:10594000682C0895E1E9F5E0628120E1620F08F436
:105950006FEF818121E0438190E00E94682C0895DF
:10596000E1E9F5E0818190E021E0438162810897DF
:105970000E94682C0895E1E9F5E0818190E021E042
:105980004381628108960E94682C08959091910548
:105990009370A1F0811102C0946007C0843110F0AF
:1059A0009C6403C0880F880F982B909391051092E8
:1059B0002A0180910706682B60930706089580915D
:1059C000910586958695815009F483E161E00E94F6
:1059D000C62C089580919105869586958F5F8431B8
:1059E00008F081E061E00E94C62C0895A0E0B0E0DC
:1059F000ECEFFCE20C94D1318091FE059091FF0513
:105A0000A0910006B09101062FB7F894C090CB0585
:105A1000D090CC05E090CD05F090CE052FBFC81AF0
:105A2000D90AEA0AFB0A0E94F4274B015C01609341
:105A3000FE057093FF058093000690930106409148
:105A400002065091030660910406709105064C0D04
:105A50005D1D6E1D7F1D40930206509303066093EB
:105A6000040670930506A091D505E5EDF5E08A2FB3
:105A700090E044244A94542C612C712C4C185D08FD
:105A80006E087F08A917A1F0C18DD28D8E0120E08C
:105A900030E0401651066206730610F4815005C0CE
:105AA0009E012C0D3D1D328F218F9F5F3296EACFD4
:105AB0008093D50580910606811108C081E0413AA6
:105AC0005B4B6D40710518F480E001C081E080FD02
:105AD00008C080919105982F937019F0869586954E
