:100000000C9442040C947A040C947A040C947A04B0
:100010000C947A040C947A040C947A040C947A0468
:100020000C947A040C947A040C9403180C94A41C79
:100030000C949C270C947A040C947A040C947A0403
:100040000C947A040C947A040C947A040C947A0438
:100050000C947A040C94DC180C947A040C947A04B2
:100060000C947A040C947A040C947A040C947A0418
:100070000C947A040C947A040C947A040C947A0408
:100080000C947A040C947A040C947A040C947A04F8
:100090000C947A040C947A040C947A040C947A04E8
:1000A0000C947A040C947A040C947A0405010902E5
:1000B000A10185020901A1000509190129081500FE
:1000C0002501950875018102050109300931158165
:1000D000257F95027508810609381581257F9501D0
:1000E00075088106050C0A38021581257F95017572
:1000F000088106C0C005010980A101850319012AF4
:10010000B700150126B700950175108100C0050CD8
:100110000901A101850419012AA002150126A002E6
:10012000950175108100C005010906A1018506052C
:100130000719E029E71500250195087501810205D9
:1001400007190029EF1500250195F07501810205B9
:10015000081901290595057501910295017503910D
:1001600001C00659FF0960A1010962150026FF00C0
:100170009540750881020963150026FF00954075BA
:10018000089102C00660FF0961A1010962150026FD
:10019000FF009520750881020963150026FF009570
:1001A0002075089102C005010906A101050719E0A3
:1001B00029E715002501950875018102950175084B
:1001C00081010507190029FF150026FF0095067516
:1001D0000881000508190129059505750191029509
:1001E0000175039101C00000000000000000000044
:1001F00000000000000000000000000000000000FF
:10020000000000000000000000007E0F00D4FFFF8F
:10021000FFC70000007800000000000000002A2B4B
:1002200028000000000000000000000000000000A6
:100230000029000000002C1E34202122243426270F
:10024000252E362D3738271E1F2021222324252630
:100250003333362E37381F0405060708090A0B0CFE
:100260000D0E0F101112131415161718191A1B1C46
:100270001D2F3130232D350405060708090A0B0C04
:100280000D0E0F101112131415161718191A1B1C26
:100290001D2F3130354C0001010101010101010127
:1002A0000202020202020202020303030303030327
:1002B00003040404040404040505050505060606F4
:1002C0000606070707070708080808090909090AB1
:1002D0000A0A0B0B0B0C0C0C0D0D0D0E0E0E0F0F56
:1002E0000F101011111112121313141415151616E4
:1002F0001717181819191A1A1B1B1C1D1D1E1E1F53
:100300002020212222232424252626272829292AA1
:100310002B2C2D2D2E2F30313232333435363738C9
:10032000393A3B3C3D3E3F404142434445464748C5
:10033000494A4C4D4E4F50515354555658595A5B9B
:100340005D5E5F616264656668696B6C6D6F70723B
:10035000737577787A7B7D7E8082838587888A8CA7
:100360008E8F91939596989A9C9EA0A2A3A5A7A9DB
:10037000ABADAFB1B3B5B7BABCBEC0C2C4C6C9CBD2
:10038000CDCFD1D4D6D8DBDDDFE2E4E7E9EBEEF088
:10039000F3F5F8FAFDFF2070800198500209103142
:1003A00084108811061800F2871F78D20927F0B24E
:1003B0008B2E68930D36E0738F3D68900106E070D8
:1003C000830D58510515D031871C48120924C0F2FD
:1003D0008A2B2CA04002A480C2091C6144119441C4
:1003E000C6180C2248208402CA27FCE24B2F74C393
:1003F000CD36ECA34F3E38D30C33B0B38E3A2894AD
:10040000104274C0C106ECA0430E6481C515DC61C6
:10041000471D5442C92438D00003B0B0820A289145
:100420000412A07186191852082190328A280813E4
:100430000C3080F38D37F8D30F3FCC224B2C440384
:10044000CD33BCE34E3B34C4D04240F4904364848B
:10045000D1454400C103BCE0420B34C1C412ACA17D
:10046000461A2482C8219C624A291443CC308C232A
:100470004E380404D03F88141248ACA4524AD034F9
:10048000934CF4C4D34E185514513CE5545350309A
:100490008104C810030C40F18413B8D1061B30B29C
:1004A0008822A8920A2A20738C3198530E3910346E
:1004B0009040607595554C24514470B491469444D5
:1004C000D248B8D4124BDC64534D00F5934F2485C9
:1004D000D4515C604105D440C30C4C214514C40187
:1004E000C71B3CE24823B4C2CA2A2CA34C32A483C3
:1004F000CE391C645041481515546CA555565854B6
:10050000114529003A003B003C003D003E003F0001
:1005100040004100420043004400450046004700BF
:1005200035001E001F0020002100220023002400AF
:100530002500260027002D002E002A0049002B0050
:1005400014001A000800150017001C0018000C0009
:10055000120013002F00300031004C00390004005D
:100560001600070009000A000B000D000E000F0026
:1005700033003400280000000000E1001D001B00D3
:100580000600190005001100100036003700380081
:10059000E500000052000000E000E300E20000007F
:1005A00000002C00000000000000E6000151E40003
:1005B000500051004F000100010001000100010046
:1005C0000100010001000100010001000100010023
:1005D0000100C25C010001000100010001000100F6
:1005E000010001000100010001004C0001004D006C
:1005F0000100010001000100C55CC65CC75CC85C6D
:10060000C95CCA5CC35C0100010001004900010033
:1006100001000100010001000100010001000100D2
:1006200001000100010001000100000000000100C4
:1006300001000100010001000100145C0100010043
:100640000100010001000000A900000001000100FC
:100650000100000000000100000000000000010097
:1006600001000100AC00AA00AB0001000100010084
:100670000100010001000100010001000100010072
:100680000100010001000100010001000100010062
:100690000100010001000100010001000100010052
:1006A0000100010001000100010001000100010042
:1006B0000100010001000100010001000100010032
:1006C0000100010001000100010001000100010022
:1006D0000100010001000100010001000100000013
:1006E0000000010001000100010001000100010003
:1006F00001000100010001000100000001000000F4
:1007000001000100010000000000010000000000E5
:1007100000000100010001000100010001000100D2
:1007200001000100010001000100010001000100C1
:1007300001000100010001000100010001000100B1
:1007400001000100010001000100010001000100A1
:100750000100010001000100010001000100010091
:100760000100010001000100010001000100010081
:100770000100010001000100010001000100010071
:100780000100010001000100010001000100010061
:100790000100000000000100010001000100010053
:1007A0000100010001000100010001000100000042
:1007B0000100000001000100010000000000010034
:1007C0000000000000000100010001000100010024
:1007D000010009027B00040100A0FA0904000001E5
:1007E00003010100092111010001224000070581D8
:1007F000030800010904010002030000000921119F
:1008000001000122220007058203200001070503E1
:100810000320000109040200020300000009211165
:10082000010001222200070584034000010705059D
:100830000340000109040300010300000009211125
:1008400001000122B6000705860320000112010005
:100850000200000008EDED81000100010200010C22
:100860000374006500670069006300000010034D19
:100870000065006C004700650065006B0000000427
:100880000309040011241FBECFEFDAE0DEBFCDBFA5
:1008900004B603FE18C08091EE089091EF08A09175
:1008A000F008B091F1088730904BA740B04B59F455
:1008B0001092EE081092EF081092F0081092F108D2
:1008C000E0E0F8E3099528E0A8E3B3E001C01D9259
:1008D000AE3EB207E1F713E0A0E0B1E0EEEAF7E6E2
:1008E00002C005900D92A833B107D9F70E94C32723
:1008F0000C9487330C940000E8EDF0E080818E7F4B
:1009000080831092E2001092DA001092E100A0EED3
:10091000B0E08C9181608C9380818F77808319BC4B
:10092000A7EDB0E08C918E7F8C9380818F7E808349
:100930001092880808952091E4003091E50095E632
:10094000A9012091EC00822F817020FF06C08091C8
:10095000E80080FF06C080E008952091E80022FDB5
:100960001AC08091AD08882389F0853089F0809184
:10097000EB0085FD0FC02091E4003091E5004217A7
:100980005307F9F29150E1F684E0089582E008956A
:1009900083E0089581E00895EF92FF920F931F93F3
:1009A000CF937C018B010E949B04C82F811117C03B
:1009B0008091E80085FD0BC08091E8008E778093E0
:1009C000E8000E949B04882399F3C82F08C0F70110
:1009D00081917F018093F1000150110949F78C2F1B
:1009E000CF911F910F91FF90EF900895EF92FF929A
:1009F0000F931F93CF937C018B010E949B04C82F00
:100A0000811117C08091E80085FD0BC08091E8003E
:100A10008B778093E8000E949B04882399F3C82F6A
:100A200008C08091F100F70181937F010150110905
:100A300049F78C2FCF911F910F91FF90EF90089560
:100A40008091AF0887FF13C08091E80082FF06C045
:100A50008091E8008B778093E80004C08091AD0816
:100A60008111F2CF08958091AD088823D9F3809148
:100A7000E80080FFF8CF8091E8008E77ECCF982FC8
:100A80009093E900242F762F50E0891731F0709170
:100A9000EC002091ED005091F00021FD07C09F5F18
:100AA000973071F78093E90081E008953091EB0071
:100AB0003E7F3093EB003091ED003D7F3093ED00B1
:100AC0003091EB0031603093EB007093EC00209399
:100AD000ED005093F0002091EE0027FDE0CF80E084
:100AE0000895B0E0A0E0E7E7F5E00C946D30C8EDC4
:100AF000D0E088818F7E8883E7EDF0E0808181609F
:100B0000808384E082BF81E08093880888818E7F23
:100B1000888302EE10E0F80110821092DA0081EE74
:100B2000C82ED12CF601108288818F778883888126
:100B30008068888388818F7D888319BC1092AD0876
:100B40001092AE081092AC081092AB0890EEE92E0D
:100B5000F12CF70180818B7F80838881816088837D
:100B600042E060E080E00E943F05F60180818E7FD8
:100B70008083F801808181608083808188608083A8
:100B8000F70180818E7F8083888180618883CDB7E3
:100B9000DEB7E8E00C948930FC018091B5089091B3
:100BA000B60886179707A0F06115710529F4909192
:100BB000E8009E779093E80090E06115710551F48C
:100BC000911108C08091E80082FF34C080E0089550
:100BD000BC01F2CF8091AD088823C1F18530C1F10D
:100BE0008091E80083FD30C08091E80082FDEACF6B
:100BF0008091E80080FFE1CF8091F3002091F20026
:100C0000382F6115710519F02830310558F091E041
:100C10002830310509F090E02091E8002E772093EC
:100C2000E800CBCF81918093F100615071092F5F73
:100C30003F4FE7CF8091AD08882341F0853041F0E8
:100C40008091E80083FFBECF81E0089582E008959F
:100C500083E00895089580918A0808952FB7F89445
:100C600060917F087091800880918108909182083E
:100C70002FBF0895209115012223C9F020918308E8
:100C800027FF15C0E62FE695E695E695EE31D8F4F8
:100C9000E80FF92FF11D677021E030E001C0220F4D
:100CA0006A95EAF720958281282322830895FC0122
:100CB000329608962191621303C0DF0111971C92AE
:100CC000E817F907B9F70895209115012223C1F01B
:100CD0002091830827FF14C0E62FE695E695E69558
:100CE000EE31F8F4E80FF92FF11D677021E030E0E4
:100CF00001C0220F6A95EAF78281822B82830895D0
:100D0000FC0132962FEF30E04191641751F02F3FF4
:100D100019F4411101C0232F3F5F3630A9F72F3F4F
:100D200009F40895820F911D27FD9A95FC016283B5
:100D3000089520917C0830917D082817390771F0BB
:100D400090937D0880937C08E0917A08F0917B086D
:100D5000309721F00084F185E02D099508952091C8
:100D60007808309179082817390771F0909379083D
:100D700080937808E0917A08F0917B08309721F011
:100D80000680F781E02D09950895E0917A08F091A9
:100D90007B08309729F00190F081E02D09950895A6
:100DA00080E00895FA01811101C0FB0109950895C1
:100DB000EBEBF8E0248130E1231B08F420E02483EE
:100DC0008091B70581608093B7050895EBEBF8E05B
:100DD000248130E1230F08F42FEF24838091B7059D
:100DE00081608093B70508959091BB08937059F086
:100DF0008093BC086093BD084093BE088091B705FE
:100E0000822B8093B7050895EBEBF8E0438120E156
:100E1000421B08F440E0818121E0628190E00E9461
:100E2000F4060895EBEBF8E0438120E1420F08F46B
:100E30004FEF818121E0628190E00E94F4060895E5
:100E4000EBEBF8E0628120E1621B08F460E0818155
:100E500021E0438190E00E94F4060895EBEBF8E076
:100E6000628120E1620F08F46FEF818121E043810C
:100E700090E00E94F4060895EBEBF8E0818121E018
:100E8000438162818850990B0E94F4060895EBEB30
:100E9000F8E0818190E021E04381628108960E9420
:100EA000F40608959091BB08937061F081110BC016
:100EB00094609093BB08109214018091B705862B23
:100EC0008093B7050895863110F09465F2CF880FAE
:100ED000880F982BEECF8091BB0886958695815020
:100EE00009F485E161E00E94520708958091BB08F2
:100EF000869586958F5F863108F081E061E00E94DB
:100F0000520708958091BB08837011F0109214016C
:100F10008091BB088C7F8093BB080895EF92FF926D
:100F20000F939701201B31092F3F310519F010F065
:100F30002FEF30E02095382F320F08F43FEF832F4A
:100F40000F91FF90EF900895EF92FF920F9397010A
:100F5000201B31092F3F310519F010F02FEF30E041
:100F6000322F3095482F430F08F44FEF842F620F34
:100F70000F91FF90EF900895EF92FF920F93972FAC
:100F8000093438F4B701601B71096F3F710519F01E
:100F900010F06FEF70E0485F5F4F4131510540F056
:100FA000A901485F5F4F4131510510F06FEF70E0CC
:100FB0006095482F460F08F44FEF842F37FF02C08B
:100FC0002D5F3F4F35952795359527956091BC0846
:100FD000620F792F0F91FF90EF900895EF92FF929B
:100FE0000F93970195E0099F200D311D11242F3F8C
:100FF000310519F010F02FEF30E02095382F320F27
:1010000008F43FEF832F0F91FF90EF9008950F9317
:101010001F93522F10E0F801EE0FFF1FE85DFD4F08
:10102000A081A851BB0B9D015203F001539FF00D0D
:101030001124000F111FD801A95DBD4F0C9104555B
:10104000110B40039001419F300D11242E0F3F1FC3
:1010500037FF02C0215C3F4F96E0359527959A9562
:10106000E1F7620F1F910F9108950F931F93522F75
:1010700010E0F801EE0FFF1FE85DFD4FA081A851C1
:10108000BB0B9D015203F001539FF00D1124000F83
:10109000111FD801A95DBD4F0C910455110B4003E0
:1010A0009001419F300D11242E0F3F1F37FF02C0CA
:1010B00021583F4F220F232F221F330B620F1F9106
:1010C0000F910895EF920F93972F23E0029FB001A5
:1010D0001124759567956E0D792F0F91EF900895F6
:1010E000322F50E0FA01EE0FFF1FE85DFD4F9081B7
:1010F000985197FD9195440F551FFA01E95DFD4FF9
:101100002081231B330B290F311D97FD3A95620F68
:101110000895E42FF0E0EE0FFF1FE85DFD4F6081C2
:10112000621B0895E42FF0E0EE0FFF1FE95DFD4F15
:101130006081621B0895622F08950E947D120895B8
:101140000E94131208954095282F429F412D11248B
:10115000842F0895FC019B01009729F480E077FF1C
:101160002BC080E80895AC0197FF04C044275527A1
:10117000481B590BB901640F751F37FD10C0241BA4
:10118000350BC901A5E0880F991FAA95E1F70E94C8
:101190009A3080E2861BF7FF0FC081950895CB013E
:1011A00065E0880F991F6A95E1F7BA01621B730B1E
:1011B0000E949A3080E6EECF0895EF920F93CF937E
:1011C000DF93D72FC82FC9010E19BA010E94AA08B0
:1011D000602F681B7D2F8C2FDF91CF910F91EF90A7
:1011E00008950F93CF93DF93D72FC82FC901BA016A
:1011F0000E94AA08682F600F7D2F8C2FDF91CF915E
:101200000F910895EF920F931F93CF93DF93D62FF3
:10121000C72F182FC9010E19010FBA010E94AA0881
:10122000081B202F219F212D1124822F6D2F7C2F11
:10123000DF91CF911F910F91EF900895E82F86FDD8
:10124000E0952E2F2F7086FD2F5FE695E695E695AB
:10125000E670F0E0EF54FE4F9181929F902D212D8A
:10126000112492959F702295207F922B2081920FBE
:1012700087FD919580E8890F089540911001509164
:10128000110125E038E0429FC001439F900D529F1D
:10129000900D1124875E994C909311018093100159
:1012A000890F0895AC018230910508F408959FEFED
:1012B000413E8EE1580740F49A0195E03695279516
:1012C0009A95E1F798E0920F61E0E62FE90FFF278A
:1012D000FF1F9F0135952795822F229FF001239FA5
:1012E000F00DF00D11244E175F0738F49FEF920FA9
:1012F000961758F78FEF860F08952F3FE9F361E0B7
:10130000620FF6CF0F93CF93DF93D72FC82F47FDF0
:1013100041958AE290E0841B910947FD9395889F4F
:10132000B001899F700D700D1124229FC001239F71
:10133000900D900D1124860F971F0E945209982F2F
:10134000990F890F682F600F7D2F8C2FDF91CF9120
:101350000F91089530E020E0869F212D969F200D6B
:10136000311D1124C9010895AF92BF92CF92DF922F
:10137000FF920F931F93CF93DF93362F472FE82FC2
:10138000F0E0EA56FD4F71110FC0E4918E2F2E2F21
:101390006E2F722FDF91CF911F910F91FF90DF90F1
:1013A000CF90BF90AF900895C72FD0E02491F22E38
:1013B000022F10E056E0659FC0011124EFEFF0E02E
:1013C000BF010E944F30832F90E0880F991F35E5B1
:1013D000369FD001379FB00D11248A1B9B0B982F8D
:1013E000990F980F6F01CC1ADD0AC09ED001C19EE3
:1013F000B00DD09EB00D11248B2F499FA001112458
:10140000452F55276F01C41AD50AC09EA001C19E61
:10141000500DD09E500D11245F01A91AB108AC9E49
:101420006001AD9ED00CBC9ED00C1124CD2CDD24CF
:10143000EC19FD09E09FE001E19FD00DF09FD00D78
:101440001124ED2F62307105A1F050F46115710582
:1014500009F49ECF6130710581F0EB2F852F98CF75
:101460006430710569F080F06630710509F490CF41
:10147000F4CFE22F2B2F8D2F8BCFE22F252F88CF6C
:10148000EB2F822F2D2F84CF2B2F8F2DE52F80CF69
:101490002F923F925F926F927F928F929F92AF9224
:1014A000BF92CF92DF92EF92FF920F931F93CF9351
:1014B000DF93CDB7DEB72A970FB6F894DEBF0FBE25
:1014C000CDBF8B837E836D8320912A01220F220F53
:1014D0002F832C5F29832A832C3510F03BE53A8338
:1014E0008091C1088C83FF81EF2FF0E0FA87E987B4
:1014F000CF01880F991F9C01295D3D4F69013B81F8
:10150000832F90E0FC013196F887EF838A819985DB
:101510009817E8F081E0E981EB3508F080E02A9641
:101520000FB6F894DEBF0FBECDBFDF91CF911F91F4
:101530000F91FF90EF90DF90CF90BF90AF909F9072
:101540008F907F906F905F903F902F900895E985E6
:10155000FA85E352FD4F808190912B018923F1F0B0
:101560002090BC083090BD082F8138852F53374F0D
:1015700039015B8010E0FC815F16D0F02091BE083D
:10158000129F112D1124B101812F0E94B409462F01
:10159000282F672F89859A850E94A00829853A857A
:1015A0002F5F3F4F3A87298732E0C30ED11CAECF61
:1015B000F30181913F01F601A080A81ABB08818048
:1015C000F3018781881A9908AA9C9001AB9C300D81
:1015D000300D1124889CC001899C900D900D112420
:1015E000820F931F0E945209082F6091BF0821E0CB
:1015F000620F08F46FEFF301EE0FFF1FE15CF8409C
:10160000858996890E94AA097C019401A501B101EE
:10161000812FED81FE8109951B015394182FABCFCB
:10162000B0E0A0E0E6E1FBE00C946A306C01C09110
:101630002A01CC0FCC0F14E01C0FB12E1C3510F07A
:101640003BE5B32E6091BF08669566958091B7081B
:101650009091B8080E94AA09F82E80E48F0D0E948C
:101660001E0990E8A92EA80E8F2D0E941E0920E8C1
:10167000922E980ED0E0CB1548F081E01B3508F093
:1016800080E0CDB7DEB7EBE00C948630FE01E3528C
:10169000FD4F808190912B018923A1F06091BC08BE
:1016A0007091BD088091BE08EF2C0C2F292D4A2D7A
:1016B000F60109950E94B409462F282F672FCE0105
:1016C0000E94A0082196D7CFB0E0A0E0EAE6FBE0B8
:1016D0000C9468305C01C0912A01CC0FCC0F14E04F
:1016E0001C0FF12E1C3510F03BE5F32E6091BF0866
:1016F00066958091B7089091B8080E94AA09782E43
:10170000D0E0CF1548F081E01B3508F080E0CDB780
:10171000DEB7EDE00C948430FE01E352FD4F808192
:1017200090912B018923C9F1CE01880F991F835312
:101730009E4FFC01E65AFF4F2081422F4455550B26
:101740006A01855A9F4FFC018081282F2851330B55
:101750004901449F9001459F300D300D1124889C14
:10176000C001899C900D900D1124820F931F0E943F
:101770005209082F6091BC087091BD088091BE0885
:10178000E72C9401A601F50109950E94B409462FA2
:10179000282F672FCE010E94A0082196B2CFB0E07B
:1017A000A0E0E5EDFBE00C946D307C01C0912A01D6
:1017B000CC0FCC0F14E01C0FD12E1C3510F03BE5E4
:1017C000D32E6091BF0866958091B7089091B808B4
:1017D0000E94AA09C82ED0E0CD1548F081E01B3543
:1017E00008F080E0CDB7DEB7E8E00C948930FE0168
:1017F000E352FD4F808190912B01892311F1CE019D
:10180000880F991F83539E4FFC01E55AFF4F20819B
:101810002851330B865A9F4FFC0140814455550B8C
:101820006091BC087091BD088091BE080C2DF70135
:1018300009950E94B409462F282F672FCE010E94D8
:10184000A0082196C9CFB0E0A0E0E9E2FCE00C944A
:101850006E307C01C0912A01CC0FCC0F14E01C0F1C
:10186000012F1C3508F00BE56091BF086695669561
:1018700021E0620F08F46FEF8091B7089091B808EB
:101880000E94AA09D82ED0E0C01748F081E01B358D
:1018900008F080E0CDB7DEB7E7E00C948A30FE01B7
:1018A000E352FD4F808190912B01892391F060914B
:1018B000BC087091BD088091BE082D2D4C2FF701FA
:1018C00009950E94B409462F282F672FCE010E9448
:1018D000A0082196D9CF40917004803F59F480919F
:1018E000710487FF0DC01092710441110BC010925A
:1018F000680408C0813F81F48091710418169CF33C
:10190000442381F08091720490917304892B09F033
:101910005AC0109267040895823F49F447FFF0CF00
:1019200010927004809171048111ECCFE0CF833F5D
:1019300019F41416ACF3E4CF90917204893F29F4A2
:101940001916F4F610927204DBCF8A3F19F497FF50
:10195000D7CFF8CF909173048B3F29F497FFD0CF66
:1019600010927304CDCF8C3F19F41916CCF3C8CF65
:101970009CE0980F953090F4845F990B21E030E063
:10198000B90102C0660F771F8A95E2F7CB018095F7
:1019900090916F04892380936F04B2CF8D3F31F40F
:1019A000809169048E7F80936904AACF8E3F21F4D1
:1019B000809169048D7FF7CF8F3F09F0A1CF80918F
:1019C00069048B7FF0CF08958091690480FD16C073
:1019D00081FD16C082FD16C0809167048823A1F0A6
:1019E000883280F428E0829FC001112468E270E010
:1019F0000E949A30862F672B39F0089582E008956F
:101A000084E0089588E0089581E008958091690454
:101A100080FD14C081FD14C082FD16C08091680451
:101A2000882381F08E3180F420E5829FC00111244B
:101A30006EE170E00E949A30862F089584E1089547
:101A400088E2089588E0089580E50895803F31F4A4
:101A50000E94060D8195809371040895813F19F4C9
:101A60000E94060DF8CF823F31F40E94060D819549
:101A7000809370040895833F19F40E94060DF8CFF7
:101A8000893F29F40E94E40C8093720408958A3FF0
:101A900021F40E94E40C8195F7CF8B3F31F40E9432
:101AA000E40C81958093730408958C3F19F40E948F
:101AB000E40CF8CF9CE0980F953070F4845F990B9C
:101AC00021E030E001C0220F8A95EAF780916F048F
:101AD000822B80936F0408958D3F31F480916904C7
:101AE00081608093690408958E3F21F48091690498
:101AF0008260F7CF8F3FB9F7809169048460F1CF9E
:101B000080E00895F894E82FE295EF70F0E031A1BD
:101B1000282F2F7081E090E001C0880F2A95EAF706
:101B2000982F9095932391A392A1892B82A37894C7
:101B300008959091830892FF06C0282F28712830BD
:101B4000F9F4877F846093FF06C0282F287128311D
:101B5000F1F4877E84612091840820FF06C0382F2D
:101B600038713830D9F4877F816021FF06C0282F73
:101B700028712831D1F4877E816194FD877E089594
:101B8000282F24712430F9F68B7F8860DCCF282F32
:101B90002471243101F78B7E8861DDCF382F3171BC
:101BA000313019F78E7F8860E0CF282F21712131E5
:101BB00021F78E7E8861E1CFCF93DF93EC018238ED
:101BC0009105B1F108F040C08133910509F49DC041
:101BD00048F58932910509F48DC08A9709F49CC0B3
:101BE000C11521E5D20708F0C3C0C11530E5D30700
:101BF00008F01EC1C83ED10508F0A3C0C13ED10502
:101C000088F5C83AD10508F08EC0C53AD10508F06C
:101C100007C1C130D10531F1209721F1C430D10580
:101C200008F545C08533910509F45FC0C997C1F631
:101C300080918308837009F043C18091840883FFF9
:101C400011C0C9E2D0E00EC0833E910599F170F455
:101C5000803E910501F1823E910511F68091830845
:101C600082FD21C0CE01DF91CF910895863E91057E
:101C700061F1873E910571F1843E910509F0B0CF85
:101C80008091840881FFEECF80918308C7EED0E079
:101C900084FD0DC0E7CF8091830880FD33C0909113
:101CA000840890FFDFCFC3EED0E084FFDBCFD0E02D
:101CB000C0E0D8CF8091830882FDFFC09091840856
:101CC00090FDFEC084FFCECFF2CF8091830883FDCC
:101CD000DDCFC8CF8091830883FDF5C09091840843
:101CE00091FFF0CFC4EED0E0BDCF8091830885FF97
:101CF000B9CFA7CF8091830885FDE8C08091840883
:101D000083FFB0CFC9E3D0E0ADCF8091830886FFD9
:101D1000A9CFCAE2D0E0A6CF8091830886FFA2CFE8
:101D2000C1E3D0E09FCFCF3BD10508F6C85AD0E041
:101D3000CC0FDD1FCB5ADE4F0990D881C02DD46463
:101D400091CFC11540E2D40758F4C11581E0D807FE
:101D500008F088CFC03FD10508F4A9CFD06582CF65
:101D6000C11520E4D20708F4A2CFDF70D06A7ACF81
:101D7000C11535E5D30718F5C11544E5D40708F0BA
:101D800084C0C11583E5D80708F06BC0C11522E5F2
:101D9000D20708F461C0CE018370992721E030E0BA
:101DA00002C0220F331F8A95E2F7C695C69580E2DE
:101DB000C89FE0011124C22BD32BDC6853CFC1157F
:101DC00039E5D307A8F4C11548E5D40708F062C087
:101DD000C11586E5D80708F06ACF8C2F0E94990DAF
:101DE000C82FD0E0DC2FCC27CC27DF71D0623ACFD0
:101DF000C1152AE5D20708F452C0CE0190568115CC
:101E0000904208F054CF8D2F8F710E94990D90E071
:101E1000982F882788279F719C012C2BE901E6CFFA
:101E2000C55AD0E0CE5ADE4FC881D0E0D0641ACF78
:101E3000CE018370992721E030E002C0220F331FCA
:101E40008A95E2F7C695C69540E2C49FE001112449
:101E5000C22BD32BDD6806CFDC2FCC27C16FD06A15
:101E600001CFCE018370992721E030E002C0220F1C
:101E7000331F8A95E2F7C695C69540E2C49FE001FC
:101E80001124C22BD32BDA68EDCEDC2FCC27C46F04
:101E9000D06AE8CEDC2FCC27C06FD06AE3CE8C2F7F
:101EA0008F700E94990D34E0D695C7953A95E1F769
:101EB000CF709C2FEC01D069D5CEC2EED0E0D2CE4F
:101EC000C0EED0E0CFCEC6EED0E0CCCEC5E3D0E0C1
:101ED000C9CE8091DA0381111092DA0308958095BA
:101EE0009091D90398239093D90308958091B603D4
:101EF00090918503981301C008958F5F8770FACF82
:101F0000292F963078F58F3068F590E03FE0239FD9
:101F1000800D911D1124682F677023E09695879599
:101F20002A95E1F7FC01EE0FFF1FE80FF91FE55AB4
:101F3000FC4F50E040E080E0219130E0062E02C0EE
:101F4000369527950A94E2F721703327042E01C0B5
:101F5000220F0A94EAF7822B4F5F5F4F43305105FF
:101F600059F7089580E00895292F963098F58F301D
:101F700088F590E03FE0239F800D911D1124282FCC
:101F8000277041E001C0440F2A95EAF723E09695B7
:101F900087952A95E1F7FC01EE0FFF1FE80FF91F67
:101FA000E55AFC4F30E020E070E05191DF011197DD
:101FB000CB01022E02C0969587950A94E2F78170B4
:101FC00081958527842385278C932F5F3F4F23306E
:101FD000310559F70895E6E1F1E08083618324E655
:101FE00030E042E050E0BF0180E60E942E300895CC
:101FF0008093850870938708609386088091AD0868
:10200000843001F586E08093E9008FEF9091E8003D
:10201000815095FD06C095ED9A95F1F7000081116C
:10202000F5CF8091E80085FF0DC050E040E063E00F
:1020300070E085E898E00E94CC048091E8008E77FB
:102040008093E8000895BC0184E00E94F80F089591
:10205000BC0183E00E94F80F08959C0186E0809304
:10206000E9009FEF8091E800915085FD06C085ED65
:102070008A95F1F700009111F5CF8091E80085FF76
:102080000CC050E040E066E070E0C9010E94CC0462
:102090008091E8008E778093E8000895CF93DF93D6
:1020A000EC01809115018823B1F18091830887FFAD
:1020B00032C060E286E08093E9008FEF9091E80003
:1020C000815095FD06C095ED9A95F1F700008111BC
:1020D000F5CF8091E80085FF1BC08091150170E06D
:1020E00050E040E0811104C050E040E068E070E062
:1020F000CE010E94CC048091E8008E778093E800A6
:1021000080E2FE01ABE8B8E001900D928A95E1F71C
:10211000DF91CF91089568E081E0CDCF81E0809399
:10212000E00080E28093D8001092C9008FE19EE425
:102130000197F1F700C0000087E090EBDC0180938D
:10214000EE089093EF08A093F008B093F10888E1AF
:102150009CE00FB6F894A895809360000FBE909312
:102160006000FFCFCF93DF93C7EFD2E060E0CE01F6
:102170000E9464312196C11584E0D807B9F7DF9138
:10218000CF9108951F93CF93DF93122F8430E0F403
:102190006630D0F44F30C0F4C42FD0E0CC0FDD1F38
:1021A0009EE1699FC00DD11D112494EB899FC00D44
:1021B000D11D1124632FCE0187960E946431612FB7
:1021C000CE0188960E946431DF91CF911F910895CE
:1021D000AF92BF92CF92DF92EF92FF921F93CF9375
:1021E000DF9382E0C82E85E0D82ED0E07601C0E0F3
:1021F00014C0F50125913491412F6C2F8D2F0E9431
:10220000C21082E0A80EB11C1F5F1F3091F78EE153
:10221000E80EF11CCF5FC63019F0570110E0E9CF8E
:10222000DF5F84EBC80ED11CD43001F7DF91CF9172
:102230001F91FF90EF90DF90CF90BF90AF900895E7
:10224000CF93C82F6FEF811162E283E290E00E948A
:1022500064316FEFC11162E184E290E00E94643169
:102260006FEFC11164E185E290E00E946431CF918B
:10227000089580E00E94201160E086E290E00E94D4
:1022800064310E94E8100E94B21081E00E94201187
:1022900008950F931F93CF93DF93843030F566300A
:1022A00020F54F3010F5C42FD0E0CC0FDD1F2EE10C
:1022B000629FC00DD11D112434EB839FC00DD11D31
:1022C0001124CE0187960E944631082F10E0102F6E
:1022D0000027CE0188960E9446319801282BC9011B
:1022E000DF91CF911F910F91089590E080E0F8CF9A
:1022F000462F843040F4763030F46F3020F4672F6E
:102300000E944911089590E080E00895CF92DF92F5
:10231000FF920F931F93CF93DF936C010091ED0811
:102320008091DB03082BC7E0D0E010E0FC2EC80151
:102330000C2E02C0959587950A94E2F780FD0CC09B
:102340002197A0F7F12C8F2DDF91CF911F910F9145
:10235000FF90DF90CF900895B6018C2F0E947811E6
:102360000E94DC0D019761F3EECFCF93DF93EC0178
:102370000E948611BE010E9478110E94DC0DDF913F
:10238000CF910895FC0183819481892B29F080816C
:10239000918189238F3F51F480E00895843FE1F7D4
:1023A00017C0883EA8F0813FB9F712C080819181A3
:1023B0000E94B51192959F70963099F358F4925FF0
:1023C0009F70923048F7803F19F040F7883E20F721
:1023D00081E008959A5FF4CF83E290E00E94463155
:1023E000823289F484E290E00E944631823159F4CD
:1023F00085E290E00E94463191E0843109F090E05E
:10240000892F8170089580E0FCCFCF9384E090E025
:102410000E944631C82F82E290E00E944631982FF8
:102420008C2FCF910895A4E0B0E0E9E1F2E10C94A3
:102430007030F62E042F122F8B35910508F059C0FD
:10244000880F991F880F991FBC016A567C4F44E082
:1024500050E0CE0101960E9417318981282F237008
:1024600030E0869586954A81942F9295990F990F21
:10247000907C692F682B842F86958695782F7370B2
:10248000EFE5F1E02E9FC0012F9F900D3E9F900D34
:102490001124875E984F680F791FFB01F082542F3B
:1024A00052955F704B81E42FE295E07F6E2F652B94
:1024B000542F52955F70752F7370680F791FFB0151
:1024C000008342954695469543705C81E52FEE0F5B
:1024D000EE0F6E2F642B752F72957695769573702F
:1024E000860F971FFC011083285E384F81E0F901A9
:1024F00080832496E5E00C948C30FF920F931F9319
:10250000CF93DF93182F062FF42ED0E0C0E02F2DAD
:10251000402F612FCE010E9413122196CB35D10599
:10252000B1F7CDB7DEB7E5E00C948C300F931F9375
:10253000CF93DF9380911807882309F441C065EC9D
:102540008EEF0E94EB0F60E08DEF0E94EB0FD0E06A
:10255000C0E004EB10E0CE01B8010E949A308093F5
:10256000160182E1FE01E75EF84FA7E1B1E00190BC
:102570000D928A95E1F724E630E043E150E066E110
:1025800071E080E60E942E30892BD1F46296C63528
:1025900081E0D807E1F482EA8093160189E0EFE652
:1025A000F8E0A7E1B1E001900D928A95E1F724E609
:1025B00030E04AE050E066E171E080E60E942E30B3
:1025C00010921807DF91CF911F910F910895C43B8E
:1025D000D10509F665EC8EEF0E94EB0F61E08DEFFF
:1025E0000E94EB0FB8CFA4E0B0E0E9EFF2E10C9469
:1025F0006B300E948E2F65EC8EEF0E94EB0F64E033
:102600008DEF0E94EB0F61E080E00E94EB0F6FEF17
:1026100081E00E94EB0F67E782E00E94EB0F8FE3FF
:102620009CE90197F1F700C0000006E913E022E001
:10263000E22E25E0F22E3FE5C32EDD24D394BB2409
:10264000BA94AA24A39444E050E0B801CE010196C4
:102650000E9417318981282F237030E08695869556
:102660004A81942F9295990F990F907C692F682B2E
:10267000842F86958695782F73702C9DC0012D9D93
:10268000900D3C9D900D112488549A4F680F791F2E
:10269000FB01B082542F52955F704B81E42FE2957D
:1026A000E07F6E2F652B542F52955F70752F7370DE
:1026B000680F791FFB01B08242954695469543709D
:1026C0005C81E52FEE0FEE0F6E2F642B752F729548
:1026D000769576957370860F971FFC01B082295E00
:1026E000384FF901A0820C5F1F4FE016F10609F088
:1026F000AACF65EC8EEF0E94EB0F62E08DEF0E9497
:10270000EB0F98EBE92E95E0F92E10E0F7016191BF
:102710007F01812F0E94EB0F1F5F143BB9F765EC1F
:102720008EEF0E94EB0F63E08DEF0E94EB0F8CE6C3
:10273000E82E86E0F82E10E0F70161917F01812FED
:102740000E94EB0F1F5F1B3AB9F7109217072496F0
:10275000EAE00C9487301F93CF93DF93EC01FC01E8
:10276000E352FD4F80816823B1F00E940731182F9A
:102770000E9407318F77782F20E8720F08F47FEFDF
:10278000612F8091BE080E94B409462F282F672F21
:10279000CE010E94A008DF91CF911F910895B0E073
:1027A000A0E0E5EDF3E10C946830182F809113015F
:1027B000811323C09091BB0893702091120130E0E7
:1027C00081E09217130609F480E0817080932C0158
:1027D0008091C00890912B01981739F080932B01BC
:1027E00040E060E080E00E949D08163160F4E12F37
:1027F000F0E0E757FC4C0C94AE3081E0E6CF8091DE
:102800002C01811102C0C0E081C040E060E080E0A6
:102810000E949D08F8CFC0912A01CC0FCC0F04E094
:102820000C0FF02E0C3510F04BE5F42E6091BC0827
:102830007091BD088091BE080E94B409E62ED72E83
:10284000C82ED0E0CF1528F0C1E00B3508F45EC0EB
:10285000DACFFE01E352FD4F808190912B01892355
:1028600031F02C2D4E2D6D2DCE010E94A008219609
:10287000E9CFC0912A01CC0FCC0F04E00C0FF02E51
:102880000C3510F03BE5F32EE090BC08D091BD086C
:10289000D090BE086091BF08669566956695809158
:1028A000B7089091B8080E94AA090E941E09805892
:1028B00087FD8195880F382F2D2D329F312D1124C2
:1028C000832F6E2D7D2F0E94B409E62ED72EC82EA1
:1028D000D0E0CF1508F0B8CFFE01E352FD4F808164
:1028E00090912B01892331F02C2D4E2D6D2DCE0191
:1028F0000E94A0082196EDCF82E099E00E94640B2F
:1029000004C08BE998E00E94230CC82F80912A0113
:102910008F5F80932A01C1110CC082E08093140163
:1029200080912C01811105C0111103C083E08093B7
:102930001401CDB7DEB7EDE00C94843082E998E065
:10294000E2CF89E898E0DFCF80E798E0DCCF82E64D
:1029500098E0D4CF82E899E00E94CF0BD6CF81EFE8
:1029600098E0FACF8DED98E0C9CF85E398E00E941A
:10297000100BCBCF87E098E0FACFC0912C01C111AA
:102980001EC06091BF0820E1620F08F46FEF8091D4
:10299000B7089091B8080E94AA0965E070E00E940B
:1029A0004F30892B09F02FCF0E9407316BE570E083
:1029B0000E949A3060912B010E94AB13A7CFC09167
:1029C0002A01CC0FCC0F04E00C0F802F0C3508F03F
:1029D0008BE5D0E0E82EF12CCE15DF050CF034CFDE
:1029E00060912B01CE010E94AB132196F5CFC091CF
:1029F0002A01CC0FCC0F04E00C0FD02E0C3510F0B8
:102A00002BE5D22E2091BF0831E0230F08F42FEFE1
:102A100030E050E040E06FEF7FEF80E090E00E9418
:102A200088317901D0E0CC24C3942C2FCD1508F047
:102A30000BCFFE01E352FD4F808190912B01892342
:102A400011F14091C1084150042E000C550B47FF75
:102A50001CC0C7016091BF082C2D620F08F46FEFF6
:102A60000E94AA09AC016091BC087091BD088091D8
:102A7000BE080E94A3080E94B409462F282F672F82
:102A8000CE010E94A0082196D0CFFA01EF53F74F54
:102A9000818928130AC0FA01EE0FFF1FEF53F74F89
:102AA000818D928D8E159F05A8F241505109CFCF8F
:102AB0006EEE77E080E00E94480A27CF6CEB77E06B
:102AC000F9CF8091C10821E0382F321B08F430E0A3
:102AD000832F64EA77E0EFCF8091C10821E0382F9F
:102AE000321B08F430E0832F6EE877E0E4CF80916A
:102AF0002A018F5FD82FDD0FDD0F4091B70850916D
:102B0000B8086091B9087091BA08809174049091E6
:102B10007504A0917604B091770484179507A607F1
:102B2000B70708F053C00E943D09C82F0E943D0915
:102B30009BE5891BF0F7890FE82EF12CF701E35292
:102B4000FD4F90912B018081982309F43FC020E034
:102B500040E060E0C1FD13C00E943D09C82F0E9403
:102B60003D09782F76952FE7720F08F47FEF6C2FD1
:102B70008091BE080E94B409462F282F672FC701F5
:102B80000E94A0082091BF0830E1230F08F42FEF26
:102B900060E1822F90E00E94AA09BC0184EF91E0DD
:102BA0000E944F308091B7089091B808A091B90861
:102BB000B091BA08860F971FA11DB11D80937404B0
:102BC00090937504A0937604B0937704C1E0DB354D
:102BD00008F49CCE18CEC0912A01CC0FCC0F04E093
:102BE0000C0FD02E0C3510F08BE5D82EEC2EF12CDE
:102BF00083E0C89FE0011124C858DB4FED1408F0B2
:102C000023CE6091BE0870E090E080E00E948C329C
:102C100020E030E04FE753E40E94EB314B015C01D0
:102C20006A8170E090E080E00E948E32A5019401FC
:102C30000E941A330E945D32C62E688170E090E0D7
:102C400080E00E948E32A50194010E941A330E94F6
:102C50005D32762E698170E090E080E00E948E32D5
:102C6000A50194010E941A330E945D322C2D472D3C
:102C7000C7010E94A00823962FEFE21AF20ABECFE6
:102C800046E050E06CE170E08BEB98E00E9454313C
:102C90001092B70508954F925F926F927F928F9234
:102CA0009F92AF92BF92CF92DF92EF92FF92C0902D
:102CB000B205D090B305E090B405F090B5058FB79C
:102CC000F89440907F085090800860908108709040
:102CD00082088FBF530142018C189D08AE08BF08BF
:102CE0000E942E066093B2057093B3058093B405DD
:102CF0009093B505A0918905E9E8F5E04A2F50E0E9
:102D00002FEFC20ED21EE11CF11CC418D508E60834
:102D1000F708A51328C0409389052091B605211115
:102D200035C03091BB08232F237019F0232F26952F
:102D3000269530911401313009F441C0332341F11B
:102D4000323009F440C0333009F448C0FF90EF90AE
:102D5000DF90CF90BF90AF909F908F907F906F90BB
:102D60005F904F900895218D328D2901712C612C37
:102D7000C414D504E604F70420F441505F5F329692
:102D8000C8CF280D391D328F218FF8CF20E0D1CF49
:102D900010922A016093B7087093B8088093B9081D
:102DA0009093BA0889E2E9E8F5E0A1ECB8E0019077
:102DB0000D928A95E1F781E080931401C7CF822FAD
:102DC0000E94CF13C3CF209313018091BB0883705F
:102DD000809312010E94961283E0EECF8091B70596
:102DE00081110E9440164091B7085091B808609137
:102DF000B9087091BA082FB7F89480917F08909124
:102E00008008A0918108B09182082FBF841B950B88
:102E1000A60BB70B4A97A105B10508F497CF1092FE
:102E2000140194CFEBEBF8E081E1808380912D01D8
:102E300090912E01A0912F0181839283A38388E238
:102E400084838FEF85830E94401608958091D90373
:102E50009091D803892B80933A039091DA039923B8
:102E6000A1F0892B80933A03809115018823E1F129
:102E70008091830887FF38C08EE1ECE3F3E090E0B7
:102E80008150A0F591110E94690F40E250E068EB7B
:102E900073E08AE393E00E942031892B21F180E2E4
:102EA000EAE3F3E0A8EBB3E001900D928A95E1F735
:102EB000E0917A08F0917B083097A9F08091150194
:102EC000882359F08091830887FF07C080913A03D7
:102ED00080933B0386E080933A030280F381E02DE8
:102EE0008AE393E00995089586E0C7CF21912223D4
:102EF00039F29F5FC5CF882321F00E946F0F0E9497
:102F000026170895882339F09091D903982B909330
:102F1000D9030E942617089590E080E00E944E3168
:102F2000883E9E4F19F40E94EC11089580E00895A8
:102F300068EE7EEF90E080E00E94823160E082E007
:102F400090E00E94643160E083E090E00E94643190
:102F50001092DB0360E084E090E00E94643164E062
:102F600082E290E00E94643160E085E090E00E949F
:102F7000643160E086E090E00E9464316FEF87E0AA
:102F800090E00E94643140E050E0BA0188E090E0B7
:102F90000E94763160E08DE090E00E94643140E074
:102FA00050E0BA0188E190E00E94763160E087E16C
:102FB00090E00E94643140E050E0BA018CE190E082
:102FC0000E94763170E060E080E290E00E94823101
:102FD00040E050E0BA0188E190E00E94763180E064
:102FE0000E9420110E94391140E050E0BA018FE0A8
:102FF00090E00E94763140E050E0BA0183E190E039
:103000000E94763108951F920F920FB60F921124ED
:103010002F933F934F935F936F937F938F939F93E0
:10302000AF93BF93EF93FF938091E10082FF09C0BC
:103030008091E20082FF05C08091E1008B7F809348
:10304000E1008091DA0080FF24C08091D80080FFE9
:1030500020C08091DA008E7F8093DA008091D900C1
:1030600080FF9DC080E189BD82E189BD09B400FE79
:10307000FDCF81E08093AD0880918808811109C05F
:103080000E947C040E9471058091E200846080931C
:10309000E2008091E10080FF17C08091E20080FF94
:1030A00013C08091E2008E7F8093E2008091E20065
:1030B00080618093E2008091D80080628093D80084
:1030C00019BC85E08093AD088091E10084FF2BC09E
:1030D0008091E20084FF27C080E189BD82E189BD43
:1030E00089B5982F917080FFFBCF8091D8008F7D9C
:1030F0008093D8008091E1008F7E8093E1008091E1
:10310000E2008F7E8093E2008091E20081608093F4
:10311000E2008091AE08882309F447C084E08093E0
:10312000AD088091AD088091E10083FF27C08091B8
:10313000E20083FF23C08091E100877F8093E1005C
:1031400082E08093AD081092AE088091E1008E7FFE
:103150008093E1008091E2008E7F8093E200809175
:10316000E20080618093E20042E060E080E00E9443
:103170003F058091F00088608093F000FF91EF910F
:10318000BF91AF919F918F917F916F915F914F917F
:103190003F912F910F900FBE0F901F90189519BC63
:1031A0001092AD081092880874CF8091E30087FDDB
:1031B00093E09093AD08B5CF78941F921FB61F92FD
:1031C00011248F939F93AF93BF9380917F08909129
:1031D0008008A0918108B09182080196A11DB11DBF
:1031E00080937F0890938008A0938108B093820811
:1031F000BF91AF919F918F911F901FBE1F90189507
:103200009C014FB7F89480917F0890918008A0911D
:103210008108B09182084FBF821B930B08952FB78E
:10322000F89480917F0890918008A0918108B091D6
:1032300082082FBF08950E940F199C01909170047D
:1032400080917104982B21F030936D0420936C04CD
:103250009091720480917304982B21F030936B0449
:1032600020936A04E0917A08F0917B08309749F046
:1032700082E080936E040480F581E02D8EE694E078
:103280000995089590E080E00E94AF0690E080E00C
:103290000E9499061092D8030E94261786E0EEE657
:1032A000F4E0DF011D928A95E9F71092680410920C
:1032B0006704109269040E941B1908958093ED0819
:1032C0000E94421908958091ED08982F96709630CB
:1032D00021F488600E945E190895877FFBCF21E06A
:1032E00030E001C0220F8A95EAF720958091ED0821
:1032F00082230E945E1908959091B70380958923D7
:103300008093B703282F277091F4282F082E000CE4
:10331000330B9217130659F09091840892FF07C05F
:103320008595859585950E946F191092B70308952C
:10333000CF93C0918408C2FB992790F9981791F018
:1033400080FBC2F9C09384086091830884E090E018
:103350000E9464316C2F82E290E00E94643182E02E
:103360000E947C19CF91089521E030E001C0220F26
:103370008A95EAF78091ED08822B0E945E190895E4
:103380008093DB030E94421908951092D903809123
:103390001501ECE3F3E0882361F08091830887FF57
:1033A00008C08EE1DF011D928A95E9F70E9442195B
:1033B000089586E0F7CFAAE2B0E0E1EEF9E10C94DF
:1033C00072308FEA98E02091F100DC012D93CD015D
:1033D000B8E0873B9B07B9F78091B008833009F4C8
:1033E00072C0B8F4813009F449C0823009F4B3C026
:1033F0008091E80083FF96C28091AF089091B00859
:103400009A3008F08FC2E92FF0E0E156FC4C0C94A2
:10341000AE308A3009F48EC08B3009F471C0893027
:1034200039F78091AF08813219F78091B3089091F4
:10343000B408009711F00397D9F68091E800877FD0
:103440008093E8008091E80082FF38C09091F300FB
:103450008091F200029731F48091F100813011F0F7
:10346000863021F48091F10080938A088091E800F1
:103470008B778093E8000E942005BACF8091AF0837
:10348000813A09F0B5CF8091E800877F8093E8000A
:103490008091B3089091B408892B61F460E28BE8C5
:1034A00098E070E00E94CC058091E8008B778093D3
:1034B000E8009ECF60E090E080E0F3CF8091AD081F
:1034C0008111C0CF95CF8091AF08813A09F090CF9C
:1034D0008091B3089091B408892B09F089CF80912D
:1034E000E800877F8093E8008091E80080FFFCCFB0
:1034F000809115018093F1008091E8008E77B9CF1B
:103500008091AF08813209F073CF8091B308909118
:10351000B408892B09F06CCF8091E800877F8093F5
:10352000E8000E9420058091B108809315010E9457
:10353000C5195ECF8091AF08813209F059CF8091D3
:10354000E800877F8093E8000E9420058091B20800
:10355000809389084DCF8091AF08813A09F048CF18
:103560008091E800877F8093E8008091E80080FFE9
:10357000FCCF80918908BECF803899F0823809F05D
:10358000D1C18091B3088F70873008F0CBC1809390
:10359000E9008091EB0085FB882780F91092E90013
:1035A00006C08091AB089091AC0891118260909117
:1035B000E800977F9093E8008093F1001092F1006B
:1035C0008091E8008E77AAC1882309F498C18230DF
:1035D00009F0A8C18091B10881119BC18091B30805
:1035E0008F702FEF280F263008F09CC18093E900E0
:1035F0002091EB0020FF8DC1933031F48091EB00DE
:1036000080628093EB0085C19091EB009061909374
:10361000EB0021E030E001C0220F8A95EAF7209309
:10362000EA001092EA008091EB008860EACF8111F5
:1036300079C11091B1081F778091E3008078812BC8
:103640008093E3008091E800877F8093E8000E94E8
:1036500020058091E80080FFFCCF8091E300806826
:103660008093E30082E0111183E08093AD085AC19A
:103670008058823008F056C12091B1083091B208CC
:103680002C3DE3E03E07A1F583E08A838AE289834B
:103690004FB7F894DE01139620E03EE051E2E32FAD
:1036A000F0E050935700E49120FF03C0E295EF70E3
:1036B0003F5FEF708E2F90E0EA30C0F0C7968D9399
:1036C0009D932F5F243159F74FBF8091E800877F8A
:1036D0008093E8006AE270E0CE0101960E94CC057A
:1036E0008091E8008B778093E8001CC1C096E7CFFB
:1036F0008091B3089091B408432F5527433051056A
:1037000009F44AC078F54130510509F47AC08BE7D5
:1037100090E0E2EDF7E04230510509F003C120915D
:10372000E800277F2093E8002091B5083091B60883
:103730008217930708F49C0140E02115310509F038
:1037400065C0411163C08091E80082FDC9CF8091BE
:10375000AD08882329F2853019F28091E80083FFB3
:10376000F2CFBECF4132510509F43CC0423251057F
:1037700009F0D8C08430910508F0D4C0FC01EE0FE8
:10378000FF1FE354FE4F0190F081E02D87549E4FC0
:10379000DC018C9190E01AC0332721303105D1F043
:1037A0002115310561F02230310509F0BBC0EFE58C
:1037B000F8E0E4918E2F90E0EFE5F8E007C0EFE746
:1037C000F8E0E4918E2F90E0EFE7F8E0009709F43D
:1037D000A9C0A5CFEDE6F8E0E4918E2F90E0EDE6EC
:1037E000F8E0F4CF8430910508F09CC0880F991F51
:1037F000FC01EB53FE4F0190F081E02D89E090E059
:103800008ECF82E190E0EDE4F8E089CF8091AD08C1
:10381000882309F465CF853009F462CF8091E800F0
:1038200083FD5ECF8091E80082FD8DCF8091E8001E
:1038300080FF83CF9091F3008091F2002115310534
:1038400019F08830910550F041E0089709F040E008
:103850008091E8008E778093E8006FCF4491409389
:10386000F1003196215031090196E8CF803809F0F6
:1038700059C08091E800877F8093E8008091AE086E
:103880008093F1009DCE81114DC01091B10812308E
:1038900008F048C08091E800877F8093E80010938B
:1038A000AE080E942005112311F084E005C080912C
:1038B000E30087FDFACF81E08093AD0842E061EC40
:1038C00081E00E943F0542E261EC86E00E943F05F4
:1038D00042E261EC82E00E943F0542E260EC83E05C
:1038E0000E943F0542E361EC84E00E943F0542E311
:1038F00060EC85E00E943F058091AD0813C0809187
:10390000B108813079F481E0933009F080E0809350
:10391000AC081092E9008091E800877F8093E8006E
:103920000E9420058091E80083FF0AC08091E80092
:10393000877F8093E8008091EB0080628093EB00AA
:10394000AA96E3E00C948E301F920F920FB60F925E
:1039500011242F933F934F935F936F937F938F9394
:103960009F93AF93BF93CF93DF93EF93FF93D09148
:10397000E900DF708091EC00C82FC17080FDC0E8C5
:103980001092E9008091F000877F8093F000789496
:103990000E94DB191092E9008091F000886080930A
:1039A000F000CD2BCF70C093E900FF91EF91DF9134
:1039B000CF91BF91AF919F918F917F916F915F91C7
:1039C0004F913F912F910F900FBE0F901F90189520
:1039D0000E94C5192FEF84E39CE021508040904065
:1039E000E1F700C0000088E19CE00FB6F894A895CC
:1039F000809360000FBE90936000FFCF882391F109
:103A00009CEF980F913A40F4682F8AE393E00E946C
:103A10003A060E942617089590E2980F983050F4C5
:103A2000877091E001C0990F8A95EAF7892F0E946B
:103A30006F0FEFCF9BE5980F933028F490E080E074
:103A40000E94AF06089598E5980F973128F490E00A
:103A500080E00E9499060895803F20F00E946B0C40
:103A60000E941B190895CF93C82F8823D9F18CEF9A
:103A70008C0F813AC8F580911501882311F180914E
:103A8000830887FF1EC0EC2FE695E695E695F0E0EB
:103A9000E65CFC4F828190E04C2F477021E030E0E3
:103AA00002C0220F331F4A95E2F782239323892B0A
:103AB00091F06C2F8AE393E00E943A060E94261749
:103AC0000AC0ECE3F3E082E493E02191C21789F3AA
:103AD0008E179F07D1F76C2F8AE393E00E9464064C
:103AE0000E942617CF91089580E28C0F883068F4E9
:103AF000C77021E030E001C0220FCA95EAF780913B
:103B0000D903822B8093D903EBCFEBE5EC0FE330A5
:103B100040F4F0E0EE5AFE4F808190E00E94AF0644
:103B2000E1CFE8E5EC0FE73150F4F0E0EE0FFF1FD6
:103B3000EB5AFE4F808191810E949906D3CFC03FFE
:103B400088F28C2F0E94260D0E941B19CBCF1F9349
:103B5000CF93DF93182FD0E0C0E0893311F4C0E594
:103B6000D0E0812F0E94331D209739F4812F0E94CD
:103B7000FE1CDF91CF911F9108958FE99FE001977F
:103B8000F1F700C000002197EFCF0F931F93CF9361
:103B9000DF93C62FD42F022FFC0182818823A9F046
:103BA0006093EC080E940F199093EB088093EA0849
:103BB000C77081E001C0880FCA95EAF70E9482179A
:103BC000DF91CF911F910F9108958091EC086813B8
:103BD00032C08091EA089091EB080E940019883C5D
:103BE000910548F510E21D0FCD17B9F080E28C0F5A
:103BF000883040F4C77081E001C0880FCA95EAF7A9
:103C00000E947B17183048F481E09D2F977001C007
:103C1000880F9A95EAF70E948217802F0E94A71DAD
:103C2000183070F6D77081E001C0880FDA95EAF796
:103C30000E947B17C5CFC77081E001C0880FCA956D
:103C4000EAF7F6CFA5E0B0E0E8E2FEE10C946430DC
:103C50008C01FC0183819481892B31F080819181D9
:103C600089238F3F09F0BFC52596E1E10C94803090
:103C70000E948611F82E682F89819A810E94B40FC4
:103C800069817A818F2D0E9478117C01F8018281EF
:103C9000882309F49BC5970122513F452031310506
:103CA00008F067C58FEF93E00E944631811128C06C
:103CB000FEEEEF0E57EF852E52E0952EE11032C04A
:103CC0001C821B82442443944AE0342E74018FEFFB
:103CD000E81AF80AC4010E94463189831A828823AF
:103CE00079F09FEF980F933058F58A83498292E0DC
:103CF000890E911CC7010E9446318B83811121C01E
:103D00008091B703877009F4AFCFF80182818823CF
:103D100009F4AACF8091840882FFA6CF82E00E9496
:103D20007C19A2CF811424E0920651F3C4010E94B1
:103D30004631811101C0EA943FEF831A930ABECF46
:103D40004701FE0131967F01F7012081222309F40A
:103D5000BDCF213009F047C091818281913031F48B
:103D6000F2E0EF0EF11C0E94A71D07C0923049F44B
:103D700022E0E20EF11C0E94331D3FEFE31AF30A2A
:103D8000E3CF933031F432E0E30EF11C0E94FE1CCD
:103D9000F4CF943021F08FEFE81AF80AEECF92E0DA
:103DA000E90EF11C30E020E0B7016F5F7F4FF701B3
:103DB00041818053990B8A30910550F0215031098F
:103DC000E0F28FE99FE00197F1F700C00000F6CF25
:103DD000329EF001339EF00D11249C012E0F3F1FE7
:103DE000842F7B01E1CFE22FF0E0EA5EFD4F54909B
:103DF000822F86958695869590E0FC01EA5FFD4FBF
:103E000064902770712C022E02C0759467940A94F6
:103E1000E2F7E1E06E227724FC01EA50FE4FA49025
:103E2000B12C022E02C0B594A7940A94E2F7F1E0F7
:103E3000AF22BB24FC01EA51FE4FC490D12C02C03A
:103E4000D594C7942A95E2F721E0C222DD246114BB
:103E5000710419F081EE0E94331DA114B10419F010
:103E600086EE0E94331D852D0E94A71DA114B1046A
:103E700019F086EE0E94FE1C6114710419F081EEA7
:103E80000E94FE1CC114D10409F477CF8CE26BCFE1
:103E900081E00E94B4190E94631932CF81E00E9430
:103EA0006F19F9CF82E0F5CF95EFE9169CE5F90699
:103EB00009F46CC008F466C027E245EE66EEF6EF42
:103EC000EF16FCE5FF0609F47DC4882309F49CC4C1
:103ED0001092EC0823E0E2162DE5F20608F05DC032
:103EE0003AEFE3163CE5F30630F4C70182509C45F7
:103EF000449708F05FC00E94051290938408809355
:103F00008308F2E1EF16FCE5FF0609F478C108F03A
:103F1000B6C039E0E3163CE5F30609F44EC108F0FB
:103F200079C095E0E9169CE5F90609F436C108F078
:103F30005FC0F3E0EF16FCE5FF0609F426C108F0C8
:103F400028C180918308816032E0E3163CE5F306E6
:103F500009F492C060918308F090840884E090E0B6
:103F60000E9464316F2D82E290E00E9464310E94D1
:103F7000C519C6CE27E245EE65EE24C426E241EE21
:103F800060EE20C427E245EE64EE1CC426E241EE5A
:103F900062EE18C428E241E0EFCF85EAE8168DE52D
:103FA000F80609F4A8CFF0F4E1E6EE16EDE5FE061A
:103FB00009F4A1CF96E1E9169CE5F90609F033C4AE
:103FC0008091D9038A7A91E009F490E090935A03A2
:103FD00069E2811165E38AE393E00E9464060E942E
:103FE00026178ECEC7018D5A9D45039718F783CFAC
:103FF00087E0E8168CE5F80609F4DBC080918308B9
:10400000806198E0E9169CE5F906B0F1809183089B
:10401000806432C0EDE0EE16ECE5FE0609F4D7C090
:10402000A0F4809183088E7F2BE0E2162CE5F20647
:1040300019F1809183088C603CE0E3163CE5F306BF
:10404000D8F0809183088D7F17C08FE0E8168CE54B
:10405000F80609F4CCC008F4BEC0E0E1EE16ECE5C9
:10406000FE0609F4C8C0809183088F7BF1E1EF164A
:10407000FCE5FF0609F06ECF809383086BCF2FEF2E
:10408000E2162CE5F20609F4C4C0D8F58AEFE8166A
:104090008CE5F80609F485C0D0F4E4E1EE16ECE511
:1040A000FE0609F4C4C008F4B0C025E1E2162CE510
:1040B000F20609F04FCF8091830882FB992790F98F
:1040C00021E0922790FB82F990FB83F9D5CF3CEF5A
:1040D000E3163CE5F30609F482C008F466C09DEFE0
:1040E000E9169CE5F90609F47EC080918408836096
:1040F000EEEFEE16ECE5FE0609F02CCF8093840877
:1041000029CFF1E6EF16FDE5FF0609F49BC0A0F408
:1041100031E0E3163DE5F30609F492C008F47DC0F2
:1041200060E092E0E9169DE5F90609F013CF8EE014
:1041300090E00E9464310ECFEDEAEE16EDE5FE064A
:1041400001F168F490918308892F8E7F90FF816040
:1041500025EAE2162DE5F20609F48ECFFBCE3EEA03
:10416000E3163DE5F30679F18FEAE8168DE5F806EA
:1041700009F0F0CE90918408892F877F93FF8860A3
:10418000BDCF809184088860B9CF80918308826018
:1041900073CF8091830884606FCF8091830888609B
:1041A0006BCF809184088160A9CF80918408826060
:1041B000A5CF8091830880625FCF0E94C51980914E
:1041C0008308806859CF80918408877F97CF80913A
:1041D00083088B7F51CF80918308877F4DCF80915B
:1041E00084088E7F8BCF809184088D7F87CF8091CC
:1041F00083088F7E41CF809183088F7D3DCF0E94C1
:10420000C519809183088F7737CF80918308837F8A
:1042100033CF809184088C7F71CF80918408982F50
:10422000909591708E7F892B90FB81F967CF0E94CA
:10423000C51990918308892F97FB87F980581CCF67
:1042400061E075CF90918308892F8F7E94FF806104
:1042500013CF4BE657E066E777E00E94D20650CDD9
:1042600046E757E06BE677E0F8CF4CE357E067E4CA
:1042700077E0F3CF47E457E06CE377E0EECF40E23E
:1042800057E06EE277E0E9CF4EE257E060E277E098
:10429000E4CF42E157E064E077E0DFCF48ED56E05D
:1042A00066EE76E0DACF46EE56E068ED76E0D5CF02
:1042B00061E081E00E94520723CD61E085E0FACF02
:1042C0000E94C519EFEFF4E32CE0E150F0402040EC
:1042D000E1F700C000000E948E108091840882FBEC
:1042E000882780F991E089270E949819F801828136
:1042F000E080F180882309F445C0C7010E9486113F
:10430000D82E682FC7010E94B40FB7018D2D0E94CF
:1043100078110E94DC0D7C01882EF801D280B580D6
:10432000B2943FE0B3228091B7038770C1F0AD2C07
:10433000DD20B1F08F2D807F803421F080E28E0D62
:10434000883068F08091840882FF09C082E00E9472
:104350007C198091B7038770AA24A3948111A12CA2
:104360009F2C92942FE09222FBE0F91508F479C07B
:10437000E92DF0E0E755FC4C0C94AE3081E0B4CF71
:1043800080E0B2CFC7010E94800FD82EBECF2F2D64
:104390002F70C22E8F2D807F19F0C29490EFC9220A
:1043A000DD20B9F0CC2069F080E28E0D883010F06D
:1043B000811009C08091D903C82AC092D9030E94F4
:1043C00026178E2D4CC08091D803C82AC092D803DE
:1043D000F6CF8E2D0E94FE1CCC2009F442C080E254
:1043E0008E0D883010F0811004C08C2D0E946F0F4C
:1043F00006C0C0948091D803C822C092D8030E94FE
:1044000026172FC03F2D3F70C32E8F2D807F803207
:1044100019F0C29480EFC822882089F081E08816C4
:1044200009F468C0DD2009F472C0BB2009F468C03B
:10443000F801858180FFC5CF8F70858361C0209191
:10444000840822FD35C0DD2069F1CC2039F080914F
:10445000D903C82AC092D9030E94261780E00E947F
:10446000331D292D2850330B2430310510F40E94C0
:10447000C506AA2009F4F8CB8091B70380FDF4CBE0
:10448000F80112828595859585950E94B419C80119
:104490000E94221E8091B7038595859585950E947F
:1044A0006F19E2CB80E00E94FE1CCC20D1F29DCFA0
:1044B000DD2099F09091DA038C2D892BB11003C087
:1044C0000E948217CECFE1E0BE12FACF22FFC9CF01
:1044D000981739F28093DA03C4CFB11006C00E9456
:1044E000690F8C2D0E947B17BCCFF1E0BF1609F439
:1044F000B8CFF5CFDD2031F025E02B1508F4B1CF92
:104500008C2DDECF34E03B1508F4ABCFEACFBB20D7
:1045100041F3F9E38F1209C02FEF37EE83E021500A
:1045200030408040E1F700C000008E2D0E94FE1C4C
:1045300098CF8F2D86958695837061F0813009F034
:1045400090CFC7019370D11002C090E080E00E942C
:10455000990687CFC7019370D11002C090E080E028
:104560000E94AF067ECF8E2DDD2029F00E94260D01
:104570000E941B1976CF0E946B0CFACF8F2D83708F
:1045800091F5D1106ECF4E2D429546954770440F50
:10459000440F8E2D8F70042E01C0880F0A94EAF705
:1045A0002E2D2071E4FE07C02FE030E001C0220F65
:1045B0004A95EAF720953F2D36953695337032307F
:1045C00069F050F44091DB03313029F0822B8423D1
:1045D0000E94C01946CF842B822BFACF282B8091C2
:1045E000DB038227F5CF8695DD2011F08F2D8170BA
:1045F000882309F436CF4E2D429546954770440FD7
:10460000440F8E2D8F70042E01C0880F0A94EAF794
:104610002E2D2071E4FE07C02FE030E001C0220FF4
:104620004A95EAF720953F2D36953695337032300E
:1046300069F050F44091ED08313029F0822B842349
:104640000E945E190ECF842B822BFACF282B8091EB
:10465000ED088227F5CF9F2D9F70F92EDD2029F0E0
:10466000892F0E94B4198E2D2BCF8E2D0E947B177F
:104670008F2D0E946F19F5CE8E2DE2EF8E16B1F1BF
:10468000E81570F0F0EF8F16D1F021EF821691F05F
:10469000DD2009F45EC0B11094CE8F2D8F712AC039
:1046A00033EF831651F194EF8912F2CF8091840891
:1046B00082FD2FC08F2D8F71DD20D9F21BC0DD2030
:1046C00081F0E4E0EB1508F4CCCE2F2D2F7181E0C2
:1046D00090E001C0880F2A95EAF79091ED088927AC
:1046E000AFCFF5E0FB1508F4BCCEEFCF8F2D8F7167
:1046F000D110BFCF0E94B419B4CE80E0DD2009F400
:104700009FCF9F2D9F7181E001C0880F9A95EAF796
:1047100097CFDD2099F02F2D2F71F22E822F0E943E
:10472000B4198091840882FF07C038E0F39EC0016D
:10473000112483608093B7038F2DDCCF81E00E942A
:104740007C1981E08B1508F08CCE82E00E947C19E8
:1047500088CEBB2059F0893309F0E7CE9FEFE7EE12
:10476000F3E09150E040F040E1F7DDCE8F2D8F7106
:1047700080CFF0E1EF16FFE5FF0609F489CB21E1D8
:10478000E2162FE5F20609F48DCB93EFE9169CE5CE
:10479000F90609F4F3CB08F087CBF8EDEF16FCE54A
:1047A000FF0609F4E7CB29EDE2162CE5F20609F441
:1047B000F1CB37EDE3163CE5F30609F086CB26E2B4
:1047C00041EE61EEC8010E94C51D9ACA30E1E316B0
:1047D0003FE5F30609F462CB91E1E9169FE5F9069E
:1047E000A1F682E05CCB85E0DE01119601900D928E
:1047F0008A95E1F7F801228189819A81211138CACD
:104800000E94800FF82E3CCAF6E1EF16FCE5FF0689
:1048100071F580915A0369E2811165E38AE393E0BF
:104820000E943A06DCCB2AE5E2162DE5F20609F4F1
:10483000A5CD78F4E1148CE5F80609F441CD9EEDA0
:10484000E9169CE5F90609F051CD0E9498170E94DF
:10485000E81CECE5EE16EDE5FE0609F43ECD08F4A5
:104860008FCD27EAE2162DE5F20689F33FCD809140
:10487000D90382723AECE3163CE5F30609F409CD5C
:10488000E0F5E5ECEE16ECE5FE0609F4EECCE0F41E
:1048900023ECE2162CE5F20609F4DBCC08F0E0CCC0
:1048A00082ECE8168CE5F80609F020CD8091BB0873
:1048B00091E089278093BB08109214018091B7057D
:1048C00081608093B7051CCA97ECE9169CE5F90650
:1048D00009F4D5CC08F4CECCF8ECEF16FCE5FF06D5
:1048E00009F4D2CC44E057E062E177E029ECE2162B
:1048F0002CE5F20609F4B1CCF9CC3FECE3163CE52B
:10490000F30609F4DACCB8F4ECECEE16ECE5FE06AE
:1049100009F4C9CC08F4C2CC2DECE2162CE5F20661
:1049200009F4C6CC61E082E03EECE3163CE5F30618
:1049300009F4C0CCDBCC86EDE8168CE5F80648F42B
:1049400061E08AE091EDE9169CE5F90608F4B2CC45
:10495000D7C9EDE5EE16FE0609F4D2C9C7CC1F9300
:10496000CF93DF9380918403807F09F049C08091C9
:104970008103882309F444C08091B603D091850354
:1049800060917F0370918003A0918203B0918303B3
:10499000C62FC72316E0D81799F190E0109711F0B1
:1049A000CF3F19F401968770F6CF189F9001199F99
:1049B000300D1124F901EA57FC4F41814713F2CF22
:1049C00040814613EFCF42814111ECCF43815481A6
:1049D0004A1B5B0B483C510528F7809184038F707C
:1049E000806180938403F901E557FC4F80818F70CB
:1049F000806180838FE793E00E94221E0E94760FE1
:104A0000DF91CF911F910895A1E1B0E0EAE0F5E2D6
:104A10000C946B308C0185E0F801DE011D9601904D
:104A20000D928A95E1F7F801E2808FE7A82E83E0E6
:104A3000B82E60918203709183036115710509F4AA
:104A400026C190917F0340918003892F84238F3F5B
:104A500009F41DC120813181C380D480F09081038D
:104A6000F601E61BF70BFF2009F4DCC080918403FC
:104A7000582F507FE83CF10508F09FC051116BC0E2
:104A8000FE2C431314C0921312C0E11010C08F709B
:104A9000806180938403C5010E94221E809184035B
:104AA000F80185838F2D6196EAE00C948730C1145C
:104AB000D10429F0822F83238F3F09F003C180E0C6
:104AC000F82FF170DF2E80FF3CC08091B60340913B
:104AD000850356E0841315C02D873E878D859E85FE
:104AE0000E94B511292F22952F702230F0F024302A
:104AF00018F59F70F1F0F8019581907FD1F4D12CD9
:104B00001EC090E0589FF001599FF00D1124EA5704
:104B1000FC4F6181361306C06081261303C0628199
:104B2000E6120FC001968770D5CF9F7011F08823D1
:104B300031F3805E883018F3C8010E94221EFD2CDC
:104B4000B1CFEE2009F4AECF8091840381608093D1
:104B50008403F12CA7CF431306C0921304C0F801BD
:104B6000EE2009F479C0C8010E94C211882309F11E
:104B7000EE20F9F080918403803270F020917F0361
:104B80003091800338872F831986DB86CA868C870D
:104B9000CE0107960E94221E86E0F801AFE7B3E03F
:104BA00001900D928A95E1F70E94AF24FF24F394BF
:104BB00079CFC8010E94221EF9CF51110AC08FE798
:104BC00093E00E94221E86E0F50111928A95E9F792
:104BD000C0CF43130FC092130DC0E1100BC0F801FA
:104BE0008583C8010E94221E86E0F50111928A95F4
:104BF000E9F758CFC8010E94C2118823D1F2EE20F4
:104C0000C1F280918403803238F220917F03309189
:104C100080033A8329831B82DD82CC828E83CE017E
:104C20000196B8CFE83CF105F8F6FE2CEE2009F22B
:104C300043131FC092131DC08091840380FD10C0D8
:104C4000982F907F69F0F8018583903F31F0982F7D
:104C5000907F905F8F70892B8583C8010E94221EF0
:104C600086E0F801AFE7B3E001900D928A95E1F795
:104C700019CFC8010E94C21181118ECF8091840387
:104C8000816080938403C8010E94221E0BCFEE2016
:104C900009F48FCFC8010E94C211F82E882309F4AD
:104CA00088CF86E0F801AFE7B3E001900D928A95D6
:104CB000E1F780917F03909180030E94B5110E94DB
:104CC000AF24F0CE81E08E25FBCEA7E1B0E0EBE68D
:104CD000F6E20C9472304B8B5C8B6D8B7E8B8F8BE2
:104CE00061111092D8031A8A198A85E0FE01739621
:104CF000DE011D9601900D928A95E1F786E0FE0196
:104D00003D96DE01179601900D928A95E1F7CE014E
:104D100007960E940425882359F016E08091B60377
:104D200090918503891343C06796E3E00C948E301D
:104D300086E0FE013796DE01119601900D928A956C
:104D4000E1F78A859B85892B41F38F81988589239B
:104D50008F3F19F32091850330E0C90101968770D8
:104D600099274091B6034817190671F40E94C51996
:104D7000109285031092B60386E0EFE7F3E0DF01BF
:104D80001D928A95E9F7C9CF96E0929FD001939F33
:104D9000B00D1124AA57BC4FFE01319601900D921F
:104DA0009A95E1F7809385030E94760FB6CF819F95
:104DB000C00111248A579C4F0E940425882309F4BE
:104DC000B3CF8091B60390E00196877099278093C6
:104DD000B603A4CFACE0B0E0E0EFF6E20C946930AB
:104DE0008E010F5F1F4F8CE0F80111928A95E9F751
:104DF00093E8E92E91E0F92E6801AA24A394B12C3E
:104E0000F70181917F018F3F09F446C0F894E82FA4
:104E1000E295EF70F0E021A18F70A50102C0440F70
:104E2000551F8A95E2F7CA01922F982B91A392A160
:104E30008095892382A3789400C0E9E8F1E021E01D
:104E400030E0912C812C41914F3F09F467C0A42F91
:104E5000A295AF70B0E090968C9190E04F7002C038
:104E6000959587954A95E2F780FD58C0C901882A33
:104E7000992A220F331F51E0E839F50721F7F7018E
:104E8000319780818F3F11F00E94820D80EA8A95D0
:104E9000F1F7F60191828082F2E0CF0ED11C49E851
:104EA000E41641E0F40609F0ABCF4CE050E0B80165
:104EB0008FED93E00E942031892B99F18CE0F8016D
:104EC000AFEDB3E001900D928A95E1F781E0809318
:104ED000DE030E940F199093DD038093DC03809121
:104EE000DC039091DD030E9400190397F0F04CE081
:104EF00050E06FED73E08BEF93E00E942031892B3F
:104F0000C9F08CE0EFEDF3E0ABEFB3E001900D9270
:104F10008A95E1F781E01092DE0308C090E080E01E
:104F2000A6CF8091DE038111DACF80E02C96ECE0F1
:104F30000C94853080E0EFCF1F921FB61F92112492
:104F40008F939F93AF93BF9380917E08811113C07D
:104F500080917F0890918008A0918108B09182088B
:104F60004196A11DB11D80937F0890938008A09366
:104F70008108B0938208BF91AF919F918F911F904C
:104F80001FBE1F901895CDB7DEB7C255D1090FB619
:104F9000F894DEBF0FBECDBF85B7806885BF85B7EB
:104FA000806885BF84B7877F84BF0FB6F894A895C3
:104FB00080916000886180936000109260000FBE55
:104FC00080E890E00FB6F8948093610090936100C0
:104FD0000FBE80E89DE09093390380933803279AB1
:104FE0002F9A0E947C040E9471058091E2008460E7
:104FF0008093E20078948091AD088823A1F010910D
:10500000E9001F709091EC00892F817090FD80E87D
:10501000182B1092E9008091E80083FD0E94DB19B3
:105020001F701093E90082E084BD93E095BD9AEF74
:1050300097BD80936E000E94EC11811102C00E9406
:10504000391103E811E0D8018D918D018F3F11F0E6
:105050000E94820DB1E009381B07A9F709E811E0A9
:10506000F80181918F018F3F11F00E94820DF1E0D4
:1050700008391F07A9F78CE0EBEFF3E0DF01282FD9
:105080001D922A95E9F7EFEDF3E0DF011D928A9575
:10509000E9F70E948C17811102C00E94981782E0E4
:1050A00090E00E9446318093ED030E940512909398
:1050B0008408809383080E94EA26EFEBFDE5319790
:1050C000F1F700C000000E94EA268091FB0380FFF8
:1050D00008C06FEF7FEF90E080E00E9482310E9475
:1050E0008E1083E090E00E9446310E94C0190E9419
:1050F000F3121092C1088FEF9FEF9093DB0880931B
:10510000DA089093DD088093DC089093DF088093A1
:10511000DE089093E1088093E0089093E308809381
:10512000E2089093E5088093E4089093E708809361
:10513000E6089093E9088093E80810928905909317
:10514000A3058093A2059093A5058093A405909351
:10515000A7058093A6059093A9058093A805909331
:10516000AB058093AA059093AD058093AC05909311
:10517000AF058093AE059093B1058093B0050E9472
:105180008C17811104C00E9498170E94121746E0E4
:1051900050E06CE170E08BEB98E00E9436311092A9
:1051A000B7058091BB088C7F11F40E94121784E030
:1051B00091E090937B0880937A088091AD088530C8
:1051C00099F480E4F82EEE24E39493E0D92E00E1E4
:1051D00012E18091AD08853009F4F9C00E94C5192B
:1051E0000E94C5061092B6050E94EA268EEE93E054
:1051F0002F969FAF8EAF2F970BEFE02E03E0F02E90
:10520000D701FC01219131918D919D9143E0EA3FBD
:10521000F40709F42CC128173907A1F31DEC212E3E
:1052200011E0312E8BEF93E061969FAF8EAF6197C7
:10523000712C6196AEADBFAD6197CD90DD9061965A
:10524000BFAFAEAF61972F96EEADFFAD2F978191B7
:1052500091912F96FFAFEEAF2F978C159D0509F416
:10526000ACC09C012C253D2563963FAF2EAF6397C4
:105270002D963FAE2EAE2D97612CAA24A394B12C6F
:1052800063968EAD9FAD63978A219B21892B09F48C
:105290007EC086010A211B2127966FAE279728968C
:1052A0007FAE289781E00115110509F480E0299669
:1052B0008FAF29970E940F198160782F2B969FAF8F
:1052C0008EAF2B9727964FAD279728965FAD2897DF
:1052D00029966FAD29972B968FAD2B970E94652647
:1052E000012B41F02D96AEADBFAD2D978C918F3F28
:1052F00009F008C2412C042D10E080918905800F2F
:10530000912F911D09976CF1E8E08E2E912C801A57
:10531000910AB80166577A4FA4018AE895E00E9485
:105320002D31B8016E567A4FA40182E995E00E94B2
:105330002D31A401440F551FB801660F771F6E551C
:105340007A4F82EA95E00E942D31B80166567A4F75
:10535000A4018AE995E00E942D3188E084198093A8
:1053600089058091890590E0A52DB0E09D01220F6F
:10537000331F295D3D4FAA0FBB1FBD01685D7D4FE7
:1053800041E0480F941508F4C1C1809389056394E6
:10539000AA0CBB1C2D96EEADFFAD2D9731962D9628
:1053A000FFAFEEAF2D97FFE06F126ACF2F96EEADF5
:1053B000FFAD2F973297D182C08273942FE0220ED7
:1053C000311C36E0731235CF0E942E0682C08091C8
:1053D000AD08843009F438C00E944B168091B605A0
:1053E00081110DC00E94CF13109213018091BB0850
:1053F0008370809312010E949612D0921401E09261
:10540000B60510927E0828E130E00FB6F894A89512
:10541000209360000FBEF092600083B7817F8460AC
:1054200083BF83B7816083BF7894889583B78E7F6D
:1054300083BF0FB6F894A89580916000886180932F
:105440006000109260000FBE8091AC08882309F4C0
:10545000C0CE0E94EA26EBEFF3E081919191892B77
:1054600009F021C534E0E730F307B9F7B2CE2817C9
:10547000390709F0D3CE0E940F198C018091EB03FC
:105480009091EC030817190721F18FEF22968FAF47
:10549000229723968FAF239724961FAE24970E94BE
:1054A0000F198160782F26969FAF8EAF2697229690
:1054B0004FAD229723965FAD239724966FAD249727
:1054C00026968FAD26970E9465261093EC030093D5
:1054D000EB030E944B1686E0EEE6F4E0DE01119647
:1054E00001900D928A95E1F7109270041092710468
:1054F00010927204109273048B819C81892B09F4A1
:105500004AC080916C0490916D040E9400199C0126
:1055100090916804992309F4FCC425313105D8F130
:105520009F3F19F09F5F909368041B81112359F0EE
:105530000E94060D9FEF11160CF491E0899F802DBB
:105540001124809370041C81112359F00E94060DD0
:105550009FEF11160CF491E0899F802D1124809308
:105560007104309170043323B1F02091710422232F
:1055700091F045EB3403C0011124992309F4DBC0F9
:105580009093700445EB240390011124332309F414
:10559000D6C0309371048D819E81892B09F44AC055
:1055A00080916A0490916B040E9400199C01909173
:1055B0006704992309F4A8C421353105D8F19F3F28
:1055C00019F09F5F909367041D81112359F00E9489
:1055D000E40C9FEF11160CF491E0899F802D1124AB
:1055E000809372041E81112359F00E94E40C9FEFF6
:1055F00011160CF491E0899F802D1124809373047F
:10560000309172043323B1F020917304222391F07E
:1056100045EB3403C0011124992309F494C09093FD
:10562000720445EB240390011124332309F48FC045
:105630003093730446E050E0BE016F5F7F4F8EE60B
:1056400094E00E942031892B61F480917004909144
:105650007104892B90917204892B90917304892B8A
:1056600011F00E941B1986E0FE013196AEE6B4E00F
:1056700001900D928A95E1F70E94C5069091FA0378
:10568000891721F08093FA030E942E068091AD08BD
:10569000843009F460C08091AD08843009F08DCD6C
:1056A00085E08093E9008091E80082FF86CD8091BB
:1056B000E80090E085FF09C050E040E060E470E061
:1056C000CE0101960E94F60491E08091E8008B776C
:1056D0008093E800992309F470CDE981EE2309F461
:1056E0006CCDEA3008F4EBC18FED8E0F883008F0F6
:1056F00064CDE252E73008F064C3F0E0EB54FC4CB8
:105700000C94AE30582E44244394F5CD90E0FC0127
:10571000E757FA4FD9015C915183DB015C915187C6
:10572000518A880F991FFC01E757FA4F128E118E8C
:1057300091E0842F25CE81E08093700423CF81E017
:105740008093710428CF81E0809372046ACF81E056
:10575000809373046FCF83E08093E9008091E80029
:1057600082FF99CF8091E80090E085FF09C050E06A
:1057700040E060E270E0CE0101960E94F60491E004
:105780008091E8008B778093E800992309F483CF18
:10579000E981E150E33108F061C0F0E0E454FC4CF1
:1057A0000C94AE301A828AE08B8311C08A818230D9
:1057B00009F4A1C3833091F1813009F04FC00E94F8
:1057C0002E060E94B4306B837C838D839E838091F0
:1057D000AD08843009F05FCF1091E9001F709091FF
:1057E000EC00892F817090FD80E8182B82E0809377
:1057F000E9008091E80080FF0DC050E040E060E2E9
:1058000070E0CE0101960E94CC048091E8008E7772
:105810008093E8001F701093E9003DCFFE013196A0
:1058200087E094E0D7012C9111963C91B2E0EB0E09
:10583000F11C3283238332968E159F0599F7C7CFCB
:105840008A81823059F46B817C818D819E810E9496
:10585000B43086E290E00E946431B9CF8FEF898343
:10586000B6CF4C816B818A810E9449119827892784
:1058700098279E838D83ABCF2D813E8132272327AE
:1058800032274C816B818A810E94C210A0CF0E9476
:10589000E8109DCF8A818138E9F088F4803809F0DA
:1058A00096CF4B812FEF429F412D11248091BC0850
:1058B00020E06091BD0890E00E94F40688CF823815
:1058C00001F1833809F083CF8B8120E04091BE083D
:1058D0006C81F1CF60E08B810E9452078B81811136
:1058E00003C00E94820773CF8091BB08837011F4BC
:1058F000109214018091BB088C7F81608093BB085B
:1059000066CFEB818FE7E43020F4F0E0E856FE4FFD
:1059100080818093BF085BCF8A818138E1F078F481
:10592000803809F054CF8091BE08EFEF8E9FC00100
:1059300011246FEF70E00E944F306B8348CF8238A4
:1059400079F0833809F043CF8091BC088B83809134
:10595000BD088C833CCF8091BB088695869524CF6B
:105960008091BF08873230F08F3530F08E3930F0BB
:1059700083E01ACF80E018CF81E016CF82E014CF09
:105980000E94401624CF80E18A8321CF81E08A8360
:1059900089E00ACF0A811B811027012710279E0169
:1059A0002F5F3F4F6901EC80C9018E0D911D7C0175
:1059B000C80189509D4FEC14FD0409F408CF09304B
:1059C000A1E01A0750F40E944631F60184830F5F6C
:1059D0001F4FBFEFCB1ADB0AEBCFD60114961C92F8
:1059E000F6CF0A811B81102701271027FE0131966F
:1059F0006F01EC80E00EF12EF11CC80189509D4F23
:105A0000E016F10609F4E3CE0930F1E01F0728F4AF
:105A1000D60114966C910E946431BFEFCB1ADB0A59
:105A20000F5F1F4FEACF0E94B210D1CE84E0ACCFFF
:105A30000A811B81102701271027FE0131966F0173
:105A4000EC809F012E0D311D7901C8018796EC1461
:105A5000FD0409F4BCCE003D32E0130758F40E9467
:105A60004631D60114968C930F5F1F4FFFEFCF1A6C
:105A7000DF0AEBCFF6011482F7CF0A811B811027D2
:105A8000012710279E012F5F3F4F6901EC80E00E38
:105A9000F12EF11CC80187960E151F0509F497CE4B
:105AA000003D32E0130728F4D60114966C910E9451
:105AB0006431BFEFCB1ADB0A0F5F1F4FEBCFE25011
:105AC000E83028F4F0E0E153FC4C0C94AE3081E077
:105AD000809327048EE0809328048981893009F41B
