:100000000C9442040C947A040C947A040C947A04B0
:100010000C947A040C947A040C947A040C947A0468
:100020000C947A040C947A040C94CB140C94271E30
:100030000C941F290C947A040C947A040C947A047E
:100040000C947A040C947A040C947A040C947A0438
:100050000C947A040C94A4150C947A040C947A04ED
:100060000C947A040C947A040C947A040C947A0418
:100070000C947A040C947A040C947A040C947A0408
:100080000C947A040C947A040C947A040C947A04F8
:100090000C947A040C947A040C947A040C947A04E8
:1000A0000C947A040C947A040C947A0405010902E5
:1000B000A10185020901A1000509190129081500FE
:1000C0002501950875018102050109300931158165
:1000D000257F95027508810609381581257F9501D0
:1000E00075088106050C0A38021581257F95017572
:1000F000088106C0C005010980A101850319012AF4
:10010000B700150126B700950175108100C0050CD8
:100110000901A101850419012AA002150126A002E6
:10012000950175108100C005010906A1018506052C
:100130000719E029E71500250195087501810205D9
:1001400007190029EF1500250195F07501810205B9
:10015000081901290595057501910295017503910D
:1001600001C00659FF0960A1010962150026FF00C0
:100170009540750881020963150026FF00954075BA
:10018000089102C00660FF0961A1010962150026FD
:10019000FF009520750881020963150026FF009570
:1001A0002075089102C005010906A101050719E0A3
:1001B00029E715002501950875018102950175084B
:1001C00081010507190029FF150026FF0095067516
:1001D0000881000508190129059505750191029509
:1001E0000175039101C00000000000000000000044
:1001F00000000000000000000000000000000000FF
:10020000000000000000000000007E0F00D4FFFF8F
:10021000FFC70000007800000000000000002A2B4B
:1002200028000000000000000000000000000000A6
:100230000029000000002C1E34202122243426270F
:10024000252E362D3738271E1F2021222324252630
:100250003333362E37381F0405060708090A0B0CFE
:100260000D0E0F101112131415161718191A1B1C46
:100270001D2F3130232D350405060708090A0B0C04
:100280000D0E0F101112131415161718191A1B1C26
:100290001D2F3130354C0001010101010101010127
:1002A0000202020202020202020303030303030327
:1002B00003040404040404040505050505060606F4
:1002C0000606070707070708080808090909090AB1
:1002D0000A0A0B0B0B0C0C0C0D0D0D0E0E0E0F0F56
:1002E0000F101011111112121313141415151616E4
:1002F0001717181819191A1A1B1B1C1D1D1E1E1F53
:100300002020212222232424252626272829292AA1
:100310002B2C2D2D2E2F30313232333435363738C9
:10032000393A3B3C3D3E3F404142434445464748C5
:10033000494A4C4D4E4F50515354555658595A5B9B
:100340005D5E5F616264656668696B6C6D6F70723B
:10035000737577787A7B7D7E8082838587888A8CA7
:100360008E8F91939596989A9C9EA0A2A3A5A7A9DB
:10037000ABADAFB1B3B5B7BABCBEC0C2C4C6C9CBD2
:10038000CDCFD1D4D6D8DBDDDFE2E4E7E9EBEEF088
:10039000F3F5F8FAFDFF2070800198500209103142
:1003A00084108811061800F2871F78D20927F0B24E
:1003B0008B2E68930D36E0738F3D68900106E070D8
:1003C000830D58510515D031871C48120924C0F2FD
:1003D0008A2B2CA04002A480C2091C6144119441C4
:1003E000C6180C2248208402CA27FCE24B2F74C393
:1003F000CD36ECA34F3E38D30C33B0B38E3A2894AD
:10040000104274C0C106ECA0430E6481C515DC61C6
:10041000471D5442C92438D00003B0B0820A289145
:100420000412A07186191852082190328A280813E4
:100430000C3080F38D37F8D30F3FCC224B2C440384
:10044000CD33BCE34E3B34C4D04240F4904364848B
:10045000D1454400C103BCE0420B34C1C412ACA17D
:10046000461A2482C8219C624A291443CC308C232A
:100470004E380404D03F88141248ACA4524AD034F9
:10048000934CF4C4D34E185514513CE5545350309A
:100490008104C810030C40F18413B8D1061B30B29C
:1004A0008822A8920A2A20738C3198530E3910346E
:1004B0009040607595554C24514470B491469444D5
:1004C000D248B8D4124BDC64534D00F5934F2485C9
:1004D000D4515C604105D440C30C4C214514C40187
:1004E000C71B3CE24823B4C2CA2A2CA34C32A483C3
:1004F000CE391C645041481515546CA555565854B6
:10050000114529003A003B003C003D003E003F0001
:1005100040004100420043004400450046004700BF
:1005200035001E001F0020002100220023002400AF
:100530002500260027002D002E002A0049002B0050
:1005400014001A000800150017001C0018000C0009
:10055000120013002F00300031004C00390004005D
:100560001600070009000A000B000D000E000F0026
:1005700033003400280000000000E1001D001B00D3
:100580000600190005001100100036003700380081
:10059000E500000052000000E000E300E20000007F
:1005A00000002C00000000000000E6000151E40003
:1005B000500051004F000100010001000100010046
:1005C0000100010001000100010001000100010023
:1005D0000100C25C010001000100010001000100F6
:1005E000010001000100010001004C0001004D006C
:1005F0000100010001000100C55CC65CC75CC85C6D
:10060000C95CCA5CC35C0100010001004900010033
:1006100001000100010001000100010001000100D2
:1006200001000100010001000100000000000100C4
:1006300001000100010001000100145C0100010043
:100640000100010001000000A900000001000100FC
:100650000100000000000100000000000000010097
:1006600001000100AC00AA00AB0001000100010084
:100670000100010001000100010001000100010072
:100680000100010001000100010001000100010062
:100690000100010001000100010001000100010052
:1006A0000100010001000100010001000100010042
:1006B0000100010001000100010001000100010032
:1006C0000100010001000100010001000100010022
:1006D0000100010001000100010001000100000013
:1006E0000000010001000100010001000100010003
:1006F00001000100010001000100000001000000F4
:1007000001000100010000000000010000000000E5
:1007100000000100010001000100010001000100D2
:1007200001000100010001000100010001000100C1
:1007300001000100010001000100010001000100B1
:1007400001000100010001000100010001000100A1
:100750000100010001000100010001000100010091
:100760000100010001000100010001000100010081
:100770000100010001000100010001000100010071
:100780000100010001000100010001000100010061
:100790000100000000000100010001000100010053
:1007A0000100010001000100010001000100000042
:1007B0000100000001000100010000000000010034
:1007C0000000000000000100010001000100010024
:1007D000010009027B00040100A0FA0904000001E5
:1007E00003010100092111010001224000070581D8
:1007F000030800010904010002030000000921119F
:1008000001000122220007058203200001070503E1
:100810000320000109040200020300000009211165
:10082000010001222200070584034000010705059D
:100830000340000109040300010300000009211125
:1008400001000122B6000705860320000112010005
:100850000200000008EDED81000100010200010C22
:100860000374006500670069006300000010034D19
:100870000065006C004700650065006B0000000427
:100880000309040011241FBECFEFDAE0DEBFCDBFA5
:1008900004B603FE18C08091600A9091610AA0918D
:1008A000620AB091630A8730904BA740B04B59F46D
:1008B0001092600A1092610A1092620A1092630A02
:1008C000E0E0F8E309952AE0ACE4B4E001C01D9251
:1008D000A036B207E1F714E0A0E0B1E0ECEEFBE6F1
:1008E00002C005900D92AC34B107D9F70E94462999
:1008F0000C94A3350C940000E8EDF0E080818E7F2D
:1009000080831092E2001092DA001092E100A0EED3
:10091000B0E08C9181608C9380818F77808319BC4B
:10092000A7EDB0E08C918E7F8C9380818F7E808349
:100930001092FA0908952091E4003091E50095E6BF
:10094000A9012091EC00822F817020FF06C08091C8
:10095000E80080FF06C080E008952091E80022FDB5
:100960001AC080911F0A882389F0853089F0809110
:10097000EB0085FD0FC02091E4003091E5004217A7
:100980005307F9F29150E1F684E0089582E008956A
:1009900083E0089581E00895EF92FF920F931F93F3
:1009A000CF937C018B010E949B04C82F811117C03B
:1009B0008091E80085FD0BC08091E8008E778093E0
:1009C000E8000E949B04882399F3C82F08C0F70110
:1009D00081917F018093F1000150110949F78C2F1B
:1009E000CF911F910F91FF90EF900895EF92FF929A
:1009F0000F931F93CF937C018B010E949B04C82F00
:100A0000811117C08091E80085FD0BC08091E8003E
:100A10008B778093E8000E949B04882399F3C82F6A
:100A200008C08091F100F70181937F010150110905
:100A300049F78C2FCF911F910F91FF90EF90089560
:100A40008091210A87FF13C08091E80082FF06C0D1
:100A50008091E8008B778093E80004C080911F0AA2
:100A60008111F2CF089580911F0A8823D9F38091D4
:100A7000E80080FFF8CF8091E8008E77ECCF982FC8
:100A80009093E900242F762F50E0891731F0709170
:100A9000EC002091ED005091F00021FD07C09F5F18
:100AA000973071F78093E90081E008953091EB0071
:100AB0003E7F3093EB003091ED003D7F3093ED00B1
:100AC0003091EB0031603093EB007093EC00209399
:100AD000ED005093F0002091EE0027FDE0CF80E084
:100AE0000895B0E0A0E0E7E7F5E00C948932C8EDA6
:100AF000D0E088818F7E8883E7EDF0E0808181609F
:100B0000808384E082BF81E08093FA0988818E7FB0
:100B1000888302EE10E0F80110821092DA0081EE74
:100B2000C82ED12CF601108288818F778883888126
:100B30008068888388818F7D888319BC10921F0A02
:100B40001092200A10921E0A10921D0A90EEE92EB1
:100B5000F12CF70180818B7F80838881816088837D
:100B600042E060E080E00E943F05F60180818E7FD8
:100B70008083F801808181608083808188608083A8
:100B8000F70180818E7F8083888180618883CDB7E3
:100B9000DEB7E8E00C94A532FC018091270A909121
:100BA000280A86179707A0F06115710529F490911E
:100BB000E8009E779093E80090E06115710551F48C
:100BC000911108C08091E80082FF34C080E0089550
:100BD000BC01F2CF80911F0A8823C1F18530C1F199
:100BE0008091E80083FD30C08091E80082FDEACF6B
:100BF0008091E80080FFE1CF8091F3002091F20026
:100C0000382F6115710519F02830310558F091E041
:100C10002830310509F090E02091E8002E772093EC
:100C2000E800CBCF81918093F100615071092F5F73
:100C30003F4FE7CF80911F0A882341F0853041F074
:100C40008091E80083FFBECF81E0089582E008959F
:100C500083E0089508958091FC0908952FB7F894D2
:100C60006091F1097091F2098091F3099091F40972
:100C70002FBF0895209126022223C9F02091F50963
:100C800027FF15C0E62FE695E695E695EE31D8F4F8
:100C9000E80FF92FF11D677021E030E001C0220F4D
:100CA0006A95EAF720958281282322830895FC0122
:100CB000329608962191621303C0DF0111971C92AE
:100CC000E817F907B9F70895209126022223C1F009
:100CD0002091F50927FF14C0E62FE695E695E695E5
:100CE000EE31F8F4E80FF92FF11D677021E030E0E4
:100CF00001C0220F6A95EAF78281822B82830895D0
:100D0000FC0132962FEF30E04191641751F02F3FF4
:100D100019F4411101C0232F3F5F3630A9F72F3F4F
:100D200009F40895820F911D27FD9A95FC016283B5
:100D300008952091EE093091EF092817390771F0D5
:100D40009093EF098093EE09E091EC09F091ED09A1
:100D5000309721F00084F185E02D099508952091C8
:100D6000EA093091EB092817390771F09093EB09E4
:100D70008093EA09E091EC09F091ED09309721F0B8
:100D80000680F781E02D09950895E091EC09F09136
:100D9000ED09309729F00190F081E02D0995089533
:100DA00080E00895FA01811101C0FB0109950895C1
:100DB000EDE2FAE0248130E1231B08F420E02483F3
:100DC000809129078160809329070895EDE2FAE078
:100DD000248130E1230F08F42FEF24838091290729
:100DE000816080932907089590912D0A937059F09E
:100DF00080932E0A60932F0A4093300A809129072E
:100E0000822B809329070895EDE2FAE0438120E1E7
:100E1000421B08F440E0818121E0628190E00E9461
:100E2000F4060895EDE2FAE0438120E1420F08F470
:100E30004FEF818121E0628190E00E94F4060895E5
:100E4000EDE2FAE0628120E1621B08F460E081815A
:100E500021E0438190E00E94F4060895EDE2FAE07B
:100E6000628120E1620F08F46FEF818121E043810C
:100E700090E00E94F4060895EDE2FAE0818121E01D
:100E8000438162818850990B0E94F4060895EDE237
:100E9000FAE0818190E021E04381628108960E941E
:100EA000F406089590912D0A937061F081110BC0A2
:100EB000946090932D0A1092250280912907862B29
:100EC000809329070895893110F09066F2CF880F3A
:100ED000880F982BEECF80912D0A869586958150AC
:100EE00009F488E161E00E945207089580912D0A7B
:100EF000869586958F5F893108F081E061E00E94D8
:100F00005207089580912D0A837011F010922502E6
:100F100080912D0A8C7F80932D0A0895EF92FF9285
:100F20000F939701201B31092F3F310519F010F065
:100F30002FEF30E02095382F320F08F43FEF832F4A
:100F40000F91FF90EF900895EF92FF920F9397010A
:100F5000201B31092F3F310519F010F02FEF30E041
:100F6000322F3095482F430F08F44FEF842F620F34
:100F70000F91FF90EF900895EF92FF920F93972FAC
:100F8000093438F4B701601B71096F3F710519F01E
:100F900010F06FEF70E0485F5F4F4131510540F056
:100FA000A901485F5F4F4131510510F06FEF70E0CC
:100FB0006095482F460F08F44FEF842F37FF02C08B
:100FC0002D5F3F4F359527953595279560912E0AD2
:100FD000620F792F0F91FF90EF900895EF92FF929B
:100FE0000F93970195E0099F200D311D11242F3F8C
:100FF000310519F010F02FEF30E02095382F320F27
:1010000008F43FEF832F0F91FF90EF9008950F9317
:101010001F93522F10E0F801EE0FFF1FE55CFC4F0D
:10102000A081A851BB0B9D015203F001539FF00D0D
:101030001124000F111FD801A65CBC4F0C91045560
:10104000110B40039001419F300D11242E0F3F1FC3
:1010500037FF02C0215C3F4F96E0359527959A9562
:10106000E1F7620F1F910F9108950F931F93522F75
:1010700010E0F801EE0FFF1FE55CFC4FA081A851C6
:10108000BB0B9D015203F001539FF00D1124000F83
:10109000111FD801A65CBC4F0C910455110B4003E5
:1010A0009001419F300D11242E0F3F1F37FF02C0CA
:1010B00021583F4F220F232F221F330B620F1F9106
:1010C0000F910895EF920F93972F23E0029FB001A5
:1010D0001124759567956E0D792F0F91EF900895F6
:1010E000322F50E0FA01EE0FFF1FE55CFC4F9081BC
:1010F000985197FD9195440F551FFA01E65CFC4FFE
:101100002081231B330B290F311D97FD3A95620F68
:101110000895E42FF0E0EE0FFF1FE55CFC4F6081C7
:10112000621B0895E42FF0E0EE0FFF1FE65CFC4F1A
:101130006081621B0895622F08950E947D120895B8
:101140000E94131208954095282F429F412D11248B
:10115000842F0895FC019B01009729F480E077FF1C
:101160002BC080E80895AC0197FF04C044275527A1
:10117000481B590BB901640F751F37FD10C0241BA4
:10118000350BC901A5E0880F991FAA95E1F70E94C8
:10119000B63280E2861BF7FF0FC081950895CB0120
:1011A00065E0880F991F6A95E1F7BA01621B730B1E
:1011B0000E94B63280E6EECF0895EF920F93CF9360
:1011C000DF93D72FC82FC9010E19BA010E94AA08B0
:1011D000602F681B7D2F8C2FDF91CF910F91EF90A7
:1011E00008950F93CF93DF93D72FC82FC901BA016A
:1011F0000E94AA08682F600F7D2F8C2FDF91CF915E
:101200000F910895EF920F931F93CF93DF93D62FF3
:10121000C72F182FC9010E19010FBA010E94AA0881
:10122000081B202F219F212D1124822F6D2F7C2F11
:10123000DF91CF911F910F91EF900895E82F86FDD8
:10124000E0952E2F2F7086FD2F5FE695E695E695AB
:10125000E670F0E0EC53FD4F9181929F902D212D8F
:10126000112492959F702295207F922B2081920FBE
:1012700087FD919580E8890F089540911001509164
:10128000110125E038E0429FC001439F900D529F1D
:10129000900D1124875E994C909311018093100159
:1012A000890F0895AC018230910508F408959FEFED
:1012B000413E8EE1580740F49A0195E03695279516
:1012C0009A95E1F798E0920F61E0E62FE90FFF278A
:1012D000FF1F9F0135952795822F229FF001239FA5
:1012E000F00DF00D11244E175F0738F49FEF920FA9
:1012F000961758F78FEF860F08952F3FE9F361E0B7
:10130000620FF6CF0F93CF93DF93D72FC82F47FDF0
:1013100041958AE290E0841B910947FD9395889F4F
:10132000B001899F700D700D1124229FC001239F71
:10133000900D900D1124860F971F0E945209982F2F
:10134000990F890F682F600F7D2F8C2FDF91CF9120
:101350000F91089530E020E0869F212D969F200D6B
:10136000311D1124C9010895AF92BF92CF92DF922F
:10137000FF920F931F93CF93DF93362F472FE82FC2
:10138000F0E0EA56FD4F71110FC0E4918E2F2E2F21
:101390006E2F722FDF91CF911F910F91FF90DF90F1
:1013A000CF90BF90AF900895C72FD0E02491F22E38
:1013B000022F10E056E0659FC0011124EFEFF0E02E
:1013C000BF010E946B32832F90E0880F991F35E593
:1013D000369FD001379FB00D11248A1B9B0B982F8D
:1013E000990F980F6F01CC1ADD0AC09ED001C19EE3
:1013F000B00DD09EB00D11248B2F499FA001112458
:10140000452F55276F01C41AD50AC09EA001C19E61
:10141000500DD09E500D11245F01A91AB108AC9E49
:101420006001AD9ED00CBC9ED00C1124CD2CDD24CF
:10143000EC19FD09E09FE001E19FD00DF09FD00D78
:101440001124ED2F62307105A1F050F46115710582
:1014500009F49ECF6130710581F0EB2F852F98CF75
:101460006430710569F080F06630710509F490CF41
:10147000F4CFE22F2B2F8D2F8BCFE22F252F88CF6C
:10148000EB2F822F2D2F84CF2B2F8F2DE52F80CF69
:101490002F923F925F926F927F928F929F92AF9224
:1014A000BF92CF92DF92EF92FF920F931F93CF9351
:1014B000DF93CDB7DEB72A970FB6F894DEBF0FBE25
:1014C000CDBF8B837E836D8320913B02220F220F41
:1014D0002F832C5F29832A832C3510F03BE53A8338
:1014E0008091330A8C83FF81EF2FF0E0FA87E98740
:1014F000CF01880F991F9C01265C3C4F69013B81FD
:10150000832F90E0FC013196F887EF838A819985DB
:101510009817E8F081E0E981EB3508F080E02A9641
:101520000FB6F894DEBF0FBECDBFDF91CF911F91F4
:101530000F91FF90EF90DF90CF90BF90AF909F9072
:101540008F907F906F905F903F902F900895E985E6
:10155000FA85E051FC4F808190913C028923F1F0A3
:1015600020902E0A30902F0A2F8138852D5C354F20
:1015700039015B8010E0FC815F16D0F02091300AC9
:10158000129F112D1124B101812F0E94B409462F01
:10159000282F672F89859A850E94A00829853A857A
:1015A0002F5F3F4F3A87298732E0C30ED11CAECF61
:1015B000F30181913F01F601A080A81ABB08818048
:1015C000F3018781881A9908AA9C9001AB9C300D81
:1015D000300D1124889CC001899C900D900D112420
:1015E000820F931F0E945209082F6091310A21E057
:1015F000620F08F46FEFF301EE0FFF1FE353FA40A1
:10160000858996890E94AA097C019401A501B101EE
:10161000812FED81FE8109951B015394182FABCFCB
:10162000B0E0A0E0E6E1FBE00C9486326C01C091F2
:101630003B02CC0FCC0F14E01C0FB12E1C3510F068
:101640003BE5B32E6091310A669566958091290A33
:1016500090912A0A0E94AA09F82E80E48F0D0E9418
:101660001E0990E8A92EA80E8F2D0E941E0920E8C1
:10167000922E980ED0E0CB1548F081E01B3508F093
:1016800080E0CDB7DEB7EBE00C94A232FE01E05172
:10169000FC4F808190913C028923A1F060912E0A39
:1016A00070912F0A8091300AEF2C0C2F292D4A2D92
:1016B000F60109950E94B409462F282F672FCE0105
:1016C0000E94A0082196D7CFB0E0A0E0EAE6FBE0B8
:1016D0000C9484325C01C0913B02CC0FCC0F14E01F
:1016E0001C0FF12E1C3510F03BE5F32E6091310AF2
:1016F00066958091290A90912A0A0E94AA09782E5B
:10170000D0E0CF1548F081E01B3508F080E0CDB780
:10171000DEB7EDE00C94A032FE01E051FC4F808179
:1017200090913C028923C9F1CE01880F991F805204
:101730009D4FFC01E65AFF4F2081422F4455550B27
:101740006A01855A9F4FFC018081282F2851330B55
:101750004901449F9001459F300D300D1124889C14
:10176000C001899C900D900D1124820F931F0E943F
:101770005209082F60912E0A70912F0A8091300A29
:10178000E72C9401A601F50109950E94B409462FA2
:10179000282F672FCE010E94A0082196B2CFB0E07B
:1017A000A0E0E5EDFBE00C9489327C01C0913B02A6
:1017B000CC0FCC0F14E01C0FD12E1C3510F03BE5E4
:1017C000D32E6091310A66958091290A90912A0A58
:1017D0000E94AA09C82ED0E0CD1548F081E01B3543
:1017E00008F080E0CDB7DEB7E8E00C94A532FE014A
:1017F000E051FC4F808190913C02892311F1CE0190
:10180000880F991F80529D4FFC01E55AFF4F2081A0
:101810002851330B865A9F4FFC0140814455550B8C
:1018200060912E0A70912F0A8091300A0C2DF701D9
:1018300009950E94B409462F282F672FCE010E94D8
:10184000A0082196C9CFB0E0A0E0E9E2FCE00C944A
:101850008A327C01C0913B02CC0FCC0F14E01C0FEC
:10186000012F1C3508F00BE56091310A66956695ED
:1018700021E0620F08F46FEF8091290A90912A0A03
:101880000E94AA09D82ED0E0C01748F081E01B358D
:1018900008F080E0CDB7DEB7E7E00C94A632FE0199
:1018A000E051FC4F808190913C02892391F060913E
:1018B0002E0A70912F0A8091300A2D2D4C2FF7019E
:1018C00009950E94B409462F282F672FCE010E9448
:1018D000A0082196D9CF40918405803F59F480918A
:1018E000850587FF0DC01092850541110BC0109230
:1018F0007C0508C0813F81F48091850518169CF312
:10190000442381F08091860590918705892B09F009
:101910005AC010927B050895823F49F447FFF0CFEB
:1019200010928405809185058111ECCFE0CF833F33
:1019300019F41416ACF3E4CF90918605893F29F48D
:101940001916F4F610928605DBCF8A3F19F497FF3B
:10195000D7CFF8CF909187058B3F29F497FFD0CF51
:1019600010928705CDCF8C3F19F41916CCF3C8CF50
:101970009CE0980F953090F4845F990B21E030E063
:10198000B90102C0660F771F8A95E2F7CB018095F7
:1019900090918305892380938305B2CF8D3F31F4E5
:1019A00080917D058E7F80937D05AACF8E3F21F4A7
:1019B00080917D058D7FF7CF8F3F09F0A1CF80917A
:1019C0007D058B7FF0CF089580917D0580FD16C049
:1019D00081FD16C082FD16C080917B058823A1F091
:1019E000883280F428E0829FC001112468E270E010
:1019F0000E94B632862F672B39F0089582E0089551
:101A000084E0089588E0089581E0089580917D053F
:101A100080FD14C081FD14C082FD16C080917C053C
:101A2000882381F08E3180F420E5829FC00111244B
:101A30006EE170E00E94B632862F089584E1089529
:101A400088E2089588E0089580E50895803F31F4A4
:101A50000E94060D8195809385050895813F19F4B4
:101A60000E94060DF8CF823F31F40E94060D819549
:101A7000809384050895833F19F40E94060DF8CFE2
:101A8000893F29F40E94E40C8093860508958A3FDB
:101A900021F40E94E40C8195F7CF8B3F31F40E9432
:101AA000E40C81958093870508958C3F19F40E947A
:101AB000E40CF8CF9CE0980F953070F4845F990B9C
:101AC00021E030E001C0220F8A95EAF7809183057A
:101AD000822B8093830508958D3F31F480917D059D
:101AE000816080937D0508958E3F21F480917D056E
:101AF0008260F7CF8F3FB9F780917D058460F1CF89
:101B000080E00895F894E82FE295EF70F0E031A1BD
:101B1000282F2F7081E090E001C0880F2A95EAF706
:101B2000982F9095932391A392A1892B82A37894C7
:101B300008959091F50992FF06C0282F287128304A
:101B4000F9F4877F846093FF06C0282F287128311D
:101B5000F1F4877E84612091F60920FF06C0382FBA
:101B600038713830D9F4877F816021FF06C0282F73
:101B700028712831D1F4877E816194FD877E089594
:101B8000282F24712430F9F68B7F8860DCCF282F32
:101B90002471243101F78B7E8861DDCF382F3171BC
:101BA000313019F78E7F8860E0CF282F21712131E5
:101BB00021F78E7E8861E1CFCF93DF93EC018238ED
:101BC0009105B1F108F040C08133910509F49DC041
:101BD00048F58932910509F48DC08A9709F49CC0B3
:101BE000C11521E5D20708F0C3C0C11530E5D30700
:101BF00008F01EC1C83ED10508F0A3C0C13ED10502
:101C000088F5C83AD10508F08EC0C53AD10508F06C
:101C100007C1C130D10531F1209721F1C430D10580
:101C200008F545C08533910509F45FC0C997C1F631
:101C30008091F509837009F043C18091F60983FF13
:101C400011C0C9E2D0E00EC0833E910599F170F455
:101C5000803E910501F1823E910511F68091F509D2
:101C600082FD21C0CE01DF91CF910895863E91057E
:101C700061F1873E910571F1843E910509F0B0CF85
:101C80008091F60981FFEECF8091F509C7EED0E093
:101C900084FD0DC0E7CF8091F50980FD33C09091A0
:101CA000F60990FFDFCFC3EED0E084FFDBCFD0E0BA
:101CB000C0E0D8CF8091F50982FDFFC09091F60970
:101CC00090FDFEC084FFCECFF2CF8091F50983FD59
:101CD000DDCFC8CF8091F50983FDF5C09091F6095D
:101CE00091FFF0CFC4EED0E0BDCF8091F50985FF24
:101CF000B9CFA7CF8091F50985FDE8C08091F6099D
:101D000083FFB0CFC9E3D0E0ADCF8091F50986FF66
:101D1000A9CFCAE2D0E0A6CF8091F50986FFA2CF75
:101D2000C1E3D0E09FCFCF3BD10508F6C85AD0E041
:101D3000CC0FDD1FCA59DD4F0990D881C02DD46466
:101D400091CFC11540E2D40758F4C11581E0D807FE
:101D500008F088CFC03FD10508F4A9CFD06582CF65
:101D6000C11520E4D20708F4A2CFDF70D06A7ACF81
:101D7000C11535E5D30718F5C11544E5D40708F0BA
:101D800084C0C11583E5D80708F06BC0C11522E5F2
:101D9000D20708F461C0CE018370992721E030E0BA
:101DA00002C0220F331F8A95E2F7C695C69580E2DE
:101DB000C89FE0011124C22BD32BDC6853CFC1157F
:101DC00039E5D307A8F4C11548E5D40708F062C087
:101DD000C11586E5D80708F06ACF8C2F0E94990DAF
:101DE000C82FD0E0DC2FCC27CC27DF71D0623ACFD0
:101DF000C1152AE5D20708F452C0CE0190568115CC
:101E0000904208F054CF8D2F8F710E94990D90E071
:101E1000982F882788279F719C012C2BE901E6CFFA
:101E2000C55AD0E0CD59DD4FC881D0E0D0641ACF7B
:101E3000CE018370992721E030E002C0220F331FCA
:101E40008A95E2F7C695C69540E2C49FE001112449
:101E5000C22BD32BDD6806CFDC2FCC27C16FD06A15
:101E600001CFCE018370992721E030E002C0220F1C
:101E7000331F8A95E2F7C695C69540E2C49FE001FC
:101E80001124C22BD32BDA68EDCEDC2FCC27C46F04
:101E9000D06AE8CEDC2FCC27C06FD06AE3CE8C2F7F
:101EA0008F700E94990D34E0D695C7953A95E1F769
:101EB000CF709C2FEC01D069D5CEC2EED0E0D2CE4F
:101EC000C0EED0E0CFCEC6EED0E0CCCEC5E3D0E0C1
:101ED000C9CE8091EE0481111092EE040895809590
:101EE0009091ED0498239093ED0408958091CA0495
:101EF00090919904981301C008958F5F8770FACF6D
:101F0000292F963078F58F3068F590E03FE0239FD9
:101F1000800D911D1124682F677023E09695879599
:101F20002A95E1F7FC01EE0FFF1FE80FF91FE159B9
:101F3000FB4F50E040E080E0219130E0062E02C0EF
:101F4000369527950A94E2F721703327042E01C0B5
:101F5000220F0A94EAF7822B4F5F5F4F43305105FF
:101F600059F7089580E00895292F963098F58F301D
:101F700088F590E03FE0239F800D911D1124282FCC
:101F8000277041E001C0440F2A95EAF723E09695B7
:101F900087952A95E1F7FC01EE0FFF1FE80FF91F67
:101FA000E159FB4F30E020E070E05191DF011197E3
:101FB000CB01022E02C0969587950A94E2F78170B4
:101FC00081958527842385278C932F5F3F4F23306E
:101FD000310559F70895E7E2F2E08083618324E652
:101FE00030E042E050E0BF0180E60E944A320895AE
:101FF0008093F7097093F9096093F80980911F0A9B
:10200000843001F586E08093E9008FEF9091E8003D
:10201000815095FD06C095ED9A95F1F7000081116C
:10202000F5CF8091E80085FF0DC050E040E063E00F
:1020300070E087EF99E00E94CC048091E8008E77F1
:102040008093E8000895BC0184E00E94F80F089591
:10205000BC0183E00E94F80F08959C0186E0809304
:10206000E9009FEF8091E800915085FD06C085ED65
:102070008A95F1F700009111F5CF8091E80085FF76
:102080000CC050E040E066E070E0C9010E94CC0462
:102090008091E8008E778093E8000895CF93DF93D6
:1020A000EC01809126028823B1F18091F50987FF28
:1020B00032C060E286E08093E9008FEF9091E80003
:1020C000815095FD06C095ED9A95F1F700008111BC
:1020D000F5CF8091E80085FF1BC08091260270E05B
:1020E00050E040E0811104C050E040E068E070E062
:1020F000CE010E94CC048091E8008E778093E800A6
:1021000080E2FE01ADEFB9E001900D928A95E1F712
:10211000DF91CF91089568E081E0CDCF81E0809399
:10212000E00080E28093D8001092C9008FE19EE425
:102130000197F1F700C0000087E090EBDC0180938D
:10214000600A9093610AA093620AB093630A88E1DF
:102150009CE00FB6F894A895809360000FBE909312
:102160006000FFCFCF93DF93C7EFD2E060E0CE01F6
:102170000E9480332196C11584E0D807B9F7DF911A
:10218000CF9108951F93CF93DF93122F8430E0F403
:102190006630D0F44F30C0F4C42FD0E0CC0FDD1F38
:1021A0009EE1699FC00DD11D112494EB899FC00D44
:1021B000D11D1124632FCE0187960E948033612F99
:1021C000CE0188960E948033DF91CF911F910895B0
:1021D000AF92BF92CF92DF92EF92FF921F93CF9375
:1021E000DF9382E0C82E85E0D82ED0E07601C0E0F3
:1021F00014C0F50125913491412F6C2F8D2F0E9431
:10220000C21082E0A80EB11C1F5F1F3091F78EE153
:10221000E80EF11CCF5FC63019F0570110E0E9CF8E
:10222000DF5F84EBC80ED11CD43001F7DF91CF9172
:102230001F91FF90EF90DF90CF90BF90AF900895E7
:10224000CF93C82F6FEF811162E283E290E00E948A
:1022500080336FEFC11162E184E290E00E9480332D
:102260006FEFC11161E185E290E00E948033CF9170
:10227000089580E00E94201160E086E290E00E94D4
:1022800080330E94E8100E94B21081E00E94201169
:1022900008950F931F93CF93DF93843030F566300A
:1022A00020F54F3010F5C42FD0E0CC0FDD1F2EE10C
:1022B000629FC00DD11D112434EB839FC00DD11D31
:1022C0001124CE0187960E946233082F10E0102F50
:1022D0000027CE0188960E9462339801282BC901FD
:1022E000DF91CF911F910F91089590E080E0F8CF9A
:1022F000462F843040F4763030F46F3020F4672F6E
:102300000E944911089590E080E00895CF92DF92F5
:10231000FF920F931F93CF93DF936C0100915F0A9D
:102320008091EF04082BC7E0D0E010E0FC2EC8013C
:102330000C2E02C0959587950A94E2F780FD0CC09B
:102340002197A0F7F12C8F2DDF91CF911F910F9145
:10235000FF90DF90CF900895B6018C2F0E947811E6
:102360000E94DC0D019761F3EECFCF93DF93EC0178
:102370000E948611BE010E9478110E94DC0DDF913F
:10238000CF910895FC0183819481892B29F080816C
:10239000918189238F3F51F480E00895843FE1F7D4
:1023A00017C0883EA8F0813FB9F712C080819181A3
:1023B0000E94B51192959F70963099F358F4925FF0
:1023C0009F70923048F7803F19F040F7883E20F721
:1023D00081E008959A5FF4CF83E290E00E94623337
:1023E000823289F484E290E00E946233823159F4AF
:1023F00085E290E00E94623391E0813109F090E043
:10240000892F8170089580E0FCCFCF9384E090E025
:102410000E946233C82F82E290E00E946233982FBC
:102420008C2FCF910895A4E0B0E0E9E1F2E10C94A3
:102430008C32F62E042F122F8B35910508F059C0DF
:10244000880F991F880F991FBC016A567C4F44E082
:1024500050E0CE0101960E9433338981282F2370EA
:1024600030E0869586954A81942F9295990F990F21
:10247000907C692F682B842F86958695782F7370B2
:10248000EFE5F1E02E9FC0012F9F900D3E9F900D34
:1024900011248557974F680F791FFB01F082542F45
:1024A00052955F704B81E42FE295E07F6E2F652B94
:1024B000542F52955F70752F7370680F791FFB0151
:1024C000008342954695469543705C81E52FEE0F5B
:1024D000EE0F6E2F642B752F72957695769573702F
:1024E000860F971FFC0110832657374F81E0F901B3
:1024F00080832496E5E00C94A832FF920F931F93FB
:10250000CF93DF93182F062FF42ED0E0C0E02F2DAD
:10251000402F612FCE010E9413122196CB35D10599
:10252000B1F7CDB7DEB7E5E00C94A8320F931F9357
:10253000CF93DF9380918A08882309F441C065EC2A
:102540008EEF0E94EB0F60E08DEF0E94EB0FD0E06A
:10255000C0E004EB10E0CE01B8010E94B6328093D7
:10256000270282E1FE01E557F74FA8E2B2E00190B1
:102570000D928A95E1F724E630E043E150E067E20E
:1025800072E080E60E944A32892BD1F46296C63509
:1025900081E0D807E1F482EA8093270289E0E1EE46
:1025A000F9E0A8E2B2E001900D928A95E1F724E605
:1025B00030E04AE050E067E272E080E60E944A3292
:1025C00010928A08DF91CF911F910F910895C43B1B
:1025D000D10509F665EC8EEF0E94EB0F61E08DEFFF
:1025E0000E94EB0FB8CFA4E0B0E0E9EFF2E10C9469
:1025F00087320E94AA3165EC8EEF0E94EB0F64E0F7
:102600008DEF0E94EB0F61E080E00E94EB0F6FEF17
:1026100081E00E94EB0F67E782E00E94EB0F8FE3FF
:102620009CE90197F1F700C0000006E913E022E001
:10263000E22E25E0F22E3FE5C32EDD24D394BB2409
:10264000BA94AA24A39444E050E0B801CE010196C4
:102650000E9433338981282F237030E08695869538
:102660004A81942F9295990F990F907C692F682B2E
:10267000842F86958695782F73702C9DC0012D9D93
:10268000900D3C9D900D1124865D984F680F791F29
:10269000FB01B082542F52955F704B81E42FE2957D
:1026A000E07F6E2F652B542F52955F70752F7370DE
:1026B000680F791FFB01B08242954695469543709D
:1026C0005C81E52FEE0FEE0F6E2F642B752F729548
:1026D000769576957370860F971FFC01B082275709
:1026E000374FF901A0820C5F1F4FE016F10609F089
:1026F000AACF65EC8EEF0E94EB0F62E08DEF0E9497
:10270000EB0F9AE2E92E97E0F92E10E0F7016191C4
:102710007F01812F0E94EB0F1F5F143BB9F765EC1F
:102720008EEF0E94EB0F63E08DEF0E94EB0F8EEDBA
:10273000E82E87E0F82E10E0F70161917F01812FEC
:102740000E94EB0F1F5F1B3AB9F71092890824967D
:10275000EAE00C94A3321F93CF93DF93EC01FC01CA
:10276000E051FC4F80816823B1F00E942333182F81
:102770000E9423338F77782F20E8720F08F47FEFC1
:10278000612F8091300A0E94B409462F282F672FAD
:10279000CE010E94A008DF91CF911F91089546E0DD
:1027A00050E06CE170E08DE29AE00E94703310928C
:1027B00029070895EDE2FAE081E1808380913E02ED
:1027C00090913F02A091400281839283A38388E28B
:1027D00084838FEF85830E94CF1308958091ED0449
:1027E0009091EC04892B80934E049091EE049923F0
:1027F000A1F0892B80934E04809126028823E1F179
:102800008091F50987FF38C08EE1E0E5F4E090E0C3
:102810008150A0F591110E94690F40E250E06CECEC
:1028200074E08EE494E00E943C33892B21F180E235
:10283000EEE4F4E0ACECB4E001900D928A95E1F79F
:10284000E091EC09F091ED093097A9F08091260212
:10285000882359F08091F50987FF07C080914E04C5
:1028600080934F0486E080934E040280F381E02D34
:102870008EE494E00995089586E0C7CF2191222344
:1028800039F29F5FC5CF882321F00E946F0F0E940D
:10289000EE130895882339F09091ED04982B9093CE
:1028A000ED040E94EE13089590E080E00E946A33E8
:1028B000883E9E4F19F40E94EC11089580E008951F
:1028C00068EE7EEF90E080E00E949E3360E082E060
:1028D00090E00E94803360E083E090E00E948033CB
:1028E0001092EF0460E084E090E00E94803364E0A6
:1028F00082E290E00E94803360E085E090E00E94F8
:10290000803360E086E090E00E9480336FEF87E0E4
:1029100090E00E94803340E050E0BA0188E090E00F
:102920000E94923360E08DE090E00E94803340E0AE
:1029300050E0BA0188E190E00E94923360E087E1C4
:1029400090E00E94803340E050E0BA018CE190E0DA
:102950000E94923370E060E080E290E00E949E333B
:1029600040E050E0BA0188E190E00E94923380E0BC
:102970000E9420110E94391140E050E0BA018FE01E
:1029800090E00E94923340E050E0BA0183E190E091
:102990000E94923308951F920F920FB60F92112446
:1029A0002F933F934F935F936F937F938F939F9357
:1029B000AF93BF93EF93FF938091E10082FF09C033
:1029C0008091E20082FF05C08091E1008B7F8093BF
:1029D000E1008091DA0080FF24C08091D80080FF60
:1029E00020C08091DA008E7F8093DA008091D90038
:1029F00080FF9DC080E189BD82E189BD09B400FEF0
:102A0000FDCF81E080931F0A8091FA09811109C0EE
:102A10000E947C040E9471058091E2008460809392
:102A2000E2008091E10080FF17C08091E20080FF0A
:102A300013C08091E2008E7F8093E2008091E200DB
:102A400080618093E2008091D80080628093D800FA
:102A500019BC85E080931F0A8091E10084FF2BC0A0
:102A60008091E20084FF27C080E189BD82E189BDB9
:102A700089B5982F917080FFFBCF8091D8008F7D12
:102A80008093D8008091E1008F7E8093E100809157
:102A9000E2008F7E8093E2008091E200816080936B
:102AA000E2008091200A882309F447C084E08093E3
:102AB0001F0A80911F0A8091E10083FF27C0809147
:102AC000E20083FF23C08091E100877F8093E100D3
:102AD00082E080931F0A1092200A8091E1008E7F8D
:102AE0008093E1008091E2008E7F8093E2008091EC
:102AF000E20080618093E20042E060E080E00E94BA
:102B00003F058091F00088608093F000FF91EF9185
:102B1000BF91AF919F918F917F916F915F914F91F5
:102B20003F912F910F900FBE0F901F90189519BCD9
:102B300010921F0A1092FA0974CF8091E30087FD6A
:102B400093E090931F0AB5CF78941F921FB61F92FF
:102B500011248F939F93AF93BF938091F10990912C
:102B6000F209A091F309B091F4090196A11DB11DDC
:102B70008093F1099093F209A093F309B093F409BB
:102B8000BF91AF919F918F911F901FBE1F9018957D
:102B90009C014FB7F8948091F1099091F209A091AE
:102BA000F309B091F4094FBF821B930B08952FB71F
:102BB000F8948091F1099091F209A091F309B091F4
:102BC000F4092FBF0895B0E0A0E0E9EEF5E10C9420
:102BD0008132C090B105D090B205E090B305F0907D
:102BE000B4058FB7F8944090F1095090F2096090C5
:102BF000F3097090F4098FBF530142018C189D08AE
:102C0000AE08BF080E942E066093B1057093B2050E
:102C10008093B3059093B405A0918805E8E8F5E0AA
:102C20002A2F30E04FEFC40ED41EE11CF11CC41853
:102C3000D508E608F708A3131BC020938805309138
:102C40002D0AD32FD37019F0D32FD695D695209176
:102C500025022130B9F12223F1F0223009F441C4D8
:102C6000233009F447C4CDB7DEB7E0E10C949D32C0
:102C7000418D528D2A01712C612CC414D504E604B7
:102C8000F70420F421503F5F3296D5CF480D591DEF
:102C9000528F418FF8CF10923B026093290A7093B4
:102CA0002A0A80932B0A90932C0A89E2E8E8F5E03F
:102CB000A3E3BAE001900D928A95E1F781E0809359
:102CC0002502D1CF9091240281E0D9130BC0832F2C
:102CD00083702091230230E091E08217130609F4FB
:102CE00090E0892F817080933D028091320A90910B
:102CF0003C02981739F080933C0240E060E080E0AD
:102D00000E949D08D93150F4ED2FF0E0EB55FA4CBC
:102D10000C94CA3280913D02811102C0C0E024C0EF
:102D200040E060E080E00E949D08F8CF00913B0207
:102D3000000F000F14E0F12EF00ECF2D8BE58F1554
:102D400008F4CBE560912E0A70912F0A8091300A29
:102D50000E94B409E62ED72EC82E10E00C17B0F052
:102D6000C1E09AE59F15D0F280913B028F5F80937E
:102D70003B02C11178CF82E08093250280913D0211
:102D8000811171CFD1116FCF83E099CFF801E0515C
:102D9000FC4F808190913C02892331F02C2D4E2DE7
:102DA0006D2DC8010E94A0080F5F1F4FD7CF009163
:102DB0003B02000F000FC4E0FC2EF00ECF2DABE560
:102DC000AF1508F4CBE5E0902E0A10912F0AD090B1
:102DD000300A6091310A6695669566958091290A58
:102DE00090912A0A0E94AA090E941E09805887FD14
:102DF0008195880F282F3D2D239F212D1124822F6F
:102E00006E2D712F0E94B409E62ED72EC82E10E029
:102E10000C1730F0C1E04AE54F1508F0A5CF7ECF82
:102E2000F801E051FC4F808190913C02892331F000
:102E30002C2D4E2D6D2DC8010E94A0080F5F1F4F35
:102E4000E7CF82E099E00E94640B04C08BE998E030
:102E50000E94230CC82F88CF82E998E0F9CF89E837
:102E600098E0F6CF80E798E0F3CF82E698E0EBCFEA
:102E700082E899E00E94CF0BEDCF81EF98E0FACF86
:102E80008DED98E0E0CF85E398E00E94100BE2CF53
:102E900087E098E0FACFC0913D02C1111EC0609159
:102EA000310A20E1620F08F46FEF8091290A9091B6
:102EB0002A0A0E94AA0965E070E00E946B32892B01
:102EC00009F02CCF0E9423336BE570E00E94B632EC
:102ED00060913C020E94AB1347CF00913B02000F70
:102EE000000FB4E0DB2ED00E8D2D9BE59D1508F470
:102EF0008BE510E0E82EF12C0E151F0534F0C1E033
:102F0000AAE5AD1508F030CF09CF60913C02C801A9
:102F10000E94AB130F5F1F4FEFCFF0903B02FF0CEF
:102F2000FF0CA4E0BA2EBF0C9B2CBBE5BB1510F424
:102F3000FBE59F2E80913D02882361F040E060E038
:102F400080E00E949D08EAEBF5E08AE5DF011D9232
:102F50008A95E9F780913B02811115C08091B605F1
:102F60009091B7050E94C81521E08931910508F4B8
:102F700020E02093B505499730F00E94D715909333
:102F8000B7058093B605E12CA12CC0E06FE0562E6A
:102F900075E5672EEAEA8E2E7724739405C0E3E088
:102FA000EA1508F457C0C0E08C2F90E05E9C8001C9
:102FB0001124F801E052FD4FE80FF91FC080CF1433
:102FC00008F440C0C91408F03DC0A394D12CF60108
:102FD000E051FC4F208130913C02232309F432C0A0
:102FE00006541A4F080F191FF8014080342D262D62
:102FF000321B08F430E070912F0A282D442D240F45
:1030000008F42FEF4091300A822F880F820F8E5FD5
:10301000282F249F212D1124822F682D631B0E94AD
:10302000B409462F282F672FC6010E94A00880915F
:10303000B505882339F0242D372D231B08F420E013
:10304000D8012C93CF5FCF3009F0AECFE394B6E038
:10305000EB12A5CFC1E0FAE5FB1508F085CE5ECEF8
:10306000C091300A23E0C29F800111241695079574
:1030700016950795502EAC2EB12C8FEF90E0B50130
:103080000E94B632662E80913D02882371F040E0A6
:1030900060E080E00E949D08EAEBF5E08AE5DF0150
:1030A0001D928A95E9F71092B9058091B8058F5F56
:1030B0008093B805F12CE12CA01AB10A6701712C9C
:1030C000C70186549A4F4C018091B905872909F0B0
:1030D00045C00E942333853595400CF03FC0F40174
:1030E000C083F601E052FD4FE081EF3FD1F0D60101
:1030F000A654BA4F2C91F0E0521608F040C030E0D0
:10310000201B310B209FC001219F900D309F900DFF
:103110001124B5010E946B32262F4C2FCF010E9443
:10312000A0087394FFE0CF0ED11C26E07212CCCF22
:103130003FEFE31AF30A4FE0E416F10409F0BECFC3
:103140008091B805681202C01092B8058091B90547
:103150008F5F8D31F0F48093B905E0CDF601E65430
:10316000FA4F8081882309F4BCCF8C1708F0B9CFBF
:103170009091B8056912B5CF81508083B2CFC29FBC
:10318000C0011124B8010E946B32462F20E060E09C
:10319000C5CF1092B90546EF55E025E069EC75E022
:1031A0003FEF3C0F8AEB95E0FA01253039F4DC0162
:1031B000A55BBF4F1C91C11301C03C93A191AC17FB
:1031C00020F0DF0111973C93C687019668177907B5
:1031D00061F721504F5051092111E4CF9FCD00914B
:1031E0003B02000F000F44E0D42ED00ECD2D9BE506
:1031F0009D1508F4CBE52091310A31E0230F08F446
:103200002FEF30E050E040E06FEF7FEF80E090E0A4
:103210000E94A433790110E0CC24C394202F0C1712
:1032200030F0C1E03AE53D1508F09ECD77CDF801CC
:10323000E051FC4F808190913C02892311F1409133
:10324000330A4150042E000C550B47FF1DC0C70127
:103250006091310A2C2D620F08F46FEF0E94AA09C9
:10326000AC0160912E0A70912F0A8091300A0E9461
:10327000A3080E94B409462F282F672FC8010E9477
:10328000A0080F5F1F4FCACFFA01ED5CF54F81898F
:1032900028130AC0FA01EE0FFF1FED5CF54F818D78
:1032A000928D8E159F05A0F241505109CECF6EEE42
:1032B00077E080E00E94480ACDCD6CEB77E0F9CF53
:1032C0008091330A21E0482F421B08F440E0842F0C
:1032D00064EA77E0EFCF8091330A21E0382F321B88
:1032E00008F430E0832F6EE877E0E4CF80913B0272
:1032F0008F5F182F110F110F4091290A50912A0A40
:1033000060912B0A70912C0A8091140690911506F9
:10331000A0911606B091170684179507A607B70760
:1033200008F053C00E943D09C82F0E943D099BE54B
:10333000891BF0F7890FE82EF12CF701E051FC4FC3
:1033400090913C028081982309F43FC020E040E046
:1033500060E0C1FD13C00E943D09C82F0E943D09D5
:10336000782F76952FE7720F08F47FEF6C2F8091FE
:10337000300A0E94B409462F282F672FC7010E94E8
:10338000A0082091310A30E1230F08F42FEF60E10B
:10339000822F90E00E94AA09BC0184EF91E00E9474
:1033A0006B328091290A90912A0AA0912B0AB09140
:1033B0002C0A860F971FA11DB11D809314069093B0
:1033C0001506A0931606B0931706C1E01B3508F446
:1033D000CBCCA4CC00913B02000F000F94E0D92E7F
:1033E000D00ECD2D4BE54D1508F4CBE5E02EF12C9C
:1033F00083E0089F800111240E5E1E4FEC1630F012
:10340000C1E0EAE5ED1508F0AFCC88CCD801129602
:103410002C9112974C9111966C91C7010E94A008B3
:103420000D5F1F4FBFEFEB1AFB0AE8CF00913B0285
:10343000000F000F84E0D82ED00ECD2DFBE5FD153A
:1034400008F4CBE5E02EF12C23E0029F800111244B
:10345000085E194FEC16A0F66091300A70E090E01B
:1034600080E00E94A83420E030E04FE753E40E945F
:1034700007344B015C01D80112966C9170E090E02A
:1034800080E00E94AA34A50194010E9436350E9472
:103490007934C62EF801608170E090E080E00E94EF
:1034A000AA34A50194010E9436350E947934762E03
:1034B000D80111966C9170E090E080E00E94AA34EF
:1034C000A50194010E9436350E9479342C2D472D98
:1034D000C7010E94A0080D5F1F4FBFEFEB1AFB0A48
:1034E000B9CFD0932402832F8370809323020E944C
:1034F00096124ACC8091290781110E94CF134091E6
:10350000290A50912A0A60912B0A70912C0A2FB730
:10351000F8948091F1099091F209A091F309B0918A
:10352000F4092FBF841B950BA60BB70B4A97A10577
:10353000B10508F498CB1092250295CB0E94D715BF
:103540009C019091840580918505982B21F0309302
:103550008105209380059091860580918705982BA1
:1035600021F030937F0520937E05E091EC09F091E6
:10357000ED09309749F082E0809382050480F5815F
:10358000E02D82E895E00995089590E080E00E94A2
:10359000AF0690E080E00E9499061092EC040E9431
:1035A000EE1386E0E2E8F5E0DF011D928A95E9F787
:1035B00010927C0510927B0510927D050E949E1A48
:1035C000089580935F0A0E94C51A089580915F0A4A
:1035D000982F9670963021F488600E94E11A089521
:1035E000877FFBCF21E030E001C0220F8A95EAF708
:1035F000209580915F0A82230E94E11A089590919C
:10360000CB04809589238093CB04282F277091F4D5
:10361000282F082E000C330B9217130659F09091A7
:10362000F60992FF07C08595859585950E94F21A47
:103630001092CB040895CF93C091F609C2FB99274D
:1036400090F9981791F080FBC2F9C093F609609148
:10365000F50984E090E00E9480336C2F82E290E0D4
:103660000E94803382E00E94FF1ACF91089521E0EA
:1036700030E001C0220F8A95EAF780915F0A822B21
:103680000E94E11A08958093EF040E94C51A0895DC
:103690001092ED0480912602E0E5F4E0882361F0C9
:1036A0008091F50987FF08C08EE1DF011D928A95A0
:1036B000E9F70E94C51A089586E0F7CFAAE2B0E0C4
:1036C000E4E6FBE10C948E3281E29AE02091F10075
:1036D000DC012D93CD01BAE089329B07B9F78091C7
:1036E000220A833009F472C0B8F4813009F449C069
:1036F000823009F4B3C08091E80083FF96C28091C4
:10370000210A9091220A9A3008F08FC2E92FF0E046
:10371000E254FA4C0C94CA328A3009F48EC08B30D1
:1037200009F471C0893039F78091210A813219F783
:103730008091250A9091260A009711F00397D9F6F7
:103740008091E800877F8093E8008091E80082FF05
:1037500038C09091F3008091F200029731F480918B
:10376000F100813011F0863021F48091F1008093D6
:10377000FC098091E8008B778093E8000E94200587
:10378000BACF8091210A813A09F0B5CF8091E80043
:10379000877F8093E8008091250A9091260A892BE3
:1037A00061F460E28DEF99E070E00E94CC058091B9
:1037B000E8008B778093E8009ECF60E090E080E0A7
:1037C000F3CF80911F0A8111C0CF95CF8091210A3C
:1037D000813A09F090CF8091250A9091260A892B91
:1037E00009F089CF8091E800877F8093E80080917D
:1037F000E80080FFFCCF809126028093F100809149
:10380000E8008E77B9CF8091210A813209F073CF19
:103810008091250A9091260A892B09F06CCF80911E
:10382000E800877F8093E8000E9420058091230AAA
:10383000809326020E94481B5ECF8091210A81322C
:1038400009F059CF8091E800877F8093E8000E94BB
:1038500020058091240A8093FB094DCF8091210A95
:10386000813A09F048CF8091E800877F8093E80093
:103870008091E80080FFFCCF8091FB09BECF8038AB
:1038800099F0823809F0D1C18091250A8F70873074
:1038900008F0CBC18093E9008091EB0085FB88277D
:1038A00080F91092E90006C080911D0A90911E0ACD
:1038B000911182609091E800977F9093E800809347
:1038C000F1001092F1008091E8008E77AAC1882360
:1038D00009F498C1823009F0A8C18091230A8111AE
:1038E0009BC18091250A8F702FEF280F263008F09A
:1038F0009CC18093E9002091EB0020FF8DC19330A3
:1039000031F48091EB0080628093EB0085C190914F
:10391000EB0090619093EB0021E030E001C0220FBA
:103920008A95EAF72093EA001092EA008091EB0072
:103930008860EACF811179C11091230A1F778091A5
:10394000E3008078812B8093E3008091E800877FFB
:103950008093E8000E9420058091E80080FFFCCF62
:103960008091E30080688093E30082E0111183E09E
:1039700080931F0A5AC18058823008F056C12091A6
:10398000230A3091240A2C3DE3E03E07A1F583E0B1
:103990008A838AE289834FB7F894DE01139620E088
:1039A0003EE051E2E32FF0E050935700E49120FF16
:1039B00003C0E295EF703F5FEF708E2F90E0EA302A
:1039C000C0F0C7968D939D932F5F243159F74FBF59
:1039D0008091E800877F8093E8006AE270E0CE0182
:1039E00001960E94CC058091E8008B778093E800D7
:1039F0001CC1C096E7CF8091250A9091260A432FDB
:103A000055274330510509F44AC078F54130510536
:103A100009F47AC08BE790E0E2EDF7E0423051051F
:103A200009F003C12091E800277F2093E80020914E
:103A3000270A3091280A8217930708F49C0140E076
:103A40002115310509F065C0411163C08091E8007E
:103A500082FDC9CF80911F0A882329F2853019F28F
:103A60008091E80083FFF2CFBECF4132510509F4C7
:103A70003CC04232510509F0D8C08430910508F0AD
:103A8000D4C0FC01EE0FFF1FE053FD4F0190F08109
:103A9000E02D84539D4FDC018C9190E01AC03327B8
:103AA00021303105D1F02115310561F02230310589
:103AB00009F0BBC0EFE5F8E0E4918E2F90E0EFE570
:103AC000F8E007C0EFE7F8E0E4918E2F90E0EFE731
:103AD000F8E0009709F4A9C0A5CFEDE6F8E0E4917D
:103AE0008E2F90E0EDE6F8E0F4CF8430910508F0F9
:103AF0009CC0880F991FFC01E852FD4F0190F08196
:103B0000E02D89E090E08ECF82E190E0EDE4F8E0F6
:103B100089CF80911F0A882309F465CF853009F485
:103B200062CF8091E80083FD5ECF8091E80082FD46
:103B30008DCF8091E80080FF83CF9091F30080913A
:103B4000F2002115310519F08830910550F041E05F
:103B5000089709F040E08091E8008E778093E800B4
:103B60006FCF44914093F100319621503109019675
:103B7000E8CF803809F059C08091E800877F8093B2
:103B8000E8008091200A8093F1009DCE81114DC004
:103B90001091230A123008F048C08091E800877F16
:103BA0008093E8001093200A0E942005112311F051
:103BB00084E005C08091E30087FDFACF81E0809327
:103BC0001F0A42E061EC81E00E943F0542E261ECA5
:103BD00086E00E943F0542E261EC82E00E943F05E0
:103BE00042E260EC83E00E943F0542E361EC84E046
:103BF0000E943F0542E360EC85E00E943F05809112
:103C00001F0A13C08091230A813079F481E0933038
:103C100009F080E080931E0A1092E9008091E8008C
:103C2000877F8093E8000E9420058091E80083FF51
:103C30000AC08091E800877F8093E8008091EB00C4
:103C400080628093EB00AA96E3E00C94AA321F9264
:103C50000F920FB60F9211242F933F934F935F93C0
:103C60006F937F938F939F93AF93BF93CF93DF9384
:103C7000EF93FF93D091E900DF708091EC00C82FA3
:103C8000C17080FDC0E81092E9008091F000877F4C
:103C90008093F00078940E945E1B1092E90080915E
:103CA000F00088608093F000CD2BCF70C093E900C6
:103CB000FF91EF91DF91CF91BF91AF919F918F9144
:103CC0007F916F915F914F913F912F910F900FBE18
:103CD0000F901F9018950E94481B2FEF84E39CE0E3
:103CE000215080409040E1F700C0000088E19CE056
:103CF0000FB6F894A895809360000FBE9093600073
:103D0000FFCF882391F19CEF980F913A40F4682FF0
:103D10008EE494E00E943A060E94EE13089590E229
:103D2000980F983050F4877091E001C0990F8A95F0
:103D3000EAF7892F0E946F0FEFCF9BE5980F933022
:103D400028F490E080E00E94AF06089598E5980F6F
:103D5000973128F490E080E00E9499060895803F12
:103D600020F00E946B0C0E949E1A0895CF93C82FDA
:103D70008823D9F18CEF8C0F813AC8F58091260207
:103D8000882311F18091F50987FF1EC0EC2FE6957D
:103D9000E695E695F0E0E25BFB4F828190E04C2FE8
:103DA000477021E030E002C0220F331F4A95E2F74E
:103DB00082239323892B91F06C2F8EE494E00E9450
:103DC0003A060E94EE130AC0E0E5F4E086E594E0CE
:103DD0002191C21789F38E179F07D1F76C2F8EE4BC
:103DE00094E00E9464060E94EE13CF91089580E251
:103DF0008C0F883068F4C77021E030E001C0220FDA
:103E0000CA95EAF78091ED04822B8093ED04EBCF05
:103E1000EBE5EC0FE33040F4F0E0ED59FD4F80812D
:103E200090E00E94AF06E1CFE8E5EC0FE73150F4F7
:103E3000F0E0EE0FFF1FEA59FD4F808191810E9453
:103E40009906D3CFC03F88F28C2F0E94260D0E9486
:103E50009E1ACBCF1F93CF93DF93182FD0E0C0E0F3
:103E6000893311F4C0E5D0E0812F0E94B61E20975F
:103E700039F4812F0E94811EDF91CF911F91089507
:103E80008FE99FE00197F1F700C000002197EFCF85
:103E90000F931F93CF93DF93C62FD42F022FFC01D4
:103EA00082818823A9F060935E0A0E94D7159093BF
:103EB0005D0A80935C0AC77081E001C0880FCA95D3
:103EC000EAF70E944A14DF91CF911F910F91089554
:103ED00080915E0A681332C080915C0A90915D0AFD
:103EE0000E94C815883C910548F510E21D0FCD17BA
:103EF000B9F080E28C0F883040F4C77081E001C0D7
:103F0000880FCA95EAF70E944314183048F481E0FC
:103F10009D2F977001C0880F9A95EAF70E944A1466
:103F2000802F0E942A1F183070F6D77081E001C0E0
:103F3000880FDA95EAF70E944314C5CFC77081E075
:103F400001C0880FCA95EAF7F6CFA5E0B0E0EBEA2A
:103F5000FFE10C9480328C01FC0183819481892BD8
:103F600031F08081918189238F3F09F0BFC525966B
:103F7000E1E10C949C320E948611F82E682F898111
:103F80009A810E94B40F69817A818F2D0E947811E5
:103F90007C01F8018281882309F49BC59701225195
:103FA0003F452031310508F067C58FEF93E00E944F
:103FB0006233811128C0FEEEEF0E57EF852E52E0DE
:103FC000952EE11032C01C821B82442443944AE0A7
:103FD000342E74018FEFE81AF80AC4010E9462338C
:103FE00089831A82882379F09FEF980F933058F5D0
:103FF0008A83498292E0890E911CC7010E94623334
:104000008B83811121C08091CB04877009F4AFCFDD
:10401000F8018281882309F4AACF8091F60982FFF2
:10402000A6CF82E00E94FF1AA2CF811424E092065C
:1040300051F3C4010E946233811101C0EA943FEF41
:10404000831A930ABECF4701FE0131967F01F70123
:104050002081222309F4BDCF213009F047C091818E
:104060008281913031F4F2E0EF0EF11C0E942A1FA0
:1040700007C0923049F422E0E20EF11C0E94B61E05
:104080003FEFE31AF30AE3CF933031F432E0E30E6B
:10409000F11C0E94811EF4CF943021F08FEFE81ABA
:1040A000F80AEECF92E0E90EF11C30E020E0B70113
:1040B0006F5F7F4FF70141818053990B8A309105E3
:1040C00050F021503109E0F28FE99FE00197F1F7BC
:1040D00000C00000F6CF329EF001339EF00D112497
:1040E0009C012E0F3F1F842F7B01E1CFE22FF0E0D8
:1040F000EA5EFD4F5490822F86958695869590E0D6
:10410000FC01EA5FFD4F64902770712C022E02C003
:10411000759467940A94E2F7E1E06E227724FC013B
:10412000EA50FE4FA490B12C022E02C0B594A79481
:104130000A94E2F7F1E0AF22BB24FC01EA51FE4F02
:10414000C490D12C02C0D594C7942A95E2F721E0FF
:10415000C222DD246114710419F081EE0E94B61EA2
:10416000A114B10419F086EE0E94B61E852D0E949E
:104170002A1FA114B10419F086EE0E94811E611459
:10418000710419F081EE0E94811EC114D10409F45A
:1041900077CF8CE26BCF81E00E94371B0E94E61A3A
:1041A00032CF81E00E94F21AF9CF82E0F5CF95EF8D
:1041B000E9169CE5F90609F46CC008F466C027E22C
:1041C00045EE66EEF6EFEF16FCE5FF0609F47DC45A
:1041D000882309F49CC410925E0A23E0E2162DE5C0
:1041E000F20608F05DC03AEFE3163CE5F30630F462
:1041F000C70182509C45449708F05FC00E94051299
:104200009093F6098093F509F2E1EF16FCE5FF06BD
:1042100009F478C108F0B6C039E0E3163CE5F306CE
:1042200009F44EC108F079C095E0E9169CE5F9065D
:1042300009F436C108F05FC0F3E0EF16FCE5FF06B5
:1042400009F426C108F028C18091F509816032E0A7
:10425000E3163CE5F30609F492C06091F509F0908D
:10426000F60984E090E00E9480336F2D82E290E0B6
:104270000E9480330E94481BC6CE27E245EE65EEC1
:1042800024C426E241EE60EE20C427E245EE64EE4F
:104290001CC426E241EE62EE18C428E241E0EFCFF2
:1042A00085EAE8168DE5F80609F4A8CFF0F4E1E612
:1042B000EE16EDE5FE0609F4A1CF96E1E9169CE5C0
:1042C000F90609F033C48091ED048A7A91E009F48B
:1042D00090E090936E0469E2811165E38EE494E0CE
:1042E0000E9464060E94EE138ECEC7018D5A9D4532
:1042F000039718F783CF87E0E8168CE5F80609F4F2
:10430000DBC08091F509806198E0E9169CE5F9062B
:10431000B0F18091F509806432C0EDE0EE16ECE575
:10432000FE0609F4D7C0A0F48091F5098E7F2BE03A
:10433000E2162CE5F20619F18091F5098C603CE05B
:10434000E3163CE5F306D8F08091F5098D7F17C0A0
:104350008FE0E8168CE5F80609F4CCC008F4BEC07E
:10436000E0E1EE16ECE5FE0609F4C8C08091F5091F
:104370008F7BF1E1EF16FCE5FF0609F06ECF80932D
:10438000F5096BCF2FEFE2162CE5F20609F4C4C055
:10439000D8F58AEFE8168CE5F80609F485C0D0F464
:1043A000E4E1EE16ECE5FE0609F4C4C008F4B0C082
:1043B00025E1E2162CE5F20609F04FCF8091F509D0
:1043C00082FB992790F921E0922790FB82F990FBDC
:1043D00083F9D5CF3CEFE3163CE5F30609F482C040
:1043E00008F466C09DEFE9169CE5F90609F47EC065
:1043F0008091F6098360EEEFEE16ECE5FE0609F01B
:104400002CCF8093F60929CFF1E6EF16FDE5FF06E4
:1044100009F49BC0A0F431E0E3163DE5F30609F48E
:1044200092C008F47DC060E092E0E9169DE5F906CF
:1044300009F013CF8EE090E00E9480330ECFEDEABA
:10444000EE16EDE5FE0601F168F49091F509892F6D
:104450008E7F90FF816025EAE2162DE5F20609F4D1
:104460008ECFFBCE3EEAE3163DE5F30679F18FEA07
:10447000E8168DE5F80609F0F0CE9091F609892F3F
:10448000877F93FF8860BDCF8091F6098860B9CFA0
:104490008091F509826073CF8091F50984606FCFB8
:1044A0008091F50988606BCF8091F6098160A9CF72
:1044B0008091F6098260A5CF8091F50980625FCF77
:1044C0000E94481B8091F509806859CF8091F609B8
:1044D000877F97CF8091F5098B7F51CF8091F50928
:1044E000877F4DCF8091F6098E7F8BCF8091F60923
:1044F0008D7F87CF8091F5098F7E41CF8091F5091F
:104500008F7D3DCF0E94481B8091F5098F7737CF73
:104510008091F509837F33CF8091F6098C7F71CF2D
:104520008091F609982F909591708E7F892B90FB42
:1045300081F967CF0E94481B9091F509892F97FB5D
:1045400087F980581CCF61E075CF9091F509892FCC
:104550008F7E94FF806113CF4BE657E066E777E0EC
:104560000E94D20650CD46E757E06BE677E0F8CFE1
:104570004CE357E067E477E0F3CF47E457E06CE3C0
:1045800077E0EECF40E257E06EE277E0E9CF4EE22F
:1045900057E060E277E0E4CF42E157E064E077E0A3
:1045A000DFCF48ED56E066EE76E0DACF46EE56E035
:1045B00068ED76E0D5CF61E081E00E94520723CD1F
:1045C00061E085E0FACF0E94481BEFEFF4E32CE0B6
:1045D000E150F0402040E1F700C000000E948E1042
:1045E0008091F60982FB882780F991E089270E9453
:1045F0001B1BF8018281E080F180882309F445C00B
:10460000C7010E948611D82E682FC7010E94B40FDF
:10461000B7018D2D0E9478110E94DC0D7C01882E3F
:10462000F801D280B580B2943FE0B3228091CB04F0
:104630008770C1F0AD2CDD20B1F08F2D807F8034EC
:1046400021F080E28E0D883068F08091F60982FFBB
:1046500009C082E00E94FF1A8091CB048770AA24CF
:10466000A3948111A12C9F2C92942FE09222FBE025
:10467000F91508F479C0E92DF0E0E853FA4C0C94F0
:10468000CA3281E0B4CF80E0B2CFC7010E94800F70
:10469000D82EBECF2F2D2F70C22E8F2D807F19F0D8
:1046A000C29490EFC922DD20B9F0CC2069F080E2FD
:1046B0008E0D883010F0811009C08091ED04C82A59
:1046C000C092ED040E94EE138E2D4CC08091EC043C
:1046D000C82AC092EC04F6CF8E2D0E94811ECC20F9
:1046E00009F442C080E28E0D883010F0811004C0C1
:1046F0008C2D0E946F0F06C0C0948091EC04C822DC
:10470000C092EC040E94EE132FC03F2D3F70C32EC9
:104710008F2D807F803219F0C29480EFC8228820CC
:1047200089F081E0881609F468C0DD2009F472C0C0
:10473000BB2009F468C0F801858180FFC5CF8F7068
:10474000858361C02091F60922FD35C0DD2069F125
:10475000CC2039F08091ED04C82AC092ED040E946B
:10476000EE1380E00E94B61E292D2850330B243012
:10477000310510F40E94C506AA2009F4F8CB8091F7
:10478000CB0480FDF4CBF801128285958595859543
:104790000E94371BC8010E94A51F8091CB048595FC
:1047A000859585950E94F21AE2CB80E00E94811ED9
:1047B000CC20D1F29DCFDD2099F09091EE048C2D8C
:1047C000892BB11003C00E944A14CECFE1E0BE1283
:1047D000FACF22FFC9CF981739F28093EE04C4CFE5
:1047E000B11006C00E94690F8C2D0E944314BCCFEB
:1047F000F1E0BF1609F4B8CFF5CFDD2031F025E0A8
:104800002B1508F4B1CF8C2DDECF34E03B1508F426
:10481000ABCFEACFBB2041F3F9E38F1209C02FEFF2
:1048200037EE83E0215030408040E1F700C00000C7
:104830008E2D0E94811E98CF8F2D86958695837030
:1048400061F0813009F090CFC7019370D11002C0A0
:1048500090E080E00E94990687CFC7019370D11045
:1048600002C090E080E00E94AF067ECF8E2DDD205A
:1048700029F00E94260D0E949E1A76CF0E946B0C92
:10488000FACF8F2D837091F5D1106ECF4E2D4295BA
:1048900046954770440F440F8E2D8F70042E01C033
:1048A000880F0A94EAF72E2D2071E4FE07C02FE04E
:1048B00030E001C0220F4A95EAF720953F2D36954A
:1048C00036953370323069F050F44091EF04313056
:1048D00029F0822B84230E94431B46CF842B822BFA
:1048E000FACF282B8091EF048227F5CF8695DD2023
:1048F00011F08F2D8170882309F436CF4E2D42950B
:1049000046954770440F440F8E2D8F70042E01C0C2
:10491000880F0A94EAF72E2D2071E4FE07C02FE0DD
:1049200030E001C0220F4A95EAF720953F2D3695D9
:1049300036953370323069F050F440915F0A31306F
:1049400029F0822B84230E94E11A0ECF842B822B24
:10495000FACF282B80915F0A8227F5CF9F2D9F7079
:10496000F92EDD2029F0892F0E94371B8E2D2BCFA9
:104970008E2D0E9443148F2D0E94F21AF5CE8E2D9B
:10498000E2EF8E16B1F1E81570F0F0EF8F16D1F06E
:1049900021EF821691F0DD2009F45EC0B11094CEB3
:1049A0008F2D8F712AC033EF831651F194EF891246
:1049B000F2CF8091F60982FD2FC08F2D8F71DD20FF
:1049C000D9F21BC0DD2081F0E4E0EB1508F4CCCE79
:1049D0002F2D2F7181E090E001C0880F2A95EAF712
:1049E00090915F0A8927AFCFF5E0FB1508F4BCCEA4
:1049F000EFCF8F2D8F71D110BFCF0E94371BB4CE58
:104A000080E0DD2009F49FCF9F2D9F7181E001C0E0
:104A1000880F9A95EAF797CFDD2099F02F2D2F7107
:104A2000F22E822F0E94371B8091F60982FF07C069
:104A300038E0F39EC001112483608093CB048F2D56
:104A4000DCCF81E00E94FF1A81E08B1508F08CCE4C
:104A500082E00E94FF1A88CEBB2059F0893309F00A
:104A6000E7CE9FEFE7EEF3E09150E040F040E1F752
:104A7000DDCE8F2D8F7180CFF0E1EF16FFE5FF06C1
:104A800009F489CB21E1E2162FE5F20609F48DCB7A
:104A900093EFE9169CE5F90609F4F3CB08F087CB10
:104AA000F8EDEF16FCE5FF0609F4E7CB29EDE21679
:104AB0002CE5F20609F4F1CB37EDE3163CE5F306FD
:104AC00009F086CB26E241EE61EEC8010E94481F44
:104AD0009ACA30E1E3163FE5F30609F462CB91E1AF
:104AE000E9169FE5F906A1F682E05CCB85E0DE01E0
:104AF000119601900D928A95E1F7F8012281898142
:104B00009A81211138CA0E94800FF82E3CCAF6E122
:104B1000EF16FCE5FF0671F580916E0469E28111E4
:104B200065E38EE494E00E943A06DCCB2AE5E216C7
:104B30002DE5F20609F4A5CD78F4E1148CE5F8062C
:104B400009F441CD9EEDE9169CE5F90609F051CD39
:104B50000E9460140E946B1EECE5EE16EDE5FE0669
:104B600009F43ECD08F48FCD27EAE2162DE5F206D2
:104B700089F33FCD8091ED0482723AECE3163CE577
:104B8000F30609F409CDE0F5E5ECEE16ECE5FE06DA
:104B900009F4EECCE0F423ECE2162CE5F20609F47D
:104BA000DBCC08F0E0CC82ECE8168CE5F80609F0E6
:104BB00020CD80912D0A91E0892780932D0A1092B3
:104BC0002502809129078160809329071CCA97ECF0
:104BD000E9169CE5F90609F4D5CC08F4CECCF8EC3E
:104BE000EF16FCE5FF0609F4D2CC44E057E062E1A1
:104BF00077E029ECE2162CE5F20609F4B1CCF9CC09
:104C00003FECE3163CE5F30609F4DACCB8F4ECEC3F
:104C1000EE16ECE5FE0609F4C9CC08F4C2CC2DEC86
:104C2000E2162CE5F20609F4C6CC61E082E03EEC27
:104C3000E3163CE5F30609F4C0CCDBCC86EDE816C0
:104C40008CE5F80648F461E08AE091EDE9169CE510
:104C5000F90608F4B2CCD7C9EDE5EE16FE0609F464
:104C6000D2C9C7CC1F93CF93DF9380919804807FE4
:104C700009F049C080919504882309F444C08091CB
:104C8000CA04D09199046091930470919404A09106
:104C90009604B0919704C62FC72316E0D81799F150
:104CA00090E0109711F0CF3F19F401968770F6CF7E
:104CB000189F9001199F300D1124F901E656FB4F02
:104CC00041814713F2CF40814613EFCF428141111A
:104CD000ECCF438154814A1B5B0B483C510528F7BC
:104CE000809198048F70806180939804F901E15657
:104CF000FB4F80818F708061808383E994E00E9404
:104D0000A51F0E94760FDF91CF911F910895A1E119
:104D1000B0E0EDE8F6E20C9487328C0185E0F80112
:104D2000DE011D9601900D928A95E1F7F801E2806F
:104D300083E9A82E84E0B82E6091960470919704C0
:104D40006115710509F426C1909193044091940472
:104D5000892F84238F3F09F41DC120813181C380B5
:104D6000D480F0909504F601E61BF70BFF2009F4C0
:104D7000DCC080919804582F507FE83CF10508F082
:104D80009FC051116BC0FE2C431314C0921312C06C
:104D9000E11010C08F70806180939804C5010E945B
:104DA000A51F80919804F80185838F2D6196EAE014
:104DB0000C94A332C114D10429F0822F83238F3F96
:104DC00009F003C180E0F82FF170DF2E80FF3CC0B6
:104DD0008091CA044091990456E0841315C02D8730
:104DE0003E878D859E850E94B511292F22952F70B3
:104DF0002230F0F0243018F59F70F1F0F801958121
:104E0000907FD1F4D12C1EC090E0589FF001599FA3
:104E1000F00D1124E656FB4F6181361306C0608108
:104E2000261303C06281E6120FC001968770D5CFAA
:104E30009F7011F0882331F3805E883018F3C80129
:104E40000E94A51FFD2CB1CFEE2009F4AECF8091BA
:104E50009804816080939804F12CA7CF431306C077
:104E6000921304C0F801EE2009F479C0C8010E9431
:104E7000C211882309F1EE20F9F080919804803264
:104E800070F0209193043091940438872F83198611
:104E9000DB86CA868C87CE0107960E94A51F86E016
:104EA000F801A3E9B4E001900D928A95E1F70E9420
:104EB0003226FF24F39479CFC8010E94A51FF9CFB1
:104EC00051110AC083E994E00E94A51F86E0F50114
:104ED00011928A95E9F7C0CF43130FC092130DC00A
:104EE000E1100BC0F8018583C8010E94A51F86E070
:104EF000F50111928A95E9F758CFC8010E94C211B5
:104F00008823D1F2EE20C1F280919804803238F2E9
:104F100020919304309194043A8329831B82DD828B
:104F2000CC828E83CE010196B8CFE83CF105F8F62D
:104F3000FE2CEE2009F243131FC092131DC0809176
:104F4000980480FD10C0982F907F69F0F801858348
:104F5000903F31F0982F907F905F8F70892B8583E1
:104F6000C8010E94A51F86E0F801A3E9B4E0019002
:104F70000D928A95E1F719CFC8010E94C2118111E3
:104F80008ECF80919804816080939804C8010E941C
:104F9000A51F0BCFEE2009F48FCFC8010E94C211CC
:104FA000F82E882309F488CF86E0F801A3E9B4E05D
:104FB00001900D928A95E1F7809193049091940469
:104FC0000E94B5110E943226F0CE81E08E25FBCEE4
:104FD000A7E1B0E0EEEEF7E20C948E324B8B5C8BE7
:104FE0006D8B7E8B8F8B61111092EC041A8A198A5B
:104FF00085E0FE017396DE011D9601900D928A9563
:10500000E1F786E0FE013D96DE01179601900D92D4
:105010008A95E1F7CE0107960E948726882359F0EA
:1050200016E08091CA0490919904891343C0679651
:10503000E3E00C94AA3286E0FE013796DE01119679
:1050400001900D928A95E1F78A859B85892B41F322
:105050008F81988589238F3F19F32091990430E03F
:10506000C9010196877099274091CA04481719060B
:1050700071F40E94481B109299041092CA0486E0B1
:10508000E3E9F4E0DF011D928A95E9F7C9CF96E0E4
:10509000929FD001939FB00D1124A656BB4FFE01E5
:1050A000319601900D929A95E1F7809399040E94B0
:1050B000760FB6CF819FC001112486569B4F0E9468
:1050C0008726882309F4B3CF8091CA0490E0019623
:1050D000877099278093CA04A4CFACE0B0E0E3E7DF
:1050E000F8E20C9485328E010F5F1F4F8CE0F801BF
:1050F00011928A95E9F794E9E92E92E0F92E680178
:10510000AA24A394B12CF70181917F018F3F09F468
:1051100046C0F894E82FE295EF70F0E021A18F707F
:10512000A50102C0440F551F8A95E2F7CA01922FCC
:10513000982B91A392A18095892382A3789400C093
:10514000EAE9F2E021E030E0912C812C41914F3FDF
:1051500009F467C0A42FA295AF70B0E090968C912F
:1051600090E04F7002C0959587954A95E2F780FDD3
:1051700058C0C901882A992A220F331F52E0E93A00
:10518000F50721F7F701319780818F3F11F00E94D9
:10519000820D80EA8A95F1F7F60191828082F2E031
:1051A000CF0ED11C4AE9E41642E0F40609F0ABCF79
:1051B0004CE050E0B80183EF94E00E943C33892B2F
:1051C00099F18CE0F801A3EFB4E001900D928A957B
:1051D000E1F781E08093F2040E94D7159093F104E7
:1051E0008093F0048091F0049091F1040E94C8151E
:1051F0000397F0F04CE050E063EF74E08FE095E04F
:105200000E943C33892BC9F08CE0E3EFF4E0AFE07F
:10521000B5E001900D928A95E1F781E01092F204D9
:1052200008C090E080E0A6CF8091F2048111DACF2F
:1052300080E02C96ECE00C94A13280E0EFCF1F923E
:105240001FB61F9211248F939F93AF93BF938091AA
:10525000F009811113C08091F1099091F209A09198
:10526000F309B091F4094196A11DB11D8093F10994
:105270009093F209A093F309B093F409BF91AF9111
:105280009F918F911F901FBE1F901895CDB7DEB7CD
:10529000C955D1090FB6F894DEBF0FBECDBF85B793
:1052A000806885BF85B7806885BF84B7877F84BFE6
:1052B0000FB6F894A8958091600088618093600093
:1052C000109260000FBE80E890E00FB6F8948093D3
:1052D0006100909361000FBE80E89DE090934D04C3
:1052E00080934C04279A2F9A0E947C040E94710597
:1052F0008091E20084608093E200789480911F0A9C
:105300008823A1F01091E9001F709091EC00892F83
:10531000817090FD80E8182B1092E9008091E800E0
:1053200083FD0E945E1B1F701093E90082E084BD24
:1053300093E095BD9AEF97BD80936E000E94EC11AB
:10534000811102C00E94391104E912E0D8018D9147
:105350008D018F3F11F00E94820DB2E00A391B07C8
:10536000A9F70AE912E0F80181918F018F3F11F04E
:105370000E94820DF2E0093A1F07A9F78CE0EFE0E6
:10538000F5E0DF01282F1D922A95E9F7E3EFF4E01D
:10539000DF011D928A95E9F70E945414811102C021
:1053A0000E94601482E090E00E94623380930105C5
:1053B0000E9405129093F6098093F5090E946D28CA
:1053C000EFEBFDE53197F1F700C000000E946D287A
:1053D00080910F0580FF08C06FEF7FEF90E080E0C5
:1053E0000E949E330E948E1083E090E00E94623300
:1053F0000E94431B0E94F3121092330A8FEF9FEF1B
:1054000090934D0A80934C0A90934F0A80934E0AD2
:105410009093510A8093500A9093530A8093520AB2
:105420009093550A8093540A9093570A8093560A92
:105430009093590A8093580A90935B0A80935A0A72
:10544000109288059093A2058093A1059093A405DE
:105450008093A3059093A6058093A5059093A80536
:105460008093A7059093AA058093A9059093AC0516
:105470008093AB059093AE058093AD059093B005F6
:105480008093AF050E945414811104C00E946014DF
:105490000E94DA1346E050E06CE170E08DE29AE0A1
:1054A0000E9452331092290780912D0A8C7F11F4AB
:1054B0000E94DA1384E091E09093ED098093EC0967
:1054C00080911F0A853069F480E4F82E00E112E132
:1054D00080911F0A853009F4DDC00E94481B0E949C
:1054E000C5060E946D2842E055E063965FAF4EAF5F
:1054F00063970FE0602E05E0702ED301FA01219131
:1055000031918D919D9155E0EE30F50709F4FEC083
:1055100028173907A1F3D12CC12C8FE095E06196B3
:105520009FAF8EAF6197F12C6196EEADFFAD6197A5
:10553000219031906196FFAFEEAF61976396AEAD6B
:10554000BFAD63978D919D916396BFAFAEAF6397EB
:105550008215930509F4C2C2FC01E225F325669683
:10556000FFAFEEAF66972F96DFAECEAE2F97E12C52
:1055700044244394512C66968EAD9FAD669784214A
:105580009521892B09F494C2420182209320279609
:10559000EFAE27972896FFAE289781E081149104FB
:1055A00009F480E029968FAF29970E94D715816072
:1055B000782F2B969FAF8EAF2B9727964FAD2797BF
:1055C00028965FAD289729966FAD29972B968FADBA
:1055D0002B970E94E8278114910451F02F96EEAD8D
:1055E000FFAD2F97E052FD4F80818F3F09F0E2C160
:1055F0002C961FAE2C972C962FAD2C97022F10E0D7
:1056000080918805800F912F911D099784F1F8E012
:10561000AF2EB12CA01AB10AB80167577A4FA50175
:1056200089E895E00E944933B8016F567A4FA50189
:1056300081E995E00E944933A501440F551FB80147
:10564000660F771F6F557A4F81EA95E00E944933C4
:10565000B80167567A4FA50189E995E00E94493360
:1056600088E02C963FAD2C97831B80938805809112
:10567000880590E06496EFAD6497AE2FB0E09D0191
:10568000220F331F265C3C4FAA0FBB1FBD01655C78
:105690007C4FAFC180911F0A843029F10E94E3152D
:1056A0001092F00928E130E00FB6F894A895209305
:1056B00060000FBEF092600083B7817F846083BF7B
:1056C00083B7816083BF7894889583B78E7F83BFCB
:1056D0000FB6F894A895809160008861809360006F
:1056E000109260000FBE80911E0A882309F4F0CE4C
:1056F0000E946D28EFE0F5E081919191892B09F0EE
:10570000EEC535E0EB31F307B9F7E2CE28173907DC
:1057100009F047C10E94D7158C018091FF04909138
:1057200000050817190721F18FEF22968FAF2297F6
:1057300023968FAF239724961FAE24970E94D715E8
:105740008160782F26969FAF8EAF269722964FAD19
:10575000229723965FAD239724966FAD24972696C4
:105760008FAD26970E94E827109300050093FF0451
:105770000E94E31586E0E2E8F5E0DE011196019073
:105780000D928A95E1F7109284051092850510928A
:105790008605109287058B819C81892B09F44AC06C
:1057A00080918005909181050E94C8159C0190917F
:1057B0007C05992309F4C9C525313105D8F19F3FEE
:1057C00019F09F5F90937C051B81112359F00E9473
:1057D000060D9FEF11160CF491E0899F802D112486
:1057E000809384051C81112359F00E94060D9FEFC0
:1057F00011160CF491E0899F802D1124809385056A
:10580000309184053323B1F020918505222391F056
:1058100045EB3403C0011124992309F4A8C19093E6
:10582000840555EB250390011124332309F4A3C10A
:10583000309385058D819E81892B09F44AC0809122
:105840007E0590917F050E94C8159C0190917B0573
:10585000992309F475C521353105D8F19F3F19F019
:105860009F5F90937B051D81112359F00E94E40CEA
:105870009FEF11160CF491E0899F802D11248093E5
:1058800086051E81112359F00E94E40C9FEF11162A
:105890000CF491E0899F802D11248093870530912D
:1058A00086053323B1F020918705222391F045EB43
:1058B0003403C0011124992309F461C19093860532
:1058C00055EB250390011124332309F45CC1309377
:1058D000870546E050E0BE016F5F7F4F82E895E0AC
:1058E0000E943C33892B61F4809184059091850559
:1058F000892B90918605892B90918705892B11F032
:105900000E949E1A86E0FE013196A2E8B5E0019061
:105910000D928A95E1F70E94C50690910E058917B0
:1059200021F080930E050E942E0680911F0A84307C
:1059300009F42DC180911F0A843009F0C1CD85E0A2
:105940008093E9008091E80082FFBACD8091E80061
:1059500090E085FF09C050E040E060E470E0CE01D7
:1059600001960E94F60491E08091E8008B77809385
:10597000E800992309F4A4CDE981EE2309F4A0CD30
:10598000EA3008F4B9C28FED8E0F883008F098CD58
:10599000E252E73008F031C4F0E0EC52FA4C0C94DB
:1059A000CA32D12CC12CAFE0B5E06196BFAFAEAF2B
:1059B0006197B9CD64968FAF6497F1E02C96FFAFF5
:1059C0002C9719CE90E0FC01E857FA4FD9015C9171
:1059D0005183DB015C9151876496BFAD6497B18BB5
:1059E000880F991FFC01E857FA4F128E118E91E033
:1059F000842F41E0480F2C96FFAD2C979F1710F392
:105A000080938805892809F453C080912D0A8C7FE2
:105A10008C3309F04DC02F96EEADFFAD2F97E052BD
:105A2000FD4F80818F3F09F443C0B12CA12C812C04
:105A300090E09C01220F331FA901465C5C4F6896E1
:105A40005FAF4EAF6897D901A55CBC4F6A96BFAFF8
:105A5000AEAF6A972F96EEADFFAD2F97E654FA4F93
:105A60002D96FFAFEEAF2D978501912CF801E052F6
:105A7000FD4F80818F3F71F08F103AC09E1038C06B
:105A80002D96AEADBFAD2D972C9130E2230F08F4CB
:105A90002FEF2C9393940F5F1F4F4FE09412E6CF9C
:105AA00083945FE0A50EB11C8AE5A816B104E1F667
:105AB000E394440C551C2F96AEADBFAD2F971196B5
:105AC0002F96BFAFAEAF2F97BFE0EB1254CD6396CA
:105AD000EEADFFAD6397329731822082F394EFE011
